{
	"contracts/ComplicatedBank.sol": {
		"ComplicatedBank": {
			"abi": [
				{
					"inputs": [],
					"stateMutability": "nonpayable",
					"type": "constructor"
				},
				{
					"inputs": [
						{
							"internalType": "address",
							"name": "_address",
							"type": "address"
						}
					],
					"name": "calculateInterest",
					"outputs": [
						{
							"internalType": "uint256",
							"name": "",
							"type": "uint256"
						}
					],
					"stateMutability": "view",
					"type": "function"
				},
				{
					"inputs": [],
					"name": "deposit",
					"outputs": [],
					"stateMutability": "payable",
					"type": "function"
				},
				{
					"inputs": [],
					"name": "getBalances",
					"outputs": [
						{
							"internalType": "uint256",
							"name": "",
							"type": "uint256"
						}
					],
					"stateMutability": "view",
					"type": "function"
				},
				{
					"inputs": [],
					"name": "getSystemBalance",
					"outputs": [
						{
							"internalType": "uint256",
							"name": "",
							"type": "uint256"
						}
					],
					"stateMutability": "view",
					"type": "function"
				},
				{
					"inputs": [],
					"name": "owner",
					"outputs": [
						{
							"internalType": "address",
							"name": "",
							"type": "address"
						}
					],
					"stateMutability": "view",
					"type": "function"
				},
				{
					"inputs": [
						{
							"internalType": "uint256",
							"name": "money",
							"type": "uint256"
						}
					],
					"name": "withdraw",
					"outputs": [],
					"stateMutability": "nonpayable",
					"type": "function"
				}
			],
			"devdoc": {
				"kind": "dev",
				"methods": {},
				"version": 1
			},
			"evm": {
				"assembly": "    /* \"contracts/ComplicatedBank.sol\":61:2977  contract ComplicatedBank {... */\n  mstore(0x40, 0x80)\n    /* \"contracts/ComplicatedBank.sol\":174:175  3 */\n  0x03\n    /* \"contracts/ComplicatedBank.sol\":162:175  uint rate = 3 */\n  0x02\n  sstore\n    /* \"contracts/ComplicatedBank.sol\":211:262  constructor() {... */\n  callvalue\n  dup1\n  iszero\n  tag_1\n  jumpi\n  0x00\n  dup1\n  revert\ntag_1:\n  pop\n    /* \"contracts/ComplicatedBank.sol\":244:254  msg.sender */\n  caller\n    /* \"contracts/ComplicatedBank.sol\":236:241  owner */\n  0x03\n  0x00\n    /* \"contracts/ComplicatedBank.sol\":236:254  owner = msg.sender */\n  0x0100\n  exp\n  dup2\n  sload\n  dup2\n  0xffffffffffffffffffffffffffffffffffffffff\n  mul\n  not\n  and\n  swap1\n  dup4\n  0xffffffffffffffffffffffffffffffffffffffff\n  and\n  mul\n  or\n  swap1\n  sstore\n  pop\n    /* \"contracts/ComplicatedBank.sol\":61:2977  contract ComplicatedBank {... */\n  dataSize(sub_0)\n  dup1\n  dataOffset(sub_0)\n  0x00\n  codecopy\n  0x00\n  return\nstop\n\nsub_0: assembly {\n        /* \"contracts/ComplicatedBank.sol\":61:2977  contract ComplicatedBank {... */\n      mstore(0x40, 0x80)\n      jumpi(tag_1, lt(calldatasize, 0x04))\n      shr(0xe0, calldataload(0x00))\n      dup1\n      0x113e08\n      eq\n      tag_2\n      jumpi\n      dup1\n      0x21f4ae14\n      eq\n      tag_3\n      jumpi\n      dup1\n      0x2e1a7d4d\n      eq\n      tag_4\n      jumpi\n      dup1\n      0x8da5cb5b\n      eq\n      tag_5\n      jumpi\n      dup1\n      0xd0e30db0\n      eq\n      tag_6\n      jumpi\n      dup1\n      0xe11932cf\n      eq\n      tag_7\n      jumpi\n    tag_1:\n      0x00\n      dup1\n      revert\n        /* \"contracts/ComplicatedBank.sol\":381:480  function getBalances() public view returns (uint256) {... */\n    tag_2:\n      callvalue\n      dup1\n      iszero\n      tag_8\n      jumpi\n      0x00\n      dup1\n      revert\n    tag_8:\n      pop\n      tag_9\n      tag_10\n      jump\t// in\n    tag_9:\n      mload(0x40)\n      tag_11\n      swap2\n      swap1\n      tag_12\n      jump\t// in\n    tag_11:\n      mload(0x40)\n      dup1\n      swap2\n      sub\n      swap1\n      return\n        /* \"contracts/ComplicatedBank.sol\":1620:1802  function getSystemBalance() public onlyOwner view returns (uint256) {... */\n    tag_3:\n      callvalue\n      dup1\n      iszero\n      tag_13\n      jumpi\n      0x00\n      dup1\n      revert\n    tag_13:\n      pop\n      tag_14\n      tag_15\n      jump\t// in\n    tag_14:\n      mload(0x40)\n      tag_16\n      swap2\n      swap1\n      tag_12\n      jump\t// in\n    tag_16:\n      mload(0x40)\n      dup1\n      swap2\n      sub\n      swap1\n      return\n        /* \"contracts/ComplicatedBank.sol\":580:1065  function withdraw (uint256 money) public {... */\n    tag_4:\n      callvalue\n      dup1\n      iszero\n      tag_17\n      jumpi\n      0x00\n      dup1\n      revert\n    tag_17:\n      pop\n      tag_18\n      0x04\n      dup1\n      calldatasize\n      sub\n      dup2\n      add\n      swap1\n      tag_19\n      swap2\n      swap1\n      tag_20\n      jump\t// in\n    tag_19:\n      tag_21\n      jump\t// in\n    tag_18:\n      stop\n        /* \"contracts/ComplicatedBank.sol\":182:202  address public owner */\n    tag_5:\n      callvalue\n      dup1\n      iszero\n      tag_22\n      jumpi\n      0x00\n      dup1\n      revert\n    tag_22:\n      pop\n      tag_23\n      tag_24\n      jump\t// in\n    tag_23:\n      mload(0x40)\n      tag_25\n      swap2\n      swap1\n      tag_26\n      jump\t// in\n    tag_25:\n      mload(0x40)\n      dup1\n      swap2\n      sub\n      swap1\n      return\n        /* \"contracts/ComplicatedBank.sol\":486:572  function deposit() public payable {... */\n    tag_6:\n      tag_27\n      tag_28\n      jump\t// in\n    tag_27:\n      stop\n        /* \"contracts/ComplicatedBank.sol\":2796:2974  function calculateInterest(address _address) public onlyOwner view returns (uint256) {... */\n    tag_7:\n      callvalue\n      dup1\n      iszero\n      tag_29\n      jumpi\n      0x00\n      dup1\n      revert\n    tag_29:\n      pop\n      tag_30\n      0x04\n      dup1\n      calldatasize\n      sub\n      dup2\n      add\n      swap1\n      tag_31\n      swap2\n      swap1\n      tag_32\n      jump\t// in\n    tag_31:\n      tag_33\n      jump\t// in\n    tag_30:\n      mload(0x40)\n      tag_34\n      swap2\n      swap1\n      tag_12\n      jump\t// in\n    tag_34:\n      mload(0x40)\n      dup1\n      swap2\n      sub\n      swap1\n      return\n        /* \"contracts/ComplicatedBank.sol\":381:480  function getBalances() public view returns (uint256) {... */\n    tag_10:\n        /* \"contracts/ComplicatedBank.sol\":425:432  uint256 */\n      0x00\n        /* \"contracts/ComplicatedBank.sol\":452:460  balances */\n      dup1\n        /* \"contracts/ComplicatedBank.sol\":452:472  balances[msg.sender] */\n      0x00\n        /* \"contracts/ComplicatedBank.sol\":461:471  msg.sender */\n      caller\n        /* \"contracts/ComplicatedBank.sol\":452:472  balances[msg.sender] */\n      0xffffffffffffffffffffffffffffffffffffffff\n      and\n      0xffffffffffffffffffffffffffffffffffffffff\n      and\n      dup2\n      mstore\n      0x20\n      add\n      swap1\n      dup2\n      mstore\n      0x20\n      add\n      0x00\n      keccak256\n      sload\n        /* \"contracts/ComplicatedBank.sol\":445:472  return balances[msg.sender] */\n      swap1\n      pop\n        /* \"contracts/ComplicatedBank.sol\":381:480  function getBalances() public view returns (uint256) {... */\n      swap1\n      jump\t// out\n        /* \"contracts/ComplicatedBank.sol\":1620:1802  function getSystemBalance() public onlyOwner view returns (uint256) {... */\n    tag_15:\n        /* \"contracts/ComplicatedBank.sol\":1679:1686  uint256 */\n      0x00\n        /* \"contracts/ComplicatedBank.sol\":321:326  owner */\n      0x03\n      0x00\n      swap1\n      sload\n      swap1\n      0x0100\n      exp\n      swap1\n      div\n      0xffffffffffffffffffffffffffffffffffffffff\n      and\n        /* \"contracts/ComplicatedBank.sol\":307:326  msg.sender == owner */\n      0xffffffffffffffffffffffffffffffffffffffff\n      and\n        /* \"contracts/ComplicatedBank.sol\":307:317  msg.sender */\n      caller\n        /* \"contracts/ComplicatedBank.sol\":307:326  msg.sender == owner */\n      0xffffffffffffffffffffffffffffffffffffffff\n      and\n      eq\n        /* \"contracts/ComplicatedBank.sol\":299:353  require(msg.sender == owner, \"Only owner can do this\") */\n      tag_37\n      jumpi\n      mload(0x40)\n      0x08c379a000000000000000000000000000000000000000000000000000000000\n      dup2\n      mstore\n      0x04\n      add\n      tag_38\n      swap1\n      tag_39\n      jump\t// in\n    tag_38:\n      mload(0x40)\n      dup1\n      swap2\n      sub\n      swap1\n      revert\n    tag_37:\n        /* \"contracts/ComplicatedBank.sol\":1773:1794  address(this).balance */\n      selfbalance\n        /* \"contracts/ComplicatedBank.sol\":1766:1794  return address(this).balance */\n      swap1\n      pop\n        /* \"contracts/ComplicatedBank.sol\":1620:1802  function getSystemBalance() public onlyOwner view returns (uint256) {... */\n      swap1\n      jump\t// out\n        /* \"contracts/ComplicatedBank.sol\":580:1065  function withdraw (uint256 money) public {... */\n    tag_21:\n        /* \"contracts/ComplicatedBank.sol\":832:837  money */\n      dup1\n        /* \"contracts/ComplicatedBank.sol\":808:816  balances */\n      0x00\n        /* \"contracts/ComplicatedBank.sol\":808:828  balances[msg.sender] */\n      dup1\n        /* \"contracts/ComplicatedBank.sol\":817:827  msg.sender */\n      caller\n        /* \"contracts/ComplicatedBank.sol\":808:828  balances[msg.sender] */\n      0xffffffffffffffffffffffffffffffffffffffff\n      and\n      0xffffffffffffffffffffffffffffffffffffffff\n      and\n      dup2\n      mstore\n      0x20\n      add\n      swap1\n      dup2\n      mstore\n      0x20\n      add\n      0x00\n      keccak256\n      sload\n        /* \"contracts/ComplicatedBank.sol\":808:837  balances[msg.sender] >= money */\n      lt\n      iszero\n        /* \"contracts/ComplicatedBank.sol\":800:860  require(balances[msg.sender] >= money, \"Insufficient funds\") */\n      tag_42\n      jumpi\n      mload(0x40)\n      0x08c379a000000000000000000000000000000000000000000000000000000000\n      dup2\n      mstore\n      0x04\n      add\n      tag_43\n      swap1\n      tag_44\n      jump\t// in\n    tag_43:\n      mload(0x40)\n      dup1\n      swap2\n      sub\n      swap1\n      revert\n    tag_42:\n        /* \"contracts/ComplicatedBank.sol\":895:900  money */\n      dup1\n        /* \"contracts/ComplicatedBank.sol\":871:879  balances */\n      0x00\n        /* \"contracts/ComplicatedBank.sol\":871:891  balances[msg.sender] */\n      dup1\n        /* \"contracts/ComplicatedBank.sol\":880:890  msg.sender */\n      caller\n        /* \"contracts/ComplicatedBank.sol\":871:891  balances[msg.sender] */\n      0xffffffffffffffffffffffffffffffffffffffff\n      and\n      0xffffffffffffffffffffffffffffffffffffffff\n      and\n      dup2\n      mstore\n      0x20\n      add\n      swap1\n      dup2\n      mstore\n      0x20\n      add\n      0x00\n      keccak256\n      0x00\n        /* \"contracts/ComplicatedBank.sol\":871:900  balances[msg.sender] -= money */\n      dup3\n      dup3\n      sload\n      tag_45\n      swap2\n      swap1\n      tag_46\n      jump\t// in\n    tag_45:\n      swap3\n      pop\n      pop\n      dup2\n      swap1\n      sstore\n      pop\n        /* \"contracts/ComplicatedBank.sol\":912:924  bool success */\n      0x00\n        /* \"contracts/ComplicatedBank.sol\":930:940  msg.sender */\n      caller\n        /* \"contracts/ComplicatedBank.sol\":930:945  msg.sender.call */\n      0xffffffffffffffffffffffffffffffffffffffff\n      and\n        /* \"contracts/ComplicatedBank.sol\":953:958  money */\n      dup3\n        /* \"contracts/ComplicatedBank.sol\":930:963  msg.sender.call{value: money}(\"\") */\n      mload(0x40)\n      tag_47\n      swap1\n      tag_48\n      jump\t// in\n    tag_47:\n      0x00\n      mload(0x40)\n      dup1\n      dup4\n      sub\n      dup2\n      dup6\n      dup8\n      gas\n      call\n      swap3\n      pop\n      pop\n      pop\n      returndatasize\n      dup1\n      0x00\n      dup2\n      eq\n      tag_51\n      jumpi\n      mload(0x40)\n      swap2\n      pop\n      and(add(returndatasize, 0x3f), not(0x1f))\n      dup3\n      add\n      0x40\n      mstore\n      returndatasize\n      dup3\n      mstore\n      returndatasize\n      0x00\n      0x20\n      dup5\n      add\n      returndatacopy\n      jump(tag_50)\n    tag_51:\n      0x60\n      swap2\n      pop\n    tag_50:\n      pop\n        /* \"contracts/ComplicatedBank.sol\":911:963  (bool success, ) = msg.sender.call{value: money}(\"\") */\n      pop\n      swap1\n      pop\n        /* \"contracts/ComplicatedBank.sol\":1028:1035  success */\n      dup1\n        /* \"contracts/ComplicatedBank.sol\":1020:1057  require(success, \"withdraw failed!!\") */\n      tag_52\n      jumpi\n      mload(0x40)\n      0x08c379a000000000000000000000000000000000000000000000000000000000\n      dup2\n      mstore\n      0x04\n      add\n      tag_53\n      swap1\n      tag_54\n      jump\t// in\n    tag_53:\n      mload(0x40)\n      dup1\n      swap2\n      sub\n      swap1\n      revert\n    tag_52:\n        /* \"contracts/ComplicatedBank.sol\":621:1065  {... */\n      pop\n        /* \"contracts/ComplicatedBank.sol\":580:1065  function withdraw (uint256 money) public {... */\n      pop\n      jump\t// out\n        /* \"contracts/ComplicatedBank.sol\":182:202  address public owner */\n    tag_24:\n      0x03\n      0x00\n      swap1\n      sload\n      swap1\n      0x0100\n      exp\n      swap1\n      div\n      0xffffffffffffffffffffffffffffffffffffffff\n      and\n      dup2\n      jump\t// out\n        /* \"contracts/ComplicatedBank.sol\":486:572  function deposit() public payable {... */\n    tag_28:\n        /* \"contracts/ComplicatedBank.sol\":555:564  msg.value */\n      callvalue\n        /* \"contracts/ComplicatedBank.sol\":531:539  balances */\n      0x00\n        /* \"contracts/ComplicatedBank.sol\":531:551  balances[msg.sender] */\n      dup1\n        /* \"contracts/ComplicatedBank.sol\":540:550  msg.sender */\n      caller\n        /* \"contracts/ComplicatedBank.sol\":531:551  balances[msg.sender] */\n      0xffffffffffffffffffffffffffffffffffffffff\n      and\n      0xffffffffffffffffffffffffffffffffffffffff\n      and\n      dup2\n      mstore\n      0x20\n      add\n      swap1\n      dup2\n      mstore\n      0x20\n      add\n      0x00\n      keccak256\n      0x00\n        /* \"contracts/ComplicatedBank.sol\":531:564  balances[msg.sender] += msg.value */\n      dup3\n      dup3\n      sload\n      tag_56\n      swap2\n      swap1\n      tag_57\n      jump\t// in\n    tag_56:\n      swap3\n      pop\n      pop\n      dup2\n      swap1\n      sstore\n      pop\n        /* \"contracts/ComplicatedBank.sol\":486:572  function deposit() public payable {... */\n      jump\t// out\n        /* \"contracts/ComplicatedBank.sol\":2796:2974  function calculateInterest(address _address) public onlyOwner view returns (uint256) {... */\n    tag_33:\n        /* \"contracts/ComplicatedBank.sol\":2872:2879  uint256 */\n      0x00\n        /* \"contracts/ComplicatedBank.sol\":321:326  owner */\n      0x03\n      0x00\n      swap1\n      sload\n      swap1\n      0x0100\n      exp\n      swap1\n      div\n      0xffffffffffffffffffffffffffffffffffffffff\n      and\n        /* \"contracts/ComplicatedBank.sol\":307:326  msg.sender == owner */\n      0xffffffffffffffffffffffffffffffffffffffff\n      and\n        /* \"contracts/ComplicatedBank.sol\":307:317  msg.sender */\n      caller\n        /* \"contracts/ComplicatedBank.sol\":307:326  msg.sender == owner */\n      0xffffffffffffffffffffffffffffffffffffffff\n      and\n      eq\n        /* \"contracts/ComplicatedBank.sol\":299:353  require(msg.sender == owner, \"Only owner can do this\") */\n      tag_59\n      jumpi\n      mload(0x40)\n      0x08c379a000000000000000000000000000000000000000000000000000000000\n      dup2\n      mstore\n      0x04\n      add\n      tag_60\n      swap1\n      tag_39\n      jump\t// in\n    tag_60:\n      mload(0x40)\n      dup1\n      swap2\n      sub\n      swap1\n      revert\n    tag_59:\n        /* \"contracts/ComplicatedBank.sol\":2892:2908  uint256 interest */\n      0x00\n        /* \"contracts/ComplicatedBank.sol\":2937:2940  100 */\n      0x64\n        /* \"contracts/ComplicatedBank.sol\":2932:2936  rate */\n      sload(0x02)\n        /* \"contracts/ComplicatedBank.sol\":2911:2919  balances */\n      0x00\n        /* \"contracts/ComplicatedBank.sol\":2911:2929  balances[_address] */\n      dup1\n        /* \"contracts/ComplicatedBank.sol\":2920:2928  _address */\n      dup7\n        /* \"contracts/ComplicatedBank.sol\":2911:2929  balances[_address] */\n      0xffffffffffffffffffffffffffffffffffffffff\n      and\n      0xffffffffffffffffffffffffffffffffffffffff\n      and\n      dup2\n      mstore\n      0x20\n      add\n      swap1\n      dup2\n      mstore\n      0x20\n      add\n      0x00\n      keccak256\n      sload\n        /* \"contracts/ComplicatedBank.sol\":2911:2936  balances[_address] * rate */\n      tag_62\n      swap2\n      swap1\n      tag_63\n      jump\t// in\n    tag_62:\n        /* \"contracts/ComplicatedBank.sol\":2911:2940  balances[_address] * rate/100 */\n      tag_64\n      swap2\n      swap1\n      tag_65\n      jump\t// in\n    tag_64:\n        /* \"contracts/ComplicatedBank.sol\":2892:2940  uint256 interest = balances[_address] * rate/100 */\n      swap1\n      pop\n        /* \"contracts/ComplicatedBank.sol\":2958:2966  interest */\n      dup1\n        /* \"contracts/ComplicatedBank.sol\":2951:2966  return interest */\n      swap2\n      pop\n      pop\n        /* \"contracts/ComplicatedBank.sol\":2796:2974  function calculateInterest(address _address) public onlyOwner view returns (uint256) {... */\n      swap2\n      swap1\n      pop\n      jump\t// out\n        /* \"#utility.yul\":7:84   */\n    tag_66:\n        /* \"#utility.yul\":44:51   */\n      0x00\n        /* \"#utility.yul\":73:78   */\n      dup2\n        /* \"#utility.yul\":62:78   */\n      swap1\n      pop\n        /* \"#utility.yul\":7:84   */\n      swap2\n      swap1\n      pop\n      jump\t// out\n        /* \"#utility.yul\":90:208   */\n    tag_67:\n        /* \"#utility.yul\":177:201   */\n      tag_93\n        /* \"#utility.yul\":195:200   */\n      dup2\n        /* \"#utility.yul\":177:201   */\n      tag_66\n      jump\t// in\n    tag_93:\n        /* \"#utility.yul\":172:175   */\n      dup3\n        /* \"#utility.yul\":165:202   */\n      mstore\n        /* \"#utility.yul\":90:208   */\n      pop\n      pop\n      jump\t// out\n        /* \"#utility.yul\":214:436   */\n    tag_12:\n        /* \"#utility.yul\":307:311   */\n      0x00\n        /* \"#utility.yul\":345:347   */\n      0x20\n        /* \"#utility.yul\":334:343   */\n      dup3\n        /* \"#utility.yul\":330:348   */\n      add\n        /* \"#utility.yul\":322:348   */\n      swap1\n      pop\n        /* \"#utility.yul\":358:429   */\n      tag_95\n        /* \"#utility.yul\":426:427   */\n      0x00\n        /* \"#utility.yul\":415:424   */\n      dup4\n        /* \"#utility.yul\":411:428   */\n      add\n        /* \"#utility.yul\":402:408   */\n      dup5\n        /* \"#utility.yul\":358:429   */\n      tag_67\n      jump\t// in\n    tag_95:\n        /* \"#utility.yul\":214:436   */\n      swap3\n      swap2\n      pop\n      pop\n      jump\t// out\n        /* \"#utility.yul\":523:640   */\n    tag_69:\n        /* \"#utility.yul\":632:633   */\n      0x00\n        /* \"#utility.yul\":629:630   */\n      dup1\n        /* \"#utility.yul\":622:634   */\n      revert\n        /* \"#utility.yul\":769:891   */\n    tag_71:\n        /* \"#utility.yul\":842:866   */\n      tag_100\n        /* \"#utility.yul\":860:865   */\n      dup2\n        /* \"#utility.yul\":842:866   */\n      tag_66\n      jump\t// in\n    tag_100:\n        /* \"#utility.yul\":835:840   */\n      dup2\n        /* \"#utility.yul\":832:867   */\n      eq\n        /* \"#utility.yul\":822:885   */\n      tag_101\n      jumpi\n        /* \"#utility.yul\":881:882   */\n      0x00\n        /* \"#utility.yul\":878:879   */\n      dup1\n        /* \"#utility.yul\":871:883   */\n      revert\n        /* \"#utility.yul\":822:885   */\n    tag_101:\n        /* \"#utility.yul\":769:891   */\n      pop\n      jump\t// out\n        /* \"#utility.yul\":897:1036   */\n    tag_72:\n        /* \"#utility.yul\":943:948   */\n      0x00\n        /* \"#utility.yul\":981:987   */\n      dup2\n        /* \"#utility.yul\":968:988   */\n      calldataload\n        /* \"#utility.yul\":959:988   */\n      swap1\n      pop\n        /* \"#utility.yul\":997:1030   */\n      tag_103\n        /* \"#utility.yul\":1024:1029   */\n      dup2\n        /* \"#utility.yul\":997:1030   */\n      tag_71\n      jump\t// in\n    tag_103:\n        /* \"#utility.yul\":897:1036   */\n      swap3\n      swap2\n      pop\n      pop\n      jump\t// out\n        /* \"#utility.yul\":1042:1371   */\n    tag_20:\n        /* \"#utility.yul\":1101:1107   */\n      0x00\n        /* \"#utility.yul\":1150:1152   */\n      0x20\n        /* \"#utility.yul\":1138:1147   */\n      dup3\n        /* \"#utility.yul\":1129:1136   */\n      dup5\n        /* \"#utility.yul\":1125:1148   */\n      sub\n        /* \"#utility.yul\":1121:1153   */\n      slt\n        /* \"#utility.yul\":1118:1237   */\n      iszero\n      tag_105\n      jumpi\n        /* \"#utility.yul\":1156:1235   */\n      tag_106\n      tag_69\n      jump\t// in\n    tag_106:\n        /* \"#utility.yul\":1118:1237   */\n    tag_105:\n        /* \"#utility.yul\":1276:1277   */\n      0x00\n        /* \"#utility.yul\":1301:1354   */\n      tag_107\n        /* \"#utility.yul\":1346:1353   */\n      dup5\n        /* \"#utility.yul\":1337:1343   */\n      dup3\n        /* \"#utility.yul\":1326:1335   */\n      dup6\n        /* \"#utility.yul\":1322:1344   */\n      add\n        /* \"#utility.yul\":1301:1354   */\n      tag_72\n      jump\t// in\n    tag_107:\n        /* \"#utility.yul\":1291:1354   */\n      swap2\n      pop\n        /* \"#utility.yul\":1247:1364   */\n      pop\n        /* \"#utility.yul\":1042:1371   */\n      swap3\n      swap2\n      pop\n      pop\n      jump\t// out\n        /* \"#utility.yul\":1377:1503   */\n    tag_73:\n        /* \"#utility.yul\":1414:1421   */\n      0x00\n        /* \"#utility.yul\":1454:1496   */\n      0xffffffffffffffffffffffffffffffffffffffff\n        /* \"#utility.yul\":1447:1452   */\n      dup3\n        /* \"#utility.yul\":1443:1497   */\n      and\n        /* \"#utility.yul\":1432:1497   */\n      swap1\n      pop\n        /* \"#utility.yul\":1377:1503   */\n      swap2\n      swap1\n      pop\n      jump\t// out\n        /* \"#utility.yul\":1509:1605   */\n    tag_74:\n        /* \"#utility.yul\":1546:1553   */\n      0x00\n        /* \"#utility.yul\":1575:1599   */\n      tag_110\n        /* \"#utility.yul\":1593:1598   */\n      dup3\n        /* \"#utility.yul\":1575:1599   */\n      tag_73\n      jump\t// in\n    tag_110:\n        /* \"#utility.yul\":1564:1599   */\n      swap1\n      pop\n        /* \"#utility.yul\":1509:1605   */\n      swap2\n      swap1\n      pop\n      jump\t// out\n        /* \"#utility.yul\":1611:1729   */\n    tag_75:\n        /* \"#utility.yul\":1698:1722   */\n      tag_112\n        /* \"#utility.yul\":1716:1721   */\n      dup2\n        /* \"#utility.yul\":1698:1722   */\n      tag_74\n      jump\t// in\n    tag_112:\n        /* \"#utility.yul\":1693:1696   */\n      dup3\n        /* \"#utility.yul\":1686:1723   */\n      mstore\n        /* \"#utility.yul\":1611:1729   */\n      pop\n      pop\n      jump\t// out\n        /* \"#utility.yul\":1735:1957   */\n    tag_26:\n        /* \"#utility.yul\":1828:1832   */\n      0x00\n        /* \"#utility.yul\":1866:1868   */\n      0x20\n        /* \"#utility.yul\":1855:1864   */\n      dup3\n        /* \"#utility.yul\":1851:1869   */\n      add\n        /* \"#utility.yul\":1843:1869   */\n      swap1\n      pop\n        /* \"#utility.yul\":1879:1950   */\n      tag_114\n        /* \"#utility.yul\":1947:1948   */\n      0x00\n        /* \"#utility.yul\":1936:1945   */\n      dup4\n        /* \"#utility.yul\":1932:1949   */\n      add\n        /* \"#utility.yul\":1923:1929   */\n      dup5\n        /* \"#utility.yul\":1879:1950   */\n      tag_75\n      jump\t// in\n    tag_114:\n        /* \"#utility.yul\":1735:1957   */\n      swap3\n      swap2\n      pop\n      pop\n      jump\t// out\n        /* \"#utility.yul\":1963:2085   */\n    tag_76:\n        /* \"#utility.yul\":2036:2060   */\n      tag_116\n        /* \"#utility.yul\":2054:2059   */\n      dup2\n        /* \"#utility.yul\":2036:2060   */\n      tag_74\n      jump\t// in\n    tag_116:\n        /* \"#utility.yul\":2029:2034   */\n      dup2\n        /* \"#utility.yul\":2026:2061   */\n      eq\n        /* \"#utility.yul\":2016:2079   */\n      tag_117\n      jumpi\n        /* \"#utility.yul\":2075:2076   */\n      0x00\n        /* \"#utility.yul\":2072:2073   */\n      dup1\n        /* \"#utility.yul\":2065:2077   */\n      revert\n        /* \"#utility.yul\":2016:2079   */\n    tag_117:\n        /* \"#utility.yul\":1963:2085   */\n      pop\n      jump\t// out\n        /* \"#utility.yul\":2091:2230   */\n    tag_77:\n        /* \"#utility.yul\":2137:2142   */\n      0x00\n        /* \"#utility.yul\":2175:2181   */\n      dup2\n        /* \"#utility.yul\":2162:2182   */\n      calldataload\n        /* \"#utility.yul\":2153:2182   */\n      swap1\n      pop\n        /* \"#utility.yul\":2191:2224   */\n      tag_119\n        /* \"#utility.yul\":2218:2223   */\n      dup2\n        /* \"#utility.yul\":2191:2224   */\n      tag_76\n      jump\t// in\n    tag_119:\n        /* \"#utility.yul\":2091:2230   */\n      swap3\n      swap2\n      pop\n      pop\n      jump\t// out\n        /* \"#utility.yul\":2236:2565   */\n    tag_32:\n        /* \"#utility.yul\":2295:2301   */\n      0x00\n        /* \"#utility.yul\":2344:2346   */\n      0x20\n        /* \"#utility.yul\":2332:2341   */\n      dup3\n        /* \"#utility.yul\":2323:2330   */\n      dup5\n        /* \"#utility.yul\":2319:2342   */\n      sub\n        /* \"#utility.yul\":2315:2347   */\n      slt\n        /* \"#utility.yul\":2312:2431   */\n      iszero\n      tag_121\n      jumpi\n        /* \"#utility.yul\":2350:2429   */\n      tag_122\n      tag_69\n      jump\t// in\n    tag_122:\n        /* \"#utility.yul\":2312:2431   */\n    tag_121:\n        /* \"#utility.yul\":2470:2471   */\n      0x00\n        /* \"#utility.yul\":2495:2548   */\n      tag_123\n        /* \"#utility.yul\":2540:2547   */\n      dup5\n        /* \"#utility.yul\":2531:2537   */\n      dup3\n        /* \"#utility.yul\":2520:2529   */\n      dup6\n        /* \"#utility.yul\":2516:2538   */\n      add\n        /* \"#utility.yul\":2495:2548   */\n      tag_77\n      jump\t// in\n    tag_123:\n        /* \"#utility.yul\":2485:2548   */\n      swap2\n      pop\n        /* \"#utility.yul\":2441:2558   */\n      pop\n        /* \"#utility.yul\":2236:2565   */\n      swap3\n      swap2\n      pop\n      pop\n      jump\t// out\n        /* \"#utility.yul\":2571:2740   */\n    tag_78:\n        /* \"#utility.yul\":2655:2666   */\n      0x00\n        /* \"#utility.yul\":2689:2695   */\n      dup3\n        /* \"#utility.yul\":2684:2687   */\n      dup3\n        /* \"#utility.yul\":2677:2696   */\n      mstore\n        /* \"#utility.yul\":2729:2733   */\n      0x20\n        /* \"#utility.yul\":2724:2727   */\n      dup3\n        /* \"#utility.yul\":2720:2734   */\n      add\n        /* \"#utility.yul\":2705:2734   */\n      swap1\n      pop\n        /* \"#utility.yul\":2571:2740   */\n      swap3\n      swap2\n      pop\n      pop\n      jump\t// out\n        /* \"#utility.yul\":2746:2918   */\n    tag_79:\n        /* \"#utility.yul\":2886:2910   */\n      0x4f6e6c79206f776e65722063616e20646f207468697300000000000000000000\n        /* \"#utility.yul\":2882:2883   */\n      0x00\n        /* \"#utility.yul\":2874:2880   */\n      dup3\n        /* \"#utility.yul\":2870:2884   */\n      add\n        /* \"#utility.yul\":2863:2911   */\n      mstore\n        /* \"#utility.yul\":2746:2918   */\n      pop\n      jump\t// out\n        /* \"#utility.yul\":2924:3290   */\n    tag_80:\n        /* \"#utility.yul\":3066:3069   */\n      0x00\n        /* \"#utility.yul\":3087:3154   */\n      tag_127\n        /* \"#utility.yul\":3151:3153   */\n      0x16\n        /* \"#utility.yul\":3146:3149   */\n      dup4\n        /* \"#utility.yul\":3087:3154   */\n      tag_78\n      jump\t// in\n    tag_127:\n        /* \"#utility.yul\":3080:3154   */\n      swap2\n      pop\n        /* \"#utility.yul\":3163:3256   */\n      tag_128\n        /* \"#utility.yul\":3252:3255   */\n      dup3\n        /* \"#utility.yul\":3163:3256   */\n      tag_79\n      jump\t// in\n    tag_128:\n        /* \"#utility.yul\":3281:3283   */\n      0x20\n        /* \"#utility.yul\":3276:3279   */\n      dup3\n        /* \"#utility.yul\":3272:3284   */\n      add\n        /* \"#utility.yul\":3265:3284   */\n      swap1\n      pop\n        /* \"#utility.yul\":2924:3290   */\n      swap2\n      swap1\n      pop\n      jump\t// out\n        /* \"#utility.yul\":3296:3715   */\n    tag_39:\n        /* \"#utility.yul\":3462:3466   */\n      0x00\n        /* \"#utility.yul\":3500:3502   */\n      0x20\n        /* \"#utility.yul\":3489:3498   */\n      dup3\n        /* \"#utility.yul\":3485:3503   */\n      add\n        /* \"#utility.yul\":3477:3503   */\n      swap1\n      pop\n        /* \"#utility.yul\":3549:3558   */\n      dup2\n        /* \"#utility.yul\":3543:3547   */\n      dup2\n        /* \"#utility.yul\":3539:3559   */\n      sub\n        /* \"#utility.yul\":3535:3536   */\n      0x00\n        /* \"#utility.yul\":3524:3533   */\n      dup4\n        /* \"#utility.yul\":3520:3537   */\n      add\n        /* \"#utility.yul\":3513:3560   */\n      mstore\n        /* \"#utility.yul\":3577:3708   */\n      tag_130\n        /* \"#utility.yul\":3703:3707   */\n      dup2\n        /* \"#utility.yul\":3577:3708   */\n      tag_80\n      jump\t// in\n    tag_130:\n        /* \"#utility.yul\":3569:3708   */\n      swap1\n      pop\n        /* \"#utility.yul\":3296:3715   */\n      swap2\n      swap1\n      pop\n      jump\t// out\n        /* \"#utility.yul\":3721:3889   */\n    tag_81:\n        /* \"#utility.yul\":3861:3881   */\n      0x496e73756666696369656e742066756e64730000000000000000000000000000\n        /* \"#utility.yul\":3857:3858   */\n      0x00\n        /* \"#utility.yul\":3849:3855   */\n      dup3\n        /* \"#utility.yul\":3845:3859   */\n      add\n        /* \"#utility.yul\":3838:3882   */\n      mstore\n        /* \"#utility.yul\":3721:3889   */\n      pop\n      jump\t// out\n        /* \"#utility.yul\":3895:4261   */\n    tag_82:\n        /* \"#utility.yul\":4037:4040   */\n      0x00\n        /* \"#utility.yul\":4058:4125   */\n      tag_133\n        /* \"#utility.yul\":4122:4124   */\n      0x12\n        /* \"#utility.yul\":4117:4120   */\n      dup4\n        /* \"#utility.yul\":4058:4125   */\n      tag_78\n      jump\t// in\n    tag_133:\n        /* \"#utility.yul\":4051:4125   */\n      swap2\n      pop\n        /* \"#utility.yul\":4134:4227   */\n      tag_134\n        /* \"#utility.yul\":4223:4226   */\n      dup3\n        /* \"#utility.yul\":4134:4227   */\n      tag_81\n      jump\t// in\n    tag_134:\n        /* \"#utility.yul\":4252:4254   */\n      0x20\n        /* \"#utility.yul\":4247:4250   */\n      dup3\n        /* \"#utility.yul\":4243:4255   */\n      add\n        /* \"#utility.yul\":4236:4255   */\n      swap1\n      pop\n        /* \"#utility.yul\":3895:4261   */\n      swap2\n      swap1\n      pop\n      jump\t// out\n        /* \"#utility.yul\":4267:4686   */\n    tag_44:\n        /* \"#utility.yul\":4433:4437   */\n      0x00\n        /* \"#utility.yul\":4471:4473   */\n      0x20\n        /* \"#utility.yul\":4460:4469   */\n      dup3\n        /* \"#utility.yul\":4456:4474   */\n      add\n        /* \"#utility.yul\":4448:4474   */\n      swap1\n      pop\n        /* \"#utility.yul\":4520:4529   */\n      dup2\n        /* \"#utility.yul\":4514:4518   */\n      dup2\n        /* \"#utility.yul\":4510:4530   */\n      sub\n        /* \"#utility.yul\":4506:4507   */\n      0x00\n        /* \"#utility.yul\":4495:4504   */\n      dup4\n        /* \"#utility.yul\":4491:4508   */\n      add\n        /* \"#utility.yul\":4484:4531   */\n      mstore\n        /* \"#utility.yul\":4548:4679   */\n      tag_136\n        /* \"#utility.yul\":4674:4678   */\n      dup2\n        /* \"#utility.yul\":4548:4679   */\n      tag_82\n      jump\t// in\n    tag_136:\n        /* \"#utility.yul\":4540:4679   */\n      swap1\n      pop\n        /* \"#utility.yul\":4267:4686   */\n      swap2\n      swap1\n      pop\n      jump\t// out\n        /* \"#utility.yul\":4692:4872   */\n    tag_83:\n        /* \"#utility.yul\":4740:4817   */\n      0x4e487b7100000000000000000000000000000000000000000000000000000000\n        /* \"#utility.yul\":4737:4738   */\n      0x00\n        /* \"#utility.yul\":4730:4818   */\n      mstore\n        /* \"#utility.yul\":4837:4841   */\n      0x11\n        /* \"#utility.yul\":4834:4835   */\n      0x04\n        /* \"#utility.yul\":4827:4842   */\n      mstore\n        /* \"#utility.yul\":4861:4865   */\n      0x24\n        /* \"#utility.yul\":4858:4859   */\n      0x00\n        /* \"#utility.yul\":4851:4866   */\n      revert\n        /* \"#utility.yul\":4878:5072   */\n    tag_46:\n        /* \"#utility.yul\":4918:4922   */\n      0x00\n        /* \"#utility.yul\":4938:4958   */\n      tag_139\n        /* \"#utility.yul\":4956:4957   */\n      dup3\n        /* \"#utility.yul\":4938:4958   */\n      tag_66\n      jump\t// in\n    tag_139:\n        /* \"#utility.yul\":4933:4958   */\n      swap2\n      pop\n        /* \"#utility.yul\":4972:4992   */\n      tag_140\n        /* \"#utility.yul\":4990:4991   */\n      dup4\n        /* \"#utility.yul\":4972:4992   */\n      tag_66\n      jump\t// in\n    tag_140:\n        /* \"#utility.yul\":4967:4992   */\n      swap3\n      pop\n        /* \"#utility.yul\":5016:5017   */\n      dup3\n        /* \"#utility.yul\":5013:5014   */\n      dup3\n        /* \"#utility.yul\":5009:5018   */\n      sub\n        /* \"#utility.yul\":5001:5018   */\n      swap1\n      pop\n        /* \"#utility.yul\":5040:5041   */\n      dup2\n        /* \"#utility.yul\":5034:5038   */\n      dup2\n        /* \"#utility.yul\":5031:5042   */\n      gt\n        /* \"#utility.yul\":5028:5065   */\n      iszero\n      tag_141\n      jumpi\n        /* \"#utility.yul\":5045:5063   */\n      tag_142\n      tag_83\n      jump\t// in\n    tag_142:\n        /* \"#utility.yul\":5028:5065   */\n    tag_141:\n        /* \"#utility.yul\":4878:5072   */\n      swap3\n      swap2\n      pop\n      pop\n      jump\t// out\n        /* \"#utility.yul\":5078:5225   */\n    tag_84:\n        /* \"#utility.yul\":5179:5190   */\n      0x00\n        /* \"#utility.yul\":5216:5219   */\n      dup2\n        /* \"#utility.yul\":5201:5219   */\n      swap1\n      pop\n        /* \"#utility.yul\":5078:5225   */\n      swap3\n      swap2\n      pop\n      pop\n      jump\t// out\n        /* \"#utility.yul\":5231:5345   */\n    tag_85:\n      pop\n      jump\t// out\n        /* \"#utility.yul\":5351:5749   */\n    tag_86:\n        /* \"#utility.yul\":5510:5513   */\n      0x00\n        /* \"#utility.yul\":5531:5614   */\n      tag_146\n        /* \"#utility.yul\":5612:5613   */\n      0x00\n        /* \"#utility.yul\":5607:5610   */\n      dup4\n        /* \"#utility.yul\":5531:5614   */\n      tag_84\n      jump\t// in\n    tag_146:\n        /* \"#utility.yul\":5524:5614   */\n      swap2\n      pop\n        /* \"#utility.yul\":5623:5716   */\n      tag_147\n        /* \"#utility.yul\":5712:5715   */\n      dup3\n        /* \"#utility.yul\":5623:5716   */\n      tag_85\n      jump\t// in\n    tag_147:\n        /* \"#utility.yul\":5741:5742   */\n      0x00\n        /* \"#utility.yul\":5736:5739   */\n      dup3\n        /* \"#utility.yul\":5732:5743   */\n      add\n        /* \"#utility.yul\":5725:5743   */\n      swap1\n      pop\n        /* \"#utility.yul\":5351:5749   */\n      swap2\n      swap1\n      pop\n      jump\t// out\n        /* \"#utility.yul\":5755:6134   */\n    tag_48:\n        /* \"#utility.yul\":5939:5942   */\n      0x00\n        /* \"#utility.yul\":5961:6108   */\n      tag_149\n        /* \"#utility.yul\":6104:6107   */\n      dup3\n        /* \"#utility.yul\":5961:6108   */\n      tag_86\n      jump\t// in\n    tag_149:\n        /* \"#utility.yul\":5954:6108   */\n      swap2\n      pop\n        /* \"#utility.yul\":6125:6128   */\n      dup2\n        /* \"#utility.yul\":6118:6128   */\n      swap1\n      pop\n        /* \"#utility.yul\":5755:6134   */\n      swap2\n      swap1\n      pop\n      jump\t// out\n        /* \"#utility.yul\":6140:6307   */\n    tag_87:\n        /* \"#utility.yul\":6280:6299   */\n      0x7769746864726177206661696c65642121000000000000000000000000000000\n        /* \"#utility.yul\":6276:6277   */\n      0x00\n        /* \"#utility.yul\":6268:6274   */\n      dup3\n        /* \"#utility.yul\":6264:6278   */\n      add\n        /* \"#utility.yul\":6257:6300   */\n      mstore\n        /* \"#utility.yul\":6140:6307   */\n      pop\n      jump\t// out\n        /* \"#utility.yul\":6313:6679   */\n    tag_88:\n        /* \"#utility.yul\":6455:6458   */\n      0x00\n        /* \"#utility.yul\":6476:6543   */\n      tag_152\n        /* \"#utility.yul\":6540:6542   */\n      0x11\n        /* \"#utility.yul\":6535:6538   */\n      dup4\n        /* \"#utility.yul\":6476:6543   */\n      tag_78\n      jump\t// in\n    tag_152:\n        /* \"#utility.yul\":6469:6543   */\n      swap2\n      pop\n        /* \"#utility.yul\":6552:6645   */\n      tag_153\n        /* \"#utility.yul\":6641:6644   */\n      dup3\n        /* \"#utility.yul\":6552:6645   */\n      tag_87\n      jump\t// in\n    tag_153:\n        /* \"#utility.yul\":6670:6672   */\n      0x20\n        /* \"#utility.yul\":6665:6668   */\n      dup3\n        /* \"#utility.yul\":6661:6673   */\n      add\n        /* \"#utility.yul\":6654:6673   */\n      swap1\n      pop\n        /* \"#utility.yul\":6313:6679   */\n      swap2\n      swap1\n      pop\n      jump\t// out\n        /* \"#utility.yul\":6685:7104   */\n    tag_54:\n        /* \"#utility.yul\":6851:6855   */\n      0x00\n        /* \"#utility.yul\":6889:6891   */\n      0x20\n        /* \"#utility.yul\":6878:6887   */\n      dup3\n        /* \"#utility.yul\":6874:6892   */\n      add\n        /* \"#utility.yul\":6866:6892   */\n      swap1\n      pop\n        /* \"#utility.yul\":6938:6947   */\n      dup2\n        /* \"#utility.yul\":6932:6936   */\n      dup2\n        /* \"#utility.yul\":6928:6948   */\n      sub\n        /* \"#utility.yul\":6924:6925   */\n      0x00\n        /* \"#utility.yul\":6913:6922   */\n      dup4\n        /* \"#utility.yul\":6909:6926   */\n      add\n        /* \"#utility.yul\":6902:6949   */\n      mstore\n        /* \"#utility.yul\":6966:7097   */\n      tag_155\n        /* \"#utility.yul\":7092:7096   */\n      dup2\n        /* \"#utility.yul\":6966:7097   */\n      tag_88\n      jump\t// in\n    tag_155:\n        /* \"#utility.yul\":6958:7097   */\n      swap1\n      pop\n        /* \"#utility.yul\":6685:7104   */\n      swap2\n      swap1\n      pop\n      jump\t// out\n        /* \"#utility.yul\":7110:7301   */\n    tag_57:\n        /* \"#utility.yul\":7150:7153   */\n      0x00\n        /* \"#utility.yul\":7169:7189   */\n      tag_157\n        /* \"#utility.yul\":7187:7188   */\n      dup3\n        /* \"#utility.yul\":7169:7189   */\n      tag_66\n      jump\t// in\n    tag_157:\n        /* \"#utility.yul\":7164:7189   */\n      swap2\n      pop\n        /* \"#utility.yul\":7203:7223   */\n      tag_158\n        /* \"#utility.yul\":7221:7222   */\n      dup4\n        /* \"#utility.yul\":7203:7223   */\n      tag_66\n      jump\t// in\n    tag_158:\n        /* \"#utility.yul\":7198:7223   */\n      swap3\n      pop\n        /* \"#utility.yul\":7246:7247   */\n      dup3\n        /* \"#utility.yul\":7243:7244   */\n      dup3\n        /* \"#utility.yul\":7239:7248   */\n      add\n        /* \"#utility.yul\":7232:7248   */\n      swap1\n      pop\n        /* \"#utility.yul\":7267:7270   */\n      dup1\n        /* \"#utility.yul\":7264:7265   */\n      dup3\n        /* \"#utility.yul\":7261:7271   */\n      gt\n        /* \"#utility.yul\":7258:7294   */\n      iszero\n      tag_159\n      jumpi\n        /* \"#utility.yul\":7274:7292   */\n      tag_160\n      tag_83\n      jump\t// in\n    tag_160:\n        /* \"#utility.yul\":7258:7294   */\n    tag_159:\n        /* \"#utility.yul\":7110:7301   */\n      swap3\n      swap2\n      pop\n      pop\n      jump\t// out\n        /* \"#utility.yul\":7307:7717   */\n    tag_63:\n        /* \"#utility.yul\":7347:7354   */\n      0x00\n        /* \"#utility.yul\":7370:7390   */\n      tag_162\n        /* \"#utility.yul\":7388:7389   */\n      dup3\n        /* \"#utility.yul\":7370:7390   */\n      tag_66\n      jump\t// in\n    tag_162:\n        /* \"#utility.yul\":7365:7390   */\n      swap2\n      pop\n        /* \"#utility.yul\":7404:7424   */\n      tag_163\n        /* \"#utility.yul\":7422:7423   */\n      dup4\n        /* \"#utility.yul\":7404:7424   */\n      tag_66\n      jump\t// in\n    tag_163:\n        /* \"#utility.yul\":7399:7424   */\n      swap3\n      pop\n        /* \"#utility.yul\":7459:7460   */\n      dup3\n        /* \"#utility.yul\":7456:7457   */\n      dup3\n        /* \"#utility.yul\":7452:7461   */\n      mul\n        /* \"#utility.yul\":7481:7511   */\n      tag_164\n        /* \"#utility.yul\":7499:7510   */\n      dup2\n        /* \"#utility.yul\":7481:7511   */\n      tag_66\n      jump\t// in\n    tag_164:\n        /* \"#utility.yul\":7470:7511   */\n      swap2\n      pop\n        /* \"#utility.yul\":7660:7661   */\n      dup3\n        /* \"#utility.yul\":7651:7658   */\n      dup3\n        /* \"#utility.yul\":7647:7662   */\n      div\n        /* \"#utility.yul\":7644:7645   */\n      dup5\n        /* \"#utility.yul\":7641:7663   */\n      eq\n        /* \"#utility.yul\":7621:7622   */\n      dup4\n        /* \"#utility.yul\":7614:7623   */\n      iszero\n        /* \"#utility.yul\":7594:7677   */\n      or\n        /* \"#utility.yul\":7571:7710   */\n      tag_165\n      jumpi\n        /* \"#utility.yul\":7690:7708   */\n      tag_166\n      tag_83\n      jump\t// in\n    tag_166:\n        /* \"#utility.yul\":7571:7710   */\n    tag_165:\n        /* \"#utility.yul\":7355:7717   */\n      pop\n        /* \"#utility.yul\":7307:7717   */\n      swap3\n      swap2\n      pop\n      pop\n      jump\t// out\n        /* \"#utility.yul\":7723:7903   */\n    tag_89:\n        /* \"#utility.yul\":7771:7848   */\n      0x4e487b7100000000000000000000000000000000000000000000000000000000\n        /* \"#utility.yul\":7768:7769   */\n      0x00\n        /* \"#utility.yul\":7761:7849   */\n      mstore\n        /* \"#utility.yul\":7868:7872   */\n      0x12\n        /* \"#utility.yul\":7865:7866   */\n      0x04\n        /* \"#utility.yul\":7858:7873   */\n      mstore\n        /* \"#utility.yul\":7892:7896   */\n      0x24\n        /* \"#utility.yul\":7889:7890   */\n      0x00\n        /* \"#utility.yul\":7882:7897   */\n      revert\n        /* \"#utility.yul\":7909:8094   */\n    tag_65:\n        /* \"#utility.yul\":7949:7950   */\n      0x00\n        /* \"#utility.yul\":7966:7986   */\n      tag_169\n        /* \"#utility.yul\":7984:7985   */\n      dup3\n        /* \"#utility.yul\":7966:7986   */\n      tag_66\n      jump\t// in\n    tag_169:\n        /* \"#utility.yul\":7961:7986   */\n      swap2\n      pop\n        /* \"#utility.yul\":8000:8020   */\n      tag_170\n        /* \"#utility.yul\":8018:8019   */\n      dup4\n        /* \"#utility.yul\":8000:8020   */\n      tag_66\n      jump\t// in\n    tag_170:\n        /* \"#utility.yul\":7995:8020   */\n      swap3\n      pop\n        /* \"#utility.yul\":8039:8040   */\n      dup3\n        /* \"#utility.yul\":8029:8064   */\n      tag_171\n      jumpi\n        /* \"#utility.yul\":8044:8062   */\n      tag_172\n      tag_89\n      jump\t// in\n    tag_172:\n        /* \"#utility.yul\":8029:8064   */\n    tag_171:\n        /* \"#utility.yul\":8086:8087   */\n      dup3\n        /* \"#utility.yul\":8083:8084   */\n      dup3\n        /* \"#utility.yul\":8079:8088   */\n      div\n        /* \"#utility.yul\":8074:8088   */\n      swap1\n      pop\n        /* \"#utility.yul\":7909:8094   */\n      swap3\n      swap2\n      pop\n      pop\n      jump\t// out\n\n    auxdata: 0xa2646970667358221220d345cd03ad154e7191c23539d0c88405b207a1f97513458a4f062b84bc2507d864736f6c63430008160033\n}\n",
				"bytecode": {
					"linkReferences": {},
					"object": "60806040526003600255348015610014575f80fd5b503360035f6101000a81548173ffffffffffffffffffffffffffffffffffffffff021916908373ffffffffffffffffffffffffffffffffffffffff16021790555061092b806100625f395ff3fe608060405260043610610053575f3560e01c8062113e081461005757806321f4ae14146100815780632e1a7d4d146100ab5780638da5cb5b146100d3578063d0e30db0146100fd578063e11932cf14610107575b5f80fd5b348015610062575f80fd5b5061006b610143565b604051610078919061051c565b60405180910390f35b34801561008c575f80fd5b50610095610186565b6040516100a2919061051c565b60405180910390f35b3480156100b6575f80fd5b506100d160048036038101906100cc9190610563565b61021c565b005b3480156100de575f80fd5b506100e7610399565b6040516100f491906105cd565b60405180910390f35b6101056103be565b005b348015610112575f80fd5b5061012d60048036038101906101289190610610565b610412565b60405161013a919061051c565b60405180910390f35b5f805f3373ffffffffffffffffffffffffffffffffffffffff1673ffffffffffffffffffffffffffffffffffffffff1681526020019081526020015f2054905090565b5f60035f9054906101000a900473ffffffffffffffffffffffffffffffffffffffff1673ffffffffffffffffffffffffffffffffffffffff163373ffffffffffffffffffffffffffffffffffffffff1614610216576040517f08c379a000000000000000000000000000000000000000000000000000000000815260040161020d90610695565b60405180910390fd5b47905090565b805f803373ffffffffffffffffffffffffffffffffffffffff1673ffffffffffffffffffffffffffffffffffffffff1681526020019081526020015f2054101561029b576040517f08c379a0000000000000000000000000000000000000000000000000000000008152600401610292906106fd565b60405180910390fd5b805f803373ffffffffffffffffffffffffffffffffffffffff1673ffffffffffffffffffffffffffffffffffffffff1681526020019081526020015f205f8282546102e69190610748565b925050819055505f3373ffffffffffffffffffffffffffffffffffffffff1682604051610312906107a8565b5f6040518083038185875af1925050503d805f811461034c576040519150601f19603f3d011682016040523d82523d5f602084013e610351565b606091505b5050905080610395576040517f08c379a000000000000000000000000000000000000000000000000000000000815260040161038c90610806565b60405180910390fd5b5050565b60035f9054906101000a900473ffffffffffffffffffffffffffffffffffffffff1681565b345f803373ffffffffffffffffffffffffffffffffffffffff1673ffffffffffffffffffffffffffffffffffffffff1681526020019081526020015f205f8282546104099190610824565b92505081905550565b5f60035f9054906101000a900473ffffffffffffffffffffffffffffffffffffffff1673ffffffffffffffffffffffffffffffffffffffff163373ffffffffffffffffffffffffffffffffffffffff16146104a2576040517f08c379a000000000000000000000000000000000000000000000000000000000815260040161049990610695565b60405180910390fd5b5f60646002545f808673ffffffffffffffffffffffffffffffffffffffff1673ffffffffffffffffffffffffffffffffffffffff1681526020019081526020015f20546104ef9190610857565b6104f991906108c5565b905080915050919050565b5f819050919050565b61051681610504565b82525050565b5f60208201905061052f5f83018461050d565b92915050565b5f80fd5b61054281610504565b811461054c575f80fd5b50565b5f8135905061055d81610539565b92915050565b5f6020828403121561057857610577610535565b5b5f6105858482850161054f565b91505092915050565b5f73ffffffffffffffffffffffffffffffffffffffff82169050919050565b5f6105b78261058e565b9050919050565b6105c7816105ad565b82525050565b5f6020820190506105e05f8301846105be565b92915050565b6105ef816105ad565b81146105f9575f80fd5b50565b5f8135905061060a816105e6565b92915050565b5f6020828403121561062557610624610535565b5b5f610632848285016105fc565b91505092915050565b5f82825260208201905092915050565b7f4f6e6c79206f776e65722063616e20646f2074686973000000000000000000005f82015250565b5f61067f60168361063b565b915061068a8261064b565b602082019050919050565b5f6020820190508181035f8301526106ac81610673565b9050919050565b7f496e73756666696369656e742066756e647300000000000000000000000000005f82015250565b5f6106e760128361063b565b91506106f2826106b3565b602082019050919050565b5f6020820190508181035f830152610714816106db565b9050919050565b7f4e487b71000000000000000000000000000000000000000000000000000000005f52601160045260245ffd5b5f61075282610504565b915061075d83610504565b92508282039050818111156107755761077461071b565b5b92915050565b5f81905092915050565b50565b5f6107935f8361077b565b915061079e82610785565b5f82019050919050565b5f6107b282610788565b9150819050919050565b7f7769746864726177206661696c656421210000000000000000000000000000005f82015250565b5f6107f060118361063b565b91506107fb826107bc565b602082019050919050565b5f6020820190508181035f83015261081d816107e4565b9050919050565b5f61082e82610504565b915061083983610504565b92508282019050808211156108515761085061071b565b5b92915050565b5f61086182610504565b915061086c83610504565b925082820261087a81610504565b915082820484148315176108915761089061071b565b5b5092915050565b7f4e487b71000000000000000000000000000000000000000000000000000000005f52601260045260245ffd5b5f6108cf82610504565b91506108da83610504565b9250826108ea576108e9610898565b5b82820490509291505056fea2646970667358221220d345cd03ad154e7191c23539d0c88405b207a1f97513458a4f062b84bc2507d864736f6c63430008160033",
					"opcodes": "PUSH1 0x80 PUSH1 0x40 MSTORE PUSH1 0x3 PUSH1 0x2 SSTORE CALLVALUE DUP1 ISZERO PUSH2 0x14 JUMPI PUSH0 DUP1 REVERT JUMPDEST POP CALLER PUSH1 0x3 PUSH0 PUSH2 0x100 EXP DUP2 SLOAD DUP2 PUSH20 0xFFFFFFFFFFFFFFFFFFFFFFFFFFFFFFFFFFFFFFFF MUL NOT AND SWAP1 DUP4 PUSH20 0xFFFFFFFFFFFFFFFFFFFFFFFFFFFFFFFFFFFFFFFF AND MUL OR SWAP1 SSTORE POP PUSH2 0x92B DUP1 PUSH2 0x62 PUSH0 CODECOPY PUSH0 RETURN INVALID PUSH1 0x80 PUSH1 0x40 MSTORE PUSH1 0x4 CALLDATASIZE LT PUSH2 0x53 JUMPI PUSH0 CALLDATALOAD PUSH1 0xE0 SHR DUP1 PUSH3 0x113E08 EQ PUSH2 0x57 JUMPI DUP1 PUSH4 0x21F4AE14 EQ PUSH2 0x81 JUMPI DUP1 PUSH4 0x2E1A7D4D EQ PUSH2 0xAB JUMPI DUP1 PUSH4 0x8DA5CB5B EQ PUSH2 0xD3 JUMPI DUP1 PUSH4 0xD0E30DB0 EQ PUSH2 0xFD JUMPI DUP1 PUSH4 0xE11932CF EQ PUSH2 0x107 JUMPI JUMPDEST PUSH0 DUP1 REVERT JUMPDEST CALLVALUE DUP1 ISZERO PUSH2 0x62 JUMPI PUSH0 DUP1 REVERT JUMPDEST POP PUSH2 0x6B PUSH2 0x143 JUMP JUMPDEST PUSH1 0x40 MLOAD PUSH2 0x78 SWAP2 SWAP1 PUSH2 0x51C JUMP JUMPDEST PUSH1 0x40 MLOAD DUP1 SWAP2 SUB SWAP1 RETURN JUMPDEST CALLVALUE DUP1 ISZERO PUSH2 0x8C JUMPI PUSH0 DUP1 REVERT JUMPDEST POP PUSH2 0x95 PUSH2 0x186 JUMP JUMPDEST PUSH1 0x40 MLOAD PUSH2 0xA2 SWAP2 SWAP1 PUSH2 0x51C JUMP JUMPDEST PUSH1 0x40 MLOAD DUP1 SWAP2 SUB SWAP1 RETURN JUMPDEST CALLVALUE DUP1 ISZERO PUSH2 0xB6 JUMPI PUSH0 DUP1 REVERT JUMPDEST POP PUSH2 0xD1 PUSH1 0x4 DUP1 CALLDATASIZE SUB DUP2 ADD SWAP1 PUSH2 0xCC SWAP2 SWAP1 PUSH2 0x563 JUMP JUMPDEST PUSH2 0x21C JUMP JUMPDEST STOP JUMPDEST CALLVALUE DUP1 ISZERO PUSH2 0xDE JUMPI PUSH0 DUP1 REVERT JUMPDEST POP PUSH2 0xE7 PUSH2 0x399 JUMP JUMPDEST PUSH1 0x40 MLOAD PUSH2 0xF4 SWAP2 SWAP1 PUSH2 0x5CD JUMP JUMPDEST PUSH1 0x40 MLOAD DUP1 SWAP2 SUB SWAP1 RETURN JUMPDEST PUSH2 0x105 PUSH2 0x3BE JUMP JUMPDEST STOP JUMPDEST CALLVALUE DUP1 ISZERO PUSH2 0x112 JUMPI PUSH0 DUP1 REVERT JUMPDEST POP PUSH2 0x12D PUSH1 0x4 DUP1 CALLDATASIZE SUB DUP2 ADD SWAP1 PUSH2 0x128 SWAP2 SWAP1 PUSH2 0x610 JUMP JUMPDEST PUSH2 0x412 JUMP JUMPDEST PUSH1 0x40 MLOAD PUSH2 0x13A SWAP2 SWAP1 PUSH2 0x51C JUMP JUMPDEST PUSH1 0x40 MLOAD DUP1 SWAP2 SUB SWAP1 RETURN JUMPDEST PUSH0 DUP1 PUSH0 CALLER PUSH20 0xFFFFFFFFFFFFFFFFFFFFFFFFFFFFFFFFFFFFFFFF AND PUSH20 0xFFFFFFFFFFFFFFFFFFFFFFFFFFFFFFFFFFFFFFFF AND DUP2 MSTORE PUSH1 0x20 ADD SWAP1 DUP2 MSTORE PUSH1 0x20 ADD PUSH0 KECCAK256 SLOAD SWAP1 POP SWAP1 JUMP JUMPDEST PUSH0 PUSH1 0x3 PUSH0 SWAP1 SLOAD SWAP1 PUSH2 0x100 EXP SWAP1 DIV PUSH20 0xFFFFFFFFFFFFFFFFFFFFFFFFFFFFFFFFFFFFFFFF AND PUSH20 0xFFFFFFFFFFFFFFFFFFFFFFFFFFFFFFFFFFFFFFFF AND CALLER PUSH20 0xFFFFFFFFFFFFFFFFFFFFFFFFFFFFFFFFFFFFFFFF AND EQ PUSH2 0x216 JUMPI PUSH1 0x40 MLOAD PUSH32 0x8C379A000000000000000000000000000000000000000000000000000000000 DUP2 MSTORE PUSH1 0x4 ADD PUSH2 0x20D SWAP1 PUSH2 0x695 JUMP JUMPDEST PUSH1 0x40 MLOAD DUP1 SWAP2 SUB SWAP1 REVERT JUMPDEST SELFBALANCE SWAP1 POP SWAP1 JUMP JUMPDEST DUP1 PUSH0 DUP1 CALLER PUSH20 0xFFFFFFFFFFFFFFFFFFFFFFFFFFFFFFFFFFFFFFFF AND PUSH20 0xFFFFFFFFFFFFFFFFFFFFFFFFFFFFFFFFFFFFFFFF AND DUP2 MSTORE PUSH1 0x20 ADD SWAP1 DUP2 MSTORE PUSH1 0x20 ADD PUSH0 KECCAK256 SLOAD LT ISZERO PUSH2 0x29B JUMPI PUSH1 0x40 MLOAD PUSH32 0x8C379A000000000000000000000000000000000000000000000000000000000 DUP2 MSTORE PUSH1 0x4 ADD PUSH2 0x292 SWAP1 PUSH2 0x6FD JUMP JUMPDEST PUSH1 0x40 MLOAD DUP1 SWAP2 SUB SWAP1 REVERT JUMPDEST DUP1 PUSH0 DUP1 CALLER PUSH20 0xFFFFFFFFFFFFFFFFFFFFFFFFFFFFFFFFFFFFFFFF AND PUSH20 0xFFFFFFFFFFFFFFFFFFFFFFFFFFFFFFFFFFFFFFFF AND DUP2 MSTORE PUSH1 0x20 ADD SWAP1 DUP2 MSTORE PUSH1 0x20 ADD PUSH0 KECCAK256 PUSH0 DUP3 DUP3 SLOAD PUSH2 0x2E6 SWAP2 SWAP1 PUSH2 0x748 JUMP JUMPDEST SWAP3 POP POP DUP2 SWAP1 SSTORE POP PUSH0 CALLER PUSH20 0xFFFFFFFFFFFFFFFFFFFFFFFFFFFFFFFFFFFFFFFF AND DUP3 PUSH1 0x40 MLOAD PUSH2 0x312 SWAP1 PUSH2 0x7A8 JUMP JUMPDEST PUSH0 PUSH1 0x40 MLOAD DUP1 DUP4 SUB DUP2 DUP6 DUP8 GAS CALL SWAP3 POP POP POP RETURNDATASIZE DUP1 PUSH0 DUP2 EQ PUSH2 0x34C JUMPI PUSH1 0x40 MLOAD SWAP2 POP PUSH1 0x1F NOT PUSH1 0x3F RETURNDATASIZE ADD AND DUP3 ADD PUSH1 0x40 MSTORE RETURNDATASIZE DUP3 MSTORE RETURNDATASIZE PUSH0 PUSH1 0x20 DUP5 ADD RETURNDATACOPY PUSH2 0x351 JUMP JUMPDEST PUSH1 0x60 SWAP2 POP JUMPDEST POP POP SWAP1 POP DUP1 PUSH2 0x395 JUMPI PUSH1 0x40 MLOAD PUSH32 0x8C379A000000000000000000000000000000000000000000000000000000000 DUP2 MSTORE PUSH1 0x4 ADD PUSH2 0x38C SWAP1 PUSH2 0x806 JUMP JUMPDEST PUSH1 0x40 MLOAD DUP1 SWAP2 SUB SWAP1 REVERT JUMPDEST POP POP JUMP JUMPDEST PUSH1 0x3 PUSH0 SWAP1 SLOAD SWAP1 PUSH2 0x100 EXP SWAP1 DIV PUSH20 0xFFFFFFFFFFFFFFFFFFFFFFFFFFFFFFFFFFFFFFFF AND DUP2 JUMP JUMPDEST CALLVALUE PUSH0 DUP1 CALLER PUSH20 0xFFFFFFFFFFFFFFFFFFFFFFFFFFFFFFFFFFFFFFFF AND PUSH20 0xFFFFFFFFFFFFFFFFFFFFFFFFFFFFFFFFFFFFFFFF AND DUP2 MSTORE PUSH1 0x20 ADD SWAP1 DUP2 MSTORE PUSH1 0x20 ADD PUSH0 KECCAK256 PUSH0 DUP3 DUP3 SLOAD PUSH2 0x409 SWAP2 SWAP1 PUSH2 0x824 JUMP JUMPDEST SWAP3 POP POP DUP2 SWAP1 SSTORE POP JUMP JUMPDEST PUSH0 PUSH1 0x3 PUSH0 SWAP1 SLOAD SWAP1 PUSH2 0x100 EXP SWAP1 DIV PUSH20 0xFFFFFFFFFFFFFFFFFFFFFFFFFFFFFFFFFFFFFFFF AND PUSH20 0xFFFFFFFFFFFFFFFFFFFFFFFFFFFFFFFFFFFFFFFF AND CALLER PUSH20 0xFFFFFFFFFFFFFFFFFFFFFFFFFFFFFFFFFFFFFFFF AND EQ PUSH2 0x4A2 JUMPI PUSH1 0x40 MLOAD PUSH32 0x8C379A000000000000000000000000000000000000000000000000000000000 DUP2 MSTORE PUSH1 0x4 ADD PUSH2 0x499 SWAP1 PUSH2 0x695 JUMP JUMPDEST PUSH1 0x40 MLOAD DUP1 SWAP2 SUB SWAP1 REVERT JUMPDEST PUSH0 PUSH1 0x64 PUSH1 0x2 SLOAD PUSH0 DUP1 DUP7 PUSH20 0xFFFFFFFFFFFFFFFFFFFFFFFFFFFFFFFFFFFFFFFF AND PUSH20 0xFFFFFFFFFFFFFFFFFFFFFFFFFFFFFFFFFFFFFFFF AND DUP2 MSTORE PUSH1 0x20 ADD SWAP1 DUP2 MSTORE PUSH1 0x20 ADD PUSH0 KECCAK256 SLOAD PUSH2 0x4EF SWAP2 SWAP1 PUSH2 0x857 JUMP JUMPDEST PUSH2 0x4F9 SWAP2 SWAP1 PUSH2 0x8C5 JUMP JUMPDEST SWAP1 POP DUP1 SWAP2 POP POP SWAP2 SWAP1 POP JUMP JUMPDEST PUSH0 DUP2 SWAP1 POP SWAP2 SWAP1 POP JUMP JUMPDEST PUSH2 0x516 DUP2 PUSH2 0x504 JUMP JUMPDEST DUP3 MSTORE POP POP JUMP JUMPDEST PUSH0 PUSH1 0x20 DUP3 ADD SWAP1 POP PUSH2 0x52F PUSH0 DUP4 ADD DUP5 PUSH2 0x50D JUMP JUMPDEST SWAP3 SWAP2 POP POP JUMP JUMPDEST PUSH0 DUP1 REVERT JUMPDEST PUSH2 0x542 DUP2 PUSH2 0x504 JUMP JUMPDEST DUP2 EQ PUSH2 0x54C JUMPI PUSH0 DUP1 REVERT JUMPDEST POP JUMP JUMPDEST PUSH0 DUP2 CALLDATALOAD SWAP1 POP PUSH2 0x55D DUP2 PUSH2 0x539 JUMP JUMPDEST SWAP3 SWAP2 POP POP JUMP JUMPDEST PUSH0 PUSH1 0x20 DUP3 DUP5 SUB SLT ISZERO PUSH2 0x578 JUMPI PUSH2 0x577 PUSH2 0x535 JUMP JUMPDEST JUMPDEST PUSH0 PUSH2 0x585 DUP5 DUP3 DUP6 ADD PUSH2 0x54F JUMP JUMPDEST SWAP2 POP POP SWAP3 SWAP2 POP POP JUMP JUMPDEST PUSH0 PUSH20 0xFFFFFFFFFFFFFFFFFFFFFFFFFFFFFFFFFFFFFFFF DUP3 AND SWAP1 POP SWAP2 SWAP1 POP JUMP JUMPDEST PUSH0 PUSH2 0x5B7 DUP3 PUSH2 0x58E JUMP JUMPDEST SWAP1 POP SWAP2 SWAP1 POP JUMP JUMPDEST PUSH2 0x5C7 DUP2 PUSH2 0x5AD JUMP JUMPDEST DUP3 MSTORE POP POP JUMP JUMPDEST PUSH0 PUSH1 0x20 DUP3 ADD SWAP1 POP PUSH2 0x5E0 PUSH0 DUP4 ADD DUP5 PUSH2 0x5BE JUMP JUMPDEST SWAP3 SWAP2 POP POP JUMP JUMPDEST PUSH2 0x5EF DUP2 PUSH2 0x5AD JUMP JUMPDEST DUP2 EQ PUSH2 0x5F9 JUMPI PUSH0 DUP1 REVERT JUMPDEST POP JUMP JUMPDEST PUSH0 DUP2 CALLDATALOAD SWAP1 POP PUSH2 0x60A DUP2 PUSH2 0x5E6 JUMP JUMPDEST SWAP3 SWAP2 POP POP JUMP JUMPDEST PUSH0 PUSH1 0x20 DUP3 DUP5 SUB SLT ISZERO PUSH2 0x625 JUMPI PUSH2 0x624 PUSH2 0x535 JUMP JUMPDEST JUMPDEST PUSH0 PUSH2 0x632 DUP5 DUP3 DUP6 ADD PUSH2 0x5FC JUMP JUMPDEST SWAP2 POP POP SWAP3 SWAP2 POP POP JUMP JUMPDEST PUSH0 DUP3 DUP3 MSTORE PUSH1 0x20 DUP3 ADD SWAP1 POP SWAP3 SWAP2 POP POP JUMP JUMPDEST PUSH32 0x4F6E6C79206F776E65722063616E20646F207468697300000000000000000000 PUSH0 DUP3 ADD MSTORE POP JUMP JUMPDEST PUSH0 PUSH2 0x67F PUSH1 0x16 DUP4 PUSH2 0x63B JUMP JUMPDEST SWAP2 POP PUSH2 0x68A DUP3 PUSH2 0x64B JUMP JUMPDEST PUSH1 0x20 DUP3 ADD SWAP1 POP SWAP2 SWAP1 POP JUMP JUMPDEST PUSH0 PUSH1 0x20 DUP3 ADD SWAP1 POP DUP2 DUP2 SUB PUSH0 DUP4 ADD MSTORE PUSH2 0x6AC DUP2 PUSH2 0x673 JUMP JUMPDEST SWAP1 POP SWAP2 SWAP1 POP JUMP JUMPDEST PUSH32 0x496E73756666696369656E742066756E64730000000000000000000000000000 PUSH0 DUP3 ADD MSTORE POP JUMP JUMPDEST PUSH0 PUSH2 0x6E7 PUSH1 0x12 DUP4 PUSH2 0x63B JUMP JUMPDEST SWAP2 POP PUSH2 0x6F2 DUP3 PUSH2 0x6B3 JUMP JUMPDEST PUSH1 0x20 DUP3 ADD SWAP1 POP SWAP2 SWAP1 POP JUMP JUMPDEST PUSH0 PUSH1 0x20 DUP3 ADD SWAP1 POP DUP2 DUP2 SUB PUSH0 DUP4 ADD MSTORE PUSH2 0x714 DUP2 PUSH2 0x6DB JUMP JUMPDEST SWAP1 POP SWAP2 SWAP1 POP JUMP JUMPDEST PUSH32 0x4E487B7100000000000000000000000000000000000000000000000000000000 PUSH0 MSTORE PUSH1 0x11 PUSH1 0x4 MSTORE PUSH1 0x24 PUSH0 REVERT JUMPDEST PUSH0 PUSH2 0x752 DUP3 PUSH2 0x504 JUMP JUMPDEST SWAP2 POP PUSH2 0x75D DUP4 PUSH2 0x504 JUMP JUMPDEST SWAP3 POP DUP3 DUP3 SUB SWAP1 POP DUP2 DUP2 GT ISZERO PUSH2 0x775 JUMPI PUSH2 0x774 PUSH2 0x71B JUMP JUMPDEST JUMPDEST SWAP3 SWAP2 POP POP JUMP JUMPDEST PUSH0 DUP2 SWAP1 POP SWAP3 SWAP2 POP POP JUMP JUMPDEST POP JUMP JUMPDEST PUSH0 PUSH2 0x793 PUSH0 DUP4 PUSH2 0x77B JUMP JUMPDEST SWAP2 POP PUSH2 0x79E DUP3 PUSH2 0x785 JUMP JUMPDEST PUSH0 DUP3 ADD SWAP1 POP SWAP2 SWAP1 POP JUMP JUMPDEST PUSH0 PUSH2 0x7B2 DUP3 PUSH2 0x788 JUMP JUMPDEST SWAP2 POP DUP2 SWAP1 POP SWAP2 SWAP1 POP JUMP JUMPDEST PUSH32 0x7769746864726177206661696C65642121000000000000000000000000000000 PUSH0 DUP3 ADD MSTORE POP JUMP JUMPDEST PUSH0 PUSH2 0x7F0 PUSH1 0x11 DUP4 PUSH2 0x63B JUMP JUMPDEST SWAP2 POP PUSH2 0x7FB DUP3 PUSH2 0x7BC JUMP JUMPDEST PUSH1 0x20 DUP3 ADD SWAP1 POP SWAP2 SWAP1 POP JUMP JUMPDEST PUSH0 PUSH1 0x20 DUP3 ADD SWAP1 POP DUP2 DUP2 SUB PUSH0 DUP4 ADD MSTORE PUSH2 0x81D DUP2 PUSH2 0x7E4 JUMP JUMPDEST SWAP1 POP SWAP2 SWAP1 POP JUMP JUMPDEST PUSH0 PUSH2 0x82E DUP3 PUSH2 0x504 JUMP JUMPDEST SWAP2 POP PUSH2 0x839 DUP4 PUSH2 0x504 JUMP JUMPDEST SWAP3 POP DUP3 DUP3 ADD SWAP1 POP DUP1 DUP3 GT ISZERO PUSH2 0x851 JUMPI PUSH2 0x850 PUSH2 0x71B JUMP JUMPDEST JUMPDEST SWAP3 SWAP2 POP POP JUMP JUMPDEST PUSH0 PUSH2 0x861 DUP3 PUSH2 0x504 JUMP JUMPDEST SWAP2 POP PUSH2 0x86C DUP4 PUSH2 0x504 JUMP JUMPDEST SWAP3 POP DUP3 DUP3 MUL PUSH2 0x87A DUP2 PUSH2 0x504 JUMP JUMPDEST SWAP2 POP DUP3 DUP3 DIV DUP5 EQ DUP4 ISZERO OR PUSH2 0x891 JUMPI PUSH2 0x890 PUSH2 0x71B JUMP JUMPDEST JUMPDEST POP SWAP3 SWAP2 POP POP JUMP JUMPDEST PUSH32 0x4E487B7100000000000000000000000000000000000000000000000000000000 PUSH0 MSTORE PUSH1 0x12 PUSH1 0x4 MSTORE PUSH1 0x24 PUSH0 REVERT JUMPDEST PUSH0 PUSH2 0x8CF DUP3 PUSH2 0x504 JUMP JUMPDEST SWAP2 POP PUSH2 0x8DA DUP4 PUSH2 0x504 JUMP JUMPDEST SWAP3 POP DUP3 PUSH2 0x8EA JUMPI PUSH2 0x8E9 PUSH2 0x898 JUMP JUMPDEST JUMPDEST DUP3 DUP3 DIV SWAP1 POP SWAP3 SWAP2 POP POP JUMP INVALID LOG2 PUSH5 0x6970667358 0x22 SLT KECCAK256 0xD3 GASLIMIT 0xCD SUB 0xAD ISZERO 0x4E PUSH18 0x91C23539D0C88405B207A1F97513458A4F06 0x2B DUP5 0xBC 0x25 SMOD 0xD8 PUSH5 0x736F6C6343 STOP ADDMOD AND STOP CALLER "
				},
				"gasEstimates": {
					"creation": {
						"codeDepositCost": "469400",
						"executionCost": "46874",
						"totalCost": "516274"
					},
					"external": {
						"calculateInterest(address)": "infinite",
						"deposit()": "infinite",
						"getBalances()": "2497",
						"getSystemBalance()": "2598",
						"owner()": "2552",
						"withdraw(uint256)": "infinite"
					}
				},
				"methodIdentifiers": {
					"calculateInterest(address)": "e11932cf",
					"deposit()": "d0e30db0",
					"getBalances()": "00113e08",
					"getSystemBalance()": "21f4ae14",
					"owner()": "8da5cb5b",
					"withdraw(uint256)": "2e1a7d4d"
				}
			},
			"storageLayout": {
				"storage": [
					{
						"astId": 5,
						"contract": "contracts/ComplicatedBank.sol:ComplicatedBank",
						"label": "balances",
						"offset": 0,
						"slot": "0",
						"type": "t_mapping(t_address,t_uint256)"
					},
					{
						"astId": 8,
						"contract": "contracts/ComplicatedBank.sol:ComplicatedBank",
						"label": "accounts",
						"offset": 0,
						"slot": "1",
						"type": "t_array(t_address)dyn_storage"
					},
					{
						"astId": 11,
						"contract": "contracts/ComplicatedBank.sol:ComplicatedBank",
						"label": "rate",
						"offset": 0,
						"slot": "2",
						"type": "t_uint256"
					},
					{
						"astId": 13,
						"contract": "contracts/ComplicatedBank.sol:ComplicatedBank",
						"label": "owner",
						"offset": 0,
						"slot": "3",
						"type": "t_address"
					}
				],
				"types": {
					"t_address": {
						"encoding": "inplace",
						"label": "address",
						"numberOfBytes": "20"
					},
					"t_array(t_address)dyn_storage": {
						"base": "t_address",
						"encoding": "dynamic_array",
						"label": "address[]",
						"numberOfBytes": "32"
					},
					"t_mapping(t_address,t_uint256)": {
						"encoding": "mapping",
						"key": "t_address",
						"label": "mapping(address => uint256)",
						"numberOfBytes": "32",
						"value": "t_uint256"
					},
					"t_uint256": {
						"encoding": "inplace",
						"label": "uint256",
						"numberOfBytes": "32"
					}
				}
			},
			"userdoc": {
				"kind": "user",
				"methods": {},
				"version": 1
			}
		}
	}
}