{
	"contracts/EasyBank.sol": {
		"EasyBank": {
			"abi": [
				{
					"inputs": [],
					"name": "deposit",
					"outputs": [],
					"stateMutability": "payable",
					"type": "function"
				},
				{
					"inputs": [],
					"name": "getBalances",
					"outputs": [
						{
							"internalType": "uint256",
							"name": "",
							"type": "uint256"
						}
					],
					"stateMutability": "view",
					"type": "function"
				},
				{
					"inputs": [
						{
							"internalType": "uint256",
							"name": "money",
							"type": "uint256"
						}
					],
					"name": "withdraw",
					"outputs": [],
					"stateMutability": "nonpayable",
					"type": "function"
				}
			],
			"devdoc": {
				"kind": "dev",
				"methods": {},
				"version": 1
			},
			"evm": {
				"assembly": "    /* \"contracts/EasyBank.sol\":61:819  contract EasyBank {... */\n  mstore(0x40, 0x80)\n  callvalue\n  dup1\n  iszero\n  tag_1\n  jumpi\n  0x00\n  dup1\n  revert\ntag_1:\n  pop\n  dataSize(sub_0)\n  dup1\n  dataOffset(sub_0)\n  0x00\n  codecopy\n  0x00\n  return\nstop\n\nsub_0: assembly {\n        /* \"contracts/EasyBank.sol\":61:819  contract EasyBank {... */\n      mstore(0x40, 0x80)\n      jumpi(tag_1, lt(calldatasize, 0x04))\n      shr(0xe0, calldataload(0x00))\n      dup1\n      0x113e08\n      eq\n      tag_2\n      jumpi\n      dup1\n      0x2e1a7d4d\n      eq\n      tag_3\n      jumpi\n      dup1\n      0xd0e30db0\n      eq\n      tag_4\n      jumpi\n    tag_1:\n      0x00\n      dup1\n      revert\n        /* \"contracts/EasyBank.sol\":132:231  function getBalances() public view returns (uint256) {... */\n    tag_2:\n      callvalue\n      dup1\n      iszero\n      tag_5\n      jumpi\n      0x00\n      dup1\n      revert\n    tag_5:\n      pop\n      tag_6\n      tag_7\n      jump\t// in\n    tag_6:\n      mload(0x40)\n      tag_8\n      swap2\n      swap1\n      tag_9\n      jump\t// in\n    tag_8:\n      mload(0x40)\n      dup1\n      swap2\n      sub\n      swap1\n      return\n        /* \"contracts/EasyBank.sol\":331:816  function withdraw (uint256 money) public {... */\n    tag_3:\n      callvalue\n      dup1\n      iszero\n      tag_10\n      jumpi\n      0x00\n      dup1\n      revert\n    tag_10:\n      pop\n      tag_11\n      0x04\n      dup1\n      calldatasize\n      sub\n      dup2\n      add\n      swap1\n      tag_12\n      swap2\n      swap1\n      tag_13\n      jump\t// in\n    tag_12:\n      tag_14\n      jump\t// in\n    tag_11:\n      stop\n        /* \"contracts/EasyBank.sol\":237:323  function deposit() public payable {... */\n    tag_4:\n      tag_15\n      tag_16\n      jump\t// in\n    tag_15:\n      stop\n        /* \"contracts/EasyBank.sol\":132:231  function getBalances() public view returns (uint256) {... */\n    tag_7:\n        /* \"contracts/EasyBank.sol\":176:183  uint256 */\n      0x00\n        /* \"contracts/EasyBank.sol\":203:211  balances */\n      dup1\n        /* \"contracts/EasyBank.sol\":203:223  balances[msg.sender] */\n      0x00\n        /* \"contracts/EasyBank.sol\":212:222  msg.sender */\n      caller\n        /* \"contracts/EasyBank.sol\":203:223  balances[msg.sender] */\n      0xffffffffffffffffffffffffffffffffffffffff\n      and\n      0xffffffffffffffffffffffffffffffffffffffff\n      and\n      dup2\n      mstore\n      0x20\n      add\n      swap1\n      dup2\n      mstore\n      0x20\n      add\n      0x00\n      keccak256\n      sload\n        /* \"contracts/EasyBank.sol\":196:223  return balances[msg.sender] */\n      swap1\n      pop\n        /* \"contracts/EasyBank.sol\":132:231  function getBalances() public view returns (uint256) {... */\n      swap1\n      jump\t// out\n        /* \"contracts/EasyBank.sol\":331:816  function withdraw (uint256 money) public {... */\n    tag_14:\n        /* \"contracts/EasyBank.sol\":583:588  money */\n      dup1\n        /* \"contracts/EasyBank.sol\":559:567  balances */\n      0x00\n        /* \"contracts/EasyBank.sol\":559:579  balances[msg.sender] */\n      dup1\n        /* \"contracts/EasyBank.sol\":568:578  msg.sender */\n      caller\n        /* \"contracts/EasyBank.sol\":559:579  balances[msg.sender] */\n      0xffffffffffffffffffffffffffffffffffffffff\n      and\n      0xffffffffffffffffffffffffffffffffffffffff\n      and\n      dup2\n      mstore\n      0x20\n      add\n      swap1\n      dup2\n      mstore\n      0x20\n      add\n      0x00\n      keccak256\n      sload\n        /* \"contracts/EasyBank.sol\":559:588  balances[msg.sender] >= money */\n      lt\n      iszero\n        /* \"contracts/EasyBank.sol\":551:611  require(balances[msg.sender] >= money, \"Insufficient funds\") */\n      tag_19\n      jumpi\n      mload(0x40)\n      0x08c379a000000000000000000000000000000000000000000000000000000000\n      dup2\n      mstore\n      0x04\n      add\n      tag_20\n      swap1\n      tag_21\n      jump\t// in\n    tag_20:\n      mload(0x40)\n      dup1\n      swap2\n      sub\n      swap1\n      revert\n    tag_19:\n        /* \"contracts/EasyBank.sol\":646:651  money */\n      dup1\n        /* \"contracts/EasyBank.sol\":622:630  balances */\n      0x00\n        /* \"contracts/EasyBank.sol\":622:642  balances[msg.sender] */\n      dup1\n        /* \"contracts/EasyBank.sol\":631:641  msg.sender */\n      caller\n        /* \"contracts/EasyBank.sol\":622:642  balances[msg.sender] */\n      0xffffffffffffffffffffffffffffffffffffffff\n      and\n      0xffffffffffffffffffffffffffffffffffffffff\n      and\n      dup2\n      mstore\n      0x20\n      add\n      swap1\n      dup2\n      mstore\n      0x20\n      add\n      0x00\n      keccak256\n      0x00\n        /* \"contracts/EasyBank.sol\":622:651  balances[msg.sender] -= money */\n      dup3\n      dup3\n      sload\n      tag_22\n      swap2\n      swap1\n      tag_23\n      jump\t// in\n    tag_22:\n      swap3\n      pop\n      pop\n      dup2\n      swap1\n      sstore\n      pop\n        /* \"contracts/EasyBank.sol\":663:675  bool success */\n      0x00\n        /* \"contracts/EasyBank.sol\":681:691  msg.sender */\n      caller\n        /* \"contracts/EasyBank.sol\":681:696  msg.sender.call */\n      0xffffffffffffffffffffffffffffffffffffffff\n      and\n        /* \"contracts/EasyBank.sol\":704:709  money */\n      dup3\n        /* \"contracts/EasyBank.sol\":681:714  msg.sender.call{value: money}(\"\") */\n      mload(0x40)\n      tag_24\n      swap1\n      tag_25\n      jump\t// in\n    tag_24:\n      0x00\n      mload(0x40)\n      dup1\n      dup4\n      sub\n      dup2\n      dup6\n      dup8\n      gas\n      call\n      swap3\n      pop\n      pop\n      pop\n      returndatasize\n      dup1\n      0x00\n      dup2\n      eq\n      tag_28\n      jumpi\n      mload(0x40)\n      swap2\n      pop\n      and(add(returndatasize, 0x3f), not(0x1f))\n      dup3\n      add\n      0x40\n      mstore\n      returndatasize\n      dup3\n      mstore\n      returndatasize\n      0x00\n      0x20\n      dup5\n      add\n      returndatacopy\n      jump(tag_27)\n    tag_28:\n      0x60\n      swap2\n      pop\n    tag_27:\n      pop\n        /* \"contracts/EasyBank.sol\":662:714  (bool success, ) = msg.sender.call{value: money}(\"\") */\n      pop\n      swap1\n      pop\n        /* \"contracts/EasyBank.sol\":779:786  success */\n      dup1\n        /* \"contracts/EasyBank.sol\":771:808  require(success, \"withdraw failed!!\") */\n      tag_29\n      jumpi\n      mload(0x40)\n      0x08c379a000000000000000000000000000000000000000000000000000000000\n      dup2\n      mstore\n      0x04\n      add\n      tag_30\n      swap1\n      tag_31\n      jump\t// in\n    tag_30:\n      mload(0x40)\n      dup1\n      swap2\n      sub\n      swap1\n      revert\n    tag_29:\n        /* \"contracts/EasyBank.sol\":372:816  {... */\n      pop\n        /* \"contracts/EasyBank.sol\":331:816  function withdraw (uint256 money) public {... */\n      pop\n      jump\t// out\n        /* \"contracts/EasyBank.sol\":237:323  function deposit() public payable {... */\n    tag_16:\n        /* \"contracts/EasyBank.sol\":306:315  msg.value */\n      callvalue\n        /* \"contracts/EasyBank.sol\":282:290  balances */\n      0x00\n        /* \"contracts/EasyBank.sol\":282:302  balances[msg.sender] */\n      dup1\n        /* \"contracts/EasyBank.sol\":291:301  msg.sender */\n      caller\n        /* \"contracts/EasyBank.sol\":282:302  balances[msg.sender] */\n      0xffffffffffffffffffffffffffffffffffffffff\n      and\n      0xffffffffffffffffffffffffffffffffffffffff\n      and\n      dup2\n      mstore\n      0x20\n      add\n      swap1\n      dup2\n      mstore\n      0x20\n      add\n      0x00\n      keccak256\n      0x00\n        /* \"contracts/EasyBank.sol\":282:315  balances[msg.sender] += msg.value */\n      dup3\n      dup3\n      sload\n      tag_33\n      swap2\n      swap1\n      tag_34\n      jump\t// in\n    tag_33:\n      swap3\n      pop\n      pop\n      dup2\n      swap1\n      sstore\n      pop\n        /* \"contracts/EasyBank.sol\":237:323  function deposit() public payable {... */\n      jump\t// out\n        /* \"#utility.yul\":7:84   */\n    tag_35:\n        /* \"#utility.yul\":44:51   */\n      0x00\n        /* \"#utility.yul\":73:78   */\n      dup2\n        /* \"#utility.yul\":62:78   */\n      swap1\n      pop\n        /* \"#utility.yul\":7:84   */\n      swap2\n      swap1\n      pop\n      jump\t// out\n        /* \"#utility.yul\":90:208   */\n    tag_36:\n        /* \"#utility.yul\":177:201   */\n      tag_54\n        /* \"#utility.yul\":195:200   */\n      dup2\n        /* \"#utility.yul\":177:201   */\n      tag_35\n      jump\t// in\n    tag_54:\n        /* \"#utility.yul\":172:175   */\n      dup3\n        /* \"#utility.yul\":165:202   */\n      mstore\n        /* \"#utility.yul\":90:208   */\n      pop\n      pop\n      jump\t// out\n        /* \"#utility.yul\":214:436   */\n    tag_9:\n        /* \"#utility.yul\":307:311   */\n      0x00\n        /* \"#utility.yul\":345:347   */\n      0x20\n        /* \"#utility.yul\":334:343   */\n      dup3\n        /* \"#utility.yul\":330:348   */\n      add\n        /* \"#utility.yul\":322:348   */\n      swap1\n      pop\n        /* \"#utility.yul\":358:429   */\n      tag_56\n        /* \"#utility.yul\":426:427   */\n      0x00\n        /* \"#utility.yul\":415:424   */\n      dup4\n        /* \"#utility.yul\":411:428   */\n      add\n        /* \"#utility.yul\":402:408   */\n      dup5\n        /* \"#utility.yul\":358:429   */\n      tag_36\n      jump\t// in\n    tag_56:\n        /* \"#utility.yul\":214:436   */\n      swap3\n      swap2\n      pop\n      pop\n      jump\t// out\n        /* \"#utility.yul\":523:640   */\n    tag_38:\n        /* \"#utility.yul\":632:633   */\n      0x00\n        /* \"#utility.yul\":629:630   */\n      dup1\n        /* \"#utility.yul\":622:634   */\n      revert\n        /* \"#utility.yul\":769:891   */\n    tag_40:\n        /* \"#utility.yul\":842:866   */\n      tag_61\n        /* \"#utility.yul\":860:865   */\n      dup2\n        /* \"#utility.yul\":842:866   */\n      tag_35\n      jump\t// in\n    tag_61:\n        /* \"#utility.yul\":835:840   */\n      dup2\n        /* \"#utility.yul\":832:867   */\n      eq\n        /* \"#utility.yul\":822:885   */\n      tag_62\n      jumpi\n        /* \"#utility.yul\":881:882   */\n      0x00\n        /* \"#utility.yul\":878:879   */\n      dup1\n        /* \"#utility.yul\":871:883   */\n      revert\n        /* \"#utility.yul\":822:885   */\n    tag_62:\n        /* \"#utility.yul\":769:891   */\n      pop\n      jump\t// out\n        /* \"#utility.yul\":897:1036   */\n    tag_41:\n        /* \"#utility.yul\":943:948   */\n      0x00\n        /* \"#utility.yul\":981:987   */\n      dup2\n        /* \"#utility.yul\":968:988   */\n      calldataload\n        /* \"#utility.yul\":959:988   */\n      swap1\n      pop\n        /* \"#utility.yul\":997:1030   */\n      tag_64\n        /* \"#utility.yul\":1024:1029   */\n      dup2\n        /* \"#utility.yul\":997:1030   */\n      tag_40\n      jump\t// in\n    tag_64:\n        /* \"#utility.yul\":897:1036   */\n      swap3\n      swap2\n      pop\n      pop\n      jump\t// out\n        /* \"#utility.yul\":1042:1371   */\n    tag_13:\n        /* \"#utility.yul\":1101:1107   */\n      0x00\n        /* \"#utility.yul\":1150:1152   */\n      0x20\n        /* \"#utility.yul\":1138:1147   */\n      dup3\n        /* \"#utility.yul\":1129:1136   */\n      dup5\n        /* \"#utility.yul\":1125:1148   */\n      sub\n        /* \"#utility.yul\":1121:1153   */\n      slt\n        /* \"#utility.yul\":1118:1237   */\n      iszero\n      tag_66\n      jumpi\n        /* \"#utility.yul\":1156:1235   */\n      tag_67\n      tag_38\n      jump\t// in\n    tag_67:\n        /* \"#utility.yul\":1118:1237   */\n    tag_66:\n        /* \"#utility.yul\":1276:1277   */\n      0x00\n        /* \"#utility.yul\":1301:1354   */\n      tag_68\n        /* \"#utility.yul\":1346:1353   */\n      dup5\n        /* \"#utility.yul\":1337:1343   */\n      dup3\n        /* \"#utility.yul\":1326:1335   */\n      dup6\n        /* \"#utility.yul\":1322:1344   */\n      add\n        /* \"#utility.yul\":1301:1354   */\n      tag_41\n      jump\t// in\n    tag_68:\n        /* \"#utility.yul\":1291:1354   */\n      swap2\n      pop\n        /* \"#utility.yul\":1247:1364   */\n      pop\n        /* \"#utility.yul\":1042:1371   */\n      swap3\n      swap2\n      pop\n      pop\n      jump\t// out\n        /* \"#utility.yul\":1377:1546   */\n    tag_42:\n        /* \"#utility.yul\":1461:1472   */\n      0x00\n        /* \"#utility.yul\":1495:1501   */\n      dup3\n        /* \"#utility.yul\":1490:1493   */\n      dup3\n        /* \"#utility.yul\":1483:1502   */\n      mstore\n        /* \"#utility.yul\":1535:1539   */\n      0x20\n        /* \"#utility.yul\":1530:1533   */\n      dup3\n        /* \"#utility.yul\":1526:1540   */\n      add\n        /* \"#utility.yul\":1511:1540   */\n      swap1\n      pop\n        /* \"#utility.yul\":1377:1546   */\n      swap3\n      swap2\n      pop\n      pop\n      jump\t// out\n        /* \"#utility.yul\":1552:1720   */\n    tag_43:\n        /* \"#utility.yul\":1692:1712   */\n      0x496e73756666696369656e742066756e64730000000000000000000000000000\n        /* \"#utility.yul\":1688:1689   */\n      0x00\n        /* \"#utility.yul\":1680:1686   */\n      dup3\n        /* \"#utility.yul\":1676:1690   */\n      add\n        /* \"#utility.yul\":1669:1713   */\n      mstore\n        /* \"#utility.yul\":1552:1720   */\n      pop\n      jump\t// out\n        /* \"#utility.yul\":1726:2092   */\n    tag_44:\n        /* \"#utility.yul\":1868:1871   */\n      0x00\n        /* \"#utility.yul\":1889:1956   */\n      tag_72\n        /* \"#utility.yul\":1953:1955   */\n      0x12\n        /* \"#utility.yul\":1948:1951   */\n      dup4\n        /* \"#utility.yul\":1889:1956   */\n      tag_42\n      jump\t// in\n    tag_72:\n        /* \"#utility.yul\":1882:1956   */\n      swap2\n      pop\n        /* \"#utility.yul\":1965:2058   */\n      tag_73\n        /* \"#utility.yul\":2054:2057   */\n      dup3\n        /* \"#utility.yul\":1965:2058   */\n      tag_43\n      jump\t// in\n    tag_73:\n        /* \"#utility.yul\":2083:2085   */\n      0x20\n        /* \"#utility.yul\":2078:2081   */\n      dup3\n        /* \"#utility.yul\":2074:2086   */\n      add\n        /* \"#utility.yul\":2067:2086   */\n      swap1\n      pop\n        /* \"#utility.yul\":1726:2092   */\n      swap2\n      swap1\n      pop\n      jump\t// out\n        /* \"#utility.yul\":2098:2517   */\n    tag_21:\n        /* \"#utility.yul\":2264:2268   */\n      0x00\n        /* \"#utility.yul\":2302:2304   */\n      0x20\n        /* \"#utility.yul\":2291:2300   */\n      dup3\n        /* \"#utility.yul\":2287:2305   */\n      add\n        /* \"#utility.yul\":2279:2305   */\n      swap1\n      pop\n        /* \"#utility.yul\":2351:2360   */\n      dup2\n        /* \"#utility.yul\":2345:2349   */\n      dup2\n        /* \"#utility.yul\":2341:2361   */\n      sub\n        /* \"#utility.yul\":2337:2338   */\n      0x00\n        /* \"#utility.yul\":2326:2335   */\n      dup4\n        /* \"#utility.yul\":2322:2339   */\n      add\n        /* \"#utility.yul\":2315:2362   */\n      mstore\n        /* \"#utility.yul\":2379:2510   */\n      tag_75\n        /* \"#utility.yul\":2505:2509   */\n      dup2\n        /* \"#utility.yul\":2379:2510   */\n      tag_44\n      jump\t// in\n    tag_75:\n        /* \"#utility.yul\":2371:2510   */\n      swap1\n      pop\n        /* \"#utility.yul\":2098:2517   */\n      swap2\n      swap1\n      pop\n      jump\t// out\n        /* \"#utility.yul\":2523:2703   */\n    tag_45:\n        /* \"#utility.yul\":2571:2648   */\n      0x4e487b7100000000000000000000000000000000000000000000000000000000\n        /* \"#utility.yul\":2568:2569   */\n      0x00\n        /* \"#utility.yul\":2561:2649   */\n      mstore\n        /* \"#utility.yul\":2668:2672   */\n      0x11\n        /* \"#utility.yul\":2665:2666   */\n      0x04\n        /* \"#utility.yul\":2658:2673   */\n      mstore\n        /* \"#utility.yul\":2692:2696   */\n      0x24\n        /* \"#utility.yul\":2689:2690   */\n      0x00\n        /* \"#utility.yul\":2682:2697   */\n      revert\n        /* \"#utility.yul\":2709:2903   */\n    tag_23:\n        /* \"#utility.yul\":2749:2753   */\n      0x00\n        /* \"#utility.yul\":2769:2789   */\n      tag_78\n        /* \"#utility.yul\":2787:2788   */\n      dup3\n        /* \"#utility.yul\":2769:2789   */\n      tag_35\n      jump\t// in\n    tag_78:\n        /* \"#utility.yul\":2764:2789   */\n      swap2\n      pop\n        /* \"#utility.yul\":2803:2823   */\n      tag_79\n        /* \"#utility.yul\":2821:2822   */\n      dup4\n        /* \"#utility.yul\":2803:2823   */\n      tag_35\n      jump\t// in\n    tag_79:\n        /* \"#utility.yul\":2798:2823   */\n      swap3\n      pop\n        /* \"#utility.yul\":2847:2848   */\n      dup3\n        /* \"#utility.yul\":2844:2845   */\n      dup3\n        /* \"#utility.yul\":2840:2849   */\n      sub\n        /* \"#utility.yul\":2832:2849   */\n      swap1\n      pop\n        /* \"#utility.yul\":2871:2872   */\n      dup2\n        /* \"#utility.yul\":2865:2869   */\n      dup2\n        /* \"#utility.yul\":2862:2873   */\n      gt\n        /* \"#utility.yul\":2859:2896   */\n      iszero\n      tag_80\n      jumpi\n        /* \"#utility.yul\":2876:2894   */\n      tag_81\n      tag_45\n      jump\t// in\n    tag_81:\n        /* \"#utility.yul\":2859:2896   */\n    tag_80:\n        /* \"#utility.yul\":2709:2903   */\n      swap3\n      swap2\n      pop\n      pop\n      jump\t// out\n        /* \"#utility.yul\":2909:3056   */\n    tag_46:\n        /* \"#utility.yul\":3010:3021   */\n      0x00\n        /* \"#utility.yul\":3047:3050   */\n      dup2\n        /* \"#utility.yul\":3032:3050   */\n      swap1\n      pop\n        /* \"#utility.yul\":2909:3056   */\n      swap3\n      swap2\n      pop\n      pop\n      jump\t// out\n        /* \"#utility.yul\":3062:3176   */\n    tag_47:\n      pop\n      jump\t// out\n        /* \"#utility.yul\":3182:3580   */\n    tag_48:\n        /* \"#utility.yul\":3341:3344   */\n      0x00\n        /* \"#utility.yul\":3362:3445   */\n      tag_85\n        /* \"#utility.yul\":3443:3444   */\n      0x00\n        /* \"#utility.yul\":3438:3441   */\n      dup4\n        /* \"#utility.yul\":3362:3445   */\n      tag_46\n      jump\t// in\n    tag_85:\n        /* \"#utility.yul\":3355:3445   */\n      swap2\n      pop\n        /* \"#utility.yul\":3454:3547   */\n      tag_86\n        /* \"#utility.yul\":3543:3546   */\n      dup3\n        /* \"#utility.yul\":3454:3547   */\n      tag_47\n      jump\t// in\n    tag_86:\n        /* \"#utility.yul\":3572:3573   */\n      0x00\n        /* \"#utility.yul\":3567:3570   */\n      dup3\n        /* \"#utility.yul\":3563:3574   */\n      add\n        /* \"#utility.yul\":3556:3574   */\n      swap1\n      pop\n        /* \"#utility.yul\":3182:3580   */\n      swap2\n      swap1\n      pop\n      jump\t// out\n        /* \"#utility.yul\":3586:3965   */\n    tag_25:\n        /* \"#utility.yul\":3770:3773   */\n      0x00\n        /* \"#utility.yul\":3792:3939   */\n      tag_88\n        /* \"#utility.yul\":3935:3938   */\n      dup3\n        /* \"#utility.yul\":3792:3939   */\n      tag_48\n      jump\t// in\n    tag_88:\n        /* \"#utility.yul\":3785:3939   */\n      swap2\n      pop\n        /* \"#utility.yul\":3956:3959   */\n      dup2\n        /* \"#utility.yul\":3949:3959   */\n      swap1\n      pop\n        /* \"#utility.yul\":3586:3965   */\n      swap2\n      swap1\n      pop\n      jump\t// out\n        /* \"#utility.yul\":3971:4138   */\n    tag_49:\n        /* \"#utility.yul\":4111:4130   */\n      0x7769746864726177206661696c65642121000000000000000000000000000000\n        /* \"#utility.yul\":4107:4108   */\n      0x00\n        /* \"#utility.yul\":4099:4105   */\n      dup3\n        /* \"#utility.yul\":4095:4109   */\n      add\n        /* \"#utility.yul\":4088:4131   */\n      mstore\n        /* \"#utility.yul\":3971:4138   */\n      pop\n      jump\t// out\n        /* \"#utility.yul\":4144:4510   */\n    tag_50:\n        /* \"#utility.yul\":4286:4289   */\n      0x00\n        /* \"#utility.yul\":4307:4374   */\n      tag_91\n        /* \"#utility.yul\":4371:4373   */\n      0x11\n        /* \"#utility.yul\":4366:4369   */\n      dup4\n        /* \"#utility.yul\":4307:4374   */\n      tag_42\n      jump\t// in\n    tag_91:\n        /* \"#utility.yul\":4300:4374   */\n      swap2\n      pop\n        /* \"#utility.yul\":4383:4476   */\n      tag_92\n        /* \"#utility.yul\":4472:4475   */\n      dup3\n        /* \"#utility.yul\":4383:4476   */\n      tag_49\n      jump\t// in\n    tag_92:\n        /* \"#utility.yul\":4501:4503   */\n      0x20\n        /* \"#utility.yul\":4496:4499   */\n      dup3\n        /* \"#utility.yul\":4492:4504   */\n      add\n        /* \"#utility.yul\":4485:4504   */\n      swap1\n      pop\n        /* \"#utility.yul\":4144:4510   */\n      swap2\n      swap1\n      pop\n      jump\t// out\n        /* \"#utility.yul\":4516:4935   */\n    tag_31:\n        /* \"#utility.yul\":4682:4686   */\n      0x00\n        /* \"#utility.yul\":4720:4722   */\n      0x20\n        /* \"#utility.yul\":4709:4718   */\n      dup3\n        /* \"#utility.yul\":4705:4723   */\n      add\n        /* \"#utility.yul\":4697:4723   */\n      swap1\n      pop\n        /* \"#utility.yul\":4769:4778   */\n      dup2\n        /* \"#utility.yul\":4763:4767   */\n      dup2\n        /* \"#utility.yul\":4759:4779   */\n      sub\n        /* \"#utility.yul\":4755:4756   */\n      0x00\n        /* \"#utility.yul\":4744:4753   */\n      dup4\n        /* \"#utility.yul\":4740:4757   */\n      add\n        /* \"#utility.yul\":4733:4780   */\n      mstore\n        /* \"#utility.yul\":4797:4928   */\n      tag_94\n        /* \"#utility.yul\":4923:4927   */\n      dup2\n        /* \"#utility.yul\":4797:4928   */\n      tag_50\n      jump\t// in\n    tag_94:\n        /* \"#utility.yul\":4789:4928   */\n      swap1\n      pop\n        /* \"#utility.yul\":4516:4935   */\n      swap2\n      swap1\n      pop\n      jump\t// out\n        /* \"#utility.yul\":4941:5132   */\n    tag_34:\n        /* \"#utility.yul\":4981:4984   */\n      0x00\n        /* \"#utility.yul\":5000:5020   */\n      tag_96\n        /* \"#utility.yul\":5018:5019   */\n      dup3\n        /* \"#utility.yul\":5000:5020   */\n      tag_35\n      jump\t// in\n    tag_96:\n        /* \"#utility.yul\":4995:5020   */\n      swap2\n      pop\n        /* \"#utility.yul\":5034:5054   */\n      tag_97\n        /* \"#utility.yul\":5052:5053   */\n      dup4\n        /* \"#utility.yul\":5034:5054   */\n      tag_35\n      jump\t// in\n    tag_97:\n        /* \"#utility.yul\":5029:5054   */\n      swap3\n      pop\n        /* \"#utility.yul\":5077:5078   */\n      dup3\n        /* \"#utility.yul\":5074:5075   */\n      dup3\n        /* \"#utility.yul\":5070:5079   */\n      add\n        /* \"#utility.yul\":5063:5079   */\n      swap1\n      pop\n        /* \"#utility.yul\":5098:5101   */\n      dup1\n        /* \"#utility.yul\":5095:5096   */\n      dup3\n        /* \"#utility.yul\":5092:5102   */\n      gt\n        /* \"#utility.yul\":5089:5125   */\n      iszero\n      tag_98\n      jumpi\n        /* \"#utility.yul\":5105:5123   */\n      tag_99\n      tag_45\n      jump\t// in\n    tag_99:\n        /* \"#utility.yul\":5089:5125   */\n    tag_98:\n        /* \"#utility.yul\":4941:5132   */\n      swap3\n      swap2\n      pop\n      pop\n      jump\t// out\n\n    auxdata: 0xa264697066735822122036567e07dc33b085e6f10d86dc4b6f4a872df4da01790416f323e0c60277bb8064736f6c63430008160033\n}\n",
				"bytecode": {
					"linkReferences": {},
					"object": "608060405234801561000f575f80fd5b5061051a8061001d5f395ff3fe608060405260043610610032575f3560e01c8062113e08146100365780632e1a7d4d14610060578063d0e30db014610088575b5f80fd5b348015610041575f80fd5b5061004a610092565b60405161005791906102be565b60405180910390f35b34801561006b575f80fd5b5061008660048036038101906100819190610305565b6100d5565b005b610090610252565b005b5f805f3373ffffffffffffffffffffffffffffffffffffffff1673ffffffffffffffffffffffffffffffffffffffff1681526020019081526020015f2054905090565b805f803373ffffffffffffffffffffffffffffffffffffffff1673ffffffffffffffffffffffffffffffffffffffff1681526020019081526020015f20541015610154576040517f08c379a000000000000000000000000000000000000000000000000000000000815260040161014b9061038a565b60405180910390fd5b805f803373ffffffffffffffffffffffffffffffffffffffff1673ffffffffffffffffffffffffffffffffffffffff1681526020019081526020015f205f82825461019f91906103d5565b925050819055505f3373ffffffffffffffffffffffffffffffffffffffff16826040516101cb90610435565b5f6040518083038185875af1925050503d805f8114610205576040519150601f19603f3d011682016040523d82523d5f602084013e61020a565b606091505b505090508061024e576040517f08c379a000000000000000000000000000000000000000000000000000000000815260040161024590610493565b60405180910390fd5b5050565b345f803373ffffffffffffffffffffffffffffffffffffffff1673ffffffffffffffffffffffffffffffffffffffff1681526020019081526020015f205f82825461029d91906104b1565b92505081905550565b5f819050919050565b6102b8816102a6565b82525050565b5f6020820190506102d15f8301846102af565b92915050565b5f80fd5b6102e4816102a6565b81146102ee575f80fd5b50565b5f813590506102ff816102db565b92915050565b5f6020828403121561031a576103196102d7565b5b5f610327848285016102f1565b91505092915050565b5f82825260208201905092915050565b7f496e73756666696369656e742066756e647300000000000000000000000000005f82015250565b5f610374601283610330565b915061037f82610340565b602082019050919050565b5f6020820190508181035f8301526103a181610368565b9050919050565b7f4e487b71000000000000000000000000000000000000000000000000000000005f52601160045260245ffd5b5f6103df826102a6565b91506103ea836102a6565b9250828203905081811115610402576104016103a8565b5b92915050565b5f81905092915050565b50565b5f6104205f83610408565b915061042b82610412565b5f82019050919050565b5f61043f82610415565b9150819050919050565b7f7769746864726177206661696c656421210000000000000000000000000000005f82015250565b5f61047d601183610330565b915061048882610449565b602082019050919050565b5f6020820190508181035f8301526104aa81610471565b9050919050565b5f6104bb826102a6565b91506104c6836102a6565b92508282019050808211156104de576104dd6103a8565b5b9291505056fea264697066735822122036567e07dc33b085e6f10d86dc4b6f4a872df4da01790416f323e0c60277bb8064736f6c63430008160033",
					"opcodes": "PUSH1 0x80 PUSH1 0x40 MSTORE CALLVALUE DUP1 ISZERO PUSH2 0xF JUMPI PUSH0 DUP1 REVERT JUMPDEST POP PUSH2 0x51A DUP1 PUSH2 0x1D PUSH0 CODECOPY PUSH0 RETURN INVALID PUSH1 0x80 PUSH1 0x40 MSTORE PUSH1 0x4 CALLDATASIZE LT PUSH2 0x32 JUMPI PUSH0 CALLDATALOAD PUSH1 0xE0 SHR DUP1 PUSH3 0x113E08 EQ PUSH2 0x36 JUMPI DUP1 PUSH4 0x2E1A7D4D EQ PUSH2 0x60 JUMPI DUP1 PUSH4 0xD0E30DB0 EQ PUSH2 0x88 JUMPI JUMPDEST PUSH0 DUP1 REVERT JUMPDEST CALLVALUE DUP1 ISZERO PUSH2 0x41 JUMPI PUSH0 DUP1 REVERT JUMPDEST POP PUSH2 0x4A PUSH2 0x92 JUMP JUMPDEST PUSH1 0x40 MLOAD PUSH2 0x57 SWAP2 SWAP1 PUSH2 0x2BE JUMP JUMPDEST PUSH1 0x40 MLOAD DUP1 SWAP2 SUB SWAP1 RETURN JUMPDEST CALLVALUE DUP1 ISZERO PUSH2 0x6B JUMPI PUSH0 DUP1 REVERT JUMPDEST POP PUSH2 0x86 PUSH1 0x4 DUP1 CALLDATASIZE SUB DUP2 ADD SWAP1 PUSH2 0x81 SWAP2 SWAP1 PUSH2 0x305 JUMP JUMPDEST PUSH2 0xD5 JUMP JUMPDEST STOP JUMPDEST PUSH2 0x90 PUSH2 0x252 JUMP JUMPDEST STOP JUMPDEST PUSH0 DUP1 PUSH0 CALLER PUSH20 0xFFFFFFFFFFFFFFFFFFFFFFFFFFFFFFFFFFFFFFFF AND PUSH20 0xFFFFFFFFFFFFFFFFFFFFFFFFFFFFFFFFFFFFFFFF AND DUP2 MSTORE PUSH1 0x20 ADD SWAP1 DUP2 MSTORE PUSH1 0x20 ADD PUSH0 KECCAK256 SLOAD SWAP1 POP SWAP1 JUMP JUMPDEST DUP1 PUSH0 DUP1 CALLER PUSH20 0xFFFFFFFFFFFFFFFFFFFFFFFFFFFFFFFFFFFFFFFF AND PUSH20 0xFFFFFFFFFFFFFFFFFFFFFFFFFFFFFFFFFFFFFFFF AND DUP2 MSTORE PUSH1 0x20 ADD SWAP1 DUP2 MSTORE PUSH1 0x20 ADD PUSH0 KECCAK256 SLOAD LT ISZERO PUSH2 0x154 JUMPI PUSH1 0x40 MLOAD PUSH32 0x8C379A000000000000000000000000000000000000000000000000000000000 DUP2 MSTORE PUSH1 0x4 ADD PUSH2 0x14B SWAP1 PUSH2 0x38A JUMP JUMPDEST PUSH1 0x40 MLOAD DUP1 SWAP2 SUB SWAP1 REVERT JUMPDEST DUP1 PUSH0 DUP1 CALLER PUSH20 0xFFFFFFFFFFFFFFFFFFFFFFFFFFFFFFFFFFFFFFFF AND PUSH20 0xFFFFFFFFFFFFFFFFFFFFFFFFFFFFFFFFFFFFFFFF AND DUP2 MSTORE PUSH1 0x20 ADD SWAP1 DUP2 MSTORE PUSH1 0x20 ADD PUSH0 KECCAK256 PUSH0 DUP3 DUP3 SLOAD PUSH2 0x19F SWAP2 SWAP1 PUSH2 0x3D5 JUMP JUMPDEST SWAP3 POP POP DUP2 SWAP1 SSTORE POP PUSH0 CALLER PUSH20 0xFFFFFFFFFFFFFFFFFFFFFFFFFFFFFFFFFFFFFFFF AND DUP3 PUSH1 0x40 MLOAD PUSH2 0x1CB SWAP1 PUSH2 0x435 JUMP JUMPDEST PUSH0 PUSH1 0x40 MLOAD DUP1 DUP4 SUB DUP2 DUP6 DUP8 GAS CALL SWAP3 POP POP POP RETURNDATASIZE DUP1 PUSH0 DUP2 EQ PUSH2 0x205 JUMPI PUSH1 0x40 MLOAD SWAP2 POP PUSH1 0x1F NOT PUSH1 0x3F RETURNDATASIZE ADD AND DUP3 ADD PUSH1 0x40 MSTORE RETURNDATASIZE DUP3 MSTORE RETURNDATASIZE PUSH0 PUSH1 0x20 DUP5 ADD RETURNDATACOPY PUSH2 0x20A JUMP JUMPDEST PUSH1 0x60 SWAP2 POP JUMPDEST POP POP SWAP1 POP DUP1 PUSH2 0x24E JUMPI PUSH1 0x40 MLOAD PUSH32 0x8C379A000000000000000000000000000000000000000000000000000000000 DUP2 MSTORE PUSH1 0x4 ADD PUSH2 0x245 SWAP1 PUSH2 0x493 JUMP JUMPDEST PUSH1 0x40 MLOAD DUP1 SWAP2 SUB SWAP1 REVERT JUMPDEST POP POP JUMP JUMPDEST CALLVALUE PUSH0 DUP1 CALLER PUSH20 0xFFFFFFFFFFFFFFFFFFFFFFFFFFFFFFFFFFFFFFFF AND PUSH20 0xFFFFFFFFFFFFFFFFFFFFFFFFFFFFFFFFFFFFFFFF AND DUP2 MSTORE PUSH1 0x20 ADD SWAP1 DUP2 MSTORE PUSH1 0x20 ADD PUSH0 KECCAK256 PUSH0 DUP3 DUP3 SLOAD PUSH2 0x29D SWAP2 SWAP1 PUSH2 0x4B1 JUMP JUMPDEST SWAP3 POP POP DUP2 SWAP1 SSTORE POP JUMP JUMPDEST PUSH0 DUP2 SWAP1 POP SWAP2 SWAP1 POP JUMP JUMPDEST PUSH2 0x2B8 DUP2 PUSH2 0x2A6 JUMP JUMPDEST DUP3 MSTORE POP POP JUMP JUMPDEST PUSH0 PUSH1 0x20 DUP3 ADD SWAP1 POP PUSH2 0x2D1 PUSH0 DUP4 ADD DUP5 PUSH2 0x2AF JUMP JUMPDEST SWAP3 SWAP2 POP POP JUMP JUMPDEST PUSH0 DUP1 REVERT JUMPDEST PUSH2 0x2E4 DUP2 PUSH2 0x2A6 JUMP JUMPDEST DUP2 EQ PUSH2 0x2EE JUMPI PUSH0 DUP1 REVERT JUMPDEST POP JUMP JUMPDEST PUSH0 DUP2 CALLDATALOAD SWAP1 POP PUSH2 0x2FF DUP2 PUSH2 0x2DB JUMP JUMPDEST SWAP3 SWAP2 POP POP JUMP JUMPDEST PUSH0 PUSH1 0x20 DUP3 DUP5 SUB SLT ISZERO PUSH2 0x31A JUMPI PUSH2 0x319 PUSH2 0x2D7 JUMP JUMPDEST JUMPDEST PUSH0 PUSH2 0x327 DUP5 DUP3 DUP6 ADD PUSH2 0x2F1 JUMP JUMPDEST SWAP2 POP POP SWAP3 SWAP2 POP POP JUMP JUMPDEST PUSH0 DUP3 DUP3 MSTORE PUSH1 0x20 DUP3 ADD SWAP1 POP SWAP3 SWAP2 POP POP JUMP JUMPDEST PUSH32 0x496E73756666696369656E742066756E64730000000000000000000000000000 PUSH0 DUP3 ADD MSTORE POP JUMP JUMPDEST PUSH0 PUSH2 0x374 PUSH1 0x12 DUP4 PUSH2 0x330 JUMP JUMPDEST SWAP2 POP PUSH2 0x37F DUP3 PUSH2 0x340 JUMP JUMPDEST PUSH1 0x20 DUP3 ADD SWAP1 POP SWAP2 SWAP1 POP JUMP JUMPDEST PUSH0 PUSH1 0x20 DUP3 ADD SWAP1 POP DUP2 DUP2 SUB PUSH0 DUP4 ADD MSTORE PUSH2 0x3A1 DUP2 PUSH2 0x368 JUMP JUMPDEST SWAP1 POP SWAP2 SWAP1 POP JUMP JUMPDEST PUSH32 0x4E487B7100000000000000000000000000000000000000000000000000000000 PUSH0 MSTORE PUSH1 0x11 PUSH1 0x4 MSTORE PUSH1 0x24 PUSH0 REVERT JUMPDEST PUSH0 PUSH2 0x3DF DUP3 PUSH2 0x2A6 JUMP JUMPDEST SWAP2 POP PUSH2 0x3EA DUP4 PUSH2 0x2A6 JUMP JUMPDEST SWAP3 POP DUP3 DUP3 SUB SWAP1 POP DUP2 DUP2 GT ISZERO PUSH2 0x402 JUMPI PUSH2 0x401 PUSH2 0x3A8 JUMP JUMPDEST JUMPDEST SWAP3 SWAP2 POP POP JUMP JUMPDEST PUSH0 DUP2 SWAP1 POP SWAP3 SWAP2 POP POP JUMP JUMPDEST POP JUMP JUMPDEST PUSH0 PUSH2 0x420 PUSH0 DUP4 PUSH2 0x408 JUMP JUMPDEST SWAP2 POP PUSH2 0x42B DUP3 PUSH2 0x412 JUMP JUMPDEST PUSH0 DUP3 ADD SWAP1 POP SWAP2 SWAP1 POP JUMP JUMPDEST PUSH0 PUSH2 0x43F DUP3 PUSH2 0x415 JUMP JUMPDEST SWAP2 POP DUP2 SWAP1 POP SWAP2 SWAP1 POP JUMP JUMPDEST PUSH32 0x7769746864726177206661696C65642121000000000000000000000000000000 PUSH0 DUP3 ADD MSTORE POP JUMP JUMPDEST PUSH0 PUSH2 0x47D PUSH1 0x11 DUP4 PUSH2 0x330 JUMP JUMPDEST SWAP2 POP PUSH2 0x488 DUP3 PUSH2 0x449 JUMP JUMPDEST PUSH1 0x20 DUP3 ADD SWAP1 POP SWAP2 SWAP1 POP JUMP JUMPDEST PUSH0 PUSH1 0x20 DUP3 ADD SWAP1 POP DUP2 DUP2 SUB PUSH0 DUP4 ADD MSTORE PUSH2 0x4AA DUP2 PUSH2 0x471 JUMP JUMPDEST SWAP1 POP SWAP2 SWAP1 POP JUMP JUMPDEST PUSH0 PUSH2 0x4BB DUP3 PUSH2 0x2A6 JUMP JUMPDEST SWAP2 POP PUSH2 0x4C6 DUP4 PUSH2 0x2A6 JUMP JUMPDEST SWAP3 POP DUP3 DUP3 ADD SWAP1 POP DUP1 DUP3 GT ISZERO PUSH2 0x4DE JUMPI PUSH2 0x4DD PUSH2 0x3A8 JUMP JUMPDEST JUMPDEST SWAP3 SWAP2 POP POP JUMP INVALID LOG2 PUSH5 0x6970667358 0x22 SLT KECCAK256 CALLDATASIZE JUMP PUSH31 0x7DC33B085E6F10D86DC4B6F4A872DF4DA01790416F323E0C60277BB806473 PUSH16 0x6C634300081600330000000000000000 "
				},
				"gasEstimates": {
					"creation": {
						"codeDepositCost": "261200",
						"executionCost": "298",
						"totalCost": "261498"
					},
					"external": {
						"deposit()": "infinite",
						"getBalances()": "2497",
						"withdraw(uint256)": "infinite"
					}
				},
				"methodIdentifiers": {
					"deposit()": "d0e30db0",
					"getBalances()": "00113e08",
					"withdraw(uint256)": "2e1a7d4d"
				}
			},
			"storageLayout": {
				"storage": [
					{
						"astId": 5,
						"contract": "contracts/EasyBank.sol:EasyBank",
						"label": "balances",
						"offset": 0,
						"slot": "0",
						"type": "t_mapping(t_address,t_uint256)"
					}
				],
				"types": {
					"t_address": {
						"encoding": "inplace",
						"label": "address",
						"numberOfBytes": "20"
					},
					"t_mapping(t_address,t_uint256)": {
						"encoding": "mapping",
						"key": "t_address",
						"label": "mapping(address => uint256)",
						"numberOfBytes": "32",
						"value": "t_uint256"
					},
					"t_uint256": {
						"encoding": "inplace",
						"label": "uint256",
						"numberOfBytes": "32"
					}
				}
			},
			"userdoc": {
				"kind": "user",
				"methods": {},
				"version": 1
			}
		}
	}
}