{
	"contracts/FinalExam_ComplicatedBank3.sol": {
		"ComplicatedBank": {
			"abi": [
				{
					"inputs": [],
					"stateMutability": "nonpayable",
					"type": "constructor"
				},
				{
					"inputs": [
						{
							"internalType": "uint256",
							"name": "",
							"type": "uint256"
						}
					],
					"name": "accounts",
					"outputs": [
						{
							"internalType": "address",
							"name": "",
							"type": "address"
						}
					],
					"stateMutability": "view",
					"type": "function"
				},
				{
					"inputs": [
						{
							"internalType": "address",
							"name": "",
							"type": "address"
						}
					],
					"name": "balances",
					"outputs": [
						{
							"internalType": "uint256",
							"name": "",
							"type": "uint256"
						}
					],
					"stateMutability": "view",
					"type": "function"
				},
				{
					"inputs": [
						{
							"internalType": "address",
							"name": "_address",
							"type": "address"
						}
					],
					"name": "calculateInterest",
					"outputs": [
						{
							"internalType": "uint256",
							"name": "",
							"type": "uint256"
						}
					],
					"stateMutability": "view",
					"type": "function"
				},
				{
					"inputs": [],
					"name": "deposit",
					"outputs": [],
					"stateMutability": "payable",
					"type": "function"
				},
				{
					"inputs": [],
					"name": "getBalances",
					"outputs": [
						{
							"internalType": "uint256",
							"name": "",
							"type": "uint256"
						}
					],
					"stateMutability": "view",
					"type": "function"
				},
				{
					"inputs": [],
					"name": "getSystemBalance",
					"outputs": [
						{
							"internalType": "uint256",
							"name": "",
							"type": "uint256"
						}
					],
					"stateMutability": "view",
					"type": "function"
				},
				{
					"inputs": [],
					"name": "owner",
					"outputs": [
						{
							"internalType": "address",
							"name": "",
							"type": "address"
						}
					],
					"stateMutability": "view",
					"type": "function"
				},
				{
					"inputs": [],
					"name": "rate",
					"outputs": [
						{
							"internalType": "uint256",
							"name": "",
							"type": "uint256"
						}
					],
					"stateMutability": "view",
					"type": "function"
				},
				{
					"inputs": [
						{
							"internalType": "uint256",
							"name": "amount",
							"type": "uint256"
						}
					],
					"name": "withdraw",
					"outputs": [],
					"stateMutability": "nonpayable",
					"type": "function"
				}
			],
			"devdoc": {
				"kind": "dev",
				"methods": {},
				"version": 1
			},
			"evm": {
				"assembly": "    /* \"contracts/FinalExam_ComplicatedBank3.sol\":61:2624  contract ComplicatedBank {... */\n  mstore(0x40, 0x80)\n    /* \"contracts/FinalExam_ComplicatedBank3.sol\":195:196  3 */\n  0x03\n    /* \"contracts/FinalExam_ComplicatedBank3.sol\":176:196  uint public rate = 3 */\n  0x02\n  sstore\n    /* \"contracts/FinalExam_ComplicatedBank3.sol\":373:592  constructor() {... */\n  callvalue\n  dup1\n  iszero\n  tag_1\n  jumpi\n  0x00\n  dup1\n  revert\ntag_1:\n  pop\n    /* \"contracts/FinalExam_ComplicatedBank3.sol\":406:416  msg.sender */\n  caller\n    /* \"contracts/FinalExam_ComplicatedBank3.sol\":398:403  owner */\n  0x03\n  0x00\n    /* \"contracts/FinalExam_ComplicatedBank3.sol\":398:416  owner = msg.sender */\n  0x0100\n  exp\n  dup2\n  sload\n  dup2\n  0xffffffffffffffffffffffffffffffffffffffff\n  mul\n  not\n  and\n  swap1\n  dup4\n  0xffffffffffffffffffffffffffffffffffffffff\n  and\n  mul\n  or\n  swap1\n  sstore\n  pop\n    /* \"contracts/FinalExam_ComplicatedBank3.sol\":61:2624  contract ComplicatedBank {... */\n  dataSize(sub_0)\n  dup1\n  dataOffset(sub_0)\n  0x00\n  codecopy\n  0x00\n  return\nstop\n\nsub_0: assembly {\n        /* \"contracts/FinalExam_ComplicatedBank3.sol\":61:2624  contract ComplicatedBank {... */\n      mstore(0x40, 0x80)\n      jumpi(tag_1, lt(calldatasize, 0x04))\n      shr(0xe0, calldataload(0x00))\n      dup1\n      0x2e1a7d4d\n      gt\n      tag_11\n      jumpi\n      dup1\n      0x2e1a7d4d\n      eq\n      tag_6\n      jumpi\n      dup1\n      0x8da5cb5b\n      eq\n      tag_7\n      jumpi\n      dup1\n      0xd0e30db0\n      eq\n      tag_8\n      jumpi\n      dup1\n      0xe11932cf\n      eq\n      tag_9\n      jumpi\n      dup1\n      0xf2a40db8\n      eq\n      tag_10\n      jumpi\n      jump(tag_1)\n    tag_11:\n      dup1\n      0x113e08\n      eq\n      tag_2\n      jumpi\n      dup1\n      0x21f4ae14\n      eq\n      tag_3\n      jumpi\n      dup1\n      0x27e235e3\n      eq\n      tag_4\n      jumpi\n      dup1\n      0x2c4e722e\n      eq\n      tag_5\n      jumpi\n    tag_1:\n      0x00\n      dup1\n      revert\n        /* \"contracts/FinalExam_ComplicatedBank3.sol\":831:1116  function getBalances() public view returns (uint256) {... */\n    tag_2:\n      callvalue\n      dup1\n      iszero\n      tag_12\n      jumpi\n      0x00\n      dup1\n      revert\n    tag_12:\n      pop\n      tag_13\n      tag_14\n      jump\t// in\n    tag_13:\n      mload(0x40)\n      tag_15\n      swap2\n      swap1\n      tag_16\n      jump\t// in\n    tag_15:\n      mload(0x40)\n      dup1\n      swap2\n      sub\n      swap1\n      return\n        /* \"contracts/FinalExam_ComplicatedBank3.sol\":2089:2339  function getSystemBalance() public onlyOwner view returns (uint256) {... */\n    tag_3:\n      callvalue\n      dup1\n      iszero\n      tag_17\n      jumpi\n      0x00\n      dup1\n      revert\n    tag_17:\n      pop\n      tag_18\n      tag_19\n      jump\t// in\n    tag_18:\n      mload(0x40)\n      tag_20\n      swap2\n      swap1\n      tag_16\n      jump\t// in\n    tag_20:\n      mload(0x40)\n      dup1\n      swap2\n      sub\n      swap1\n      return\n        /* \"contracts/FinalExam_ComplicatedBank3.sol\":93:137  mapping (address => uint256) public balances */\n    tag_4:\n      callvalue\n      dup1\n      iszero\n      tag_21\n      jumpi\n      0x00\n      dup1\n      revert\n    tag_21:\n      pop\n      tag_22\n      0x04\n      dup1\n      calldatasize\n      sub\n      dup2\n      add\n      swap1\n      tag_23\n      swap2\n      swap1\n      tag_24\n      jump\t// in\n    tag_23:\n      tag_25\n      jump\t// in\n    tag_22:\n      mload(0x40)\n      tag_26\n      swap2\n      swap1\n      tag_16\n      jump\t// in\n    tag_26:\n      mload(0x40)\n      dup1\n      swap2\n      sub\n      swap1\n      return\n        /* \"contracts/FinalExam_ComplicatedBank3.sol\":176:196  uint public rate = 3 */\n    tag_5:\n      callvalue\n      dup1\n      iszero\n      tag_27\n      jumpi\n      0x00\n      dup1\n      revert\n    tag_27:\n      pop\n      tag_28\n      tag_29\n      jump\t// in\n    tag_28:\n      mload(0x40)\n      tag_30\n      swap2\n      swap1\n      tag_16\n      jump\t// in\n    tag_30:\n      mload(0x40)\n      dup1\n      swap2\n      sub\n      swap1\n      return\n        /* \"contracts/FinalExam_ComplicatedBank3.sol\":1344:2081  function withdraw(uint256 amount) public {... */\n    tag_6:\n      callvalue\n      dup1\n      iszero\n      tag_31\n      jumpi\n      0x00\n      dup1\n      revert\n    tag_31:\n      pop\n      tag_32\n      0x04\n      dup1\n      calldatasize\n      sub\n      dup2\n      add\n      swap1\n      tag_33\n      swap2\n      swap1\n      tag_34\n      jump\t// in\n    tag_33:\n      tag_35\n      jump\t// in\n    tag_32:\n      stop\n        /* \"contracts/FinalExam_ComplicatedBank3.sol\":344:364  address public owner */\n    tag_7:\n      callvalue\n      dup1\n      iszero\n      tag_36\n      jumpi\n      0x00\n      dup1\n      revert\n    tag_36:\n      pop\n      tag_37\n      tag_38\n      jump\t// in\n    tag_37:\n      mload(0x40)\n      tag_39\n      swap2\n      swap1\n      tag_40\n      jump\t// in\n    tag_39:\n      mload(0x40)\n      dup1\n      swap2\n      sub\n      swap1\n      return\n        /* \"contracts/FinalExam_ComplicatedBank3.sol\":1124:1336  function deposit() public payable {... */\n    tag_8:\n      tag_41\n      tag_42\n      jump\t// in\n    tag_41:\n      stop\n        /* \"contracts/FinalExam_ComplicatedBank3.sol\":2347:2621  function calculateInterest(address _address) public onlyOwner view returns (uint256) {... */\n    tag_9:\n      callvalue\n      dup1\n      iszero\n      tag_43\n      jumpi\n      0x00\n      dup1\n      revert\n    tag_43:\n      pop\n      tag_44\n      0x04\n      dup1\n      calldatasize\n      sub\n      dup2\n      add\n      swap1\n      tag_45\n      swap2\n      swap1\n      tag_24\n      jump\t// in\n    tag_45:\n      tag_46\n      jump\t// in\n    tag_44:\n      mload(0x40)\n      tag_47\n      swap2\n      swap1\n      tag_16\n      jump\t// in\n    tag_47:\n      mload(0x40)\n      dup1\n      swap2\n      sub\n      swap1\n      return\n        /* \"contracts/FinalExam_ComplicatedBank3.sol\":144:169  address[] public accounts */\n    tag_10:\n      callvalue\n      dup1\n      iszero\n      tag_48\n      jumpi\n      0x00\n      dup1\n      revert\n    tag_48:\n      pop\n      tag_49\n      0x04\n      dup1\n      calldatasize\n      sub\n      dup2\n      add\n      swap1\n      tag_50\n      swap2\n      swap1\n      tag_34\n      jump\t// in\n    tag_50:\n      tag_51\n      jump\t// in\n    tag_49:\n      mload(0x40)\n      tag_52\n      swap2\n      swap1\n      tag_40\n      jump\t// in\n    tag_52:\n      mload(0x40)\n      dup1\n      swap2\n      sub\n      swap1\n      return\n        /* \"contracts/FinalExam_ComplicatedBank3.sol\":831:1116  function getBalances() public view returns (uint256) {... */\n    tag_14:\n        /* \"contracts/FinalExam_ComplicatedBank3.sol\":875:882  uint256 */\n      0x00\n        /* \"contracts/FinalExam_ComplicatedBank3.sol\":902:910  balances */\n      dup1\n        /* \"contracts/FinalExam_ComplicatedBank3.sol\":902:922  balances[msg.sender] */\n      0x00\n        /* \"contracts/FinalExam_ComplicatedBank3.sol\":911:921  msg.sender */\n      caller\n        /* \"contracts/FinalExam_ComplicatedBank3.sol\":902:922  balances[msg.sender] */\n      0xffffffffffffffffffffffffffffffffffffffff\n      and\n      0xffffffffffffffffffffffffffffffffffffffff\n      and\n      dup2\n      mstore\n      0x20\n      add\n      swap1\n      dup2\n      mstore\n      0x20\n      add\n      0x00\n      keccak256\n      sload\n        /* \"contracts/FinalExam_ComplicatedBank3.sol\":895:922  return balances[msg.sender] */\n      swap1\n      pop\n        /* \"contracts/FinalExam_ComplicatedBank3.sol\":831:1116  function getBalances() public view returns (uint256) {... */\n      swap1\n      jump\t// out\n        /* \"contracts/FinalExam_ComplicatedBank3.sol\":2089:2339  function getSystemBalance() public onlyOwner view returns (uint256) {... */\n    tag_19:\n        /* \"contracts/FinalExam_ComplicatedBank3.sol\":2148:2155  uint256 */\n      0x00\n        /* \"contracts/FinalExam_ComplicatedBank3.sol\":652:657  owner */\n      0x03\n      0x00\n      swap1\n      sload\n      swap1\n      0x0100\n      exp\n      swap1\n      div\n      0xffffffffffffffffffffffffffffffffffffffff\n      and\n        /* \"contracts/FinalExam_ComplicatedBank3.sol\":638:657  msg.sender == owner */\n      0xffffffffffffffffffffffffffffffffffffffff\n      and\n        /* \"contracts/FinalExam_ComplicatedBank3.sol\":638:648  msg.sender */\n      caller\n        /* \"contracts/FinalExam_ComplicatedBank3.sol\":638:657  msg.sender == owner */\n      0xffffffffffffffffffffffffffffffffffffffff\n      and\n      eq\n        /* \"contracts/FinalExam_ComplicatedBank3.sol\":630:684  require(msg.sender == owner, \"Only owner can do this\") */\n      tag_55\n      jumpi\n      mload(0x40)\n      0x08c379a000000000000000000000000000000000000000000000000000000000\n      dup2\n      mstore\n      0x04\n      add\n      tag_56\n      swap1\n      tag_57\n      jump\t// in\n    tag_56:\n      mload(0x40)\n      dup1\n      swap2\n      sub\n      swap1\n      revert\n    tag_55:\n        /* \"contracts/FinalExam_ComplicatedBank3.sol\":2175:2196  address(this).balance */\n      selfbalance\n        /* \"contracts/FinalExam_ComplicatedBank3.sol\":2168:2196  return address(this).balance */\n      swap1\n      pop\n        /* \"contracts/FinalExam_ComplicatedBank3.sol\":2089:2339  function getSystemBalance() public onlyOwner view returns (uint256) {... */\n      swap1\n      jump\t// out\n        /* \"contracts/FinalExam_ComplicatedBank3.sol\":93:137  mapping (address => uint256) public balances */\n    tag_25:\n      mstore(0x20, 0x00)\n      dup1\n      0x00\n      mstore\n      keccak256(0x00, 0x40)\n      0x00\n      swap2\n      pop\n      swap1\n      pop\n      sload\n      dup2\n      jump\t// out\n        /* \"contracts/FinalExam_ComplicatedBank3.sol\":176:196  uint public rate = 3 */\n    tag_29:\n      sload(0x02)\n      dup2\n      jump\t// out\n        /* \"contracts/FinalExam_ComplicatedBank3.sol\":1344:2081  function withdraw(uint256 amount) public {... */\n    tag_35:\n        /* \"contracts/FinalExam_ComplicatedBank3.sol\":1428:1434  amount */\n      dup1\n        /* \"contracts/FinalExam_ComplicatedBank3.sol\":1404:1412  balances */\n      0x00\n        /* \"contracts/FinalExam_ComplicatedBank3.sol\":1404:1424  balances[msg.sender] */\n      dup1\n        /* \"contracts/FinalExam_ComplicatedBank3.sol\":1413:1423  msg.sender */\n      caller\n        /* \"contracts/FinalExam_ComplicatedBank3.sol\":1404:1424  balances[msg.sender] */\n      0xffffffffffffffffffffffffffffffffffffffff\n      and\n      0xffffffffffffffffffffffffffffffffffffffff\n      and\n      dup2\n      mstore\n      0x20\n      add\n      swap1\n      dup2\n      mstore\n      0x20\n      add\n      0x00\n      keccak256\n      sload\n        /* \"contracts/FinalExam_ComplicatedBank3.sol\":1404:1434  balances[msg.sender] >= amount */\n      lt\n      iszero\n        /* \"contracts/FinalExam_ComplicatedBank3.sol\":1396:1457  require(balances[msg.sender] >= amount, \"Insufficient funds\") */\n      tag_60\n      jumpi\n      mload(0x40)\n      0x08c379a000000000000000000000000000000000000000000000000000000000\n      dup2\n      mstore\n      0x04\n      add\n      tag_61\n      swap1\n      tag_62\n      jump\t// in\n    tag_61:\n      mload(0x40)\n      dup1\n      swap2\n      sub\n      swap1\n      revert\n    tag_60:\n        /* \"contracts/FinalExam_ComplicatedBank3.sol\":1695:1701  amount */\n      dup1\n        /* \"contracts/FinalExam_ComplicatedBank3.sol\":1671:1679  balances */\n      0x00\n        /* \"contracts/FinalExam_ComplicatedBank3.sol\":1671:1691  balances[msg.sender] */\n      dup1\n        /* \"contracts/FinalExam_ComplicatedBank3.sol\":1680:1690  msg.sender */\n      caller\n        /* \"contracts/FinalExam_ComplicatedBank3.sol\":1671:1691  balances[msg.sender] */\n      0xffffffffffffffffffffffffffffffffffffffff\n      and\n      0xffffffffffffffffffffffffffffffffffffffff\n      and\n      dup2\n      mstore\n      0x20\n      add\n      swap1\n      dup2\n      mstore\n      0x20\n      add\n      0x00\n      keccak256\n      0x00\n        /* \"contracts/FinalExam_ComplicatedBank3.sol\":1671:1701  balances[msg.sender] -= amount */\n      dup3\n      dup3\n      sload\n      tag_63\n      swap2\n      swap1\n      tag_64\n      jump\t// in\n    tag_63:\n      swap3\n      pop\n      pop\n      dup2\n      swap1\n      sstore\n      pop\n        /* \"contracts/FinalExam_ComplicatedBank3.sol\":1823:1835  bool success */\n      0x00\n        /* \"contracts/FinalExam_ComplicatedBank3.sol\":1841:1851  msg.sender */\n      caller\n        /* \"contracts/FinalExam_ComplicatedBank3.sol\":1841:1856  msg.sender.call */\n      0xffffffffffffffffffffffffffffffffffffffff\n      and\n        /* \"contracts/FinalExam_ComplicatedBank3.sol\":1864:1870  amount */\n      dup3\n        /* \"contracts/FinalExam_ComplicatedBank3.sol\":1841:1875  msg.sender.call{value: amount}(\"\") */\n      mload(0x40)\n      tag_65\n      swap1\n      tag_66\n      jump\t// in\n    tag_65:\n      0x00\n      mload(0x40)\n      dup1\n      dup4\n      sub\n      dup2\n      dup6\n      dup8\n      gas\n      call\n      swap3\n      pop\n      pop\n      pop\n      returndatasize\n      dup1\n      0x00\n      dup2\n      eq\n      tag_69\n      jumpi\n      mload(0x40)\n      swap2\n      pop\n      and(add(returndatasize, 0x3f), not(0x1f))\n      dup3\n      add\n      0x40\n      mstore\n      returndatasize\n      dup3\n      mstore\n      returndatasize\n      0x00\n      0x20\n      dup5\n      add\n      returndatacopy\n      jump(tag_68)\n    tag_69:\n      0x60\n      swap2\n      pop\n    tag_68:\n      pop\n        /* \"contracts/FinalExam_ComplicatedBank3.sol\":1822:1875  (bool success, ) = msg.sender.call{value: amount}(\"\") */\n      pop\n      swap1\n      pop\n        /* \"contracts/FinalExam_ComplicatedBank3.sol\":2044:2051  success */\n      dup1\n        /* \"contracts/FinalExam_ComplicatedBank3.sol\":2036:2073  require(success, \"Withdrawal failed\") */\n      tag_70\n      jumpi\n      mload(0x40)\n      0x08c379a000000000000000000000000000000000000000000000000000000000\n      dup2\n      mstore\n      0x04\n      add\n      tag_71\n      swap1\n      tag_72\n      jump\t// in\n    tag_71:\n      mload(0x40)\n      dup1\n      swap2\n      sub\n      swap1\n      revert\n    tag_70:\n        /* \"contracts/FinalExam_ComplicatedBank3.sol\":1385:2081  {... */\n      pop\n        /* \"contracts/FinalExam_ComplicatedBank3.sol\":1344:2081  function withdraw(uint256 amount) public {... */\n      pop\n      jump\t// out\n        /* \"contracts/FinalExam_ComplicatedBank3.sol\":344:364  address public owner */\n    tag_38:\n      0x03\n      0x00\n      swap1\n      sload\n      swap1\n      0x0100\n      exp\n      swap1\n      div\n      0xffffffffffffffffffffffffffffffffffffffff\n      and\n      dup2\n      jump\t// out\n        /* \"contracts/FinalExam_ComplicatedBank3.sol\":1124:1336  function deposit() public payable {... */\n    tag_42:\n        /* \"contracts/FinalExam_ComplicatedBank3.sol\":1193:1202  msg.value */\n      callvalue\n        /* \"contracts/FinalExam_ComplicatedBank3.sol\":1169:1177  balances */\n      0x00\n        /* \"contracts/FinalExam_ComplicatedBank3.sol\":1169:1189  balances[msg.sender] */\n      dup1\n        /* \"contracts/FinalExam_ComplicatedBank3.sol\":1178:1188  msg.sender */\n      caller\n        /* \"contracts/FinalExam_ComplicatedBank3.sol\":1169:1189  balances[msg.sender] */\n      0xffffffffffffffffffffffffffffffffffffffff\n      and\n      0xffffffffffffffffffffffffffffffffffffffff\n      and\n      dup2\n      mstore\n      0x20\n      add\n      swap1\n      dup2\n      mstore\n      0x20\n      add\n      0x00\n      keccak256\n      0x00\n        /* \"contracts/FinalExam_ComplicatedBank3.sol\":1169:1202  balances[msg.sender] += msg.value */\n      dup3\n      dup3\n      sload\n      tag_74\n      swap2\n      swap1\n      tag_75\n      jump\t// in\n    tag_74:\n      swap3\n      pop\n      pop\n      dup2\n      swap1\n      sstore\n      pop\n        /* \"contracts/FinalExam_ComplicatedBank3.sol\":1124:1336  function deposit() public payable {... */\n      jump\t// out\n        /* \"contracts/FinalExam_ComplicatedBank3.sol\":2347:2621  function calculateInterest(address _address) public onlyOwner view returns (uint256) {... */\n    tag_46:\n        /* \"contracts/FinalExam_ComplicatedBank3.sol\":2423:2430  uint256 */\n      0x00\n        /* \"contracts/FinalExam_ComplicatedBank3.sol\":652:657  owner */\n      0x03\n      0x00\n      swap1\n      sload\n      swap1\n      0x0100\n      exp\n      swap1\n      div\n      0xffffffffffffffffffffffffffffffffffffffff\n      and\n        /* \"contracts/FinalExam_ComplicatedBank3.sol\":638:657  msg.sender == owner */\n      0xffffffffffffffffffffffffffffffffffffffff\n      and\n        /* \"contracts/FinalExam_ComplicatedBank3.sol\":638:648  msg.sender */\n      caller\n        /* \"contracts/FinalExam_ComplicatedBank3.sol\":638:657  msg.sender == owner */\n      0xffffffffffffffffffffffffffffffffffffffff\n      and\n      eq\n        /* \"contracts/FinalExam_ComplicatedBank3.sol\":630:684  require(msg.sender == owner, \"Only owner can do this\") */\n      tag_77\n      jumpi\n      mload(0x40)\n      0x08c379a000000000000000000000000000000000000000000000000000000000\n      dup2\n      mstore\n      0x04\n      add\n      tag_78\n      swap1\n      tag_57\n      jump\t// in\n    tag_78:\n      mload(0x40)\n      dup1\n      swap2\n      sub\n      swap1\n      revert\n    tag_77:\n        /* \"contracts/FinalExam_ComplicatedBank3.sol\":2443:2459  uint256 interest */\n      0x00\n        /* \"contracts/FinalExam_ComplicatedBank3.sol\":2490:2493  100 */\n      0x64\n        /* \"contracts/FinalExam_ComplicatedBank3.sol\":2483:2487  rate */\n      sload(0x02)\n        /* \"contracts/FinalExam_ComplicatedBank3.sol\":2462:2470  balances */\n      0x00\n        /* \"contracts/FinalExam_ComplicatedBank3.sol\":2462:2480  balances[_address] */\n      dup1\n        /* \"contracts/FinalExam_ComplicatedBank3.sol\":2471:2479  _address */\n      dup7\n        /* \"contracts/FinalExam_ComplicatedBank3.sol\":2462:2480  balances[_address] */\n      0xffffffffffffffffffffffffffffffffffffffff\n      and\n      0xffffffffffffffffffffffffffffffffffffffff\n      and\n      dup2\n      mstore\n      0x20\n      add\n      swap1\n      dup2\n      mstore\n      0x20\n      add\n      0x00\n      keccak256\n      sload\n        /* \"contracts/FinalExam_ComplicatedBank3.sol\":2462:2487  balances[_address] * rate */\n      tag_80\n      swap2\n      swap1\n      tag_81\n      jump\t// in\n    tag_80:\n        /* \"contracts/FinalExam_ComplicatedBank3.sol\":2462:2493  balances[_address] * rate / 100 */\n      tag_82\n      swap2\n      swap1\n      tag_83\n      jump\t// in\n    tag_82:\n        /* \"contracts/FinalExam_ComplicatedBank3.sol\":2443:2493  uint256 interest = balances[_address] * rate / 100 */\n      swap1\n      pop\n        /* \"contracts/FinalExam_ComplicatedBank3.sol\":2605:2613  interest */\n      dup1\n        /* \"contracts/FinalExam_ComplicatedBank3.sol\":2598:2613  return interest */\n      swap2\n      pop\n      pop\n        /* \"contracts/FinalExam_ComplicatedBank3.sol\":2347:2621  function calculateInterest(address _address) public onlyOwner view returns (uint256) {... */\n      swap2\n      swap1\n      pop\n      jump\t// out\n        /* \"contracts/FinalExam_ComplicatedBank3.sol\":144:169  address[] public accounts */\n    tag_51:\n      0x01\n      dup2\n      dup2\n      sload\n      dup2\n      lt\n      tag_84\n      jumpi\n      0x00\n      dup1\n      revert\n    tag_84:\n      swap1\n      0x00\n      mstore\n      keccak256(0x00, 0x20)\n      add\n      0x00\n      swap2\n      pop\n      sload\n      swap1\n      0x0100\n      exp\n      swap1\n      div\n      0xffffffffffffffffffffffffffffffffffffffff\n      and\n      dup2\n      jump\t// out\n        /* \"#utility.yul\":7:84   */\n    tag_86:\n        /* \"#utility.yul\":44:51   */\n      0x00\n        /* \"#utility.yul\":73:78   */\n      dup2\n        /* \"#utility.yul\":62:78   */\n      swap1\n      pop\n        /* \"#utility.yul\":7:84   */\n      swap2\n      swap1\n      pop\n      jump\t// out\n        /* \"#utility.yul\":90:208   */\n    tag_87:\n        /* \"#utility.yul\":177:201   */\n      tag_113\n        /* \"#utility.yul\":195:200   */\n      dup2\n        /* \"#utility.yul\":177:201   */\n      tag_86\n      jump\t// in\n    tag_113:\n        /* \"#utility.yul\":172:175   */\n      dup3\n        /* \"#utility.yul\":165:202   */\n      mstore\n        /* \"#utility.yul\":90:208   */\n      pop\n      pop\n      jump\t// out\n        /* \"#utility.yul\":214:436   */\n    tag_16:\n        /* \"#utility.yul\":307:311   */\n      0x00\n        /* \"#utility.yul\":345:347   */\n      0x20\n        /* \"#utility.yul\":334:343   */\n      dup3\n        /* \"#utility.yul\":330:348   */\n      add\n        /* \"#utility.yul\":322:348   */\n      swap1\n      pop\n        /* \"#utility.yul\":358:429   */\n      tag_115\n        /* \"#utility.yul\":426:427   */\n      0x00\n        /* \"#utility.yul\":415:424   */\n      dup4\n        /* \"#utility.yul\":411:428   */\n      add\n        /* \"#utility.yul\":402:408   */\n      dup5\n        /* \"#utility.yul\":358:429   */\n      tag_87\n      jump\t// in\n    tag_115:\n        /* \"#utility.yul\":214:436   */\n      swap3\n      swap2\n      pop\n      pop\n      jump\t// out\n        /* \"#utility.yul\":523:640   */\n    tag_89:\n        /* \"#utility.yul\":632:633   */\n      0x00\n        /* \"#utility.yul\":629:630   */\n      dup1\n        /* \"#utility.yul\":622:634   */\n      revert\n        /* \"#utility.yul\":769:895   */\n    tag_91:\n        /* \"#utility.yul\":806:813   */\n      0x00\n        /* \"#utility.yul\":846:888   */\n      0xffffffffffffffffffffffffffffffffffffffff\n        /* \"#utility.yul\":839:844   */\n      dup3\n        /* \"#utility.yul\":835:889   */\n      and\n        /* \"#utility.yul\":824:889   */\n      swap1\n      pop\n        /* \"#utility.yul\":769:895   */\n      swap2\n      swap1\n      pop\n      jump\t// out\n        /* \"#utility.yul\":901:997   */\n    tag_92:\n        /* \"#utility.yul\":938:945   */\n      0x00\n        /* \"#utility.yul\":967:991   */\n      tag_121\n        /* \"#utility.yul\":985:990   */\n      dup3\n        /* \"#utility.yul\":967:991   */\n      tag_91\n      jump\t// in\n    tag_121:\n        /* \"#utility.yul\":956:991   */\n      swap1\n      pop\n        /* \"#utility.yul\":901:997   */\n      swap2\n      swap1\n      pop\n      jump\t// out\n        /* \"#utility.yul\":1003:1125   */\n    tag_93:\n        /* \"#utility.yul\":1076:1100   */\n      tag_123\n        /* \"#utility.yul\":1094:1099   */\n      dup2\n        /* \"#utility.yul\":1076:1100   */\n      tag_92\n      jump\t// in\n    tag_123:\n        /* \"#utility.yul\":1069:1074   */\n      dup2\n        /* \"#utility.yul\":1066:1101   */\n      eq\n        /* \"#utility.yul\":1056:1119   */\n      tag_124\n      jumpi\n        /* \"#utility.yul\":1115:1116   */\n      0x00\n        /* \"#utility.yul\":1112:1113   */\n      dup1\n        /* \"#utility.yul\":1105:1117   */\n      revert\n        /* \"#utility.yul\":1056:1119   */\n    tag_124:\n        /* \"#utility.yul\":1003:1125   */\n      pop\n      jump\t// out\n        /* \"#utility.yul\":1131:1270   */\n    tag_94:\n        /* \"#utility.yul\":1177:1182   */\n      0x00\n        /* \"#utility.yul\":1215:1221   */\n      dup2\n        /* \"#utility.yul\":1202:1222   */\n      calldataload\n        /* \"#utility.yul\":1193:1222   */\n      swap1\n      pop\n        /* \"#utility.yul\":1231:1264   */\n      tag_126\n        /* \"#utility.yul\":1258:1263   */\n      dup2\n        /* \"#utility.yul\":1231:1264   */\n      tag_93\n      jump\t// in\n    tag_126:\n        /* \"#utility.yul\":1131:1270   */\n      swap3\n      swap2\n      pop\n      pop\n      jump\t// out\n        /* \"#utility.yul\":1276:1605   */\n    tag_24:\n        /* \"#utility.yul\":1335:1341   */\n      0x00\n        /* \"#utility.yul\":1384:1386   */\n      0x20\n        /* \"#utility.yul\":1372:1381   */\n      dup3\n        /* \"#utility.yul\":1363:1370   */\n      dup5\n        /* \"#utility.yul\":1359:1382   */\n      sub\n        /* \"#utility.yul\":1355:1387   */\n      slt\n        /* \"#utility.yul\":1352:1471   */\n      iszero\n      tag_128\n      jumpi\n        /* \"#utility.yul\":1390:1469   */\n      tag_129\n      tag_89\n      jump\t// in\n    tag_129:\n        /* \"#utility.yul\":1352:1471   */\n    tag_128:\n        /* \"#utility.yul\":1510:1511   */\n      0x00\n        /* \"#utility.yul\":1535:1588   */\n      tag_130\n        /* \"#utility.yul\":1580:1587   */\n      dup5\n        /* \"#utility.yul\":1571:1577   */\n      dup3\n        /* \"#utility.yul\":1560:1569   */\n      dup6\n        /* \"#utility.yul\":1556:1578   */\n      add\n        /* \"#utility.yul\":1535:1588   */\n      tag_94\n      jump\t// in\n    tag_130:\n        /* \"#utility.yul\":1525:1588   */\n      swap2\n      pop\n        /* \"#utility.yul\":1481:1598   */\n      pop\n        /* \"#utility.yul\":1276:1605   */\n      swap3\n      swap2\n      pop\n      pop\n      jump\t// out\n        /* \"#utility.yul\":1611:1733   */\n    tag_95:\n        /* \"#utility.yul\":1684:1708   */\n      tag_132\n        /* \"#utility.yul\":1702:1707   */\n      dup2\n        /* \"#utility.yul\":1684:1708   */\n      tag_86\n      jump\t// in\n    tag_132:\n        /* \"#utility.yul\":1677:1682   */\n      dup2\n        /* \"#utility.yul\":1674:1709   */\n      eq\n        /* \"#utility.yul\":1664:1727   */\n      tag_133\n      jumpi\n        /* \"#utility.yul\":1723:1724   */\n      0x00\n        /* \"#utility.yul\":1720:1721   */\n      dup1\n        /* \"#utility.yul\":1713:1725   */\n      revert\n        /* \"#utility.yul\":1664:1727   */\n    tag_133:\n        /* \"#utility.yul\":1611:1733   */\n      pop\n      jump\t// out\n        /* \"#utility.yul\":1739:1878   */\n    tag_96:\n        /* \"#utility.yul\":1785:1790   */\n      0x00\n        /* \"#utility.yul\":1823:1829   */\n      dup2\n        /* \"#utility.yul\":1810:1830   */\n      calldataload\n        /* \"#utility.yul\":1801:1830   */\n      swap1\n      pop\n        /* \"#utility.yul\":1839:1872   */\n      tag_135\n        /* \"#utility.yul\":1866:1871   */\n      dup2\n        /* \"#utility.yul\":1839:1872   */\n      tag_95\n      jump\t// in\n    tag_135:\n        /* \"#utility.yul\":1739:1878   */\n      swap3\n      swap2\n      pop\n      pop\n      jump\t// out\n        /* \"#utility.yul\":1884:2213   */\n    tag_34:\n        /* \"#utility.yul\":1943:1949   */\n      0x00\n        /* \"#utility.yul\":1992:1994   */\n      0x20\n        /* \"#utility.yul\":1980:1989   */\n      dup3\n        /* \"#utility.yul\":1971:1978   */\n      dup5\n        /* \"#utility.yul\":1967:1990   */\n      sub\n        /* \"#utility.yul\":1963:1995   */\n      slt\n        /* \"#utility.yul\":1960:2079   */\n      iszero\n      tag_137\n      jumpi\n        /* \"#utility.yul\":1998:2077   */\n      tag_138\n      tag_89\n      jump\t// in\n    tag_138:\n        /* \"#utility.yul\":1960:2079   */\n    tag_137:\n        /* \"#utility.yul\":2118:2119   */\n      0x00\n        /* \"#utility.yul\":2143:2196   */\n      tag_139\n        /* \"#utility.yul\":2188:2195   */\n      dup5\n        /* \"#utility.yul\":2179:2185   */\n      dup3\n        /* \"#utility.yul\":2168:2177   */\n      dup6\n        /* \"#utility.yul\":2164:2186   */\n      add\n        /* \"#utility.yul\":2143:2196   */\n      tag_96\n      jump\t// in\n    tag_139:\n        /* \"#utility.yul\":2133:2196   */\n      swap2\n      pop\n        /* \"#utility.yul\":2089:2206   */\n      pop\n        /* \"#utility.yul\":1884:2213   */\n      swap3\n      swap2\n      pop\n      pop\n      jump\t// out\n        /* \"#utility.yul\":2219:2337   */\n    tag_97:\n        /* \"#utility.yul\":2306:2330   */\n      tag_141\n        /* \"#utility.yul\":2324:2329   */\n      dup2\n        /* \"#utility.yul\":2306:2330   */\n      tag_92\n      jump\t// in\n    tag_141:\n        /* \"#utility.yul\":2301:2304   */\n      dup3\n        /* \"#utility.yul\":2294:2331   */\n      mstore\n        /* \"#utility.yul\":2219:2337   */\n      pop\n      pop\n      jump\t// out\n        /* \"#utility.yul\":2343:2565   */\n    tag_40:\n        /* \"#utility.yul\":2436:2440   */\n      0x00\n        /* \"#utility.yul\":2474:2476   */\n      0x20\n        /* \"#utility.yul\":2463:2472   */\n      dup3\n        /* \"#utility.yul\":2459:2477   */\n      add\n        /* \"#utility.yul\":2451:2477   */\n      swap1\n      pop\n        /* \"#utility.yul\":2487:2558   */\n      tag_143\n        /* \"#utility.yul\":2555:2556   */\n      0x00\n        /* \"#utility.yul\":2544:2553   */\n      dup4\n        /* \"#utility.yul\":2540:2557   */\n      add\n        /* \"#utility.yul\":2531:2537   */\n      dup5\n        /* \"#utility.yul\":2487:2558   */\n      tag_97\n      jump\t// in\n    tag_143:\n        /* \"#utility.yul\":2343:2565   */\n      swap3\n      swap2\n      pop\n      pop\n      jump\t// out\n        /* \"#utility.yul\":2571:2740   */\n    tag_98:\n        /* \"#utility.yul\":2655:2666   */\n      0x00\n        /* \"#utility.yul\":2689:2695   */\n      dup3\n        /* \"#utility.yul\":2684:2687   */\n      dup3\n        /* \"#utility.yul\":2677:2696   */\n      mstore\n        /* \"#utility.yul\":2729:2733   */\n      0x20\n        /* \"#utility.yul\":2724:2727   */\n      dup3\n        /* \"#utility.yul\":2720:2734   */\n      add\n        /* \"#utility.yul\":2705:2734   */\n      swap1\n      pop\n        /* \"#utility.yul\":2571:2740   */\n      swap3\n      swap2\n      pop\n      pop\n      jump\t// out\n        /* \"#utility.yul\":2746:2918   */\n    tag_99:\n        /* \"#utility.yul\":2886:2910   */\n      0x4f6e6c79206f776e65722063616e20646f207468697300000000000000000000\n        /* \"#utility.yul\":2882:2883   */\n      0x00\n        /* \"#utility.yul\":2874:2880   */\n      dup3\n        /* \"#utility.yul\":2870:2884   */\n      add\n        /* \"#utility.yul\":2863:2911   */\n      mstore\n        /* \"#utility.yul\":2746:2918   */\n      pop\n      jump\t// out\n        /* \"#utility.yul\":2924:3290   */\n    tag_100:\n        /* \"#utility.yul\":3066:3069   */\n      0x00\n        /* \"#utility.yul\":3087:3154   */\n      tag_147\n        /* \"#utility.yul\":3151:3153   */\n      0x16\n        /* \"#utility.yul\":3146:3149   */\n      dup4\n        /* \"#utility.yul\":3087:3154   */\n      tag_98\n      jump\t// in\n    tag_147:\n        /* \"#utility.yul\":3080:3154   */\n      swap2\n      pop\n        /* \"#utility.yul\":3163:3256   */\n      tag_148\n        /* \"#utility.yul\":3252:3255   */\n      dup3\n        /* \"#utility.yul\":3163:3256   */\n      tag_99\n      jump\t// in\n    tag_148:\n        /* \"#utility.yul\":3281:3283   */\n      0x20\n        /* \"#utility.yul\":3276:3279   */\n      dup3\n        /* \"#utility.yul\":3272:3284   */\n      add\n        /* \"#utility.yul\":3265:3284   */\n      swap1\n      pop\n        /* \"#utility.yul\":2924:3290   */\n      swap2\n      swap1\n      pop\n      jump\t// out\n        /* \"#utility.yul\":3296:3715   */\n    tag_57:\n        /* \"#utility.yul\":3462:3466   */\n      0x00\n        /* \"#utility.yul\":3500:3502   */\n      0x20\n        /* \"#utility.yul\":3489:3498   */\n      dup3\n        /* \"#utility.yul\":3485:3503   */\n      add\n        /* \"#utility.yul\":3477:3503   */\n      swap1\n      pop\n        /* \"#utility.yul\":3549:3558   */\n      dup2\n        /* \"#utility.yul\":3543:3547   */\n      dup2\n        /* \"#utility.yul\":3539:3559   */\n      sub\n        /* \"#utility.yul\":3535:3536   */\n      0x00\n        /* \"#utility.yul\":3524:3533   */\n      dup4\n        /* \"#utility.yul\":3520:3537   */\n      add\n        /* \"#utility.yul\":3513:3560   */\n      mstore\n        /* \"#utility.yul\":3577:3708   */\n      tag_150\n        /* \"#utility.yul\":3703:3707   */\n      dup2\n        /* \"#utility.yul\":3577:3708   */\n      tag_100\n      jump\t// in\n    tag_150:\n        /* \"#utility.yul\":3569:3708   */\n      swap1\n      pop\n        /* \"#utility.yul\":3296:3715   */\n      swap2\n      swap1\n      pop\n      jump\t// out\n        /* \"#utility.yul\":3721:3889   */\n    tag_101:\n        /* \"#utility.yul\":3861:3881   */\n      0x496e73756666696369656e742066756e64730000000000000000000000000000\n        /* \"#utility.yul\":3857:3858   */\n      0x00\n        /* \"#utility.yul\":3849:3855   */\n      dup3\n        /* \"#utility.yul\":3845:3859   */\n      add\n        /* \"#utility.yul\":3838:3882   */\n      mstore\n        /* \"#utility.yul\":3721:3889   */\n      pop\n      jump\t// out\n        /* \"#utility.yul\":3895:4261   */\n    tag_102:\n        /* \"#utility.yul\":4037:4040   */\n      0x00\n        /* \"#utility.yul\":4058:4125   */\n      tag_153\n        /* \"#utility.yul\":4122:4124   */\n      0x12\n        /* \"#utility.yul\":4117:4120   */\n      dup4\n        /* \"#utility.yul\":4058:4125   */\n      tag_98\n      jump\t// in\n    tag_153:\n        /* \"#utility.yul\":4051:4125   */\n      swap2\n      pop\n        /* \"#utility.yul\":4134:4227   */\n      tag_154\n        /* \"#utility.yul\":4223:4226   */\n      dup3\n        /* \"#utility.yul\":4134:4227   */\n      tag_101\n      jump\t// in\n    tag_154:\n        /* \"#utility.yul\":4252:4254   */\n      0x20\n        /* \"#utility.yul\":4247:4250   */\n      dup3\n        /* \"#utility.yul\":4243:4255   */\n      add\n        /* \"#utility.yul\":4236:4255   */\n      swap1\n      pop\n        /* \"#utility.yul\":3895:4261   */\n      swap2\n      swap1\n      pop\n      jump\t// out\n        /* \"#utility.yul\":4267:4686   */\n    tag_62:\n        /* \"#utility.yul\":4433:4437   */\n      0x00\n        /* \"#utility.yul\":4471:4473   */\n      0x20\n        /* \"#utility.yul\":4460:4469   */\n      dup3\n        /* \"#utility.yul\":4456:4474   */\n      add\n        /* \"#utility.yul\":4448:4474   */\n      swap1\n      pop\n        /* \"#utility.yul\":4520:4529   */\n      dup2\n        /* \"#utility.yul\":4514:4518   */\n      dup2\n        /* \"#utility.yul\":4510:4530   */\n      sub\n        /* \"#utility.yul\":4506:4507   */\n      0x00\n        /* \"#utility.yul\":4495:4504   */\n      dup4\n        /* \"#utility.yul\":4491:4508   */\n      add\n        /* \"#utility.yul\":4484:4531   */\n      mstore\n        /* \"#utility.yul\":4548:4679   */\n      tag_156\n        /* \"#utility.yul\":4674:4678   */\n      dup2\n        /* \"#utility.yul\":4548:4679   */\n      tag_102\n      jump\t// in\n    tag_156:\n        /* \"#utility.yul\":4540:4679   */\n      swap1\n      pop\n        /* \"#utility.yul\":4267:4686   */\n      swap2\n      swap1\n      pop\n      jump\t// out\n        /* \"#utility.yul\":4692:4872   */\n    tag_103:\n        /* \"#utility.yul\":4740:4817   */\n      0x4e487b7100000000000000000000000000000000000000000000000000000000\n        /* \"#utility.yul\":4737:4738   */\n      0x00\n        /* \"#utility.yul\":4730:4818   */\n      mstore\n        /* \"#utility.yul\":4837:4841   */\n      0x11\n        /* \"#utility.yul\":4834:4835   */\n      0x04\n        /* \"#utility.yul\":4827:4842   */\n      mstore\n        /* \"#utility.yul\":4861:4865   */\n      0x24\n        /* \"#utility.yul\":4858:4859   */\n      0x00\n        /* \"#utility.yul\":4851:4866   */\n      revert\n        /* \"#utility.yul\":4878:5072   */\n    tag_64:\n        /* \"#utility.yul\":4918:4922   */\n      0x00\n        /* \"#utility.yul\":4938:4958   */\n      tag_159\n        /* \"#utility.yul\":4956:4957   */\n      dup3\n        /* \"#utility.yul\":4938:4958   */\n      tag_86\n      jump\t// in\n    tag_159:\n        /* \"#utility.yul\":4933:4958   */\n      swap2\n      pop\n        /* \"#utility.yul\":4972:4992   */\n      tag_160\n        /* \"#utility.yul\":4990:4991   */\n      dup4\n        /* \"#utility.yul\":4972:4992   */\n      tag_86\n      jump\t// in\n    tag_160:\n        /* \"#utility.yul\":4967:4992   */\n      swap3\n      pop\n        /* \"#utility.yul\":5016:5017   */\n      dup3\n        /* \"#utility.yul\":5013:5014   */\n      dup3\n        /* \"#utility.yul\":5009:5018   */\n      sub\n        /* \"#utility.yul\":5001:5018   */\n      swap1\n      pop\n        /* \"#utility.yul\":5040:5041   */\n      dup2\n        /* \"#utility.yul\":5034:5038   */\n      dup2\n        /* \"#utility.yul\":5031:5042   */\n      gt\n        /* \"#utility.yul\":5028:5065   */\n      iszero\n      tag_161\n      jumpi\n        /* \"#utility.yul\":5045:5063   */\n      tag_162\n      tag_103\n      jump\t// in\n    tag_162:\n        /* \"#utility.yul\":5028:5065   */\n    tag_161:\n        /* \"#utility.yul\":4878:5072   */\n      swap3\n      swap2\n      pop\n      pop\n      jump\t// out\n        /* \"#utility.yul\":5078:5225   */\n    tag_104:\n        /* \"#utility.yul\":5179:5190   */\n      0x00\n        /* \"#utility.yul\":5216:5219   */\n      dup2\n        /* \"#utility.yul\":5201:5219   */\n      swap1\n      pop\n        /* \"#utility.yul\":5078:5225   */\n      swap3\n      swap2\n      pop\n      pop\n      jump\t// out\n        /* \"#utility.yul\":5231:5345   */\n    tag_105:\n      pop\n      jump\t// out\n        /* \"#utility.yul\":5351:5749   */\n    tag_106:\n        /* \"#utility.yul\":5510:5513   */\n      0x00\n        /* \"#utility.yul\":5531:5614   */\n      tag_166\n        /* \"#utility.yul\":5612:5613   */\n      0x00\n        /* \"#utility.yul\":5607:5610   */\n      dup4\n        /* \"#utility.yul\":5531:5614   */\n      tag_104\n      jump\t// in\n    tag_166:\n        /* \"#utility.yul\":5524:5614   */\n      swap2\n      pop\n        /* \"#utility.yul\":5623:5716   */\n      tag_167\n        /* \"#utility.yul\":5712:5715   */\n      dup3\n        /* \"#utility.yul\":5623:5716   */\n      tag_105\n      jump\t// in\n    tag_167:\n        /* \"#utility.yul\":5741:5742   */\n      0x00\n        /* \"#utility.yul\":5736:5739   */\n      dup3\n        /* \"#utility.yul\":5732:5743   */\n      add\n        /* \"#utility.yul\":5725:5743   */\n      swap1\n      pop\n        /* \"#utility.yul\":5351:5749   */\n      swap2\n      swap1\n      pop\n      jump\t// out\n        /* \"#utility.yul\":5755:6134   */\n    tag_66:\n        /* \"#utility.yul\":5939:5942   */\n      0x00\n        /* \"#utility.yul\":5961:6108   */\n      tag_169\n        /* \"#utility.yul\":6104:6107   */\n      dup3\n        /* \"#utility.yul\":5961:6108   */\n      tag_106\n      jump\t// in\n    tag_169:\n        /* \"#utility.yul\":5954:6108   */\n      swap2\n      pop\n        /* \"#utility.yul\":6125:6128   */\n      dup2\n        /* \"#utility.yul\":6118:6128   */\n      swap1\n      pop\n        /* \"#utility.yul\":5755:6134   */\n      swap2\n      swap1\n      pop\n      jump\t// out\n        /* \"#utility.yul\":6140:6307   */\n    tag_107:\n        /* \"#utility.yul\":6280:6299   */\n      0x5769746864726177616c206661696c6564000000000000000000000000000000\n        /* \"#utility.yul\":6276:6277   */\n      0x00\n        /* \"#utility.yul\":6268:6274   */\n      dup3\n        /* \"#utility.yul\":6264:6278   */\n      add\n        /* \"#utility.yul\":6257:6300   */\n      mstore\n        /* \"#utility.yul\":6140:6307   */\n      pop\n      jump\t// out\n        /* \"#utility.yul\":6313:6679   */\n    tag_108:\n        /* \"#utility.yul\":6455:6458   */\n      0x00\n        /* \"#utility.yul\":6476:6543   */\n      tag_172\n        /* \"#utility.yul\":6540:6542   */\n      0x11\n        /* \"#utility.yul\":6535:6538   */\n      dup4\n        /* \"#utility.yul\":6476:6543   */\n      tag_98\n      jump\t// in\n    tag_172:\n        /* \"#utility.yul\":6469:6543   */\n      swap2\n      pop\n        /* \"#utility.yul\":6552:6645   */\n      tag_173\n        /* \"#utility.yul\":6641:6644   */\n      dup3\n        /* \"#utility.yul\":6552:6645   */\n      tag_107\n      jump\t// in\n    tag_173:\n        /* \"#utility.yul\":6670:6672   */\n      0x20\n        /* \"#utility.yul\":6665:6668   */\n      dup3\n        /* \"#utility.yul\":6661:6673   */\n      add\n        /* \"#utility.yul\":6654:6673   */\n      swap1\n      pop\n        /* \"#utility.yul\":6313:6679   */\n      swap2\n      swap1\n      pop\n      jump\t// out\n        /* \"#utility.yul\":6685:7104   */\n    tag_72:\n        /* \"#utility.yul\":6851:6855   */\n      0x00\n        /* \"#utility.yul\":6889:6891   */\n      0x20\n        /* \"#utility.yul\":6878:6887   */\n      dup3\n        /* \"#utility.yul\":6874:6892   */\n      add\n        /* \"#utility.yul\":6866:6892   */\n      swap1\n      pop\n        /* \"#utility.yul\":6938:6947   */\n      dup2\n        /* \"#utility.yul\":6932:6936   */\n      dup2\n        /* \"#utility.yul\":6928:6948   */\n      sub\n        /* \"#utility.yul\":6924:6925   */\n      0x00\n        /* \"#utility.yul\":6913:6922   */\n      dup4\n        /* \"#utility.yul\":6909:6926   */\n      add\n        /* \"#utility.yul\":6902:6949   */\n      mstore\n        /* \"#utility.yul\":6966:7097   */\n      tag_175\n        /* \"#utility.yul\":7092:7096   */\n      dup2\n        /* \"#utility.yul\":6966:7097   */\n      tag_108\n      jump\t// in\n    tag_175:\n        /* \"#utility.yul\":6958:7097   */\n      swap1\n      pop\n        /* \"#utility.yul\":6685:7104   */\n      swap2\n      swap1\n      pop\n      jump\t// out\n        /* \"#utility.yul\":7110:7301   */\n    tag_75:\n        /* \"#utility.yul\":7150:7153   */\n      0x00\n        /* \"#utility.yul\":7169:7189   */\n      tag_177\n        /* \"#utility.yul\":7187:7188   */\n      dup3\n        /* \"#utility.yul\":7169:7189   */\n      tag_86\n      jump\t// in\n    tag_177:\n        /* \"#utility.yul\":7164:7189   */\n      swap2\n      pop\n        /* \"#utility.yul\":7203:7223   */\n      tag_178\n        /* \"#utility.yul\":7221:7222   */\n      dup4\n        /* \"#utility.yul\":7203:7223   */\n      tag_86\n      jump\t// in\n    tag_178:\n        /* \"#utility.yul\":7198:7223   */\n      swap3\n      pop\n        /* \"#utility.yul\":7246:7247   */\n      dup3\n        /* \"#utility.yul\":7243:7244   */\n      dup3\n        /* \"#utility.yul\":7239:7248   */\n      add\n        /* \"#utility.yul\":7232:7248   */\n      swap1\n      pop\n        /* \"#utility.yul\":7267:7270   */\n      dup1\n        /* \"#utility.yul\":7264:7265   */\n      dup3\n        /* \"#utility.yul\":7261:7271   */\n      gt\n        /* \"#utility.yul\":7258:7294   */\n      iszero\n      tag_179\n      jumpi\n        /* \"#utility.yul\":7274:7292   */\n      tag_180\n      tag_103\n      jump\t// in\n    tag_180:\n        /* \"#utility.yul\":7258:7294   */\n    tag_179:\n        /* \"#utility.yul\":7110:7301   */\n      swap3\n      swap2\n      pop\n      pop\n      jump\t// out\n        /* \"#utility.yul\":7307:7717   */\n    tag_81:\n        /* \"#utility.yul\":7347:7354   */\n      0x00\n        /* \"#utility.yul\":7370:7390   */\n      tag_182\n        /* \"#utility.yul\":7388:7389   */\n      dup3\n        /* \"#utility.yul\":7370:7390   */\n      tag_86\n      jump\t// in\n    tag_182:\n        /* \"#utility.yul\":7365:7390   */\n      swap2\n      pop\n        /* \"#utility.yul\":7404:7424   */\n      tag_183\n        /* \"#utility.yul\":7422:7423   */\n      dup4\n        /* \"#utility.yul\":7404:7424   */\n      tag_86\n      jump\t// in\n    tag_183:\n        /* \"#utility.yul\":7399:7424   */\n      swap3\n      pop\n        /* \"#utility.yul\":7459:7460   */\n      dup3\n        /* \"#utility.yul\":7456:7457   */\n      dup3\n        /* \"#utility.yul\":7452:7461   */\n      mul\n        /* \"#utility.yul\":7481:7511   */\n      tag_184\n        /* \"#utility.yul\":7499:7510   */\n      dup2\n        /* \"#utility.yul\":7481:7511   */\n      tag_86\n      jump\t// in\n    tag_184:\n        /* \"#utility.yul\":7470:7511   */\n      swap2\n      pop\n        /* \"#utility.yul\":7660:7661   */\n      dup3\n        /* \"#utility.yul\":7651:7658   */\n      dup3\n        /* \"#utility.yul\":7647:7662   */\n      div\n        /* \"#utility.yul\":7644:7645   */\n      dup5\n        /* \"#utility.yul\":7641:7663   */\n      eq\n        /* \"#utility.yul\":7621:7622   */\n      dup4\n        /* \"#utility.yul\":7614:7623   */\n      iszero\n        /* \"#utility.yul\":7594:7677   */\n      or\n        /* \"#utility.yul\":7571:7710   */\n      tag_185\n      jumpi\n        /* \"#utility.yul\":7690:7708   */\n      tag_186\n      tag_103\n      jump\t// in\n    tag_186:\n        /* \"#utility.yul\":7571:7710   */\n    tag_185:\n        /* \"#utility.yul\":7355:7717   */\n      pop\n        /* \"#utility.yul\":7307:7717   */\n      swap3\n      swap2\n      pop\n      pop\n      jump\t// out\n        /* \"#utility.yul\":7723:7903   */\n    tag_109:\n        /* \"#utility.yul\":7771:7848   */\n      0x4e487b7100000000000000000000000000000000000000000000000000000000\n        /* \"#utility.yul\":7768:7769   */\n      0x00\n        /* \"#utility.yul\":7761:7849   */\n      mstore\n        /* \"#utility.yul\":7868:7872   */\n      0x12\n        /* \"#utility.yul\":7865:7866   */\n      0x04\n        /* \"#utility.yul\":7858:7873   */\n      mstore\n        /* \"#utility.yul\":7892:7896   */\n      0x24\n        /* \"#utility.yul\":7889:7890   */\n      0x00\n        /* \"#utility.yul\":7882:7897   */\n      revert\n        /* \"#utility.yul\":7909:8094   */\n    tag_83:\n        /* \"#utility.yul\":7949:7950   */\n      0x00\n        /* \"#utility.yul\":7966:7986   */\n      tag_189\n        /* \"#utility.yul\":7984:7985   */\n      dup3\n        /* \"#utility.yul\":7966:7986   */\n      tag_86\n      jump\t// in\n    tag_189:\n        /* \"#utility.yul\":7961:7986   */\n      swap2\n      pop\n        /* \"#utility.yul\":8000:8020   */\n      tag_190\n        /* \"#utility.yul\":8018:8019   */\n      dup4\n        /* \"#utility.yul\":8000:8020   */\n      tag_86\n      jump\t// in\n    tag_190:\n        /* \"#utility.yul\":7995:8020   */\n      swap3\n      pop\n        /* \"#utility.yul\":8039:8040   */\n      dup3\n        /* \"#utility.yul\":8029:8064   */\n      tag_191\n      jumpi\n        /* \"#utility.yul\":8044:8062   */\n      tag_192\n      tag_109\n      jump\t// in\n    tag_192:\n        /* \"#utility.yul\":8029:8064   */\n    tag_191:\n        /* \"#utility.yul\":8086:8087   */\n      dup3\n        /* \"#utility.yul\":8083:8084   */\n      dup3\n        /* \"#utility.yul\":8079:8088   */\n      div\n        /* \"#utility.yul\":8074:8088   */\n      swap1\n      pop\n        /* \"#utility.yul\":7909:8094   */\n      swap3\n      swap2\n      pop\n      pop\n      jump\t// out\n\n    auxdata: 0xa26469706673582212202226fa908b67a244a3f5de45c57477d02beb64ac641802fc49148357f73ce30a64736f6c63430008160033\n}\n",
				"bytecode": {
					"linkReferences": {},
					"object": "60806040526003600255348015610014575f80fd5b503360035f6101000a81548173ffffffffffffffffffffffffffffffffffffffff021916908373ffffffffffffffffffffffffffffffffffffffff160217905550610a53806100625f395ff3fe608060405260043610610084575f3560e01c80632e1a7d4d116100585780632e1a7d4d146101425780638da5cb5b1461016a578063d0e30db014610194578063e11932cf1461019e578063f2a40db8146101da57610084565b8062113e081461008857806321f4ae14146100b257806327e235e3146100dc5780632c4e722e14610118575b5f80fd5b348015610093575f80fd5b5061009c610216565b6040516100a99190610644565b60405180910390f35b3480156100bd575f80fd5b506100c6610259565b6040516100d39190610644565b60405180910390f35b3480156100e7575f80fd5b5061010260048036038101906100fd91906106bb565b6102ef565b60405161010f9190610644565b60405180910390f35b348015610123575f80fd5b5061012c610303565b6040516101399190610644565b60405180910390f35b34801561014d575f80fd5b5061016860048036038101906101639190610710565b610309565b005b348015610175575f80fd5b5061017e610486565b60405161018b919061074a565b60405180910390f35b61019c6104ab565b005b3480156101a9575f80fd5b506101c460048036038101906101bf91906106bb565b6104ff565b6040516101d19190610644565b60405180910390f35b3480156101e5575f80fd5b5061020060048036038101906101fb9190610710565b6105f1565b60405161020d919061074a565b60405180910390f35b5f805f3373ffffffffffffffffffffffffffffffffffffffff1673ffffffffffffffffffffffffffffffffffffffff1681526020019081526020015f2054905090565b5f60035f9054906101000a900473ffffffffffffffffffffffffffffffffffffffff1673ffffffffffffffffffffffffffffffffffffffff163373ffffffffffffffffffffffffffffffffffffffff16146102e9576040517f08c379a00000000000000000000000000000000000000000000000000000000081526004016102e0906107bd565b60405180910390fd5b47905090565b5f602052805f5260405f205f915090505481565b60025481565b805f803373ffffffffffffffffffffffffffffffffffffffff1673ffffffffffffffffffffffffffffffffffffffff1681526020019081526020015f20541015610388576040517f08c379a000000000000000000000000000000000000000000000000000000000815260040161037f90610825565b60405180910390fd5b805f803373ffffffffffffffffffffffffffffffffffffffff1673ffffffffffffffffffffffffffffffffffffffff1681526020019081526020015f205f8282546103d39190610870565b925050819055505f3373ffffffffffffffffffffffffffffffffffffffff16826040516103ff906108d0565b5f6040518083038185875af1925050503d805f8114610439576040519150601f19603f3d011682016040523d82523d5f602084013e61043e565b606091505b5050905080610482576040517f08c379a00000000000000000000000000000000000000000000000000000000081526004016104799061092e565b60405180910390fd5b5050565b60035f9054906101000a900473ffffffffffffffffffffffffffffffffffffffff1681565b345f803373ffffffffffffffffffffffffffffffffffffffff1673ffffffffffffffffffffffffffffffffffffffff1681526020019081526020015f205f8282546104f6919061094c565b92505081905550565b5f60035f9054906101000a900473ffffffffffffffffffffffffffffffffffffffff1673ffffffffffffffffffffffffffffffffffffffff163373ffffffffffffffffffffffffffffffffffffffff161461058f576040517f08c379a0000000000000000000000000000000000000000000000000000000008152600401610586906107bd565b60405180910390fd5b5f60646002545f808673ffffffffffffffffffffffffffffffffffffffff1673ffffffffffffffffffffffffffffffffffffffff1681526020019081526020015f20546105dc919061097f565b6105e691906109ed565b905080915050919050565b60018181548110610600575f80fd5b905f5260205f20015f915054906101000a900473ffffffffffffffffffffffffffffffffffffffff1681565b5f819050919050565b61063e8161062c565b82525050565b5f6020820190506106575f830184610635565b92915050565b5f80fd5b5f73ffffffffffffffffffffffffffffffffffffffff82169050919050565b5f61068a82610661565b9050919050565b61069a81610680565b81146106a4575f80fd5b50565b5f813590506106b581610691565b92915050565b5f602082840312156106d0576106cf61065d565b5b5f6106dd848285016106a7565b91505092915050565b6106ef8161062c565b81146106f9575f80fd5b50565b5f8135905061070a816106e6565b92915050565b5f602082840312156107255761072461065d565b5b5f610732848285016106fc565b91505092915050565b61074481610680565b82525050565b5f60208201905061075d5f83018461073b565b92915050565b5f82825260208201905092915050565b7f4f6e6c79206f776e65722063616e20646f2074686973000000000000000000005f82015250565b5f6107a7601683610763565b91506107b282610773565b602082019050919050565b5f6020820190508181035f8301526107d48161079b565b9050919050565b7f496e73756666696369656e742066756e647300000000000000000000000000005f82015250565b5f61080f601283610763565b915061081a826107db565b602082019050919050565b5f6020820190508181035f83015261083c81610803565b9050919050565b7f4e487b71000000000000000000000000000000000000000000000000000000005f52601160045260245ffd5b5f61087a8261062c565b91506108858361062c565b925082820390508181111561089d5761089c610843565b5b92915050565b5f81905092915050565b50565b5f6108bb5f836108a3565b91506108c6826108ad565b5f82019050919050565b5f6108da826108b0565b9150819050919050565b7f5769746864726177616c206661696c65640000000000000000000000000000005f82015250565b5f610918601183610763565b9150610923826108e4565b602082019050919050565b5f6020820190508181035f8301526109458161090c565b9050919050565b5f6109568261062c565b91506109618361062c565b925082820190508082111561097957610978610843565b5b92915050565b5f6109898261062c565b91506109948361062c565b92508282026109a28161062c565b915082820484148315176109b9576109b8610843565b5b5092915050565b7f4e487b71000000000000000000000000000000000000000000000000000000005f52601260045260245ffd5b5f6109f78261062c565b9150610a028361062c565b925082610a1257610a116109c0565b5b82820490509291505056fea26469706673582212202226fa908b67a244a3f5de45c57477d02beb64ac641802fc49148357f73ce30a64736f6c63430008160033",
					"opcodes": "PUSH1 0x80 PUSH1 0x40 MSTORE PUSH1 0x3 PUSH1 0x2 SSTORE CALLVALUE DUP1 ISZERO PUSH2 0x14 JUMPI PUSH0 DUP1 REVERT JUMPDEST POP CALLER PUSH1 0x3 PUSH0 PUSH2 0x100 EXP DUP2 SLOAD DUP2 PUSH20 0xFFFFFFFFFFFFFFFFFFFFFFFFFFFFFFFFFFFFFFFF MUL NOT AND SWAP1 DUP4 PUSH20 0xFFFFFFFFFFFFFFFFFFFFFFFFFFFFFFFFFFFFFFFF AND MUL OR SWAP1 SSTORE POP PUSH2 0xA53 DUP1 PUSH2 0x62 PUSH0 CODECOPY PUSH0 RETURN INVALID PUSH1 0x80 PUSH1 0x40 MSTORE PUSH1 0x4 CALLDATASIZE LT PUSH2 0x84 JUMPI PUSH0 CALLDATALOAD PUSH1 0xE0 SHR DUP1 PUSH4 0x2E1A7D4D GT PUSH2 0x58 JUMPI DUP1 PUSH4 0x2E1A7D4D EQ PUSH2 0x142 JUMPI DUP1 PUSH4 0x8DA5CB5B EQ PUSH2 0x16A JUMPI DUP1 PUSH4 0xD0E30DB0 EQ PUSH2 0x194 JUMPI DUP1 PUSH4 0xE11932CF EQ PUSH2 0x19E JUMPI DUP1 PUSH4 0xF2A40DB8 EQ PUSH2 0x1DA JUMPI PUSH2 0x84 JUMP JUMPDEST DUP1 PUSH3 0x113E08 EQ PUSH2 0x88 JUMPI DUP1 PUSH4 0x21F4AE14 EQ PUSH2 0xB2 JUMPI DUP1 PUSH4 0x27E235E3 EQ PUSH2 0xDC JUMPI DUP1 PUSH4 0x2C4E722E EQ PUSH2 0x118 JUMPI JUMPDEST PUSH0 DUP1 REVERT JUMPDEST CALLVALUE DUP1 ISZERO PUSH2 0x93 JUMPI PUSH0 DUP1 REVERT JUMPDEST POP PUSH2 0x9C PUSH2 0x216 JUMP JUMPDEST PUSH1 0x40 MLOAD PUSH2 0xA9 SWAP2 SWAP1 PUSH2 0x644 JUMP JUMPDEST PUSH1 0x40 MLOAD DUP1 SWAP2 SUB SWAP1 RETURN JUMPDEST CALLVALUE DUP1 ISZERO PUSH2 0xBD JUMPI PUSH0 DUP1 REVERT JUMPDEST POP PUSH2 0xC6 PUSH2 0x259 JUMP JUMPDEST PUSH1 0x40 MLOAD PUSH2 0xD3 SWAP2 SWAP1 PUSH2 0x644 JUMP JUMPDEST PUSH1 0x40 MLOAD DUP1 SWAP2 SUB SWAP1 RETURN JUMPDEST CALLVALUE DUP1 ISZERO PUSH2 0xE7 JUMPI PUSH0 DUP1 REVERT JUMPDEST POP PUSH2 0x102 PUSH1 0x4 DUP1 CALLDATASIZE SUB DUP2 ADD SWAP1 PUSH2 0xFD SWAP2 SWAP1 PUSH2 0x6BB JUMP JUMPDEST PUSH2 0x2EF JUMP JUMPDEST PUSH1 0x40 MLOAD PUSH2 0x10F SWAP2 SWAP1 PUSH2 0x644 JUMP JUMPDEST PUSH1 0x40 MLOAD DUP1 SWAP2 SUB SWAP1 RETURN JUMPDEST CALLVALUE DUP1 ISZERO PUSH2 0x123 JUMPI PUSH0 DUP1 REVERT JUMPDEST POP PUSH2 0x12C PUSH2 0x303 JUMP JUMPDEST PUSH1 0x40 MLOAD PUSH2 0x139 SWAP2 SWAP1 PUSH2 0x644 JUMP JUMPDEST PUSH1 0x40 MLOAD DUP1 SWAP2 SUB SWAP1 RETURN JUMPDEST CALLVALUE DUP1 ISZERO PUSH2 0x14D JUMPI PUSH0 DUP1 REVERT JUMPDEST POP PUSH2 0x168 PUSH1 0x4 DUP1 CALLDATASIZE SUB DUP2 ADD SWAP1 PUSH2 0x163 SWAP2 SWAP1 PUSH2 0x710 JUMP JUMPDEST PUSH2 0x309 JUMP JUMPDEST STOP JUMPDEST CALLVALUE DUP1 ISZERO PUSH2 0x175 JUMPI PUSH0 DUP1 REVERT JUMPDEST POP PUSH2 0x17E PUSH2 0x486 JUMP JUMPDEST PUSH1 0x40 MLOAD PUSH2 0x18B SWAP2 SWAP1 PUSH2 0x74A JUMP JUMPDEST PUSH1 0x40 MLOAD DUP1 SWAP2 SUB SWAP1 RETURN JUMPDEST PUSH2 0x19C PUSH2 0x4AB JUMP JUMPDEST STOP JUMPDEST CALLVALUE DUP1 ISZERO PUSH2 0x1A9 JUMPI PUSH0 DUP1 REVERT JUMPDEST POP PUSH2 0x1C4 PUSH1 0x4 DUP1 CALLDATASIZE SUB DUP2 ADD SWAP1 PUSH2 0x1BF SWAP2 SWAP1 PUSH2 0x6BB JUMP JUMPDEST PUSH2 0x4FF JUMP JUMPDEST PUSH1 0x40 MLOAD PUSH2 0x1D1 SWAP2 SWAP1 PUSH2 0x644 JUMP JUMPDEST PUSH1 0x40 MLOAD DUP1 SWAP2 SUB SWAP1 RETURN JUMPDEST CALLVALUE DUP1 ISZERO PUSH2 0x1E5 JUMPI PUSH0 DUP1 REVERT JUMPDEST POP PUSH2 0x200 PUSH1 0x4 DUP1 CALLDATASIZE SUB DUP2 ADD SWAP1 PUSH2 0x1FB SWAP2 SWAP1 PUSH2 0x710 JUMP JUMPDEST PUSH2 0x5F1 JUMP JUMPDEST PUSH1 0x40 MLOAD PUSH2 0x20D SWAP2 SWAP1 PUSH2 0x74A JUMP JUMPDEST PUSH1 0x40 MLOAD DUP1 SWAP2 SUB SWAP1 RETURN JUMPDEST PUSH0 DUP1 PUSH0 CALLER PUSH20 0xFFFFFFFFFFFFFFFFFFFFFFFFFFFFFFFFFFFFFFFF AND PUSH20 0xFFFFFFFFFFFFFFFFFFFFFFFFFFFFFFFFFFFFFFFF AND DUP2 MSTORE PUSH1 0x20 ADD SWAP1 DUP2 MSTORE PUSH1 0x20 ADD PUSH0 KECCAK256 SLOAD SWAP1 POP SWAP1 JUMP JUMPDEST PUSH0 PUSH1 0x3 PUSH0 SWAP1 SLOAD SWAP1 PUSH2 0x100 EXP SWAP1 DIV PUSH20 0xFFFFFFFFFFFFFFFFFFFFFFFFFFFFFFFFFFFFFFFF AND PUSH20 0xFFFFFFFFFFFFFFFFFFFFFFFFFFFFFFFFFFFFFFFF AND CALLER PUSH20 0xFFFFFFFFFFFFFFFFFFFFFFFFFFFFFFFFFFFFFFFF AND EQ PUSH2 0x2E9 JUMPI PUSH1 0x40 MLOAD PUSH32 0x8C379A000000000000000000000000000000000000000000000000000000000 DUP2 MSTORE PUSH1 0x4 ADD PUSH2 0x2E0 SWAP1 PUSH2 0x7BD JUMP JUMPDEST PUSH1 0x40 MLOAD DUP1 SWAP2 SUB SWAP1 REVERT JUMPDEST SELFBALANCE SWAP1 POP SWAP1 JUMP JUMPDEST PUSH0 PUSH1 0x20 MSTORE DUP1 PUSH0 MSTORE PUSH1 0x40 PUSH0 KECCAK256 PUSH0 SWAP2 POP SWAP1 POP SLOAD DUP2 JUMP JUMPDEST PUSH1 0x2 SLOAD DUP2 JUMP JUMPDEST DUP1 PUSH0 DUP1 CALLER PUSH20 0xFFFFFFFFFFFFFFFFFFFFFFFFFFFFFFFFFFFFFFFF AND PUSH20 0xFFFFFFFFFFFFFFFFFFFFFFFFFFFFFFFFFFFFFFFF AND DUP2 MSTORE PUSH1 0x20 ADD SWAP1 DUP2 MSTORE PUSH1 0x20 ADD PUSH0 KECCAK256 SLOAD LT ISZERO PUSH2 0x388 JUMPI PUSH1 0x40 MLOAD PUSH32 0x8C379A000000000000000000000000000000000000000000000000000000000 DUP2 MSTORE PUSH1 0x4 ADD PUSH2 0x37F SWAP1 PUSH2 0x825 JUMP JUMPDEST PUSH1 0x40 MLOAD DUP1 SWAP2 SUB SWAP1 REVERT JUMPDEST DUP1 PUSH0 DUP1 CALLER PUSH20 0xFFFFFFFFFFFFFFFFFFFFFFFFFFFFFFFFFFFFFFFF AND PUSH20 0xFFFFFFFFFFFFFFFFFFFFFFFFFFFFFFFFFFFFFFFF AND DUP2 MSTORE PUSH1 0x20 ADD SWAP1 DUP2 MSTORE PUSH1 0x20 ADD PUSH0 KECCAK256 PUSH0 DUP3 DUP3 SLOAD PUSH2 0x3D3 SWAP2 SWAP1 PUSH2 0x870 JUMP JUMPDEST SWAP3 POP POP DUP2 SWAP1 SSTORE POP PUSH0 CALLER PUSH20 0xFFFFFFFFFFFFFFFFFFFFFFFFFFFFFFFFFFFFFFFF AND DUP3 PUSH1 0x40 MLOAD PUSH2 0x3FF SWAP1 PUSH2 0x8D0 JUMP JUMPDEST PUSH0 PUSH1 0x40 MLOAD DUP1 DUP4 SUB DUP2 DUP6 DUP8 GAS CALL SWAP3 POP POP POP RETURNDATASIZE DUP1 PUSH0 DUP2 EQ PUSH2 0x439 JUMPI PUSH1 0x40 MLOAD SWAP2 POP PUSH1 0x1F NOT PUSH1 0x3F RETURNDATASIZE ADD AND DUP3 ADD PUSH1 0x40 MSTORE RETURNDATASIZE DUP3 MSTORE RETURNDATASIZE PUSH0 PUSH1 0x20 DUP5 ADD RETURNDATACOPY PUSH2 0x43E JUMP JUMPDEST PUSH1 0x60 SWAP2 POP JUMPDEST POP POP SWAP1 POP DUP1 PUSH2 0x482 JUMPI PUSH1 0x40 MLOAD PUSH32 0x8C379A000000000000000000000000000000000000000000000000000000000 DUP2 MSTORE PUSH1 0x4 ADD PUSH2 0x479 SWAP1 PUSH2 0x92E JUMP JUMPDEST PUSH1 0x40 MLOAD DUP1 SWAP2 SUB SWAP1 REVERT JUMPDEST POP POP JUMP JUMPDEST PUSH1 0x3 PUSH0 SWAP1 SLOAD SWAP1 PUSH2 0x100 EXP SWAP1 DIV PUSH20 0xFFFFFFFFFFFFFFFFFFFFFFFFFFFFFFFFFFFFFFFF AND DUP2 JUMP JUMPDEST CALLVALUE PUSH0 DUP1 CALLER PUSH20 0xFFFFFFFFFFFFFFFFFFFFFFFFFFFFFFFFFFFFFFFF AND PUSH20 0xFFFFFFFFFFFFFFFFFFFFFFFFFFFFFFFFFFFFFFFF AND DUP2 MSTORE PUSH1 0x20 ADD SWAP1 DUP2 MSTORE PUSH1 0x20 ADD PUSH0 KECCAK256 PUSH0 DUP3 DUP3 SLOAD PUSH2 0x4F6 SWAP2 SWAP1 PUSH2 0x94C JUMP JUMPDEST SWAP3 POP POP DUP2 SWAP1 SSTORE POP JUMP JUMPDEST PUSH0 PUSH1 0x3 PUSH0 SWAP1 SLOAD SWAP1 PUSH2 0x100 EXP SWAP1 DIV PUSH20 0xFFFFFFFFFFFFFFFFFFFFFFFFFFFFFFFFFFFFFFFF AND PUSH20 0xFFFFFFFFFFFFFFFFFFFFFFFFFFFFFFFFFFFFFFFF AND CALLER PUSH20 0xFFFFFFFFFFFFFFFFFFFFFFFFFFFFFFFFFFFFFFFF AND EQ PUSH2 0x58F JUMPI PUSH1 0x40 MLOAD PUSH32 0x8C379A000000000000000000000000000000000000000000000000000000000 DUP2 MSTORE PUSH1 0x4 ADD PUSH2 0x586 SWAP1 PUSH2 0x7BD JUMP JUMPDEST PUSH1 0x40 MLOAD DUP1 SWAP2 SUB SWAP1 REVERT JUMPDEST PUSH0 PUSH1 0x64 PUSH1 0x2 SLOAD PUSH0 DUP1 DUP7 PUSH20 0xFFFFFFFFFFFFFFFFFFFFFFFFFFFFFFFFFFFFFFFF AND PUSH20 0xFFFFFFFFFFFFFFFFFFFFFFFFFFFFFFFFFFFFFFFF AND DUP2 MSTORE PUSH1 0x20 ADD SWAP1 DUP2 MSTORE PUSH1 0x20 ADD PUSH0 KECCAK256 SLOAD PUSH2 0x5DC SWAP2 SWAP1 PUSH2 0x97F JUMP JUMPDEST PUSH2 0x5E6 SWAP2 SWAP1 PUSH2 0x9ED JUMP JUMPDEST SWAP1 POP DUP1 SWAP2 POP POP SWAP2 SWAP1 POP JUMP JUMPDEST PUSH1 0x1 DUP2 DUP2 SLOAD DUP2 LT PUSH2 0x600 JUMPI PUSH0 DUP1 REVERT JUMPDEST SWAP1 PUSH0 MSTORE PUSH1 0x20 PUSH0 KECCAK256 ADD PUSH0 SWAP2 POP SLOAD SWAP1 PUSH2 0x100 EXP SWAP1 DIV PUSH20 0xFFFFFFFFFFFFFFFFFFFFFFFFFFFFFFFFFFFFFFFF AND DUP2 JUMP JUMPDEST PUSH0 DUP2 SWAP1 POP SWAP2 SWAP1 POP JUMP JUMPDEST PUSH2 0x63E DUP2 PUSH2 0x62C JUMP JUMPDEST DUP3 MSTORE POP POP JUMP JUMPDEST PUSH0 PUSH1 0x20 DUP3 ADD SWAP1 POP PUSH2 0x657 PUSH0 DUP4 ADD DUP5 PUSH2 0x635 JUMP JUMPDEST SWAP3 SWAP2 POP POP JUMP JUMPDEST PUSH0 DUP1 REVERT JUMPDEST PUSH0 PUSH20 0xFFFFFFFFFFFFFFFFFFFFFFFFFFFFFFFFFFFFFFFF DUP3 AND SWAP1 POP SWAP2 SWAP1 POP JUMP JUMPDEST PUSH0 PUSH2 0x68A DUP3 PUSH2 0x661 JUMP JUMPDEST SWAP1 POP SWAP2 SWAP1 POP JUMP JUMPDEST PUSH2 0x69A DUP2 PUSH2 0x680 JUMP JUMPDEST DUP2 EQ PUSH2 0x6A4 JUMPI PUSH0 DUP1 REVERT JUMPDEST POP JUMP JUMPDEST PUSH0 DUP2 CALLDATALOAD SWAP1 POP PUSH2 0x6B5 DUP2 PUSH2 0x691 JUMP JUMPDEST SWAP3 SWAP2 POP POP JUMP JUMPDEST PUSH0 PUSH1 0x20 DUP3 DUP5 SUB SLT ISZERO PUSH2 0x6D0 JUMPI PUSH2 0x6CF PUSH2 0x65D JUMP JUMPDEST JUMPDEST PUSH0 PUSH2 0x6DD DUP5 DUP3 DUP6 ADD PUSH2 0x6A7 JUMP JUMPDEST SWAP2 POP POP SWAP3 SWAP2 POP POP JUMP JUMPDEST PUSH2 0x6EF DUP2 PUSH2 0x62C JUMP JUMPDEST DUP2 EQ PUSH2 0x6F9 JUMPI PUSH0 DUP1 REVERT JUMPDEST POP JUMP JUMPDEST PUSH0 DUP2 CALLDATALOAD SWAP1 POP PUSH2 0x70A DUP2 PUSH2 0x6E6 JUMP JUMPDEST SWAP3 SWAP2 POP POP JUMP JUMPDEST PUSH0 PUSH1 0x20 DUP3 DUP5 SUB SLT ISZERO PUSH2 0x725 JUMPI PUSH2 0x724 PUSH2 0x65D JUMP JUMPDEST JUMPDEST PUSH0 PUSH2 0x732 DUP5 DUP3 DUP6 ADD PUSH2 0x6FC JUMP JUMPDEST SWAP2 POP POP SWAP3 SWAP2 POP POP JUMP JUMPDEST PUSH2 0x744 DUP2 PUSH2 0x680 JUMP JUMPDEST DUP3 MSTORE POP POP JUMP JUMPDEST PUSH0 PUSH1 0x20 DUP3 ADD SWAP1 POP PUSH2 0x75D PUSH0 DUP4 ADD DUP5 PUSH2 0x73B JUMP JUMPDEST SWAP3 SWAP2 POP POP JUMP JUMPDEST PUSH0 DUP3 DUP3 MSTORE PUSH1 0x20 DUP3 ADD SWAP1 POP SWAP3 SWAP2 POP POP JUMP JUMPDEST PUSH32 0x4F6E6C79206F776E65722063616E20646F207468697300000000000000000000 PUSH0 DUP3 ADD MSTORE POP JUMP JUMPDEST PUSH0 PUSH2 0x7A7 PUSH1 0x16 DUP4 PUSH2 0x763 JUMP JUMPDEST SWAP2 POP PUSH2 0x7B2 DUP3 PUSH2 0x773 JUMP JUMPDEST PUSH1 0x20 DUP3 ADD SWAP1 POP SWAP2 SWAP1 POP JUMP JUMPDEST PUSH0 PUSH1 0x20 DUP3 ADD SWAP1 POP DUP2 DUP2 SUB PUSH0 DUP4 ADD MSTORE PUSH2 0x7D4 DUP2 PUSH2 0x79B JUMP JUMPDEST SWAP1 POP SWAP2 SWAP1 POP JUMP JUMPDEST PUSH32 0x496E73756666696369656E742066756E64730000000000000000000000000000 PUSH0 DUP3 ADD MSTORE POP JUMP JUMPDEST PUSH0 PUSH2 0x80F PUSH1 0x12 DUP4 PUSH2 0x763 JUMP JUMPDEST SWAP2 POP PUSH2 0x81A DUP3 PUSH2 0x7DB JUMP JUMPDEST PUSH1 0x20 DUP3 ADD SWAP1 POP SWAP2 SWAP1 POP JUMP JUMPDEST PUSH0 PUSH1 0x20 DUP3 ADD SWAP1 POP DUP2 DUP2 SUB PUSH0 DUP4 ADD MSTORE PUSH2 0x83C DUP2 PUSH2 0x803 JUMP JUMPDEST SWAP1 POP SWAP2 SWAP1 POP JUMP JUMPDEST PUSH32 0x4E487B7100000000000000000000000000000000000000000000000000000000 PUSH0 MSTORE PUSH1 0x11 PUSH1 0x4 MSTORE PUSH1 0x24 PUSH0 REVERT JUMPDEST PUSH0 PUSH2 0x87A DUP3 PUSH2 0x62C JUMP JUMPDEST SWAP2 POP PUSH2 0x885 DUP4 PUSH2 0x62C JUMP JUMPDEST SWAP3 POP DUP3 DUP3 SUB SWAP1 POP DUP2 DUP2 GT ISZERO PUSH2 0x89D JUMPI PUSH2 0x89C PUSH2 0x843 JUMP JUMPDEST JUMPDEST SWAP3 SWAP2 POP POP JUMP JUMPDEST PUSH0 DUP2 SWAP1 POP SWAP3 SWAP2 POP POP JUMP JUMPDEST POP JUMP JUMPDEST PUSH0 PUSH2 0x8BB PUSH0 DUP4 PUSH2 0x8A3 JUMP JUMPDEST SWAP2 POP PUSH2 0x8C6 DUP3 PUSH2 0x8AD JUMP JUMPDEST PUSH0 DUP3 ADD SWAP1 POP SWAP2 SWAP1 POP JUMP JUMPDEST PUSH0 PUSH2 0x8DA DUP3 PUSH2 0x8B0 JUMP JUMPDEST SWAP2 POP DUP2 SWAP1 POP SWAP2 SWAP1 POP JUMP JUMPDEST PUSH32 0x5769746864726177616C206661696C6564000000000000000000000000000000 PUSH0 DUP3 ADD MSTORE POP JUMP JUMPDEST PUSH0 PUSH2 0x918 PUSH1 0x11 DUP4 PUSH2 0x763 JUMP JUMPDEST SWAP2 POP PUSH2 0x923 DUP3 PUSH2 0x8E4 JUMP JUMPDEST PUSH1 0x20 DUP3 ADD SWAP1 POP SWAP2 SWAP1 POP JUMP JUMPDEST PUSH0 PUSH1 0x20 DUP3 ADD SWAP1 POP DUP2 DUP2 SUB PUSH0 DUP4 ADD MSTORE PUSH2 0x945 DUP2 PUSH2 0x90C JUMP JUMPDEST SWAP1 POP SWAP2 SWAP1 POP JUMP JUMPDEST PUSH0 PUSH2 0x956 DUP3 PUSH2 0x62C JUMP JUMPDEST SWAP2 POP PUSH2 0x961 DUP4 PUSH2 0x62C JUMP JUMPDEST SWAP3 POP DUP3 DUP3 ADD SWAP1 POP DUP1 DUP3 GT ISZERO PUSH2 0x979 JUMPI PUSH2 0x978 PUSH2 0x843 JUMP JUMPDEST JUMPDEST SWAP3 SWAP2 POP POP JUMP JUMPDEST PUSH0 PUSH2 0x989 DUP3 PUSH2 0x62C JUMP JUMPDEST SWAP2 POP PUSH2 0x994 DUP4 PUSH2 0x62C JUMP JUMPDEST SWAP3 POP DUP3 DUP3 MUL PUSH2 0x9A2 DUP2 PUSH2 0x62C JUMP JUMPDEST SWAP2 POP DUP3 DUP3 DIV DUP5 EQ DUP4 ISZERO OR PUSH2 0x9B9 JUMPI PUSH2 0x9B8 PUSH2 0x843 JUMP JUMPDEST JUMPDEST POP SWAP3 SWAP2 POP POP JUMP JUMPDEST PUSH32 0x4E487B7100000000000000000000000000000000000000000000000000000000 PUSH0 MSTORE PUSH1 0x12 PUSH1 0x4 MSTORE PUSH1 0x24 PUSH0 REVERT JUMPDEST PUSH0 PUSH2 0x9F7 DUP3 PUSH2 0x62C JUMP JUMPDEST SWAP2 POP PUSH2 0xA02 DUP4 PUSH2 0x62C JUMP JUMPDEST SWAP3 POP DUP3 PUSH2 0xA12 JUMPI PUSH2 0xA11 PUSH2 0x9C0 JUMP JUMPDEST JUMPDEST DUP3 DUP3 DIV SWAP1 POP SWAP3 SWAP2 POP POP JUMP INVALID LOG2 PUSH5 0x6970667358 0x22 SLT KECCAK256 0x22 0x26 STATICCALL SWAP1 DUP12 PUSH8 0xA244A3F5DE45C574 PUSH24 0xD02BEB64AC641802FC49148357F73CE30A64736F6C634300 ADDMOD AND STOP CALLER "
				},
				"gasEstimates": {
					"creation": {
						"codeDepositCost": "528600",
						"executionCost": "46931",
						"totalCost": "575531"
					},
					"external": {
						"accounts(uint256)": "5032",
						"balances(address)": "2846",
						"calculateInterest(address)": "infinite",
						"deposit()": "infinite",
						"getBalances()": "2520",
						"getSystemBalance()": "2621",
						"owner()": "2530",
						"rate()": "2492",
						"withdraw(uint256)": "infinite"
					}
				},
				"methodIdentifiers": {
					"accounts(uint256)": "f2a40db8",
					"balances(address)": "27e235e3",
					"calculateInterest(address)": "e11932cf",
					"deposit()": "d0e30db0",
					"getBalances()": "00113e08",
					"getSystemBalance()": "21f4ae14",
					"owner()": "8da5cb5b",
					"rate()": "2c4e722e",
					"withdraw(uint256)": "2e1a7d4d"
				}
			},
			"storageLayout": {
				"storage": [
					{
						"astId": 5,
						"contract": "contracts/FinalExam_ComplicatedBank3.sol:ComplicatedBank",
						"label": "balances",
						"offset": 0,
						"slot": "0",
						"type": "t_mapping(t_address,t_uint256)"
					},
					{
						"astId": 8,
						"contract": "contracts/FinalExam_ComplicatedBank3.sol:ComplicatedBank",
						"label": "accounts",
						"offset": 0,
						"slot": "1",
						"type": "t_array(t_address)dyn_storage"
					},
					{
						"astId": 11,
						"contract": "contracts/FinalExam_ComplicatedBank3.sol:ComplicatedBank",
						"label": "rate",
						"offset": 0,
						"slot": "2",
						"type": "t_uint256"
					},
					{
						"astId": 13,
						"contract": "contracts/FinalExam_ComplicatedBank3.sol:ComplicatedBank",
						"label": "owner",
						"offset": 0,
						"slot": "3",
						"type": "t_address"
					}
				],
				"types": {
					"t_address": {
						"encoding": "inplace",
						"label": "address",
						"numberOfBytes": "20"
					},
					"t_array(t_address)dyn_storage": {
						"base": "t_address",
						"encoding": "dynamic_array",
						"label": "address[]",
						"numberOfBytes": "32"
					},
					"t_mapping(t_address,t_uint256)": {
						"encoding": "mapping",
						"key": "t_address",
						"label": "mapping(address => uint256)",
						"numberOfBytes": "32",
						"value": "t_uint256"
					},
					"t_uint256": {
						"encoding": "inplace",
						"label": "uint256",
						"numberOfBytes": "32"
					}
				}
			},
			"userdoc": {
				"kind": "user",
				"methods": {},
				"version": 1
			}
		}
	}
}