{
	"contracts/TestVoting0.sol": {
		"TestVoting": {
			"abi": [
				{
					"inputs": [
						{
							"internalType": "string[]",
							"name": "_candidateList",
							"type": "string[]"
						}
					],
					"stateMutability": "nonpayable",
					"type": "constructor"
				},
				{
					"inputs": [],
					"name": "candidateCount",
					"outputs": [
						{
							"internalType": "uint256",
							"name": "",
							"type": "uint256"
						}
					],
					"stateMutability": "view",
					"type": "function"
				},
				{
					"inputs": [
						{
							"internalType": "uint256",
							"name": "",
							"type": "uint256"
						}
					],
					"name": "candidateList",
					"outputs": [
						{
							"internalType": "string",
							"name": "",
							"type": "string"
						}
					],
					"stateMutability": "view",
					"type": "function"
				},
				{
					"inputs": [],
					"name": "endVote",
					"outputs": [],
					"stateMutability": "nonpayable",
					"type": "function"
				},
				{
					"inputs": [
						{
							"internalType": "address",
							"name": "",
							"type": "address"
						}
					],
					"name": "isVoted",
					"outputs": [
						{
							"internalType": "bool",
							"name": "",
							"type": "bool"
						}
					],
					"stateMutability": "view",
					"type": "function"
				},
				{
					"inputs": [],
					"name": "managerAddress",
					"outputs": [
						{
							"internalType": "address",
							"name": "",
							"type": "address"
						}
					],
					"stateMutability": "view",
					"type": "function"
				},
				{
					"inputs": [],
					"name": "startVote",
					"outputs": [],
					"stateMutability": "nonpayable",
					"type": "function"
				},
				{
					"inputs": [],
					"name": "state",
					"outputs": [
						{
							"internalType": "enum TestVoting.State",
							"name": "",
							"type": "uint8"
						}
					],
					"stateMutability": "view",
					"type": "function"
				},
				{
					"inputs": [
						{
							"internalType": "string",
							"name": "_candidate",
							"type": "string"
						}
					],
					"name": "totalVotesFor",
					"outputs": [
						{
							"internalType": "uint256",
							"name": "",
							"type": "uint256"
						}
					],
					"stateMutability": "view",
					"type": "function"
				},
				{
					"inputs": [
						{
							"internalType": "string",
							"name": "_candidate",
							"type": "string"
						}
					],
					"name": "voteForCandidate",
					"outputs": [],
					"stateMutability": "nonpayable",
					"type": "function"
				},
				{
					"inputs": [
						{
							"internalType": "string",
							"name": "",
							"type": "string"
						}
					],
					"name": "votesScores",
					"outputs": [
						{
							"internalType": "uint256",
							"name": "",
							"type": "uint256"
						}
					],
					"stateMutability": "view",
					"type": "function"
				}
			],
			"devdoc": {
				"kind": "dev",
				"methods": {},
				"version": 1
			},
			"evm": {
				"assembly": "    /* \"contracts/TestVoting0.sol\":2038:3259  contract TestVoting {... */\n  mstore(0x40, 0x80)\n    /* \"contracts/TestVoting0.sol\":2299:2458  constructor(string[] memory _candidateList) {... */\n  callvalue\n  dup1\n  iszero\n  tag_1\n  jumpi\n  0x00\n  dup1\n  revert\ntag_1:\n  pop\n  mload(0x40)\n  sub(codesize, bytecodeSize)\n  dup1\n  bytecodeSize\n  dup4\n  codecopy\n  dup2\n  dup2\n  add\n  0x40\n  mstore\n  dup2\n  add\n  swap1\n  tag_2\n  swap2\n  swap1\n  tag_3\n  jump\t// in\ntag_2:\n    /* \"contracts/TestVoting0.sol\":2370:2380  msg.sender */\n  caller\n    /* \"contracts/TestVoting0.sol\":2353:2367  managerAddress */\n  0x00\n  dup1\n    /* \"contracts/TestVoting0.sol\":2353:2380  managerAddress = msg.sender */\n  0x0100\n  exp\n  dup2\n  sload\n  dup2\n  0xffffffffffffffffffffffffffffffffffffffff\n  mul\n  not\n  and\n  swap1\n  dup4\n  0xffffffffffffffffffffffffffffffffffffffff\n  and\n  mul\n  or\n  swap1\n  sstore\n  pop\n    /* \"contracts/TestVoting0.sol\":2406:2420  _candidateList */\n  dup1\n    /* \"contracts/TestVoting0.sol\":2390:2403  candidateList */\n  0x01\n    /* \"contracts/TestVoting0.sol\":2390:2420  candidateList = _candidateList */\n  swap1\n  dup1\n  mload\n  swap1\n  0x20\n  add\n  swap1\n  tag_6\n  swap3\n  swap2\n  swap1\n  tag_7\n  jump\t// in\ntag_6:\n  pop\n    /* \"contracts/TestVoting0.sol\":2438:2451  State.Started */\n  0x00\n    /* \"contracts/TestVoting0.sol\":2430:2435  state */\n  0x04\n  0x00\n    /* \"contracts/TestVoting0.sol\":2430:2451  state = State.Started */\n  0x0100\n  exp\n  dup2\n  sload\n  dup2\n  0xff\n  mul\n  not\n  and\n  swap1\n  dup4\n  0x02\n  dup2\n  gt\n  iszero\n  tag_8\n  jumpi\n  tag_9\n  tag_10\n  jump\t// in\ntag_9:\ntag_8:\n  mul\n  or\n  swap1\n  sstore\n  pop\n    /* \"contracts/TestVoting0.sol\":2299:2458  constructor(string[] memory _candidateList) {... */\n  pop\n    /* \"contracts/TestVoting0.sol\":2038:3259  contract TestVoting {... */\n  jump(tag_11)\ntag_7:\n  dup3\n  dup1\n  sload\n  dup3\n  dup3\n  sstore\n  swap1\n  0x00\n  mstore\n  keccak256(0x00, 0x20)\n  swap1\n  dup2\n  add\n  swap3\n  dup3\n  iszero\n  tag_12\n  jumpi\n  swap2\n  0x20\n  mul\n  dup3\n  add\ntag_13:\n  dup3\n  dup2\n  gt\n  iszero\n  tag_14\n  jumpi\n  dup3\n  mload\n  dup3\n  swap1\n  dup2\n  tag_15\n  swap2\n  swap1\n  tag_16\n  jump\t// in\ntag_15:\n  pop\n  swap2\n  0x20\n  add\n  swap2\n  swap1\n  0x01\n  add\n  swap1\n  jump(tag_13)\ntag_14:\ntag_12:\n  pop\n  swap1\n  pop\n  tag_17\n  swap2\n  swap1\n  tag_18\n  jump\t// in\ntag_17:\n  pop\n  swap1\n  jump\t// out\ntag_18:\ntag_19:\n  dup1\n  dup3\n  gt\n  iszero\n  tag_20\n  jumpi\n  0x00\n  dup2\n  dup2\n  tag_21\n  swap2\n  swap1\n  tag_22\n  jump\t// in\ntag_21:\n  pop\n  0x01\n  add\n  jump(tag_19)\ntag_20:\n  pop\n  swap1\n  jump\t// out\ntag_22:\n  pop\n  dup1\n  sload\n  tag_23\n  swap1\n  tag_24\n  jump\t// in\ntag_23:\n  0x00\n  dup3\n  sstore\n  dup1\n  0x1f\n  lt\n  tag_26\n  jumpi\n  pop\n  jump(tag_25)\ntag_26:\n  0x1f\n  add\n  0x20\n  swap1\n  div\n  swap1\n  0x00\n  mstore\n  keccak256(0x00, 0x20)\n  swap1\n  dup2\n  add\n  swap1\n  tag_27\n  swap2\n  swap1\n  tag_28\n  jump\t// in\ntag_27:\ntag_25:\n  pop\n  jump\t// out\ntag_28:\ntag_29:\n  dup1\n  dup3\n  gt\n  iszero\n  tag_30\n  jumpi\n  0x00\n  dup2\n  0x00\n  swap1\n  sstore\n  pop\n  0x01\n  add\n  jump(tag_29)\ntag_30:\n  pop\n  swap1\n  jump\t// out\n    /* \"#utility.yul\":7:82   */\ntag_31:\n    /* \"#utility.yul\":40:46   */\n  0x00\n    /* \"#utility.yul\":73:75   */\n  0x40\n    /* \"#utility.yul\":67:76   */\n  mload\n    /* \"#utility.yul\":57:76   */\n  swap1\n  pop\n    /* \"#utility.yul\":7:82   */\n  swap1\n  jump\t// out\n    /* \"#utility.yul\":88:205   */\ntag_32:\n    /* \"#utility.yul\":197:198   */\n  0x00\n    /* \"#utility.yul\":194:195   */\n  dup1\n    /* \"#utility.yul\":187:199   */\n  revert\n    /* \"#utility.yul\":211:328   */\ntag_33:\n    /* \"#utility.yul\":320:321   */\n  0x00\n    /* \"#utility.yul\":317:318   */\n  dup1\n    /* \"#utility.yul\":310:322   */\n  revert\n    /* \"#utility.yul\":334:451   */\ntag_34:\n    /* \"#utility.yul\":443:444   */\n  0x00\n    /* \"#utility.yul\":440:441   */\n  dup1\n    /* \"#utility.yul\":433:445   */\n  revert\n    /* \"#utility.yul\":457:559   */\ntag_35:\n    /* \"#utility.yul\":498:504   */\n  0x00\n    /* \"#utility.yul\":549:551   */\n  0x1f\n    /* \"#utility.yul\":545:552   */\n  not\n    /* \"#utility.yul\":540:542   */\n  0x1f\n    /* \"#utility.yul\":533:538   */\n  dup4\n    /* \"#utility.yul\":529:543   */\n  add\n    /* \"#utility.yul\":525:553   */\n  and\n    /* \"#utility.yul\":515:553   */\n  swap1\n  pop\n    /* \"#utility.yul\":457:559   */\n  swap2\n  swap1\n  pop\n  jump\t// out\n    /* \"#utility.yul\":565:745   */\ntag_36:\n    /* \"#utility.yul\":613:690   */\n  0x4e487b7100000000000000000000000000000000000000000000000000000000\n    /* \"#utility.yul\":610:611   */\n  0x00\n    /* \"#utility.yul\":603:691   */\n  mstore\n    /* \"#utility.yul\":710:714   */\n  0x41\n    /* \"#utility.yul\":707:708   */\n  0x04\n    /* \"#utility.yul\":700:715   */\n  mstore\n    /* \"#utility.yul\":734:738   */\n  0x24\n    /* \"#utility.yul\":731:732   */\n  0x00\n    /* \"#utility.yul\":724:739   */\n  revert\n    /* \"#utility.yul\":751:1032   */\ntag_37:\n    /* \"#utility.yul\":834:861   */\n  tag_74\n    /* \"#utility.yul\":856:860   */\n  dup3\n    /* \"#utility.yul\":834:861   */\n  tag_35\n  jump\t// in\ntag_74:\n    /* \"#utility.yul\":826:832   */\n  dup2\n    /* \"#utility.yul\":822:862   */\n  add\n    /* \"#utility.yul\":964:970   */\n  dup2\n    /* \"#utility.yul\":952:962   */\n  dup2\n    /* \"#utility.yul\":949:971   */\n  lt\n    /* \"#utility.yul\":928:946   */\n  0xffffffffffffffff\n    /* \"#utility.yul\":916:926   */\n  dup3\n    /* \"#utility.yul\":913:947   */\n  gt\n    /* \"#utility.yul\":910:972   */\n  or\n    /* \"#utility.yul\":907:995   */\n  iszero\n  tag_75\n  jumpi\n    /* \"#utility.yul\":975:993   */\n  tag_76\n  tag_36\n  jump\t// in\ntag_76:\n    /* \"#utility.yul\":907:995   */\ntag_75:\n    /* \"#utility.yul\":1015:1025   */\n  dup1\n    /* \"#utility.yul\":1011:1013   */\n  0x40\n    /* \"#utility.yul\":1004:1026   */\n  mstore\n    /* \"#utility.yul\":794:1032   */\n  pop\n    /* \"#utility.yul\":751:1032   */\n  pop\n  pop\n  jump\t// out\n    /* \"#utility.yul\":1038:1167   */\ntag_38:\n    /* \"#utility.yul\":1072:1078   */\n  0x00\n    /* \"#utility.yul\":1099:1119   */\n  tag_78\n  tag_31\n  jump\t// in\ntag_78:\n    /* \"#utility.yul\":1089:1119   */\n  swap1\n  pop\n    /* \"#utility.yul\":1128:1161   */\n  tag_79\n    /* \"#utility.yul\":1156:1160   */\n  dup3\n    /* \"#utility.yul\":1148:1154   */\n  dup3\n    /* \"#utility.yul\":1128:1161   */\n  tag_37\n  jump\t// in\ntag_79:\n    /* \"#utility.yul\":1038:1167   */\n  swap2\n  swap1\n  pop\n  jump\t// out\n    /* \"#utility.yul\":1173:1494   */\ntag_39:\n    /* \"#utility.yul\":1260:1264   */\n  0x00\n    /* \"#utility.yul\":1350:1368   */\n  0xffffffffffffffff\n    /* \"#utility.yul\":1342:1348   */\n  dup3\n    /* \"#utility.yul\":1339:1369   */\n  gt\n    /* \"#utility.yul\":1336:1392   */\n  iszero\n  tag_81\n  jumpi\n    /* \"#utility.yul\":1372:1390   */\n  tag_82\n  tag_36\n  jump\t// in\ntag_82:\n    /* \"#utility.yul\":1336:1392   */\ntag_81:\n    /* \"#utility.yul\":1422:1426   */\n  0x20\n    /* \"#utility.yul\":1414:1420   */\n  dup3\n    /* \"#utility.yul\":1410:1427   */\n  mul\n    /* \"#utility.yul\":1402:1427   */\n  swap1\n  pop\n    /* \"#utility.yul\":1482:1486   */\n  0x20\n    /* \"#utility.yul\":1476:1480   */\n  dup2\n    /* \"#utility.yul\":1472:1487   */\n  add\n    /* \"#utility.yul\":1464:1487   */\n  swap1\n  pop\n    /* \"#utility.yul\":1173:1494   */\n  swap2\n  swap1\n  pop\n  jump\t// out\n    /* \"#utility.yul\":1500:1617   */\ntag_40:\n    /* \"#utility.yul\":1609:1610   */\n  0x00\n    /* \"#utility.yul\":1606:1607   */\n  dup1\n    /* \"#utility.yul\":1599:1611   */\n  revert\n    /* \"#utility.yul\":1623:1740   */\ntag_41:\n    /* \"#utility.yul\":1732:1733   */\n  0x00\n    /* \"#utility.yul\":1729:1730   */\n  dup1\n    /* \"#utility.yul\":1722:1734   */\n  revert\n    /* \"#utility.yul\":1746:2054   */\ntag_42:\n    /* \"#utility.yul\":1808:1812   */\n  0x00\n    /* \"#utility.yul\":1898:1916   */\n  0xffffffffffffffff\n    /* \"#utility.yul\":1890:1896   */\n  dup3\n    /* \"#utility.yul\":1887:1917   */\n  gt\n    /* \"#utility.yul\":1884:1940   */\n  iszero\n  tag_86\n  jumpi\n    /* \"#utility.yul\":1920:1938   */\n  tag_87\n  tag_36\n  jump\t// in\ntag_87:\n    /* \"#utility.yul\":1884:1940   */\ntag_86:\n    /* \"#utility.yul\":1958:1987   */\n  tag_88\n    /* \"#utility.yul\":1980:1986   */\n  dup3\n    /* \"#utility.yul\":1958:1987   */\n  tag_35\n  jump\t// in\ntag_88:\n    /* \"#utility.yul\":1950:1987   */\n  swap1\n  pop\n    /* \"#utility.yul\":2042:2046   */\n  0x20\n    /* \"#utility.yul\":2036:2040   */\n  dup2\n    /* \"#utility.yul\":2032:2047   */\n  add\n    /* \"#utility.yul\":2024:2047   */\n  swap1\n  pop\n    /* \"#utility.yul\":1746:2054   */\n  swap2\n  swap1\n  pop\n  jump\t// out\n    /* \"#utility.yul\":2060:2306   */\ntag_43:\n    /* \"#utility.yul\":2141:2142   */\n  0x00\n    /* \"#utility.yul\":2151:2264   */\ntag_90:\n    /* \"#utility.yul\":2165:2171   */\n  dup4\n    /* \"#utility.yul\":2162:2163   */\n  dup2\n    /* \"#utility.yul\":2159:2172   */\n  lt\n    /* \"#utility.yul\":2151:2264   */\n  iszero\n  tag_92\n  jumpi\n    /* \"#utility.yul\":2250:2251   */\n  dup1\n    /* \"#utility.yul\":2245:2248   */\n  dup3\n    /* \"#utility.yul\":2241:2252   */\n  add\n    /* \"#utility.yul\":2235:2253   */\n  mload\n    /* \"#utility.yul\":2231:2232   */\n  dup2\n    /* \"#utility.yul\":2226:2229   */\n  dup5\n    /* \"#utility.yul\":2222:2233   */\n  add\n    /* \"#utility.yul\":2215:2254   */\n  mstore\n    /* \"#utility.yul\":2187:2189   */\n  0x20\n    /* \"#utility.yul\":2184:2185   */\n  dup2\n    /* \"#utility.yul\":2180:2190   */\n  add\n    /* \"#utility.yul\":2175:2190   */\n  swap1\n  pop\n    /* \"#utility.yul\":2151:2264   */\n  jump(tag_90)\ntag_92:\n    /* \"#utility.yul\":2298:2299   */\n  0x00\n    /* \"#utility.yul\":2289:2295   */\n  dup5\n    /* \"#utility.yul\":2284:2287   */\n  dup5\n    /* \"#utility.yul\":2280:2296   */\n  add\n    /* \"#utility.yul\":2273:2300   */\n  mstore\n    /* \"#utility.yul\":2122:2306   */\n  pop\n    /* \"#utility.yul\":2060:2306   */\n  pop\n  pop\n  pop\n  jump\t// out\n    /* \"#utility.yul\":2312:2746   */\ntag_44:\n    /* \"#utility.yul\":2401:2406   */\n  0x00\n    /* \"#utility.yul\":2426:2492   */\n  tag_94\n    /* \"#utility.yul\":2442:2491   */\n  tag_95\n    /* \"#utility.yul\":2484:2490   */\n  dup5\n    /* \"#utility.yul\":2442:2491   */\n  tag_42\n  jump\t// in\ntag_95:\n    /* \"#utility.yul\":2426:2492   */\n  tag_38\n  jump\t// in\ntag_94:\n    /* \"#utility.yul\":2417:2492   */\n  swap1\n  pop\n    /* \"#utility.yul\":2515:2521   */\n  dup3\n    /* \"#utility.yul\":2508:2513   */\n  dup2\n    /* \"#utility.yul\":2501:2522   */\n  mstore\n    /* \"#utility.yul\":2553:2557   */\n  0x20\n    /* \"#utility.yul\":2546:2551   */\n  dup2\n    /* \"#utility.yul\":2542:2558   */\n  add\n    /* \"#utility.yul\":2591:2594   */\n  dup5\n    /* \"#utility.yul\":2582:2588   */\n  dup5\n    /* \"#utility.yul\":2577:2580   */\n  dup5\n    /* \"#utility.yul\":2573:2589   */\n  add\n    /* \"#utility.yul\":2570:2595   */\n  gt\n    /* \"#utility.yul\":2567:2679   */\n  iszero\n  tag_96\n  jumpi\n    /* \"#utility.yul\":2598:2677   */\n  tag_97\n  tag_41\n  jump\t// in\ntag_97:\n    /* \"#utility.yul\":2567:2679   */\ntag_96:\n    /* \"#utility.yul\":2688:2740   */\n  tag_98\n    /* \"#utility.yul\":2733:2739   */\n  dup5\n    /* \"#utility.yul\":2728:2731   */\n  dup3\n    /* \"#utility.yul\":2723:2726   */\n  dup6\n    /* \"#utility.yul\":2688:2740   */\n  tag_43\n  jump\t// in\ntag_98:\n    /* \"#utility.yul\":2407:2746   */\n  pop\n    /* \"#utility.yul\":2312:2746   */\n  swap4\n  swap3\n  pop\n  pop\n  pop\n  jump\t// out\n    /* \"#utility.yul\":2766:3121   */\ntag_45:\n    /* \"#utility.yul\":2833:2838   */\n  0x00\n    /* \"#utility.yul\":2882:2885   */\n  dup3\n    /* \"#utility.yul\":2875:2879   */\n  0x1f\n    /* \"#utility.yul\":2867:2873   */\n  dup4\n    /* \"#utility.yul\":2863:2880   */\n  add\n    /* \"#utility.yul\":2859:2886   */\n  slt\n    /* \"#utility.yul\":2849:2971   */\n  tag_100\n  jumpi\n    /* \"#utility.yul\":2890:2969   */\n  tag_101\n  tag_34\n  jump\t// in\ntag_101:\n    /* \"#utility.yul\":2849:2971   */\ntag_100:\n    /* \"#utility.yul\":3000:3006   */\n  dup2\n    /* \"#utility.yul\":2994:3007   */\n  mload\n    /* \"#utility.yul\":3025:3115   */\n  tag_102\n    /* \"#utility.yul\":3111:3114   */\n  dup5\n    /* \"#utility.yul\":3103:3109   */\n  dup3\n    /* \"#utility.yul\":3096:3100   */\n  0x20\n    /* \"#utility.yul\":3088:3094   */\n  dup7\n    /* \"#utility.yul\":3084:3101   */\n  add\n    /* \"#utility.yul\":3025:3115   */\n  tag_44\n  jump\t// in\ntag_102:\n    /* \"#utility.yul\":3016:3115   */\n  swap2\n  pop\n    /* \"#utility.yul\":2839:3121   */\n  pop\n    /* \"#utility.yul\":2766:3121   */\n  swap3\n  swap2\n  pop\n  pop\n  jump\t// out\n    /* \"#utility.yul\":3143:4103   */\ntag_46:\n    /* \"#utility.yul\":3260:3265   */\n  0x00\n    /* \"#utility.yul\":3285:3376   */\n  tag_104\n    /* \"#utility.yul\":3301:3375   */\n  tag_105\n    /* \"#utility.yul\":3368:3374   */\n  dup5\n    /* \"#utility.yul\":3301:3375   */\n  tag_39\n  jump\t// in\ntag_105:\n    /* \"#utility.yul\":3285:3376   */\n  tag_38\n  jump\t// in\ntag_104:\n    /* \"#utility.yul\":3276:3376   */\n  swap1\n  pop\n    /* \"#utility.yul\":3396:3401   */\n  dup1\n    /* \"#utility.yul\":3425:3431   */\n  dup4\n    /* \"#utility.yul\":3418:3423   */\n  dup3\n    /* \"#utility.yul\":3411:3432   */\n  mstore\n    /* \"#utility.yul\":3459:3463   */\n  0x20\n    /* \"#utility.yul\":3452:3457   */\n  dup3\n    /* \"#utility.yul\":3448:3464   */\n  add\n    /* \"#utility.yul\":3441:3464   */\n  swap1\n  pop\n    /* \"#utility.yul\":3512:3516   */\n  0x20\n    /* \"#utility.yul\":3504:3510   */\n  dup5\n    /* \"#utility.yul\":3500:3517   */\n  mul\n    /* \"#utility.yul\":3492:3498   */\n  dup4\n    /* \"#utility.yul\":3488:3518   */\n  add\n    /* \"#utility.yul\":3541:3544   */\n  dup6\n    /* \"#utility.yul\":3533:3539   */\n  dup2\n    /* \"#utility.yul\":3530:3545   */\n  gt\n    /* \"#utility.yul\":3527:3649   */\n  iszero\n  tag_106\n  jumpi\n    /* \"#utility.yul\":3560:3639   */\n  tag_107\n  tag_40\n  jump\t// in\ntag_107:\n    /* \"#utility.yul\":3527:3649   */\ntag_106:\n    /* \"#utility.yul\":3675:3681   */\n  dup4\n    /* \"#utility.yul\":3658:4097   */\ntag_108:\n    /* \"#utility.yul\":3692:3698   */\n  dup2\n    /* \"#utility.yul\":3687:3690   */\n  dup2\n    /* \"#utility.yul\":3684:3699   */\n  lt\n    /* \"#utility.yul\":3658:4097   */\n  iszero\n  tag_110\n  jumpi\n    /* \"#utility.yul\":3774:3777   */\n  dup1\n    /* \"#utility.yul\":3768:3778   */\n  mload\n    /* \"#utility.yul\":3810:3828   */\n  0xffffffffffffffff\n    /* \"#utility.yul\":3797:3808   */\n  dup2\n    /* \"#utility.yul\":3794:3829   */\n  gt\n    /* \"#utility.yul\":3791:3913   */\n  iszero\n  tag_111\n  jumpi\n    /* \"#utility.yul\":3832:3911   */\n  tag_112\n  tag_34\n  jump\t// in\ntag_112:\n    /* \"#utility.yul\":3791:3913   */\ntag_111:\n    /* \"#utility.yul\":3956:3967   */\n  dup1\n    /* \"#utility.yul\":3948:3954   */\n  dup7\n    /* \"#utility.yul\":3944:3968   */\n  add\n    /* \"#utility.yul\":3994:4052   */\n  tag_113\n    /* \"#utility.yul\":4048:4051   */\n  dup10\n    /* \"#utility.yul\":4036:4046   */\n  dup3\n    /* \"#utility.yul\":3994:4052   */\n  tag_45\n  jump\t// in\ntag_113:\n    /* \"#utility.yul\":3989:3992   */\n  dup6\n    /* \"#utility.yul\":3982:4053   */\n  mstore\n    /* \"#utility.yul\":4082:4086   */\n  0x20\n    /* \"#utility.yul\":4077:4080   */\n  dup6\n    /* \"#utility.yul\":4073:4087   */\n  add\n    /* \"#utility.yul\":4066:4087   */\n  swap5\n  pop\n    /* \"#utility.yul\":3734:4097   */\n  pop\n  pop\n    /* \"#utility.yul\":3718:3722   */\n  0x20\n    /* \"#utility.yul\":3713:3716   */\n  dup2\n    /* \"#utility.yul\":3709:3723   */\n  add\n    /* \"#utility.yul\":3702:3723   */\n  swap1\n  pop\n    /* \"#utility.yul\":3658:4097   */\n  jump(tag_108)\ntag_110:\n    /* \"#utility.yul\":3662:3683   */\n  pop\n    /* \"#utility.yul\":3266:4103   */\n  pop\n  pop\n    /* \"#utility.yul\":3143:4103   */\n  swap4\n  swap3\n  pop\n  pop\n  pop\n  jump\t// out\n    /* \"#utility.yul\":4125:4530   */\ntag_47:\n    /* \"#utility.yul\":4217:4222   */\n  0x00\n    /* \"#utility.yul\":4266:4269   */\n  dup3\n    /* \"#utility.yul\":4259:4263   */\n  0x1f\n    /* \"#utility.yul\":4251:4257   */\n  dup4\n    /* \"#utility.yul\":4247:4264   */\n  add\n    /* \"#utility.yul\":4243:4270   */\n  slt\n    /* \"#utility.yul\":4233:4355   */\n  tag_115\n  jumpi\n    /* \"#utility.yul\":4274:4353   */\n  tag_116\n  tag_34\n  jump\t// in\ntag_116:\n    /* \"#utility.yul\":4233:4355   */\ntag_115:\n    /* \"#utility.yul\":4384:4390   */\n  dup2\n    /* \"#utility.yul\":4378:4391   */\n  mload\n    /* \"#utility.yul\":4409:4524   */\n  tag_117\n    /* \"#utility.yul\":4520:4523   */\n  dup5\n    /* \"#utility.yul\":4512:4518   */\n  dup3\n    /* \"#utility.yul\":4505:4509   */\n  0x20\n    /* \"#utility.yul\":4497:4503   */\n  dup7\n    /* \"#utility.yul\":4493:4510   */\n  add\n    /* \"#utility.yul\":4409:4524   */\n  tag_46\n  jump\t// in\ntag_117:\n    /* \"#utility.yul\":4400:4524   */\n  swap2\n  pop\n    /* \"#utility.yul\":4223:4530   */\n  pop\n    /* \"#utility.yul\":4125:4530   */\n  swap3\n  swap2\n  pop\n  pop\n  jump\t// out\n    /* \"#utility.yul\":4536:5110   */\ntag_3:\n    /* \"#utility.yul\":4641:4647   */\n  0x00\n    /* \"#utility.yul\":4690:4692   */\n  0x20\n    /* \"#utility.yul\":4678:4687   */\n  dup3\n    /* \"#utility.yul\":4669:4676   */\n  dup5\n    /* \"#utility.yul\":4665:4688   */\n  sub\n    /* \"#utility.yul\":4661:4693   */\n  slt\n    /* \"#utility.yul\":4658:4777   */\n  iszero\n  tag_119\n  jumpi\n    /* \"#utility.yul\":4696:4775   */\n  tag_120\n  tag_32\n  jump\t// in\ntag_120:\n    /* \"#utility.yul\":4658:4777   */\ntag_119:\n    /* \"#utility.yul\":4837:4838   */\n  0x00\n    /* \"#utility.yul\":4826:4835   */\n  dup3\n    /* \"#utility.yul\":4822:4839   */\n  add\n    /* \"#utility.yul\":4816:4840   */\n  mload\n    /* \"#utility.yul\":4867:4885   */\n  0xffffffffffffffff\n    /* \"#utility.yul\":4859:4865   */\n  dup2\n    /* \"#utility.yul\":4856:4886   */\n  gt\n    /* \"#utility.yul\":4853:4970   */\n  iszero\n  tag_121\n  jumpi\n    /* \"#utility.yul\":4889:4968   */\n  tag_122\n  tag_33\n  jump\t// in\ntag_122:\n    /* \"#utility.yul\":4853:4970   */\ntag_121:\n    /* \"#utility.yul\":4994:5093   */\n  tag_123\n    /* \"#utility.yul\":5085:5092   */\n  dup5\n    /* \"#utility.yul\":5076:5082   */\n  dup3\n    /* \"#utility.yul\":5065:5074   */\n  dup6\n    /* \"#utility.yul\":5061:5083   */\n  add\n    /* \"#utility.yul\":4994:5093   */\n  tag_47\n  jump\t// in\ntag_123:\n    /* \"#utility.yul\":4984:5093   */\n  swap2\n  pop\n    /* \"#utility.yul\":4787:5103   */\n  pop\n    /* \"#utility.yul\":4536:5110   */\n  swap3\n  swap2\n  pop\n  pop\n  jump\t// out\n    /* \"#utility.yul\":5116:5296   */\ntag_10:\n    /* \"#utility.yul\":5164:5241   */\n  0x4e487b7100000000000000000000000000000000000000000000000000000000\n    /* \"#utility.yul\":5161:5162   */\n  0x00\n    /* \"#utility.yul\":5154:5242   */\n  mstore\n    /* \"#utility.yul\":5261:5265   */\n  0x21\n    /* \"#utility.yul\":5258:5259   */\n  0x04\n    /* \"#utility.yul\":5251:5266   */\n  mstore\n    /* \"#utility.yul\":5285:5289   */\n  0x24\n    /* \"#utility.yul\":5282:5283   */\n  0x00\n    /* \"#utility.yul\":5275:5290   */\n  revert\n    /* \"#utility.yul\":5302:5401   */\ntag_48:\n    /* \"#utility.yul\":5354:5360   */\n  0x00\n    /* \"#utility.yul\":5388:5393   */\n  dup2\n    /* \"#utility.yul\":5382:5394   */\n  mload\n    /* \"#utility.yul\":5372:5394   */\n  swap1\n  pop\n    /* \"#utility.yul\":5302:5401   */\n  swap2\n  swap1\n  pop\n  jump\t// out\n    /* \"#utility.yul\":5407:5587   */\ntag_49:\n    /* \"#utility.yul\":5455:5532   */\n  0x4e487b7100000000000000000000000000000000000000000000000000000000\n    /* \"#utility.yul\":5452:5453   */\n  0x00\n    /* \"#utility.yul\":5445:5533   */\n  mstore\n    /* \"#utility.yul\":5552:5556   */\n  0x22\n    /* \"#utility.yul\":5549:5550   */\n  0x04\n    /* \"#utility.yul\":5542:5557   */\n  mstore\n    /* \"#utility.yul\":5576:5580   */\n  0x24\n    /* \"#utility.yul\":5573:5574   */\n  0x00\n    /* \"#utility.yul\":5566:5581   */\n  revert\n    /* \"#utility.yul\":5593:5913   */\ntag_24:\n    /* \"#utility.yul\":5637:5643   */\n  0x00\n    /* \"#utility.yul\":5674:5675   */\n  0x02\n    /* \"#utility.yul\":5668:5672   */\n  dup3\n    /* \"#utility.yul\":5664:5676   */\n  div\n    /* \"#utility.yul\":5654:5676   */\n  swap1\n  pop\n    /* \"#utility.yul\":5721:5722   */\n  0x01\n    /* \"#utility.yul\":5715:5719   */\n  dup3\n    /* \"#utility.yul\":5711:5723   */\n  and\n    /* \"#utility.yul\":5742:5760   */\n  dup1\n    /* \"#utility.yul\":5732:5813   */\n  tag_128\n  jumpi\n    /* \"#utility.yul\":5798:5802   */\n  0x7f\n    /* \"#utility.yul\":5790:5796   */\n  dup3\n    /* \"#utility.yul\":5786:5803   */\n  and\n    /* \"#utility.yul\":5776:5803   */\n  swap2\n  pop\n    /* \"#utility.yul\":5732:5813   */\ntag_128:\n    /* \"#utility.yul\":5860:5862   */\n  0x20\n    /* \"#utility.yul\":5852:5858   */\n  dup3\n    /* \"#utility.yul\":5849:5863   */\n  lt\n    /* \"#utility.yul\":5829:5847   */\n  dup2\n    /* \"#utility.yul\":5826:5864   */\n  sub\n    /* \"#utility.yul\":5823:5907   */\n  tag_129\n  jumpi\n    /* \"#utility.yul\":5879:5897   */\n  tag_130\n  tag_49\n  jump\t// in\ntag_130:\n    /* \"#utility.yul\":5823:5907   */\ntag_129:\n    /* \"#utility.yul\":5644:5913   */\n  pop\n    /* \"#utility.yul\":5593:5913   */\n  swap2\n  swap1\n  pop\n  jump\t// out\n    /* \"#utility.yul\":5919:6060   */\ntag_50:\n    /* \"#utility.yul\":5968:5972   */\n  0x00\n    /* \"#utility.yul\":5991:5994   */\n  dup2\n    /* \"#utility.yul\":5983:5994   */\n  swap1\n  pop\n    /* \"#utility.yul\":6014:6017   */\n  dup2\n    /* \"#utility.yul\":6011:6012   */\n  0x00\n    /* \"#utility.yul\":6004:6018   */\n  mstore\n    /* \"#utility.yul\":6048:6052   */\n  0x20\n    /* \"#utility.yul\":6045:6046   */\n  0x00\n    /* \"#utility.yul\":6035:6053   */\n  keccak256\n    /* \"#utility.yul\":6027:6053   */\n  swap1\n  pop\n    /* \"#utility.yul\":5919:6060   */\n  swap2\n  swap1\n  pop\n  jump\t// out\n    /* \"#utility.yul\":6066:6159   */\ntag_51:\n    /* \"#utility.yul\":6103:6109   */\n  0x00\n    /* \"#utility.yul\":6150:6152   */\n  0x20\n    /* \"#utility.yul\":6145:6147   */\n  0x1f\n    /* \"#utility.yul\":6138:6143   */\n  dup4\n    /* \"#utility.yul\":6134:6148   */\n  add\n    /* \"#utility.yul\":6130:6153   */\n  div\n    /* \"#utility.yul\":6120:6153   */\n  swap1\n  pop\n    /* \"#utility.yul\":6066:6159   */\n  swap2\n  swap1\n  pop\n  jump\t// out\n    /* \"#utility.yul\":6165:6272   */\ntag_52:\n    /* \"#utility.yul\":6209:6217   */\n  0x00\n    /* \"#utility.yul\":6259:6264   */\n  dup3\n    /* \"#utility.yul\":6253:6257   */\n  dup3\n    /* \"#utility.yul\":6249:6265   */\n  shl\n    /* \"#utility.yul\":6228:6265   */\n  swap1\n  pop\n    /* \"#utility.yul\":6165:6272   */\n  swap3\n  swap2\n  pop\n  pop\n  jump\t// out\n    /* \"#utility.yul\":6278:6671   */\ntag_53:\n    /* \"#utility.yul\":6347:6353   */\n  0x00\n    /* \"#utility.yul\":6397:6398   */\n  0x08\n    /* \"#utility.yul\":6385:6395   */\n  dup4\n    /* \"#utility.yul\":6381:6399   */\n  mul\n    /* \"#utility.yul\":6420:6517   */\n  tag_135\n    /* \"#utility.yul\":6450:6516   */\n  0xffffffffffffffffffffffffffffffffffffffffffffffffffffffffffffffff\n    /* \"#utility.yul\":6439:6448   */\n  dup3\n    /* \"#utility.yul\":6420:6517   */\n  tag_52\n  jump\t// in\ntag_135:\n    /* \"#utility.yul\":6538:6577   */\n  tag_136\n    /* \"#utility.yul\":6568:6576   */\n  dup7\n    /* \"#utility.yul\":6557:6566   */\n  dup4\n    /* \"#utility.yul\":6538:6577   */\n  tag_52\n  jump\t// in\ntag_136:\n    /* \"#utility.yul\":6526:6577   */\n  swap6\n  pop\n    /* \"#utility.yul\":6610:6614   */\n  dup1\n    /* \"#utility.yul\":6606:6615   */\n  not\n    /* \"#utility.yul\":6599:6604   */\n  dup5\n    /* \"#utility.yul\":6595:6616   */\n  and\n    /* \"#utility.yul\":6586:6616   */\n  swap4\n  pop\n    /* \"#utility.yul\":6659:6663   */\n  dup1\n    /* \"#utility.yul\":6649:6657   */\n  dup7\n    /* \"#utility.yul\":6645:6664   */\n  and\n    /* \"#utility.yul\":6638:6643   */\n  dup5\n    /* \"#utility.yul\":6635:6665   */\n  or\n    /* \"#utility.yul\":6625:6665   */\n  swap3\n  pop\n    /* \"#utility.yul\":6354:6671   */\n  pop\n  pop\n    /* \"#utility.yul\":6278:6671   */\n  swap4\n  swap3\n  pop\n  pop\n  pop\n  jump\t// out\n    /* \"#utility.yul\":6677:6754   */\ntag_54:\n    /* \"#utility.yul\":6714:6721   */\n  0x00\n    /* \"#utility.yul\":6743:6748   */\n  dup2\n    /* \"#utility.yul\":6732:6748   */\n  swap1\n  pop\n    /* \"#utility.yul\":6677:6754   */\n  swap2\n  swap1\n  pop\n  jump\t// out\n    /* \"#utility.yul\":6760:6820   */\ntag_55:\n    /* \"#utility.yul\":6788:6791   */\n  0x00\n    /* \"#utility.yul\":6809:6814   */\n  dup2\n    /* \"#utility.yul\":6802:6814   */\n  swap1\n  pop\n    /* \"#utility.yul\":6760:6820   */\n  swap2\n  swap1\n  pop\n  jump\t// out\n    /* \"#utility.yul\":6826:6968   */\ntag_56:\n    /* \"#utility.yul\":6876:6885   */\n  0x00\n    /* \"#utility.yul\":6909:6962   */\n  tag_140\n    /* \"#utility.yul\":6927:6961   */\n  tag_141\n    /* \"#utility.yul\":6936:6960   */\n  tag_142\n    /* \"#utility.yul\":6954:6959   */\n  dup5\n    /* \"#utility.yul\":6936:6960   */\n  tag_54\n  jump\t// in\ntag_142:\n    /* \"#utility.yul\":6927:6961   */\n  tag_55\n  jump\t// in\ntag_141:\n    /* \"#utility.yul\":6909:6962   */\n  tag_54\n  jump\t// in\ntag_140:\n    /* \"#utility.yul\":6896:6962   */\n  swap1\n  pop\n    /* \"#utility.yul\":6826:6968   */\n  swap2\n  swap1\n  pop\n  jump\t// out\n    /* \"#utility.yul\":6974:7049   */\ntag_57:\n    /* \"#utility.yul\":7017:7020   */\n  0x00\n    /* \"#utility.yul\":7038:7043   */\n  dup2\n    /* \"#utility.yul\":7031:7043   */\n  swap1\n  pop\n    /* \"#utility.yul\":6974:7049   */\n  swap2\n  swap1\n  pop\n  jump\t// out\n    /* \"#utility.yul\":7055:7324   */\ntag_58:\n    /* \"#utility.yul\":7165:7204   */\n  tag_145\n    /* \"#utility.yul\":7196:7203   */\n  dup4\n    /* \"#utility.yul\":7165:7204   */\n  tag_56\n  jump\t// in\ntag_145:\n    /* \"#utility.yul\":7226:7317   */\n  tag_146\n    /* \"#utility.yul\":7275:7316   */\n  tag_147\n    /* \"#utility.yul\":7299:7315   */\n  dup3\n    /* \"#utility.yul\":7275:7316   */\n  tag_57\n  jump\t// in\ntag_147:\n    /* \"#utility.yul\":7267:7273   */\n  dup5\n    /* \"#utility.yul\":7260:7264   */\n  dup5\n    /* \"#utility.yul\":7254:7265   */\n  sload\n    /* \"#utility.yul\":7226:7317   */\n  tag_53\n  jump\t// in\ntag_146:\n    /* \"#utility.yul\":7220:7224   */\n  dup3\n    /* \"#utility.yul\":7213:7318   */\n  sstore\n    /* \"#utility.yul\":7131:7324   */\n  pop\n    /* \"#utility.yul\":7055:7324   */\n  pop\n  pop\n  pop\n  jump\t// out\n    /* \"#utility.yul\":7330:7403   */\ntag_59:\n    /* \"#utility.yul\":7375:7378   */\n  0x00\n    /* \"#utility.yul\":7330:7403   */\n  swap1\n  jump\t// out\n    /* \"#utility.yul\":7409:7598   */\ntag_60:\n    /* \"#utility.yul\":7486:7518   */\n  tag_150\n  tag_59\n  jump\t// in\ntag_150:\n    /* \"#utility.yul\":7527:7592   */\n  tag_151\n    /* \"#utility.yul\":7585:7591   */\n  dup2\n    /* \"#utility.yul\":7577:7583   */\n  dup5\n    /* \"#utility.yul\":7571:7575   */\n  dup5\n    /* \"#utility.yul\":7527:7592   */\n  tag_58\n  jump\t// in\ntag_151:\n    /* \"#utility.yul\":7462:7598   */\n  pop\n    /* \"#utility.yul\":7409:7598   */\n  pop\n  pop\n  jump\t// out\n    /* \"#utility.yul\":7604:7790   */\ntag_61:\n    /* \"#utility.yul\":7664:7784   */\ntag_153:\n    /* \"#utility.yul\":7681:7684   */\n  dup2\n    /* \"#utility.yul\":7674:7679   */\n  dup2\n    /* \"#utility.yul\":7671:7685   */\n  lt\n    /* \"#utility.yul\":7664:7784   */\n  iszero\n  tag_155\n  jumpi\n    /* \"#utility.yul\":7735:7774   */\n  tag_156\n    /* \"#utility.yul\":7772:7773   */\n  0x00\n    /* \"#utility.yul\":7765:7770   */\n  dup3\n    /* \"#utility.yul\":7735:7774   */\n  tag_60\n  jump\t// in\ntag_156:\n    /* \"#utility.yul\":7708:7709   */\n  0x01\n    /* \"#utility.yul\":7701:7706   */\n  dup2\n    /* \"#utility.yul\":7697:7710   */\n  add\n    /* \"#utility.yul\":7688:7710   */\n  swap1\n  pop\n    /* \"#utility.yul\":7664:7784   */\n  jump(tag_153)\ntag_155:\n    /* \"#utility.yul\":7604:7790   */\n  pop\n  pop\n  jump\t// out\n    /* \"#utility.yul\":7796:8339   */\ntag_62:\n    /* \"#utility.yul\":7897:7899   */\n  0x1f\n    /* \"#utility.yul\":7892:7895   */\n  dup3\n    /* \"#utility.yul\":7889:7900   */\n  gt\n    /* \"#utility.yul\":7886:8332   */\n  iszero\n  tag_158\n  jumpi\n    /* \"#utility.yul\":7931:7969   */\n  tag_159\n    /* \"#utility.yul\":7963:7968   */\n  dup2\n    /* \"#utility.yul\":7931:7969   */\n  tag_50\n  jump\t// in\ntag_159:\n    /* \"#utility.yul\":8015:8044   */\n  tag_160\n    /* \"#utility.yul\":8033:8043   */\n  dup5\n    /* \"#utility.yul\":8015:8044   */\n  tag_51\n  jump\t// in\ntag_160:\n    /* \"#utility.yul\":8005:8013   */\n  dup2\n    /* \"#utility.yul\":8001:8045   */\n  add\n    /* \"#utility.yul\":8198:8200   */\n  0x20\n    /* \"#utility.yul\":8186:8196   */\n  dup6\n    /* \"#utility.yul\":8183:8201   */\n  lt\n    /* \"#utility.yul\":8180:8229   */\n  iszero\n  tag_161\n  jumpi\n    /* \"#utility.yul\":8219:8227   */\n  dup2\n    /* \"#utility.yul\":8204:8227   */\n  swap1\n  pop\n    /* \"#utility.yul\":8180:8229   */\ntag_161:\n    /* \"#utility.yul\":8242:8322   */\n  tag_162\n    /* \"#utility.yul\":8298:8320   */\n  tag_163\n    /* \"#utility.yul\":8316:8319   */\n  dup6\n    /* \"#utility.yul\":8298:8320   */\n  tag_51\n  jump\t// in\ntag_163:\n    /* \"#utility.yul\":8288:8296   */\n  dup4\n    /* \"#utility.yul\":8284:8321   */\n  add\n    /* \"#utility.yul\":8271:8282   */\n  dup3\n    /* \"#utility.yul\":8242:8322   */\n  tag_61\n  jump\t// in\ntag_162:\n    /* \"#utility.yul\":7901:8332   */\n  pop\n  pop\n    /* \"#utility.yul\":7886:8332   */\ntag_158:\n    /* \"#utility.yul\":7796:8339   */\n  pop\n  pop\n  pop\n  jump\t// out\n    /* \"#utility.yul\":8345:8462   */\ntag_63:\n    /* \"#utility.yul\":8399:8407   */\n  0x00\n    /* \"#utility.yul\":8449:8454   */\n  dup3\n    /* \"#utility.yul\":8443:8447   */\n  dup3\n    /* \"#utility.yul\":8439:8455   */\n  shr\n    /* \"#utility.yul\":8418:8455   */\n  swap1\n  pop\n    /* \"#utility.yul\":8345:8462   */\n  swap3\n  swap2\n  pop\n  pop\n  jump\t// out\n    /* \"#utility.yul\":8468:8637   */\ntag_64:\n    /* \"#utility.yul\":8512:8518   */\n  0x00\n    /* \"#utility.yul\":8545:8596   */\n  tag_166\n    /* \"#utility.yul\":8593:8594   */\n  0x00\n    /* \"#utility.yul\":8589:8595   */\n  not\n    /* \"#utility.yul\":8581:8586   */\n  dup5\n    /* \"#utility.yul\":8578:8579   */\n  0x08\n    /* \"#utility.yul\":8574:8587   */\n  mul\n    /* \"#utility.yul\":8545:8596   */\n  tag_63\n  jump\t// in\ntag_166:\n    /* \"#utility.yul\":8541:8597   */\n  not\n    /* \"#utility.yul\":8626:8630   */\n  dup1\n    /* \"#utility.yul\":8620:8624   */\n  dup4\n    /* \"#utility.yul\":8616:8631   */\n  and\n    /* \"#utility.yul\":8606:8631   */\n  swap2\n  pop\n    /* \"#utility.yul\":8519:8637   */\n  pop\n    /* \"#utility.yul\":8468:8637   */\n  swap3\n  swap2\n  pop\n  pop\n  jump\t// out\n    /* \"#utility.yul\":8642:8937   */\ntag_65:\n    /* \"#utility.yul\":8718:8722   */\n  0x00\n    /* \"#utility.yul\":8864:8893   */\n  tag_168\n    /* \"#utility.yul\":8889:8892   */\n  dup4\n    /* \"#utility.yul\":8883:8887   */\n  dup4\n    /* \"#utility.yul\":8864:8893   */\n  tag_64\n  jump\t// in\ntag_168:\n    /* \"#utility.yul\":8856:8893   */\n  swap2\n  pop\n    /* \"#utility.yul\":8926:8929   */\n  dup3\n    /* \"#utility.yul\":8923:8924   */\n  0x02\n    /* \"#utility.yul\":8919:8930   */\n  mul\n    /* \"#utility.yul\":8913:8917   */\n  dup3\n    /* \"#utility.yul\":8910:8931   */\n  or\n    /* \"#utility.yul\":8902:8931   */\n  swap1\n  pop\n    /* \"#utility.yul\":8642:8937   */\n  swap3\n  swap2\n  pop\n  pop\n  jump\t// out\n    /* \"#utility.yul\":8942:10337   */\ntag_16:\n    /* \"#utility.yul\":9059:9096   */\n  tag_170\n    /* \"#utility.yul\":9092:9095   */\n  dup3\n    /* \"#utility.yul\":9059:9096   */\n  tag_48\n  jump\t// in\ntag_170:\n    /* \"#utility.yul\":9161:9179   */\n  0xffffffffffffffff\n    /* \"#utility.yul\":9153:9159   */\n  dup2\n    /* \"#utility.yul\":9150:9180   */\n  gt\n    /* \"#utility.yul\":9147:9203   */\n  iszero\n  tag_171\n  jumpi\n    /* \"#utility.yul\":9183:9201   */\n  tag_172\n  tag_36\n  jump\t// in\ntag_172:\n    /* \"#utility.yul\":9147:9203   */\ntag_171:\n    /* \"#utility.yul\":9227:9265   */\n  tag_173\n    /* \"#utility.yul\":9259:9263   */\n  dup3\n    /* \"#utility.yul\":9253:9264   */\n  sload\n    /* \"#utility.yul\":9227:9265   */\n  tag_24\n  jump\t// in\ntag_173:\n    /* \"#utility.yul\":9312:9379   */\n  tag_174\n    /* \"#utility.yul\":9372:9378   */\n  dup3\n    /* \"#utility.yul\":9364:9370   */\n  dup3\n    /* \"#utility.yul\":9358:9362   */\n  dup6\n    /* \"#utility.yul\":9312:9379   */\n  tag_62\n  jump\t// in\ntag_174:\n    /* \"#utility.yul\":9406:9407   */\n  0x00\n    /* \"#utility.yul\":9430:9434   */\n  0x20\n    /* \"#utility.yul\":9417:9434   */\n  swap1\n  pop\n    /* \"#utility.yul\":9462:9464   */\n  0x1f\n    /* \"#utility.yul\":9454:9460   */\n  dup4\n    /* \"#utility.yul\":9451:9465   */\n  gt\n    /* \"#utility.yul\":9479:9480   */\n  0x01\n    /* \"#utility.yul\":9474:10092   */\n  dup2\n  eq\n  tag_176\n  jumpi\n    /* \"#utility.yul\":10136:10137   */\n  0x00\n    /* \"#utility.yul\":10153:10159   */\n  dup5\n    /* \"#utility.yul\":10150:10227   */\n  iszero\n  tag_177\n  jumpi\n    /* \"#utility.yul\":10202:10211   */\n  dup3\n    /* \"#utility.yul\":10197:10200   */\n  dup8\n    /* \"#utility.yul\":10193:10212   */\n  add\n    /* \"#utility.yul\":10187:10213   */\n  mload\n    /* \"#utility.yul\":10178:10213   */\n  swap1\n  pop\n    /* \"#utility.yul\":10150:10227   */\ntag_177:\n    /* \"#utility.yul\":10253:10320   */\n  tag_178\n    /* \"#utility.yul\":10313:10319   */\n  dup6\n    /* \"#utility.yul\":10306:10311   */\n  dup3\n    /* \"#utility.yul\":10253:10320   */\n  tag_65\n  jump\t// in\ntag_178:\n    /* \"#utility.yul\":10247:10251   */\n  dup7\n    /* \"#utility.yul\":10240:10321   */\n  sstore\n    /* \"#utility.yul\":10109:10331   */\n  pop\n    /* \"#utility.yul\":9444:10331   */\n  jump(tag_175)\n    /* \"#utility.yul\":9474:10092   */\ntag_176:\n    /* \"#utility.yul\":9526:9530   */\n  0x1f\n    /* \"#utility.yul\":9522:9531   */\n  not\n    /* \"#utility.yul\":9514:9520   */\n  dup5\n    /* \"#utility.yul\":9510:9532   */\n  and\n    /* \"#utility.yul\":9560:9597   */\n  tag_179\n    /* \"#utility.yul\":9592:9596   */\n  dup7\n    /* \"#utility.yul\":9560:9597   */\n  tag_50\n  jump\t// in\ntag_179:\n    /* \"#utility.yul\":9619:9620   */\n  0x00\n    /* \"#utility.yul\":9633:9841   */\ntag_180:\n    /* \"#utility.yul\":9647:9654   */\n  dup3\n    /* \"#utility.yul\":9644:9645   */\n  dup2\n    /* \"#utility.yul\":9641:9655   */\n  lt\n    /* \"#utility.yul\":9633:9841   */\n  iszero\n  tag_182\n  jumpi\n    /* \"#utility.yul\":9726:9735   */\n  dup5\n    /* \"#utility.yul\":9721:9724   */\n  dup10\n    /* \"#utility.yul\":9717:9736   */\n  add\n    /* \"#utility.yul\":9711:9737   */\n  mload\n    /* \"#utility.yul\":9703:9709   */\n  dup3\n    /* \"#utility.yul\":9696:9738   */\n  sstore\n    /* \"#utility.yul\":9777:9778   */\n  0x01\n    /* \"#utility.yul\":9769:9775   */\n  dup3\n    /* \"#utility.yul\":9765:9779   */\n  add\n    /* \"#utility.yul\":9755:9779   */\n  swap2\n  pop\n    /* \"#utility.yul\":9824:9826   */\n  0x20\n    /* \"#utility.yul\":9813:9822   */\n  dup6\n    /* \"#utility.yul\":9809:9827   */\n  add\n    /* \"#utility.yul\":9796:9827   */\n  swap5\n  pop\n    /* \"#utility.yul\":9670:9674   */\n  0x20\n    /* \"#utility.yul\":9667:9668   */\n  dup2\n    /* \"#utility.yul\":9663:9675   */\n  add\n    /* \"#utility.yul\":9658:9675   */\n  swap1\n  pop\n    /* \"#utility.yul\":9633:9841   */\n  jump(tag_180)\ntag_182:\n    /* \"#utility.yul\":9869:9875   */\n  dup7\n    /* \"#utility.yul\":9860:9867   */\n  dup4\n    /* \"#utility.yul\":9857:9876   */\n  lt\n    /* \"#utility.yul\":9854:10033   */\n  iszero\n  tag_183\n  jumpi\n    /* \"#utility.yul\":9927:9936   */\n  dup5\n    /* \"#utility.yul\":9922:9925   */\n  dup10\n    /* \"#utility.yul\":9918:9937   */\n  add\n    /* \"#utility.yul\":9912:9938   */\n  mload\n    /* \"#utility.yul\":9970:10018   */\n  tag_184\n    /* \"#utility.yul\":10012:10016   */\n  0x1f\n    /* \"#utility.yul\":10004:10010   */\n  dup10\n    /* \"#utility.yul\":10000:10017   */\n  and\n    /* \"#utility.yul\":9989:9998   */\n  dup3\n    /* \"#utility.yul\":9970:10018   */\n  tag_64\n  jump\t// in\ntag_184:\n    /* \"#utility.yul\":9962:9968   */\n  dup4\n    /* \"#utility.yul\":9955:10019   */\n  sstore\n    /* \"#utility.yul\":9877:10033   */\n  pop\n    /* \"#utility.yul\":9854:10033   */\ntag_183:\n    /* \"#utility.yul\":10079:10080   */\n  0x01\n    /* \"#utility.yul\":10075:10076   */\n  0x02\n    /* \"#utility.yul\":10067:10073   */\n  dup9\n    /* \"#utility.yul\":10063:10077   */\n  mul\n    /* \"#utility.yul\":10059:10081   */\n  add\n    /* \"#utility.yul\":10053:10057   */\n  dup9\n    /* \"#utility.yul\":10046:10082   */\n  sstore\n    /* \"#utility.yul\":9481:10092   */\n  pop\n  pop\n  pop\n    /* \"#utility.yul\":9444:10331   */\ntag_175:\n  pop\n    /* \"#utility.yul\":9034:10337   */\n  pop\n  pop\n  pop\n    /* \"#utility.yul\":8942:10337   */\n  pop\n  pop\n  jump\t// out\n    /* \"contracts/TestVoting0.sol\":2038:3259  contract TestVoting {... */\ntag_11:\n  dataSize(sub_0)\n  dup1\n  dataOffset(sub_0)\n  0x00\n  codecopy\n  0x00\n  return\nstop\n\nsub_0: assembly {\n        /* \"contracts/TestVoting0.sol\":2038:3259  contract TestVoting {... */\n      mstore(0x40, 0x80)\n      callvalue\n      dup1\n      iszero\n      tag_1\n      jumpi\n      0x00\n      dup1\n      revert\n    tag_1:\n      pop\n      jumpi(tag_2, lt(calldatasize, 0x04))\n      shr(0xe0, calldataload(0x00))\n      dup1\n      0xb9223946\n      gt\n      tag_13\n      jumpi\n      dup1\n      0xb9223946\n      eq\n      tag_8\n      jumpi\n      dup1\n      0xc19d93fb\n      eq\n      tag_9\n      jumpi\n      dup1\n      0xcbff75cb\n      eq\n      tag_10\n      jumpi\n      dup1\n      0xcf73a1bc\n      eq\n      tag_11\n      jumpi\n      dup1\n      0xe89927ef\n      eq\n      tag_12\n      jumpi\n      jump(tag_2)\n    tag_13:\n      dup1\n      0x4a3bf377\n      eq\n      tag_3\n      jumpi\n      dup1\n      0x4a9945e5\n      eq\n      tag_4\n      jumpi\n      dup1\n      0x4c0a6af0\n      eq\n      tag_5\n      jumpi\n      dup1\n      0xa9a981a3\n      eq\n      tag_6\n      jumpi\n      dup1\n      0xb13c744b\n      eq\n      tag_7\n      jumpi\n    tag_2:\n      0x00\n      dup1\n      revert\n        /* \"contracts/TestVoting0.sol\":3113:3257  function totalVotesFor(string memory _candidate) public view inState(State.Ended) returns (uint) {... */\n    tag_3:\n      tag_14\n      0x04\n      dup1\n      calldatasize\n      sub\n      dup2\n      add\n      swap1\n      tag_15\n      swap2\n      swap1\n      tag_16\n      jump\t// in\n    tag_15:\n      tag_17\n      jump\t// in\n    tag_14:\n      mload(0x40)\n      tag_18\n      swap2\n      swap1\n      tag_19\n      jump\t// in\n    tag_18:\n      mload(0x40)\n      dup1\n      swap2\n      sub\n      swap1\n      return\n        /* \"contracts/TestVoting0.sol\":2134:2176  mapping(string => uint) public votesScores */\n    tag_4:\n      tag_20\n      0x04\n      dup1\n      calldatasize\n      sub\n      dup2\n      add\n      swap1\n      tag_21\n      swap2\n      swap1\n      tag_16\n      jump\t// in\n    tag_21:\n      tag_22\n      jump\t// in\n    tag_20:\n      mload(0x40)\n      tag_23\n      swap2\n      swap1\n      tag_19\n      jump\t// in\n    tag_23:\n      mload(0x40)\n      dup1\n      swap2\n      sub\n      swap1\n      return\n        /* \"contracts/TestVoting0.sol\":2578:2666  function startVote() public inState(State.Started) {... */\n    tag_5:\n      tag_24\n      tag_25\n      jump\t// in\n    tag_24:\n      stop\n        /* \"contracts/TestVoting0.sol\":2770:2867  function candidateCount() public view returns (uint) {... */\n    tag_6:\n      tag_26\n      tag_27\n      jump\t// in\n    tag_26:\n      mload(0x40)\n      tag_28\n      swap2\n      swap1\n      tag_19\n      jump\t// in\n    tag_28:\n      mload(0x40)\n      dup1\n      swap2\n      sub\n      swap1\n      return\n        /* \"contracts/TestVoting0.sol\":2099:2128  string[] public candidateList */\n    tag_7:\n      tag_29\n      0x04\n      dup1\n      calldatasize\n      sub\n      dup2\n      add\n      swap1\n      tag_30\n      swap2\n      swap1\n      tag_31\n      jump\t// in\n    tag_30:\n      tag_32\n      jump\t// in\n    tag_29:\n      mload(0x40)\n      tag_33\n      swap2\n      swap1\n      tag_34\n      jump\t// in\n    tag_33:\n      mload(0x40)\n      dup1\n      swap2\n      sub\n      swap1\n      return\n        /* \"contracts/TestVoting0.sol\":2676:2760  function endVote() public inState(State.Voting) {... */\n    tag_8:\n      tag_35\n      tag_36\n      jump\t// in\n    tag_35:\n      stop\n        /* \"contracts/TestVoting0.sol\":2274:2292  State public state */\n    tag_9:\n      tag_37\n      tag_38\n      jump\t// in\n    tag_37:\n      mload(0x40)\n      tag_39\n      swap2\n      swap1\n      tag_40\n      jump\t// in\n    tag_39:\n      mload(0x40)\n      dup1\n      swap2\n      sub\n      swap1\n      return\n        /* \"contracts/TestVoting0.sol\":2182:2221  mapping(address => bool) public isVoted */\n    tag_10:\n      tag_41\n      0x04\n      dup1\n      calldatasize\n      sub\n      dup2\n      add\n      swap1\n      tag_42\n      swap2\n      swap1\n      tag_43\n      jump\t// in\n    tag_42:\n      tag_44\n      jump\t// in\n    tag_41:\n      mload(0x40)\n      tag_45\n      swap2\n      swap1\n      tag_46\n      jump\t// in\n    tag_45:\n      mload(0x40)\n      dup1\n      swap2\n      sub\n      swap1\n      return\n        /* \"contracts/TestVoting0.sol\":2064:2093  address public managerAddress */\n    tag_11:\n      tag_47\n      tag_48\n      jump\t// in\n    tag_47:\n      mload(0x40)\n      tag_49\n      swap2\n      swap1\n      tag_50\n      jump\t// in\n    tag_49:\n      mload(0x40)\n      dup1\n      swap2\n      sub\n      swap1\n      return\n        /* \"contracts/TestVoting0.sol\":2877:3103  function voteForCandidate(string memory _candidate) public inState(State.Voting) {... */\n    tag_12:\n      tag_51\n      0x04\n      dup1\n      calldatasize\n      sub\n      dup2\n      add\n      swap1\n      tag_52\n      swap2\n      swap1\n      tag_16\n      jump\t// in\n    tag_52:\n      tag_53\n      jump\t// in\n    tag_51:\n      stop\n        /* \"contracts/TestVoting0.sol\":3113:3257  function totalVotesFor(string memory _candidate) public view inState(State.Ended) returns (uint) {... */\n    tag_17:\n        /* \"contracts/TestVoting0.sol\":3204:3208  uint */\n      0x00\n        /* \"contracts/TestVoting0.sol\":3182:3193  State.Ended */\n      0x02\n        /* \"contracts/TestVoting0.sol\":2526:2532  _state */\n      dup1\n        /* \"contracts/TestVoting0.sol\":2517:2532  state == _state */\n      0x02\n      dup2\n      gt\n      iszero\n      tag_55\n      jumpi\n      tag_56\n      tag_57\n      jump\t// in\n    tag_56:\n    tag_55:\n        /* \"contracts/TestVoting0.sol\":2517:2522  state */\n      0x04\n      0x00\n      swap1\n      sload\n      swap1\n      0x0100\n      exp\n      swap1\n      div\n      0xff\n      and\n        /* \"contracts/TestVoting0.sol\":2517:2532  state == _state */\n      0x02\n      dup2\n      gt\n      iszero\n      tag_58\n      jumpi\n      tag_59\n      tag_57\n      jump\t// in\n    tag_59:\n    tag_58:\n      eq\n        /* \"contracts/TestVoting0.sol\":2509:2550  require(state == _state, \"Invalid state\") */\n      tag_60\n      jumpi\n      mload(0x40)\n      0x08c379a000000000000000000000000000000000000000000000000000000000\n      dup2\n      mstore\n      0x04\n      add\n      tag_61\n      swap1\n      tag_62\n      jump\t// in\n    tag_61:\n      mload(0x40)\n      dup1\n      swap2\n      sub\n      swap1\n      revert\n    tag_60:\n        /* \"contracts/TestVoting0.sol\":3227:3238  votesScores */\n      0x02\n        /* \"contracts/TestVoting0.sol\":3239:3249  _candidate */\n      dup4\n        /* \"contracts/TestVoting0.sol\":3227:3250  votesScores[_candidate] */\n      mload(0x40)\n      tag_64\n      swap2\n      swap1\n      tag_65\n      jump\t// in\n    tag_64:\n      swap1\n      dup2\n      mstore\n      0x20\n      add\n      mload(0x40)\n      dup1\n      swap2\n      sub\n      swap1\n      keccak256\n      sload\n        /* \"contracts/TestVoting0.sol\":3220:3250  return votesScores[_candidate] */\n      swap2\n      pop\n        /* \"contracts/TestVoting0.sol\":3113:3257  function totalVotesFor(string memory _candidate) public view inState(State.Ended) returns (uint) {... */\n      pop\n      swap2\n      swap1\n      pop\n      jump\t// out\n        /* \"contracts/TestVoting0.sol\":2134:2176  mapping(string => uint) public votesScores */\n    tag_22:\n      0x02\n      dup2\n      dup1\n      mload\n      0x20\n      dup2\n      add\n      dup3\n      add\n      dup1\n      mload\n      dup5\n      dup3\n      mstore\n      0x20\n      dup4\n      add\n      0x20\n      dup6\n      add\n      keccak256\n      dup2\n      dup4\n      mstore\n      dup1\n      swap6\n      pop\n      pop\n      pop\n      pop\n      pop\n      pop\n      0x00\n      swap2\n      pop\n      swap1\n      pop\n      sload\n      dup2\n      jump\t// out\n        /* \"contracts/TestVoting0.sol\":2578:2666  function startVote() public inState(State.Started) {... */\n    tag_25:\n        /* \"contracts/TestVoting0.sol\":2614:2627  State.Started */\n      0x00\n        /* \"contracts/TestVoting0.sol\":2526:2532  _state */\n      dup1\n        /* \"contracts/TestVoting0.sol\":2517:2532  state == _state */\n      0x02\n      dup2\n      gt\n      iszero\n      tag_67\n      jumpi\n      tag_68\n      tag_57\n      jump\t// in\n    tag_68:\n    tag_67:\n        /* \"contracts/TestVoting0.sol\":2517:2522  state */\n      0x04\n      0x00\n      swap1\n      sload\n      swap1\n      0x0100\n      exp\n      swap1\n      div\n      0xff\n      and\n        /* \"contracts/TestVoting0.sol\":2517:2532  state == _state */\n      0x02\n      dup2\n      gt\n      iszero\n      tag_69\n      jumpi\n      tag_70\n      tag_57\n      jump\t// in\n    tag_70:\n    tag_69:\n      eq\n        /* \"contracts/TestVoting0.sol\":2509:2550  require(state == _state, \"Invalid state\") */\n      tag_71\n      jumpi\n      mload(0x40)\n      0x08c379a000000000000000000000000000000000000000000000000000000000\n      dup2\n      mstore\n      0x04\n      add\n      tag_72\n      swap1\n      tag_62\n      jump\t// in\n    tag_72:\n      mload(0x40)\n      dup1\n      swap2\n      sub\n      swap1\n      revert\n    tag_71:\n        /* \"contracts/TestVoting0.sol\":2647:2659  State.Voting */\n      0x01\n        /* \"contracts/TestVoting0.sol\":2639:2644  state */\n      0x04\n      0x00\n        /* \"contracts/TestVoting0.sol\":2639:2659  state = State.Voting */\n      0x0100\n      exp\n      dup2\n      sload\n      dup2\n      0xff\n      mul\n      not\n      and\n      swap1\n      dup4\n      0x02\n      dup2\n      gt\n      iszero\n      tag_74\n      jumpi\n      tag_75\n      tag_57\n      jump\t// in\n    tag_75:\n    tag_74:\n      mul\n      or\n      swap1\n      sstore\n      pop\n        /* \"contracts/TestVoting0.sol\":2578:2666  function startVote() public inState(State.Started) {... */\n      pop\n      jump\t// out\n        /* \"contracts/TestVoting0.sol\":2770:2867  function candidateCount() public view returns (uint) {... */\n    tag_27:\n        /* \"contracts/TestVoting0.sol\":2817:2821  uint */\n      0x00\n        /* \"contracts/TestVoting0.sol\":2840:2853  candidateList */\n      0x01\n        /* \"contracts/TestVoting0.sol\":2840:2860  candidateList.length */\n      dup1\n      sload\n      swap1\n      pop\n        /* \"contracts/TestVoting0.sol\":2833:2860  return candidateList.length */\n      swap1\n      pop\n        /* \"contracts/TestVoting0.sol\":2770:2867  function candidateCount() public view returns (uint) {... */\n      swap1\n      jump\t// out\n        /* \"contracts/TestVoting0.sol\":2099:2128  string[] public candidateList */\n    tag_32:\n      0x01\n      dup2\n      dup2\n      sload\n      dup2\n      lt\n      tag_77\n      jumpi\n      0x00\n      dup1\n      revert\n    tag_77:\n      swap1\n      0x00\n      mstore\n      keccak256(0x00, 0x20)\n      add\n      0x00\n      swap2\n      pop\n      swap1\n      pop\n      dup1\n      sload\n      tag_79\n      swap1\n      tag_80\n      jump\t// in\n    tag_79:\n      dup1\n      0x1f\n      add\n      0x20\n      dup1\n      swap2\n      div\n      mul\n      0x20\n      add\n      mload(0x40)\n      swap1\n      dup2\n      add\n      0x40\n      mstore\n      dup1\n      swap3\n      swap2\n      swap1\n      dup2\n      dup2\n      mstore\n      0x20\n      add\n      dup3\n      dup1\n      sload\n      tag_81\n      swap1\n      tag_80\n      jump\t// in\n    tag_81:\n      dup1\n      iszero\n      tag_82\n      jumpi\n      dup1\n      0x1f\n      lt\n      tag_83\n      jumpi\n      0x0100\n      dup1\n      dup4\n      sload\n      div\n      mul\n      dup4\n      mstore\n      swap2\n      0x20\n      add\n      swap2\n      jump(tag_82)\n    tag_83:\n      dup3\n      add\n      swap2\n      swap1\n      0x00\n      mstore\n      keccak256(0x00, 0x20)\n      swap1\n    tag_84:\n      dup2\n      sload\n      dup2\n      mstore\n      swap1\n      0x01\n      add\n      swap1\n      0x20\n      add\n      dup1\n      dup4\n      gt\n      tag_84\n      jumpi\n      dup3\n      swap1\n      sub\n      0x1f\n      and\n      dup3\n      add\n      swap2\n    tag_82:\n      pop\n      pop\n      pop\n      pop\n      pop\n      dup2\n      jump\t// out\n        /* \"contracts/TestVoting0.sol\":2676:2760  function endVote() public inState(State.Voting) {... */\n    tag_36:\n        /* \"contracts/TestVoting0.sol\":2710:2722  State.Voting */\n      0x01\n        /* \"contracts/TestVoting0.sol\":2526:2532  _state */\n      dup1\n        /* \"contracts/TestVoting0.sol\":2517:2532  state == _state */\n      0x02\n      dup2\n      gt\n      iszero\n      tag_86\n      jumpi\n      tag_87\n      tag_57\n      jump\t// in\n    tag_87:\n    tag_86:\n        /* \"contracts/TestVoting0.sol\":2517:2522  state */\n      0x04\n      0x00\n      swap1\n      sload\n      swap1\n      0x0100\n      exp\n      swap1\n      div\n      0xff\n      and\n        /* \"contracts/TestVoting0.sol\":2517:2532  state == _state */\n      0x02\n      dup2\n      gt\n      iszero\n      tag_88\n      jumpi\n      tag_89\n      tag_57\n      jump\t// in\n    tag_89:\n    tag_88:\n      eq\n        /* \"contracts/TestVoting0.sol\":2509:2550  require(state == _state, \"Invalid state\") */\n      tag_90\n      jumpi\n      mload(0x40)\n      0x08c379a000000000000000000000000000000000000000000000000000000000\n      dup2\n      mstore\n      0x04\n      add\n      tag_91\n      swap1\n      tag_62\n      jump\t// in\n    tag_91:\n      mload(0x40)\n      dup1\n      swap2\n      sub\n      swap1\n      revert\n    tag_90:\n        /* \"contracts/TestVoting0.sol\":2742:2753  State.Ended */\n      0x02\n        /* \"contracts/TestVoting0.sol\":2734:2739  state */\n      0x04\n      0x00\n        /* \"contracts/TestVoting0.sol\":2734:2753  state = State.Ended */\n      0x0100\n      exp\n      dup2\n      sload\n      dup2\n      0xff\n      mul\n      not\n      and\n      swap1\n      dup4\n      0x02\n      dup2\n      gt\n      iszero\n      tag_93\n      jumpi\n      tag_94\n      tag_57\n      jump\t// in\n    tag_94:\n    tag_93:\n      mul\n      or\n      swap1\n      sstore\n      pop\n        /* \"contracts/TestVoting0.sol\":2676:2760  function endVote() public inState(State.Voting) {... */\n      pop\n      jump\t// out\n        /* \"contracts/TestVoting0.sol\":2274:2292  State public state */\n    tag_38:\n      0x04\n      0x00\n      swap1\n      sload\n      swap1\n      0x0100\n      exp\n      swap1\n      div\n      0xff\n      and\n      dup2\n      jump\t// out\n        /* \"contracts/TestVoting0.sol\":2182:2221  mapping(address => bool) public isVoted */\n    tag_44:\n      mstore(0x20, 0x03)\n      dup1\n      0x00\n      mstore\n      keccak256(0x00, 0x40)\n      0x00\n      swap2\n      pop\n      sload\n      swap1\n      0x0100\n      exp\n      swap1\n      div\n      0xff\n      and\n      dup2\n      jump\t// out\n        /* \"contracts/TestVoting0.sol\":2064:2093  address public managerAddress */\n    tag_48:\n      0x00\n      dup1\n      sload\n      swap1\n      0x0100\n      exp\n      swap1\n      div\n      0xffffffffffffffffffffffffffffffffffffffff\n      and\n      dup2\n      jump\t// out\n        /* \"contracts/TestVoting0.sol\":2877:3103  function voteForCandidate(string memory _candidate) public inState(State.Voting) {... */\n    tag_53:\n        /* \"contracts/TestVoting0.sol\":2944:2956  State.Voting */\n      0x01\n        /* \"contracts/TestVoting0.sol\":2526:2532  _state */\n      dup1\n        /* \"contracts/TestVoting0.sol\":2517:2532  state == _state */\n      0x02\n      dup2\n      gt\n      iszero\n      tag_96\n      jumpi\n      tag_97\n      tag_57\n      jump\t// in\n    tag_97:\n    tag_96:\n        /* \"contracts/TestVoting0.sol\":2517:2522  state */\n      0x04\n      0x00\n      swap1\n      sload\n      swap1\n      0x0100\n      exp\n      swap1\n      div\n      0xff\n      and\n        /* \"contracts/TestVoting0.sol\":2517:2532  state == _state */\n      0x02\n      dup2\n      gt\n      iszero\n      tag_98\n      jumpi\n      tag_99\n      tag_57\n      jump\t// in\n    tag_99:\n    tag_98:\n      eq\n        /* \"contracts/TestVoting0.sol\":2509:2550  require(state == _state, \"Invalid state\") */\n      tag_100\n      jumpi\n      mload(0x40)\n      0x08c379a000000000000000000000000000000000000000000000000000000000\n      dup2\n      mstore\n      0x04\n      add\n      tag_101\n      swap1\n      tag_62\n      jump\t// in\n    tag_101:\n      mload(0x40)\n      dup1\n      swap2\n      sub\n      swap1\n      revert\n    tag_100:\n        /* \"contracts/TestVoting0.sol\":2999:3004  false */\n      0x00\n        /* \"contracts/TestVoting0.sol\":2976:3004  isVoted[msg.sender] == false */\n      iszero\n      iszero\n        /* \"contracts/TestVoting0.sol\":2976:2983  isVoted */\n      0x03\n        /* \"contracts/TestVoting0.sol\":2976:2995  isVoted[msg.sender] */\n      0x00\n        /* \"contracts/TestVoting0.sol\":2984:2994  msg.sender */\n      caller\n        /* \"contracts/TestVoting0.sol\":2976:2995  isVoted[msg.sender] */\n      0xffffffffffffffffffffffffffffffffffffffff\n      and\n      0xffffffffffffffffffffffffffffffffffffffff\n      and\n      dup2\n      mstore\n      0x20\n      add\n      swap1\n      dup2\n      mstore\n      0x20\n      add\n      0x00\n      keccak256\n      0x00\n      swap1\n      sload\n      swap1\n      0x0100\n      exp\n      swap1\n      div\n      0xff\n      and\n        /* \"contracts/TestVoting0.sol\":2976:3004  isVoted[msg.sender] == false */\n      iszero\n      iszero\n      eq\n        /* \"contracts/TestVoting0.sol\":2968:3022  require(isVoted[msg.sender] == false, \"Already Voted\") */\n      tag_103\n      jumpi\n      mload(0x40)\n      0x08c379a000000000000000000000000000000000000000000000000000000000\n      dup2\n      mstore\n      0x04\n      add\n      tag_104\n      swap1\n      tag_105\n      jump\t// in\n    tag_104:\n      mload(0x40)\n      dup1\n      swap2\n      sub\n      swap1\n      revert\n    tag_103:\n        /* \"contracts/TestVoting0.sol\":3054:3058  true */\n      0x01\n        /* \"contracts/TestVoting0.sol\":3032:3039  isVoted */\n      0x03\n        /* \"contracts/TestVoting0.sol\":3032:3051  isVoted[msg.sender] */\n      0x00\n        /* \"contracts/TestVoting0.sol\":3040:3050  msg.sender */\n      caller\n        /* \"contracts/TestVoting0.sol\":3032:3051  isVoted[msg.sender] */\n      0xffffffffffffffffffffffffffffffffffffffff\n      and\n      0xffffffffffffffffffffffffffffffffffffffff\n      and\n      dup2\n      mstore\n      0x20\n      add\n      swap1\n      dup2\n      mstore\n      0x20\n      add\n      0x00\n      keccak256\n      0x00\n        /* \"contracts/TestVoting0.sol\":3032:3058  isVoted[msg.sender] = true */\n      0x0100\n      exp\n      dup2\n      sload\n      dup2\n      0xff\n      mul\n      not\n      and\n      swap1\n      dup4\n      iszero\n      iszero\n      mul\n      or\n      swap1\n      sstore\n      pop\n        /* \"contracts/TestVoting0.sol\":3095:3096  1 */\n      0x01\n        /* \"contracts/TestVoting0.sol\":3068:3079  votesScores */\n      0x02\n        /* \"contracts/TestVoting0.sol\":3080:3090  _candidate */\n      dup4\n        /* \"contracts/TestVoting0.sol\":3068:3091  votesScores[_candidate] */\n      mload(0x40)\n      tag_106\n      swap2\n      swap1\n      tag_65\n      jump\t// in\n    tag_106:\n      swap1\n      dup2\n      mstore\n      0x20\n      add\n      mload(0x40)\n      dup1\n      swap2\n      sub\n      swap1\n      keccak256\n      0x00\n        /* \"contracts/TestVoting0.sol\":3068:3096  votesScores[_candidate] += 1 */\n      dup3\n      dup3\n      sload\n      tag_107\n      swap2\n      swap1\n      tag_108\n      jump\t// in\n    tag_107:\n      swap3\n      pop\n      pop\n      dup2\n      swap1\n      sstore\n      pop\n        /* \"contracts/TestVoting0.sol\":2877:3103  function voteForCandidate(string memory _candidate) public inState(State.Voting) {... */\n      pop\n      pop\n      jump\t// out\n        /* \"#utility.yul\":7:82   */\n    tag_109:\n        /* \"#utility.yul\":40:46   */\n      0x00\n        /* \"#utility.yul\":73:75   */\n      0x40\n        /* \"#utility.yul\":67:76   */\n      mload\n        /* \"#utility.yul\":57:76   */\n      swap1\n      pop\n        /* \"#utility.yul\":7:82   */\n      swap1\n      jump\t// out\n        /* \"#utility.yul\":88:205   */\n    tag_110:\n        /* \"#utility.yul\":197:198   */\n      0x00\n        /* \"#utility.yul\":194:195   */\n      dup1\n        /* \"#utility.yul\":187:199   */\n      revert\n        /* \"#utility.yul\":211:328   */\n    tag_111:\n        /* \"#utility.yul\":320:321   */\n      0x00\n        /* \"#utility.yul\":317:318   */\n      dup1\n        /* \"#utility.yul\":310:322   */\n      revert\n        /* \"#utility.yul\":334:451   */\n    tag_112:\n        /* \"#utility.yul\":443:444   */\n      0x00\n        /* \"#utility.yul\":440:441   */\n      dup1\n        /* \"#utility.yul\":433:445   */\n      revert\n        /* \"#utility.yul\":457:574   */\n    tag_113:\n        /* \"#utility.yul\":566:567   */\n      0x00\n        /* \"#utility.yul\":563:564   */\n      dup1\n        /* \"#utility.yul\":556:568   */\n      revert\n        /* \"#utility.yul\":580:682   */\n    tag_114:\n        /* \"#utility.yul\":621:627   */\n      0x00\n        /* \"#utility.yul\":672:674   */\n      0x1f\n        /* \"#utility.yul\":668:675   */\n      not\n        /* \"#utility.yul\":663:665   */\n      0x1f\n        /* \"#utility.yul\":656:661   */\n      dup4\n        /* \"#utility.yul\":652:666   */\n      add\n        /* \"#utility.yul\":648:676   */\n      and\n        /* \"#utility.yul\":638:676   */\n      swap1\n      pop\n        /* \"#utility.yul\":580:682   */\n      swap2\n      swap1\n      pop\n      jump\t// out\n        /* \"#utility.yul\":688:868   */\n    tag_115:\n        /* \"#utility.yul\":736:813   */\n      0x4e487b7100000000000000000000000000000000000000000000000000000000\n        /* \"#utility.yul\":733:734   */\n      0x00\n        /* \"#utility.yul\":726:814   */\n      mstore\n        /* \"#utility.yul\":833:837   */\n      0x41\n        /* \"#utility.yul\":830:831   */\n      0x04\n        /* \"#utility.yul\":823:838   */\n      mstore\n        /* \"#utility.yul\":857:861   */\n      0x24\n        /* \"#utility.yul\":854:855   */\n      0x00\n        /* \"#utility.yul\":847:862   */\n      revert\n        /* \"#utility.yul\":874:1155   */\n    tag_116:\n        /* \"#utility.yul\":957:984   */\n      tag_158\n        /* \"#utility.yul\":979:983   */\n      dup3\n        /* \"#utility.yul\":957:984   */\n      tag_114\n      jump\t// in\n    tag_158:\n        /* \"#utility.yul\":949:955   */\n      dup2\n        /* \"#utility.yul\":945:985   */\n      add\n        /* \"#utility.yul\":1087:1093   */\n      dup2\n        /* \"#utility.yul\":1075:1085   */\n      dup2\n        /* \"#utility.yul\":1072:1094   */\n      lt\n        /* \"#utility.yul\":1051:1069   */\n      0xffffffffffffffff\n        /* \"#utility.yul\":1039:1049   */\n      dup3\n        /* \"#utility.yul\":1036:1070   */\n      gt\n        /* \"#utility.yul\":1033:1095   */\n      or\n        /* \"#utility.yul\":1030:1118   */\n      iszero\n      tag_159\n      jumpi\n        /* \"#utility.yul\":1098:1116   */\n      tag_160\n      tag_115\n      jump\t// in\n    tag_160:\n        /* \"#utility.yul\":1030:1118   */\n    tag_159:\n        /* \"#utility.yul\":1138:1148   */\n      dup1\n        /* \"#utility.yul\":1134:1136   */\n      0x40\n        /* \"#utility.yul\":1127:1149   */\n      mstore\n        /* \"#utility.yul\":917:1155   */\n      pop\n        /* \"#utility.yul\":874:1155   */\n      pop\n      pop\n      jump\t// out\n        /* \"#utility.yul\":1161:1290   */\n    tag_117:\n        /* \"#utility.yul\":1195:1201   */\n      0x00\n        /* \"#utility.yul\":1222:1242   */\n      tag_162\n      tag_109\n      jump\t// in\n    tag_162:\n        /* \"#utility.yul\":1212:1242   */\n      swap1\n      pop\n        /* \"#utility.yul\":1251:1284   */\n      tag_163\n        /* \"#utility.yul\":1279:1283   */\n      dup3\n        /* \"#utility.yul\":1271:1277   */\n      dup3\n        /* \"#utility.yul\":1251:1284   */\n      tag_116\n      jump\t// in\n    tag_163:\n        /* \"#utility.yul\":1161:1290   */\n      swap2\n      swap1\n      pop\n      jump\t// out\n        /* \"#utility.yul\":1296:1604   */\n    tag_118:\n        /* \"#utility.yul\":1358:1362   */\n      0x00\n        /* \"#utility.yul\":1448:1466   */\n      0xffffffffffffffff\n        /* \"#utility.yul\":1440:1446   */\n      dup3\n        /* \"#utility.yul\":1437:1467   */\n      gt\n        /* \"#utility.yul\":1434:1490   */\n      iszero\n      tag_165\n      jumpi\n        /* \"#utility.yul\":1470:1488   */\n      tag_166\n      tag_115\n      jump\t// in\n    tag_166:\n        /* \"#utility.yul\":1434:1490   */\n    tag_165:\n        /* \"#utility.yul\":1508:1537   */\n      tag_167\n        /* \"#utility.yul\":1530:1536   */\n      dup3\n        /* \"#utility.yul\":1508:1537   */\n      tag_114\n      jump\t// in\n    tag_167:\n        /* \"#utility.yul\":1500:1537   */\n      swap1\n      pop\n        /* \"#utility.yul\":1592:1596   */\n      0x20\n        /* \"#utility.yul\":1586:1590   */\n      dup2\n        /* \"#utility.yul\":1582:1597   */\n      add\n        /* \"#utility.yul\":1574:1597   */\n      swap1\n      pop\n        /* \"#utility.yul\":1296:1604   */\n      swap2\n      swap1\n      pop\n      jump\t// out\n        /* \"#utility.yul\":1610:1756   */\n    tag_119:\n        /* \"#utility.yul\":1707:1713   */\n      dup3\n        /* \"#utility.yul\":1702:1705   */\n      dup2\n        /* \"#utility.yul\":1697:1700   */\n      dup4\n        /* \"#utility.yul\":1684:1714   */\n      calldatacopy\n        /* \"#utility.yul\":1748:1749   */\n      0x00\n        /* \"#utility.yul\":1739:1745   */\n      dup4\n        /* \"#utility.yul\":1734:1737   */\n      dup4\n        /* \"#utility.yul\":1730:1746   */\n      add\n        /* \"#utility.yul\":1723:1750   */\n      mstore\n        /* \"#utility.yul\":1610:1756   */\n      pop\n      pop\n      pop\n      jump\t// out\n        /* \"#utility.yul\":1762:2187   */\n    tag_120:\n        /* \"#utility.yul\":1840:1845   */\n      0x00\n        /* \"#utility.yul\":1865:1931   */\n      tag_170\n        /* \"#utility.yul\":1881:1930   */\n      tag_171\n        /* \"#utility.yul\":1923:1929   */\n      dup5\n        /* \"#utility.yul\":1881:1930   */\n      tag_118\n      jump\t// in\n    tag_171:\n        /* \"#utility.yul\":1865:1931   */\n      tag_117\n      jump\t// in\n    tag_170:\n        /* \"#utility.yul\":1856:1931   */\n      swap1\n      pop\n        /* \"#utility.yul\":1954:1960   */\n      dup3\n        /* \"#utility.yul\":1947:1952   */\n      dup2\n        /* \"#utility.yul\":1940:1961   */\n      mstore\n        /* \"#utility.yul\":1992:1996   */\n      0x20\n        /* \"#utility.yul\":1985:1990   */\n      dup2\n        /* \"#utility.yul\":1981:1997   */\n      add\n        /* \"#utility.yul\":2030:2033   */\n      dup5\n        /* \"#utility.yul\":2021:2027   */\n      dup5\n        /* \"#utility.yul\":2016:2019   */\n      dup5\n        /* \"#utility.yul\":2012:2028   */\n      add\n        /* \"#utility.yul\":2009:2034   */\n      gt\n        /* \"#utility.yul\":2006:2118   */\n      iszero\n      tag_172\n      jumpi\n        /* \"#utility.yul\":2037:2116   */\n      tag_173\n      tag_113\n      jump\t// in\n    tag_173:\n        /* \"#utility.yul\":2006:2118   */\n    tag_172:\n        /* \"#utility.yul\":2127:2181   */\n      tag_174\n        /* \"#utility.yul\":2174:2180   */\n      dup5\n        /* \"#utility.yul\":2169:2172   */\n      dup3\n        /* \"#utility.yul\":2164:2167   */\n      dup6\n        /* \"#utility.yul\":2127:2181   */\n      tag_119\n      jump\t// in\n    tag_174:\n        /* \"#utility.yul\":1846:2187   */\n      pop\n        /* \"#utility.yul\":1762:2187   */\n      swap4\n      swap3\n      pop\n      pop\n      pop\n      jump\t// out\n        /* \"#utility.yul\":2207:2547   */\n    tag_121:\n        /* \"#utility.yul\":2263:2268   */\n      0x00\n        /* \"#utility.yul\":2312:2315   */\n      dup3\n        /* \"#utility.yul\":2305:2309   */\n      0x1f\n        /* \"#utility.yul\":2297:2303   */\n      dup4\n        /* \"#utility.yul\":2293:2310   */\n      add\n        /* \"#utility.yul\":2289:2316   */\n      slt\n        /* \"#utility.yul\":2279:2401   */\n      tag_176\n      jumpi\n        /* \"#utility.yul\":2320:2399   */\n      tag_177\n      tag_112\n      jump\t// in\n    tag_177:\n        /* \"#utility.yul\":2279:2401   */\n    tag_176:\n        /* \"#utility.yul\":2437:2443   */\n      dup2\n        /* \"#utility.yul\":2424:2444   */\n      calldataload\n        /* \"#utility.yul\":2462:2541   */\n      tag_178\n        /* \"#utility.yul\":2537:2540   */\n      dup5\n        /* \"#utility.yul\":2529:2535   */\n      dup3\n        /* \"#utility.yul\":2522:2526   */\n      0x20\n        /* \"#utility.yul\":2514:2520   */\n      dup7\n        /* \"#utility.yul\":2510:2527   */\n      add\n        /* \"#utility.yul\":2462:2541   */\n      tag_120\n      jump\t// in\n    tag_178:\n        /* \"#utility.yul\":2453:2541   */\n      swap2\n      pop\n        /* \"#utility.yul\":2269:2547   */\n      pop\n        /* \"#utility.yul\":2207:2547   */\n      swap3\n      swap2\n      pop\n      pop\n      jump\t// out\n        /* \"#utility.yul\":2553:3062   */\n    tag_16:\n        /* \"#utility.yul\":2622:2628   */\n      0x00\n        /* \"#utility.yul\":2671:2673   */\n      0x20\n        /* \"#utility.yul\":2659:2668   */\n      dup3\n        /* \"#utility.yul\":2650:2657   */\n      dup5\n        /* \"#utility.yul\":2646:2669   */\n      sub\n        /* \"#utility.yul\":2642:2674   */\n      slt\n        /* \"#utility.yul\":2639:2758   */\n      iszero\n      tag_180\n      jumpi\n        /* \"#utility.yul\":2677:2756   */\n      tag_181\n      tag_110\n      jump\t// in\n    tag_181:\n        /* \"#utility.yul\":2639:2758   */\n    tag_180:\n        /* \"#utility.yul\":2825:2826   */\n      0x00\n        /* \"#utility.yul\":2814:2823   */\n      dup3\n        /* \"#utility.yul\":2810:2827   */\n      add\n        /* \"#utility.yul\":2797:2828   */\n      calldataload\n        /* \"#utility.yul\":2855:2873   */\n      0xffffffffffffffff\n        /* \"#utility.yul\":2847:2853   */\n      dup2\n        /* \"#utility.yul\":2844:2874   */\n      gt\n        /* \"#utility.yul\":2841:2958   */\n      iszero\n      tag_182\n      jumpi\n        /* \"#utility.yul\":2877:2956   */\n      tag_183\n      tag_111\n      jump\t// in\n    tag_183:\n        /* \"#utility.yul\":2841:2958   */\n    tag_182:\n        /* \"#utility.yul\":2982:3045   */\n      tag_184\n        /* \"#utility.yul\":3037:3044   */\n      dup5\n        /* \"#utility.yul\":3028:3034   */\n      dup3\n        /* \"#utility.yul\":3017:3026   */\n      dup6\n        /* \"#utility.yul\":3013:3035   */\n      add\n        /* \"#utility.yul\":2982:3045   */\n      tag_121\n      jump\t// in\n    tag_184:\n        /* \"#utility.yul\":2972:3045   */\n      swap2\n      pop\n        /* \"#utility.yul\":2768:3055   */\n      pop\n        /* \"#utility.yul\":2553:3062   */\n      swap3\n      swap2\n      pop\n      pop\n      jump\t// out\n        /* \"#utility.yul\":3068:3145   */\n    tag_122:\n        /* \"#utility.yul\":3105:3112   */\n      0x00\n        /* \"#utility.yul\":3134:3139   */\n      dup2\n        /* \"#utility.yul\":3123:3139   */\n      swap1\n      pop\n        /* \"#utility.yul\":3068:3145   */\n      swap2\n      swap1\n      pop\n      jump\t// out\n        /* \"#utility.yul\":3151:3269   */\n    tag_123:\n        /* \"#utility.yul\":3238:3262   */\n      tag_187\n        /* \"#utility.yul\":3256:3261   */\n      dup2\n        /* \"#utility.yul\":3238:3262   */\n      tag_122\n      jump\t// in\n    tag_187:\n        /* \"#utility.yul\":3233:3236   */\n      dup3\n        /* \"#utility.yul\":3226:3263   */\n      mstore\n        /* \"#utility.yul\":3151:3269   */\n      pop\n      pop\n      jump\t// out\n        /* \"#utility.yul\":3275:3497   */\n    tag_19:\n        /* \"#utility.yul\":3368:3372   */\n      0x00\n        /* \"#utility.yul\":3406:3408   */\n      0x20\n        /* \"#utility.yul\":3395:3404   */\n      dup3\n        /* \"#utility.yul\":3391:3409   */\n      add\n        /* \"#utility.yul\":3383:3409   */\n      swap1\n      pop\n        /* \"#utility.yul\":3419:3490   */\n      tag_189\n        /* \"#utility.yul\":3487:3488   */\n      0x00\n        /* \"#utility.yul\":3476:3485   */\n      dup4\n        /* \"#utility.yul\":3472:3489   */\n      add\n        /* \"#utility.yul\":3463:3469   */\n      dup5\n        /* \"#utility.yul\":3419:3490   */\n      tag_123\n      jump\t// in\n    tag_189:\n        /* \"#utility.yul\":3275:3497   */\n      swap3\n      swap2\n      pop\n      pop\n      jump\t// out\n        /* \"#utility.yul\":3503:3625   */\n    tag_124:\n        /* \"#utility.yul\":3576:3600   */\n      tag_191\n        /* \"#utility.yul\":3594:3599   */\n      dup2\n        /* \"#utility.yul\":3576:3600   */\n      tag_122\n      jump\t// in\n    tag_191:\n        /* \"#utility.yul\":3569:3574   */\n      dup2\n        /* \"#utility.yul\":3566:3601   */\n      eq\n        /* \"#utility.yul\":3556:3619   */\n      tag_192\n      jumpi\n        /* \"#utility.yul\":3615:3616   */\n      0x00\n        /* \"#utility.yul\":3612:3613   */\n      dup1\n        /* \"#utility.yul\":3605:3617   */\n      revert\n        /* \"#utility.yul\":3556:3619   */\n    tag_192:\n        /* \"#utility.yul\":3503:3625   */\n      pop\n      jump\t// out\n        /* \"#utility.yul\":3631:3770   */\n    tag_125:\n        /* \"#utility.yul\":3677:3682   */\n      0x00\n        /* \"#utility.yul\":3715:3721   */\n      dup2\n        /* \"#utility.yul\":3702:3722   */\n      calldataload\n        /* \"#utility.yul\":3693:3722   */\n      swap1\n      pop\n        /* \"#utility.yul\":3731:3764   */\n      tag_194\n        /* \"#utility.yul\":3758:3763   */\n      dup2\n        /* \"#utility.yul\":3731:3764   */\n      tag_124\n      jump\t// in\n    tag_194:\n        /* \"#utility.yul\":3631:3770   */\n      swap3\n      swap2\n      pop\n      pop\n      jump\t// out\n        /* \"#utility.yul\":3776:4105   */\n    tag_31:\n        /* \"#utility.yul\":3835:3841   */\n      0x00\n        /* \"#utility.yul\":3884:3886   */\n      0x20\n        /* \"#utility.yul\":3872:3881   */\n      dup3\n        /* \"#utility.yul\":3863:3870   */\n      dup5\n        /* \"#utility.yul\":3859:3882   */\n      sub\n        /* \"#utility.yul\":3855:3887   */\n      slt\n        /* \"#utility.yul\":3852:3971   */\n      iszero\n      tag_196\n      jumpi\n        /* \"#utility.yul\":3890:3969   */\n      tag_197\n      tag_110\n      jump\t// in\n    tag_197:\n        /* \"#utility.yul\":3852:3971   */\n    tag_196:\n        /* \"#utility.yul\":4010:4011   */\n      0x00\n        /* \"#utility.yul\":4035:4088   */\n      tag_198\n        /* \"#utility.yul\":4080:4087   */\n      dup5\n        /* \"#utility.yul\":4071:4077   */\n      dup3\n        /* \"#utility.yul\":4060:4069   */\n      dup6\n        /* \"#utility.yul\":4056:4078   */\n      add\n        /* \"#utility.yul\":4035:4088   */\n      tag_125\n      jump\t// in\n    tag_198:\n        /* \"#utility.yul\":4025:4088   */\n      swap2\n      pop\n        /* \"#utility.yul\":3981:4098   */\n      pop\n        /* \"#utility.yul\":3776:4105   */\n      swap3\n      swap2\n      pop\n      pop\n      jump\t// out\n        /* \"#utility.yul\":4111:4210   */\n    tag_126:\n        /* \"#utility.yul\":4163:4169   */\n      0x00\n        /* \"#utility.yul\":4197:4202   */\n      dup2\n        /* \"#utility.yul\":4191:4203   */\n      mload\n        /* \"#utility.yul\":4181:4203   */\n      swap1\n      pop\n        /* \"#utility.yul\":4111:4210   */\n      swap2\n      swap1\n      pop\n      jump\t// out\n        /* \"#utility.yul\":4216:4385   */\n    tag_127:\n        /* \"#utility.yul\":4300:4311   */\n      0x00\n        /* \"#utility.yul\":4334:4340   */\n      dup3\n        /* \"#utility.yul\":4329:4332   */\n      dup3\n        /* \"#utility.yul\":4322:4341   */\n      mstore\n        /* \"#utility.yul\":4374:4378   */\n      0x20\n        /* \"#utility.yul\":4369:4372   */\n      dup3\n        /* \"#utility.yul\":4365:4379   */\n      add\n        /* \"#utility.yul\":4350:4379   */\n      swap1\n      pop\n        /* \"#utility.yul\":4216:4385   */\n      swap3\n      swap2\n      pop\n      pop\n      jump\t// out\n        /* \"#utility.yul\":4391:4637   */\n    tag_128:\n        /* \"#utility.yul\":4472:4473   */\n      0x00\n        /* \"#utility.yul\":4482:4595   */\n    tag_202:\n        /* \"#utility.yul\":4496:4502   */\n      dup4\n        /* \"#utility.yul\":4493:4494   */\n      dup2\n        /* \"#utility.yul\":4490:4503   */\n      lt\n        /* \"#utility.yul\":4482:4595   */\n      iszero\n      tag_204\n      jumpi\n        /* \"#utility.yul\":4581:4582   */\n      dup1\n        /* \"#utility.yul\":4576:4579   */\n      dup3\n        /* \"#utility.yul\":4572:4583   */\n      add\n        /* \"#utility.yul\":4566:4584   */\n      mload\n        /* \"#utility.yul\":4562:4563   */\n      dup2\n        /* \"#utility.yul\":4557:4560   */\n      dup5\n        /* \"#utility.yul\":4553:4564   */\n      add\n        /* \"#utility.yul\":4546:4585   */\n      mstore\n        /* \"#utility.yul\":4518:4520   */\n      0x20\n        /* \"#utility.yul\":4515:4516   */\n      dup2\n        /* \"#utility.yul\":4511:4521   */\n      add\n        /* \"#utility.yul\":4506:4521   */\n      swap1\n      pop\n        /* \"#utility.yul\":4482:4595   */\n      jump(tag_202)\n    tag_204:\n        /* \"#utility.yul\":4629:4630   */\n      0x00\n        /* \"#utility.yul\":4620:4626   */\n      dup5\n        /* \"#utility.yul\":4615:4618   */\n      dup5\n        /* \"#utility.yul\":4611:4627   */\n      add\n        /* \"#utility.yul\":4604:4631   */\n      mstore\n        /* \"#utility.yul\":4453:4637   */\n      pop\n        /* \"#utility.yul\":4391:4637   */\n      pop\n      pop\n      pop\n      jump\t// out\n        /* \"#utility.yul\":4643:5020   */\n    tag_129:\n        /* \"#utility.yul\":4731:4734   */\n      0x00\n        /* \"#utility.yul\":4759:4798   */\n      tag_206\n        /* \"#utility.yul\":4792:4797   */\n      dup3\n        /* \"#utility.yul\":4759:4798   */\n      tag_126\n      jump\t// in\n    tag_206:\n        /* \"#utility.yul\":4814:4885   */\n      tag_207\n        /* \"#utility.yul\":4878:4884   */\n      dup2\n        /* \"#utility.yul\":4873:4876   */\n      dup6\n        /* \"#utility.yul\":4814:4885   */\n      tag_127\n      jump\t// in\n    tag_207:\n        /* \"#utility.yul\":4807:4885   */\n      swap4\n      pop\n        /* \"#utility.yul\":4894:4959   */\n      tag_208\n        /* \"#utility.yul\":4952:4958   */\n      dup2\n        /* \"#utility.yul\":4947:4950   */\n      dup6\n        /* \"#utility.yul\":4940:4944   */\n      0x20\n        /* \"#utility.yul\":4933:4938   */\n      dup7\n        /* \"#utility.yul\":4929:4945   */\n      add\n        /* \"#utility.yul\":4894:4959   */\n      tag_128\n      jump\t// in\n    tag_208:\n        /* \"#utility.yul\":4984:5013   */\n      tag_209\n        /* \"#utility.yul\":5006:5012   */\n      dup2\n        /* \"#utility.yul\":4984:5013   */\n      tag_114\n      jump\t// in\n    tag_209:\n        /* \"#utility.yul\":4979:4982   */\n      dup5\n        /* \"#utility.yul\":4975:5014   */\n      add\n        /* \"#utility.yul\":4968:5014   */\n      swap2\n      pop\n        /* \"#utility.yul\":4735:5020   */\n      pop\n        /* \"#utility.yul\":4643:5020   */\n      swap3\n      swap2\n      pop\n      pop\n      jump\t// out\n        /* \"#utility.yul\":5026:5339   */\n    tag_34:\n        /* \"#utility.yul\":5139:5143   */\n      0x00\n        /* \"#utility.yul\":5177:5179   */\n      0x20\n        /* \"#utility.yul\":5166:5175   */\n      dup3\n        /* \"#utility.yul\":5162:5180   */\n      add\n        /* \"#utility.yul\":5154:5180   */\n      swap1\n      pop\n        /* \"#utility.yul\":5226:5235   */\n      dup2\n        /* \"#utility.yul\":5220:5224   */\n      dup2\n        /* \"#utility.yul\":5216:5236   */\n      sub\n        /* \"#utility.yul\":5212:5213   */\n      0x00\n        /* \"#utility.yul\":5201:5210   */\n      dup4\n        /* \"#utility.yul\":5197:5214   */\n      add\n        /* \"#utility.yul\":5190:5237   */\n      mstore\n        /* \"#utility.yul\":5254:5332   */\n      tag_211\n        /* \"#utility.yul\":5327:5331   */\n      dup2\n        /* \"#utility.yul\":5318:5324   */\n      dup5\n        /* \"#utility.yul\":5254:5332   */\n      tag_129\n      jump\t// in\n    tag_211:\n        /* \"#utility.yul\":5246:5332   */\n      swap1\n      pop\n        /* \"#utility.yul\":5026:5339   */\n      swap3\n      swap2\n      pop\n      pop\n      jump\t// out\n        /* \"#utility.yul\":5345:5525   */\n    tag_57:\n        /* \"#utility.yul\":5393:5470   */\n      0x4e487b7100000000000000000000000000000000000000000000000000000000\n        /* \"#utility.yul\":5390:5391   */\n      0x00\n        /* \"#utility.yul\":5383:5471   */\n      mstore\n        /* \"#utility.yul\":5490:5494   */\n      0x21\n        /* \"#utility.yul\":5487:5488   */\n      0x04\n        /* \"#utility.yul\":5480:5495   */\n      mstore\n        /* \"#utility.yul\":5514:5518   */\n      0x24\n        /* \"#utility.yul\":5511:5512   */\n      0x00\n        /* \"#utility.yul\":5504:5519   */\n      revert\n        /* \"#utility.yul\":5531:5644   */\n    tag_130:\n        /* \"#utility.yul\":5612:5613   */\n      0x03\n        /* \"#utility.yul\":5605:5610   */\n      dup2\n        /* \"#utility.yul\":5602:5614   */\n      lt\n        /* \"#utility.yul\":5592:5638   */\n      tag_214\n      jumpi\n        /* \"#utility.yul\":5618:5636   */\n      tag_215\n      tag_57\n      jump\t// in\n    tag_215:\n        /* \"#utility.yul\":5592:5638   */\n    tag_214:\n        /* \"#utility.yul\":5531:5644   */\n      pop\n      jump\t// out\n        /* \"#utility.yul\":5650:5777   */\n    tag_131:\n        /* \"#utility.yul\":5695:5702   */\n      0x00\n        /* \"#utility.yul\":5724:5729   */\n      dup2\n        /* \"#utility.yul\":5713:5729   */\n      swap1\n      pop\n        /* \"#utility.yul\":5730:5771   */\n      tag_217\n        /* \"#utility.yul\":5765:5770   */\n      dup3\n        /* \"#utility.yul\":5730:5771   */\n      tag_130\n      jump\t// in\n    tag_217:\n        /* \"#utility.yul\":5650:5777   */\n      swap2\n      swap1\n      pop\n      jump\t// out\n        /* \"#utility.yul\":5783:5910   */\n    tag_132:\n        /* \"#utility.yul\":5839:5848   */\n      0x00\n        /* \"#utility.yul\":5872:5904   */\n      tag_219\n        /* \"#utility.yul\":5898:5903   */\n      dup3\n        /* \"#utility.yul\":5872:5904   */\n      tag_131\n      jump\t// in\n    tag_219:\n        /* \"#utility.yul\":5859:5904   */\n      swap1\n      pop\n        /* \"#utility.yul\":5783:5910   */\n      swap2\n      swap1\n      pop\n      jump\t// out\n        /* \"#utility.yul\":5916:6059   */\n    tag_133:\n        /* \"#utility.yul\":6009:6052   */\n      tag_221\n        /* \"#utility.yul\":6046:6051   */\n      dup2\n        /* \"#utility.yul\":6009:6052   */\n      tag_132\n      jump\t// in\n    tag_221:\n        /* \"#utility.yul\":6004:6007   */\n      dup3\n        /* \"#utility.yul\":5997:6053   */\n      mstore\n        /* \"#utility.yul\":5916:6059   */\n      pop\n      pop\n      jump\t// out\n        /* \"#utility.yul\":6065:6299   */\n    tag_40:\n        /* \"#utility.yul\":6164:6168   */\n      0x00\n        /* \"#utility.yul\":6202:6204   */\n      0x20\n        /* \"#utility.yul\":6191:6200   */\n      dup3\n        /* \"#utility.yul\":6187:6205   */\n      add\n        /* \"#utility.yul\":6179:6205   */\n      swap1\n      pop\n        /* \"#utility.yul\":6215:6292   */\n      tag_223\n        /* \"#utility.yul\":6289:6290   */\n      0x00\n        /* \"#utility.yul\":6278:6287   */\n      dup4\n        /* \"#utility.yul\":6274:6291   */\n      add\n        /* \"#utility.yul\":6265:6271   */\n      dup5\n        /* \"#utility.yul\":6215:6292   */\n      tag_133\n      jump\t// in\n    tag_223:\n        /* \"#utility.yul\":6065:6299   */\n      swap3\n      swap2\n      pop\n      pop\n      jump\t// out\n        /* \"#utility.yul\":6305:6431   */\n    tag_134:\n        /* \"#utility.yul\":6342:6349   */\n      0x00\n        /* \"#utility.yul\":6382:6424   */\n      0xffffffffffffffffffffffffffffffffffffffff\n        /* \"#utility.yul\":6375:6380   */\n      dup3\n        /* \"#utility.yul\":6371:6425   */\n      and\n        /* \"#utility.yul\":6360:6425   */\n      swap1\n      pop\n        /* \"#utility.yul\":6305:6431   */\n      swap2\n      swap1\n      pop\n      jump\t// out\n        /* \"#utility.yul\":6437:6533   */\n    tag_135:\n        /* \"#utility.yul\":6474:6481   */\n      0x00\n        /* \"#utility.yul\":6503:6527   */\n      tag_226\n        /* \"#utility.yul\":6521:6526   */\n      dup3\n        /* \"#utility.yul\":6503:6527   */\n      tag_134\n      jump\t// in\n    tag_226:\n        /* \"#utility.yul\":6492:6527   */\n      swap1\n      pop\n        /* \"#utility.yul\":6437:6533   */\n      swap2\n      swap1\n      pop\n      jump\t// out\n        /* \"#utility.yul\":6539:6661   */\n    tag_136:\n        /* \"#utility.yul\":6612:6636   */\n      tag_228\n        /* \"#utility.yul\":6630:6635   */\n      dup2\n        /* \"#utility.yul\":6612:6636   */\n      tag_135\n      jump\t// in\n    tag_228:\n        /* \"#utility.yul\":6605:6610   */\n      dup2\n        /* \"#utility.yul\":6602:6637   */\n      eq\n        /* \"#utility.yul\":6592:6655   */\n      tag_229\n      jumpi\n        /* \"#utility.yul\":6651:6652   */\n      0x00\n        /* \"#utility.yul\":6648:6649   */\n      dup1\n        /* \"#utility.yul\":6641:6653   */\n      revert\n        /* \"#utility.yul\":6592:6655   */\n    tag_229:\n        /* \"#utility.yul\":6539:6661   */\n      pop\n      jump\t// out\n        /* \"#utility.yul\":6667:6806   */\n    tag_137:\n        /* \"#utility.yul\":6713:6718   */\n      0x00\n        /* \"#utility.yul\":6751:6757   */\n      dup2\n        /* \"#utility.yul\":6738:6758   */\n      calldataload\n        /* \"#utility.yul\":6729:6758   */\n      swap1\n      pop\n        /* \"#utility.yul\":6767:6800   */\n      tag_231\n        /* \"#utility.yul\":6794:6799   */\n      dup2\n        /* \"#utility.yul\":6767:6800   */\n      tag_136\n      jump\t// in\n    tag_231:\n        /* \"#utility.yul\":6667:6806   */\n      swap3\n      swap2\n      pop\n      pop\n      jump\t// out\n        /* \"#utility.yul\":6812:7141   */\n    tag_43:\n        /* \"#utility.yul\":6871:6877   */\n      0x00\n        /* \"#utility.yul\":6920:6922   */\n      0x20\n        /* \"#utility.yul\":6908:6917   */\n      dup3\n        /* \"#utility.yul\":6899:6906   */\n      dup5\n        /* \"#utility.yul\":6895:6918   */\n      sub\n        /* \"#utility.yul\":6891:6923   */\n      slt\n        /* \"#utility.yul\":6888:7007   */\n      iszero\n      tag_233\n      jumpi\n        /* \"#utility.yul\":6926:7005   */\n      tag_234\n      tag_110\n      jump\t// in\n    tag_234:\n        /* \"#utility.yul\":6888:7007   */\n    tag_233:\n        /* \"#utility.yul\":7046:7047   */\n      0x00\n        /* \"#utility.yul\":7071:7124   */\n      tag_235\n        /* \"#utility.yul\":7116:7123   */\n      dup5\n        /* \"#utility.yul\":7107:7113   */\n      dup3\n        /* \"#utility.yul\":7096:7105   */\n      dup6\n        /* \"#utility.yul\":7092:7114   */\n      add\n        /* \"#utility.yul\":7071:7124   */\n      tag_137\n      jump\t// in\n    tag_235:\n        /* \"#utility.yul\":7061:7124   */\n      swap2\n      pop\n        /* \"#utility.yul\":7017:7134   */\n      pop\n        /* \"#utility.yul\":6812:7141   */\n      swap3\n      swap2\n      pop\n      pop\n      jump\t// out\n        /* \"#utility.yul\":7147:7237   */\n    tag_138:\n        /* \"#utility.yul\":7181:7188   */\n      0x00\n        /* \"#utility.yul\":7224:7229   */\n      dup2\n        /* \"#utility.yul\":7217:7230   */\n      iszero\n        /* \"#utility.yul\":7210:7231   */\n      iszero\n        /* \"#utility.yul\":7199:7231   */\n      swap1\n      pop\n        /* \"#utility.yul\":7147:7237   */\n      swap2\n      swap1\n      pop\n      jump\t// out\n        /* \"#utility.yul\":7243:7352   */\n    tag_139:\n        /* \"#utility.yul\":7324:7345   */\n      tag_238\n        /* \"#utility.yul\":7339:7344   */\n      dup2\n        /* \"#utility.yul\":7324:7345   */\n      tag_138\n      jump\t// in\n    tag_238:\n        /* \"#utility.yul\":7319:7322   */\n      dup3\n        /* \"#utility.yul\":7312:7346   */\n      mstore\n        /* \"#utility.yul\":7243:7352   */\n      pop\n      pop\n      jump\t// out\n        /* \"#utility.yul\":7358:7568   */\n    tag_46:\n        /* \"#utility.yul\":7445:7449   */\n      0x00\n        /* \"#utility.yul\":7483:7485   */\n      0x20\n        /* \"#utility.yul\":7472:7481   */\n      dup3\n        /* \"#utility.yul\":7468:7486   */\n      add\n        /* \"#utility.yul\":7460:7486   */\n      swap1\n      pop\n        /* \"#utility.yul\":7496:7561   */\n      tag_240\n        /* \"#utility.yul\":7558:7559   */\n      0x00\n        /* \"#utility.yul\":7547:7556   */\n      dup4\n        /* \"#utility.yul\":7543:7560   */\n      add\n        /* \"#utility.yul\":7534:7540   */\n      dup5\n        /* \"#utility.yul\":7496:7561   */\n      tag_139\n      jump\t// in\n    tag_240:\n        /* \"#utility.yul\":7358:7568   */\n      swap3\n      swap2\n      pop\n      pop\n      jump\t// out\n        /* \"#utility.yul\":7574:7692   */\n    tag_140:\n        /* \"#utility.yul\":7661:7685   */\n      tag_242\n        /* \"#utility.yul\":7679:7684   */\n      dup2\n        /* \"#utility.yul\":7661:7685   */\n      tag_135\n      jump\t// in\n    tag_242:\n        /* \"#utility.yul\":7656:7659   */\n      dup3\n        /* \"#utility.yul\":7649:7686   */\n      mstore\n        /* \"#utility.yul\":7574:7692   */\n      pop\n      pop\n      jump\t// out\n        /* \"#utility.yul\":7698:7920   */\n    tag_50:\n        /* \"#utility.yul\":7791:7795   */\n      0x00\n        /* \"#utility.yul\":7829:7831   */\n      0x20\n        /* \"#utility.yul\":7818:7827   */\n      dup3\n        /* \"#utility.yul\":7814:7832   */\n      add\n        /* \"#utility.yul\":7806:7832   */\n      swap1\n      pop\n        /* \"#utility.yul\":7842:7913   */\n      tag_244\n        /* \"#utility.yul\":7910:7911   */\n      0x00\n        /* \"#utility.yul\":7899:7908   */\n      dup4\n        /* \"#utility.yul\":7895:7912   */\n      add\n        /* \"#utility.yul\":7886:7892   */\n      dup5\n        /* \"#utility.yul\":7842:7913   */\n      tag_140\n      jump\t// in\n    tag_244:\n        /* \"#utility.yul\":7698:7920   */\n      swap3\n      swap2\n      pop\n      pop\n      jump\t// out\n        /* \"#utility.yul\":7926:8089   */\n    tag_141:\n        /* \"#utility.yul\":8066:8081   */\n      0x496e76616c696420737461746500000000000000000000000000000000000000\n        /* \"#utility.yul\":8062:8063   */\n      0x00\n        /* \"#utility.yul\":8054:8060   */\n      dup3\n        /* \"#utility.yul\":8050:8064   */\n      add\n        /* \"#utility.yul\":8043:8082   */\n      mstore\n        /* \"#utility.yul\":7926:8089   */\n      pop\n      jump\t// out\n        /* \"#utility.yul\":8095:8461   */\n    tag_142:\n        /* \"#utility.yul\":8237:8240   */\n      0x00\n        /* \"#utility.yul\":8258:8325   */\n      tag_247\n        /* \"#utility.yul\":8322:8324   */\n      0x0d\n        /* \"#utility.yul\":8317:8320   */\n      dup4\n        /* \"#utility.yul\":8258:8325   */\n      tag_127\n      jump\t// in\n    tag_247:\n        /* \"#utility.yul\":8251:8325   */\n      swap2\n      pop\n        /* \"#utility.yul\":8334:8427   */\n      tag_248\n        /* \"#utility.yul\":8423:8426   */\n      dup3\n        /* \"#utility.yul\":8334:8427   */\n      tag_141\n      jump\t// in\n    tag_248:\n        /* \"#utility.yul\":8452:8454   */\n      0x20\n        /* \"#utility.yul\":8447:8450   */\n      dup3\n        /* \"#utility.yul\":8443:8455   */\n      add\n        /* \"#utility.yul\":8436:8455   */\n      swap1\n      pop\n        /* \"#utility.yul\":8095:8461   */\n      swap2\n      swap1\n      pop\n      jump\t// out\n        /* \"#utility.yul\":8467:8886   */\n    tag_62:\n        /* \"#utility.yul\":8633:8637   */\n      0x00\n        /* \"#utility.yul\":8671:8673   */\n      0x20\n        /* \"#utility.yul\":8660:8669   */\n      dup3\n        /* \"#utility.yul\":8656:8674   */\n      add\n        /* \"#utility.yul\":8648:8674   */\n      swap1\n      pop\n        /* \"#utility.yul\":8720:8729   */\n      dup2\n        /* \"#utility.yul\":8714:8718   */\n      dup2\n        /* \"#utility.yul\":8710:8730   */\n      sub\n        /* \"#utility.yul\":8706:8707   */\n      0x00\n        /* \"#utility.yul\":8695:8704   */\n      dup4\n        /* \"#utility.yul\":8691:8708   */\n      add\n        /* \"#utility.yul\":8684:8731   */\n      mstore\n        /* \"#utility.yul\":8748:8879   */\n      tag_250\n        /* \"#utility.yul\":8874:8878   */\n      dup2\n        /* \"#utility.yul\":8748:8879   */\n      tag_142\n      jump\t// in\n    tag_250:\n        /* \"#utility.yul\":8740:8879   */\n      swap1\n      pop\n        /* \"#utility.yul\":8467:8886   */\n      swap2\n      swap1\n      pop\n      jump\t// out\n        /* \"#utility.yul\":8892:9040   */\n    tag_143:\n        /* \"#utility.yul\":8994:9005   */\n      0x00\n        /* \"#utility.yul\":9031:9034   */\n      dup2\n        /* \"#utility.yul\":9016:9034   */\n      swap1\n      pop\n        /* \"#utility.yul\":8892:9040   */\n      swap3\n      swap2\n      pop\n      pop\n      jump\t// out\n        /* \"#utility.yul\":9046:9436   */\n    tag_144:\n        /* \"#utility.yul\":9152:9155   */\n      0x00\n        /* \"#utility.yul\":9180:9219   */\n      tag_253\n        /* \"#utility.yul\":9213:9218   */\n      dup3\n        /* \"#utility.yul\":9180:9219   */\n      tag_126\n      jump\t// in\n    tag_253:\n        /* \"#utility.yul\":9235:9324   */\n      tag_254\n        /* \"#utility.yul\":9317:9323   */\n      dup2\n        /* \"#utility.yul\":9312:9315   */\n      dup6\n        /* \"#utility.yul\":9235:9324   */\n      tag_143\n      jump\t// in\n    tag_254:\n        /* \"#utility.yul\":9228:9324   */\n      swap4\n      pop\n        /* \"#utility.yul\":9333:9398   */\n      tag_255\n        /* \"#utility.yul\":9391:9397   */\n      dup2\n        /* \"#utility.yul\":9386:9389   */\n      dup6\n        /* \"#utility.yul\":9379:9383   */\n      0x20\n        /* \"#utility.yul\":9372:9377   */\n      dup7\n        /* \"#utility.yul\":9368:9384   */\n      add\n        /* \"#utility.yul\":9333:9398   */\n      tag_128\n      jump\t// in\n    tag_255:\n        /* \"#utility.yul\":9423:9429   */\n      dup1\n        /* \"#utility.yul\":9418:9421   */\n      dup5\n        /* \"#utility.yul\":9414:9430   */\n      add\n        /* \"#utility.yul\":9407:9430   */\n      swap2\n      pop\n        /* \"#utility.yul\":9156:9436   */\n      pop\n        /* \"#utility.yul\":9046:9436   */\n      swap3\n      swap2\n      pop\n      pop\n      jump\t// out\n        /* \"#utility.yul\":9442:9717   */\n    tag_65:\n        /* \"#utility.yul\":9574:9577   */\n      0x00\n        /* \"#utility.yul\":9596:9691   */\n      tag_257\n        /* \"#utility.yul\":9687:9690   */\n      dup3\n        /* \"#utility.yul\":9678:9684   */\n      dup5\n        /* \"#utility.yul\":9596:9691   */\n      tag_144\n      jump\t// in\n    tag_257:\n        /* \"#utility.yul\":9589:9691   */\n      swap2\n      pop\n        /* \"#utility.yul\":9708:9711   */\n      dup2\n        /* \"#utility.yul\":9701:9711   */\n      swap1\n      pop\n        /* \"#utility.yul\":9442:9717   */\n      swap3\n      swap2\n      pop\n      pop\n      jump\t// out\n        /* \"#utility.yul\":9723:9903   */\n    tag_145:\n        /* \"#utility.yul\":9771:9848   */\n      0x4e487b7100000000000000000000000000000000000000000000000000000000\n        /* \"#utility.yul\":9768:9769   */\n      0x00\n        /* \"#utility.yul\":9761:9849   */\n      mstore\n        /* \"#utility.yul\":9868:9872   */\n      0x22\n        /* \"#utility.yul\":9865:9866   */\n      0x04\n        /* \"#utility.yul\":9858:9873   */\n      mstore\n        /* \"#utility.yul\":9892:9896   */\n      0x24\n        /* \"#utility.yul\":9889:9890   */\n      0x00\n        /* \"#utility.yul\":9882:9897   */\n      revert\n        /* \"#utility.yul\":9909:10229   */\n    tag_80:\n        /* \"#utility.yul\":9953:9959   */\n      0x00\n        /* \"#utility.yul\":9990:9991   */\n      0x02\n        /* \"#utility.yul\":9984:9988   */\n      dup3\n        /* \"#utility.yul\":9980:9992   */\n      div\n        /* \"#utility.yul\":9970:9992   */\n      swap1\n      pop\n        /* \"#utility.yul\":10037:10038   */\n      0x01\n        /* \"#utility.yul\":10031:10035   */\n      dup3\n        /* \"#utility.yul\":10027:10039   */\n      and\n        /* \"#utility.yul\":10058:10076   */\n      dup1\n        /* \"#utility.yul\":10048:10129   */\n      tag_260\n      jumpi\n        /* \"#utility.yul\":10114:10118   */\n      0x7f\n        /* \"#utility.yul\":10106:10112   */\n      dup3\n        /* \"#utility.yul\":10102:10119   */\n      and\n        /* \"#utility.yul\":10092:10119   */\n      swap2\n      pop\n        /* \"#utility.yul\":10048:10129   */\n    tag_260:\n        /* \"#utility.yul\":10176:10178   */\n      0x20\n        /* \"#utility.yul\":10168:10174   */\n      dup3\n        /* \"#utility.yul\":10165:10179   */\n      lt\n        /* \"#utility.yul\":10145:10163   */\n      dup2\n        /* \"#utility.yul\":10142:10180   */\n      sub\n        /* \"#utility.yul\":10139:10223   */\n      tag_261\n      jumpi\n        /* \"#utility.yul\":10195:10213   */\n      tag_262\n      tag_145\n      jump\t// in\n    tag_262:\n        /* \"#utility.yul\":10139:10223   */\n    tag_261:\n        /* \"#utility.yul\":9960:10229   */\n      pop\n        /* \"#utility.yul\":9909:10229   */\n      swap2\n      swap1\n      pop\n      jump\t// out\n        /* \"#utility.yul\":10235:10398   */\n    tag_146:\n        /* \"#utility.yul\":10375:10390   */\n      0x416c726561647920566f74656400000000000000000000000000000000000000\n        /* \"#utility.yul\":10371:10372   */\n      0x00\n        /* \"#utility.yul\":10363:10369   */\n      dup3\n        /* \"#utility.yul\":10359:10373   */\n      add\n        /* \"#utility.yul\":10352:10391   */\n      mstore\n        /* \"#utility.yul\":10235:10398   */\n      pop\n      jump\t// out\n        /* \"#utility.yul\":10404:10770   */\n    tag_147:\n        /* \"#utility.yul\":10546:10549   */\n      0x00\n        /* \"#utility.yul\":10567:10634   */\n      tag_265\n        /* \"#utility.yul\":10631:10633   */\n      0x0d\n        /* \"#utility.yul\":10626:10629   */\n      dup4\n        /* \"#utility.yul\":10567:10634   */\n      tag_127\n      jump\t// in\n    tag_265:\n        /* \"#utility.yul\":10560:10634   */\n      swap2\n      pop\n        /* \"#utility.yul\":10643:10736   */\n      tag_266\n        /* \"#utility.yul\":10732:10735   */\n      dup3\n        /* \"#utility.yul\":10643:10736   */\n      tag_146\n      jump\t// in\n    tag_266:\n        /* \"#utility.yul\":10761:10763   */\n      0x20\n        /* \"#utility.yul\":10756:10759   */\n      dup3\n        /* \"#utility.yul\":10752:10764   */\n      add\n        /* \"#utility.yul\":10745:10764   */\n      swap1\n      pop\n        /* \"#utility.yul\":10404:10770   */\n      swap2\n      swap1\n      pop\n      jump\t// out\n        /* \"#utility.yul\":10776:11195   */\n    tag_105:\n        /* \"#utility.yul\":10942:10946   */\n      0x00\n        /* \"#utility.yul\":10980:10982   */\n      0x20\n        /* \"#utility.yul\":10969:10978   */\n      dup3\n        /* \"#utility.yul\":10965:10983   */\n      add\n        /* \"#utility.yul\":10957:10983   */\n      swap1\n      pop\n        /* \"#utility.yul\":11029:11038   */\n      dup2\n        /* \"#utility.yul\":11023:11027   */\n      dup2\n        /* \"#utility.yul\":11019:11039   */\n      sub\n        /* \"#utility.yul\":11015:11016   */\n      0x00\n        /* \"#utility.yul\":11004:11013   */\n      dup4\n        /* \"#utility.yul\":11000:11017   */\n      add\n        /* \"#utility.yul\":10993:11040   */\n      mstore\n        /* \"#utility.yul\":11057:11188   */\n      tag_268\n        /* \"#utility.yul\":11183:11187   */\n      dup2\n        /* \"#utility.yul\":11057:11188   */\n      tag_147\n      jump\t// in\n    tag_268:\n        /* \"#utility.yul\":11049:11188   */\n      swap1\n      pop\n        /* \"#utility.yul\":10776:11195   */\n      swap2\n      swap1\n      pop\n      jump\t// out\n        /* \"#utility.yul\":11201:11381   */\n    tag_148:\n        /* \"#utility.yul\":11249:11326   */\n      0x4e487b7100000000000000000000000000000000000000000000000000000000\n        /* \"#utility.yul\":11246:11247   */\n      0x00\n        /* \"#utility.yul\":11239:11327   */\n      mstore\n        /* \"#utility.yul\":11346:11350   */\n      0x11\n        /* \"#utility.yul\":11343:11344   */\n      0x04\n        /* \"#utility.yul\":11336:11351   */\n      mstore\n        /* \"#utility.yul\":11370:11374   */\n      0x24\n        /* \"#utility.yul\":11367:11368   */\n      0x00\n        /* \"#utility.yul\":11360:11375   */\n      revert\n        /* \"#utility.yul\":11387:11578   */\n    tag_108:\n        /* \"#utility.yul\":11427:11430   */\n      0x00\n        /* \"#utility.yul\":11446:11466   */\n      tag_271\n        /* \"#utility.yul\":11464:11465   */\n      dup3\n        /* \"#utility.yul\":11446:11466   */\n      tag_122\n      jump\t// in\n    tag_271:\n        /* \"#utility.yul\":11441:11466   */\n      swap2\n      pop\n        /* \"#utility.yul\":11480:11500   */\n      tag_272\n        /* \"#utility.yul\":11498:11499   */\n      dup4\n        /* \"#utility.yul\":11480:11500   */\n      tag_122\n      jump\t// in\n    tag_272:\n        /* \"#utility.yul\":11475:11500   */\n      swap3\n      pop\n        /* \"#utility.yul\":11523:11524   */\n      dup3\n        /* \"#utility.yul\":11520:11521   */\n      dup3\n        /* \"#utility.yul\":11516:11525   */\n      add\n        /* \"#utility.yul\":11509:11525   */\n      swap1\n      pop\n        /* \"#utility.yul\":11544:11547   */\n      dup1\n        /* \"#utility.yul\":11541:11542   */\n      dup3\n        /* \"#utility.yul\":11538:11548   */\n      gt\n        /* \"#utility.yul\":11535:11571   */\n      iszero\n      tag_273\n      jumpi\n        /* \"#utility.yul\":11551:11569   */\n      tag_274\n      tag_148\n      jump\t// in\n    tag_274:\n        /* \"#utility.yul\":11535:11571   */\n    tag_273:\n        /* \"#utility.yul\":11387:11578   */\n      swap3\n      swap2\n      pop\n      pop\n      jump\t// out\n\n    auxdata: 0xa264697066735822122016ce3bc67d8b956a7f5f9f594ac4fa07c77ba588050a2d923edcb3e853685cc964736f6c63430008150033\n}\n",
				"bytecode": {
					"linkReferences": {},
					"object": "608060405234801562000010575f80fd5b506040516200148c3803806200148c833981810160405281019062000036919062000423565b335f806101000a81548173ffffffffffffffffffffffffffffffffffffffff021916908373ffffffffffffffffffffffffffffffffffffffff16021790555080600190805190602001906200008d929190620000c1565b505f60045f6101000a81548160ff02191690836002811115620000b557620000b462000472565b5b021790555050620007ba565b828054828255905f5260205f209081019282156200010c579160200282015b828111156200010b578251829081620000fa9190620006d6565b5091602001919060010190620000e0565b5b5090506200011b91906200011f565b5090565b5b8082111562000142575f818162000138919062000146565b5060010162000120565b5090565b5080546200015490620004d6565b5f825580601f1062000167575062000186565b601f0160209004905f5260205f209081019062000185919062000189565b5b50565b5b80821115620001a2575f815f9055506001016200018a565b5090565b5f604051905090565b5f80fd5b5f80fd5b5f80fd5b5f601f19601f8301169050919050565b7f4e487b71000000000000000000000000000000000000000000000000000000005f52604160045260245ffd5b6200020382620001bb565b810181811067ffffffffffffffff82111715620002255762000224620001cb565b5b80604052505050565b5f62000239620001a6565b9050620002478282620001f8565b919050565b5f67ffffffffffffffff821115620002695762000268620001cb565b5b602082029050602081019050919050565b5f80fd5b5f80fd5b5f67ffffffffffffffff8211156200029f576200029e620001cb565b5b620002aa82620001bb565b9050602081019050919050565b5f5b83811015620002d6578082015181840152602081019050620002b9565b5f8484015250505050565b5f620002f7620002f18462000282565b6200022e565b9050828152602081018484840111156200031657620003156200027e565b5b62000323848285620002b7565b509392505050565b5f82601f830112620003425762000341620001b7565b5b815162000354848260208601620002e1565b91505092915050565b5f620003736200036d846200024c565b6200022e565b905080838252602082019050602084028301858111156200039957620003986200027a565b5b835b81811015620003e757805167ffffffffffffffff811115620003c257620003c1620001b7565b5b808601620003d189826200032b565b855260208501945050506020810190506200039b565b5050509392505050565b5f82601f830112620004085762000407620001b7565b5b81516200041a8482602086016200035d565b91505092915050565b5f602082840312156200043b576200043a620001af565b5b5f82015167ffffffffffffffff8111156200045b576200045a620001b3565b5b6200046984828501620003f1565b91505092915050565b7f4e487b71000000000000000000000000000000000000000000000000000000005f52602160045260245ffd5b5f81519050919050565b7f4e487b71000000000000000000000000000000000000000000000000000000005f52602260045260245ffd5b5f6002820490506001821680620004ee57607f821691505b602082108103620005045762000503620004a9565b5b50919050565b5f819050815f5260205f209050919050565b5f6020601f8301049050919050565b5f82821b905092915050565b5f60088302620005687fffffffffffffffffffffffffffffffffffffffffffffffffffffffffffffffff826200052b565b6200057486836200052b565b95508019841693508086168417925050509392505050565b5f819050919050565b5f819050919050565b5f620005be620005b8620005b2846200058c565b62000595565b6200058c565b9050919050565b5f819050919050565b620005d9836200059e565b620005f1620005e882620005c5565b84845462000537565b825550505050565b5f90565b62000607620005f9565b62000614818484620005ce565b505050565b5b818110156200063b576200062f5f82620005fd565b6001810190506200061a565b5050565b601f8211156200068a5762000654816200050a565b6200065f846200051c565b810160208510156200066f578190505b620006876200067e856200051c565b83018262000619565b50505b505050565b5f82821c905092915050565b5f620006ac5f19846008026200068f565b1980831691505092915050565b5f620006c683836200069b565b9150826002028217905092915050565b620006e1826200049f565b67ffffffffffffffff811115620006fd57620006fc620001cb565b5b620007098254620004d6565b620007168282856200063f565b5f60209050601f8311600181146200074c575f841562000737578287015190505b620007438582620006b9565b865550620007b2565b601f1984166200075c866200050a565b5f5b8281101562000785578489015182556001820191506020850194506020810190506200075e565b86831015620007a55784890151620007a1601f8916826200069b565b8355505b6001600288020188555050505b505050505050565b610cc480620007c85f395ff3fe608060405234801561000f575f80fd5b506004361061009c575f3560e01c8063b922394611610064578063b922394614610158578063c19d93fb14610162578063cbff75cb14610180578063cf73a1bc146101b0578063e89927ef146101ce5761009c565b80634a3bf377146100a05780634a9945e5146100d05780634c0a6af014610100578063a9a981a31461010a578063b13c744b14610128575b5f80fd5b6100ba60048036038101906100b591906107de565b6101ea565b6040516100c7919061083d565b60405180910390f35b6100ea60048036038101906100e591906107de565b610288565b6040516100f7919061083d565b60405180910390f35b6101086102b5565b005b610112610357565b60405161011f919061083d565b60405180910390f35b610142600480360381019061013d9190610880565b610363565b60405161014f9190610925565b60405180910390f35b610160610409565b005b61016a6104ac565b60405161017791906109b8565b60405180910390f35b61019a60048036038101906101959190610a2b565b6104be565b6040516101a79190610a70565b60405180910390f35b6101b86104db565b6040516101c59190610a98565b60405180910390f35b6101e860048036038101906101e391906107de565b6104fe565b005b5f6002806002811115610200576101ff610945565b5b60045f9054906101000a900460ff16600281111561022157610220610945565b5b14610261576040517f08c379a000000000000000000000000000000000000000000000000000000000815260040161025890610afb565b60405180910390fd5b6002836040516102719190610b53565b908152602001604051809103902054915050919050565b6002818051602081018201805184825260208301602085012081835280955050505050505f915090505481565b5f8060028111156102c9576102c8610945565b5b60045f9054906101000a900460ff1660028111156102ea576102e9610945565b5b1461032a576040517f08c379a000000000000000000000000000000000000000000000000000000000815260040161032190610afb565b60405180910390fd5b600160045f6101000a81548160ff0219169083600281111561034f5761034e610945565b5b021790555050565b5f600180549050905090565b60018181548110610372575f80fd5b905f5260205f20015f91509050805461038a90610b96565b80601f01602080910402602001604051908101604052809291908181526020018280546103b690610b96565b80156104015780601f106103d857610100808354040283529160200191610401565b820191905f5260205f20905b8154815290600101906020018083116103e457829003601f168201915b505050505081565b600180600281111561041e5761041d610945565b5b60045f9054906101000a900460ff16600281111561043f5761043e610945565b5b1461047f576040517f08c379a000000000000000000000000000000000000000000000000000000000815260040161047690610afb565b60405180910390fd5b600260045f6101000a81548160ff021916908360028111156104a4576104a3610945565b5b021790555050565b60045f9054906101000a900460ff1681565b6003602052805f5260405f205f915054906101000a900460ff1681565b5f8054906101000a900473ffffffffffffffffffffffffffffffffffffffff1681565b600180600281111561051357610512610945565b5b60045f9054906101000a900460ff16600281111561053457610533610945565b5b14610574576040517f08c379a000000000000000000000000000000000000000000000000000000000815260040161056b90610afb565b60405180910390fd5b5f151560035f3373ffffffffffffffffffffffffffffffffffffffff1673ffffffffffffffffffffffffffffffffffffffff1681526020019081526020015f205f9054906101000a900460ff16151514610603576040517f08c379a00000000000000000000000000000000000000000000000000000000081526004016105fa90610c10565b60405180910390fd5b600160035f3373ffffffffffffffffffffffffffffffffffffffff1673ffffffffffffffffffffffffffffffffffffffff1681526020019081526020015f205f6101000a81548160ff021916908315150217905550600160028360405161066a9190610b53565b90815260200160405180910390205f8282546106869190610c5b565b925050819055505050565b5f604051905090565b5f80fd5b5f80fd5b5f80fd5b5f80fd5b5f601f19601f8301169050919050565b7f4e487b71000000000000000000000000000000000000000000000000000000005f52604160045260245ffd5b6106f0826106aa565b810181811067ffffffffffffffff8211171561070f5761070e6106ba565b5b80604052505050565b5f610721610691565b905061072d82826106e7565b919050565b5f67ffffffffffffffff82111561074c5761074b6106ba565b5b610755826106aa565b9050602081019050919050565b828183375f83830152505050565b5f61078261077d84610732565b610718565b90508281526020810184848401111561079e5761079d6106a6565b5b6107a9848285610762565b509392505050565b5f82601f8301126107c5576107c46106a2565b5b81356107d5848260208601610770565b91505092915050565b5f602082840312156107f3576107f261069a565b5b5f82013567ffffffffffffffff8111156108105761080f61069e565b5b61081c848285016107b1565b91505092915050565b5f819050919050565b61083781610825565b82525050565b5f6020820190506108505f83018461082e565b92915050565b61085f81610825565b8114610869575f80fd5b50565b5f8135905061087a81610856565b92915050565b5f602082840312156108955761089461069a565b5b5f6108a28482850161086c565b91505092915050565b5f81519050919050565b5f82825260208201905092915050565b5f5b838110156108e25780820151818401526020810190506108c7565b5f8484015250505050565b5f6108f7826108ab565b61090181856108b5565b93506109118185602086016108c5565b61091a816106aa565b840191505092915050565b5f6020820190508181035f83015261093d81846108ed565b905092915050565b7f4e487b71000000000000000000000000000000000000000000000000000000005f52602160045260245ffd5b6003811061098357610982610945565b5b50565b5f81905061099382610972565b919050565b5f6109a282610986565b9050919050565b6109b281610998565b82525050565b5f6020820190506109cb5f8301846109a9565b92915050565b5f73ffffffffffffffffffffffffffffffffffffffff82169050919050565b5f6109fa826109d1565b9050919050565b610a0a816109f0565b8114610a14575f80fd5b50565b5f81359050610a2581610a01565b92915050565b5f60208284031215610a4057610a3f61069a565b5b5f610a4d84828501610a17565b91505092915050565b5f8115159050919050565b610a6a81610a56565b82525050565b5f602082019050610a835f830184610a61565b92915050565b610a92816109f0565b82525050565b5f602082019050610aab5f830184610a89565b92915050565b7f496e76616c6964207374617465000000000000000000000000000000000000005f82015250565b5f610ae5600d836108b5565b9150610af082610ab1565b602082019050919050565b5f6020820190508181035f830152610b1281610ad9565b9050919050565b5f81905092915050565b5f610b2d826108ab565b610b378185610b19565b9350610b478185602086016108c5565b80840191505092915050565b5f610b5e8284610b23565b915081905092915050565b7f4e487b71000000000000000000000000000000000000000000000000000000005f52602260045260245ffd5b5f6002820490506001821680610bad57607f821691505b602082108103610bc057610bbf610b69565b5b50919050565b7f416c726561647920566f746564000000000000000000000000000000000000005f82015250565b5f610bfa600d836108b5565b9150610c0582610bc6565b602082019050919050565b5f6020820190508181035f830152610c2781610bee565b9050919050565b7f4e487b71000000000000000000000000000000000000000000000000000000005f52601160045260245ffd5b5f610c6582610825565b9150610c7083610825565b9250828201905080821115610c8857610c87610c2e565b5b9291505056fea264697066735822122016ce3bc67d8b956a7f5f9f594ac4fa07c77ba588050a2d923edcb3e853685cc964736f6c63430008150033",
					"opcodes": "PUSH1 0x80 PUSH1 0x40 MSTORE CALLVALUE DUP1 ISZERO PUSH3 0x10 JUMPI PUSH0 DUP1 REVERT JUMPDEST POP PUSH1 0x40 MLOAD PUSH3 0x148C CODESIZE SUB DUP1 PUSH3 0x148C DUP4 CODECOPY DUP2 DUP2 ADD PUSH1 0x40 MSTORE DUP2 ADD SWAP1 PUSH3 0x36 SWAP2 SWAP1 PUSH3 0x423 JUMP JUMPDEST CALLER PUSH0 DUP1 PUSH2 0x100 EXP DUP2 SLOAD DUP2 PUSH20 0xFFFFFFFFFFFFFFFFFFFFFFFFFFFFFFFFFFFFFFFF MUL NOT AND SWAP1 DUP4 PUSH20 0xFFFFFFFFFFFFFFFFFFFFFFFFFFFFFFFFFFFFFFFF AND MUL OR SWAP1 SSTORE POP DUP1 PUSH1 0x1 SWAP1 DUP1 MLOAD SWAP1 PUSH1 0x20 ADD SWAP1 PUSH3 0x8D SWAP3 SWAP2 SWAP1 PUSH3 0xC1 JUMP JUMPDEST POP PUSH0 PUSH1 0x4 PUSH0 PUSH2 0x100 EXP DUP2 SLOAD DUP2 PUSH1 0xFF MUL NOT AND SWAP1 DUP4 PUSH1 0x2 DUP2 GT ISZERO PUSH3 0xB5 JUMPI PUSH3 0xB4 PUSH3 0x472 JUMP JUMPDEST JUMPDEST MUL OR SWAP1 SSTORE POP POP PUSH3 0x7BA JUMP JUMPDEST DUP3 DUP1 SLOAD DUP3 DUP3 SSTORE SWAP1 PUSH0 MSTORE PUSH1 0x20 PUSH0 KECCAK256 SWAP1 DUP2 ADD SWAP3 DUP3 ISZERO PUSH3 0x10C JUMPI SWAP2 PUSH1 0x20 MUL DUP3 ADD JUMPDEST DUP3 DUP2 GT ISZERO PUSH3 0x10B JUMPI DUP3 MLOAD DUP3 SWAP1 DUP2 PUSH3 0xFA SWAP2 SWAP1 PUSH3 0x6D6 JUMP JUMPDEST POP SWAP2 PUSH1 0x20 ADD SWAP2 SWAP1 PUSH1 0x1 ADD SWAP1 PUSH3 0xE0 JUMP JUMPDEST JUMPDEST POP SWAP1 POP PUSH3 0x11B SWAP2 SWAP1 PUSH3 0x11F JUMP JUMPDEST POP SWAP1 JUMP JUMPDEST JUMPDEST DUP1 DUP3 GT ISZERO PUSH3 0x142 JUMPI PUSH0 DUP2 DUP2 PUSH3 0x138 SWAP2 SWAP1 PUSH3 0x146 JUMP JUMPDEST POP PUSH1 0x1 ADD PUSH3 0x120 JUMP JUMPDEST POP SWAP1 JUMP JUMPDEST POP DUP1 SLOAD PUSH3 0x154 SWAP1 PUSH3 0x4D6 JUMP JUMPDEST PUSH0 DUP3 SSTORE DUP1 PUSH1 0x1F LT PUSH3 0x167 JUMPI POP PUSH3 0x186 JUMP JUMPDEST PUSH1 0x1F ADD PUSH1 0x20 SWAP1 DIV SWAP1 PUSH0 MSTORE PUSH1 0x20 PUSH0 KECCAK256 SWAP1 DUP2 ADD SWAP1 PUSH3 0x185 SWAP2 SWAP1 PUSH3 0x189 JUMP JUMPDEST JUMPDEST POP JUMP JUMPDEST JUMPDEST DUP1 DUP3 GT ISZERO PUSH3 0x1A2 JUMPI PUSH0 DUP2 PUSH0 SWAP1 SSTORE POP PUSH1 0x1 ADD PUSH3 0x18A JUMP JUMPDEST POP SWAP1 JUMP JUMPDEST PUSH0 PUSH1 0x40 MLOAD SWAP1 POP SWAP1 JUMP JUMPDEST PUSH0 DUP1 REVERT JUMPDEST PUSH0 DUP1 REVERT JUMPDEST PUSH0 DUP1 REVERT JUMPDEST PUSH0 PUSH1 0x1F NOT PUSH1 0x1F DUP4 ADD AND SWAP1 POP SWAP2 SWAP1 POP JUMP JUMPDEST PUSH32 0x4E487B7100000000000000000000000000000000000000000000000000000000 PUSH0 MSTORE PUSH1 0x41 PUSH1 0x4 MSTORE PUSH1 0x24 PUSH0 REVERT JUMPDEST PUSH3 0x203 DUP3 PUSH3 0x1BB JUMP JUMPDEST DUP2 ADD DUP2 DUP2 LT PUSH8 0xFFFFFFFFFFFFFFFF DUP3 GT OR ISZERO PUSH3 0x225 JUMPI PUSH3 0x224 PUSH3 0x1CB JUMP JUMPDEST JUMPDEST DUP1 PUSH1 0x40 MSTORE POP POP POP JUMP JUMPDEST PUSH0 PUSH3 0x239 PUSH3 0x1A6 JUMP JUMPDEST SWAP1 POP PUSH3 0x247 DUP3 DUP3 PUSH3 0x1F8 JUMP JUMPDEST SWAP2 SWAP1 POP JUMP JUMPDEST PUSH0 PUSH8 0xFFFFFFFFFFFFFFFF DUP3 GT ISZERO PUSH3 0x269 JUMPI PUSH3 0x268 PUSH3 0x1CB JUMP JUMPDEST JUMPDEST PUSH1 0x20 DUP3 MUL SWAP1 POP PUSH1 0x20 DUP2 ADD SWAP1 POP SWAP2 SWAP1 POP JUMP JUMPDEST PUSH0 DUP1 REVERT JUMPDEST PUSH0 DUP1 REVERT JUMPDEST PUSH0 PUSH8 0xFFFFFFFFFFFFFFFF DUP3 GT ISZERO PUSH3 0x29F JUMPI PUSH3 0x29E PUSH3 0x1CB JUMP JUMPDEST JUMPDEST PUSH3 0x2AA DUP3 PUSH3 0x1BB JUMP JUMPDEST SWAP1 POP PUSH1 0x20 DUP2 ADD SWAP1 POP SWAP2 SWAP1 POP JUMP JUMPDEST PUSH0 JUMPDEST DUP4 DUP2 LT ISZERO PUSH3 0x2D6 JUMPI DUP1 DUP3 ADD MLOAD DUP2 DUP5 ADD MSTORE PUSH1 0x20 DUP2 ADD SWAP1 POP PUSH3 0x2B9 JUMP JUMPDEST PUSH0 DUP5 DUP5 ADD MSTORE POP POP POP POP JUMP JUMPDEST PUSH0 PUSH3 0x2F7 PUSH3 0x2F1 DUP5 PUSH3 0x282 JUMP JUMPDEST PUSH3 0x22E JUMP JUMPDEST SWAP1 POP DUP3 DUP2 MSTORE PUSH1 0x20 DUP2 ADD DUP5 DUP5 DUP5 ADD GT ISZERO PUSH3 0x316 JUMPI PUSH3 0x315 PUSH3 0x27E JUMP JUMPDEST JUMPDEST PUSH3 0x323 DUP5 DUP3 DUP6 PUSH3 0x2B7 JUMP JUMPDEST POP SWAP4 SWAP3 POP POP POP JUMP JUMPDEST PUSH0 DUP3 PUSH1 0x1F DUP4 ADD SLT PUSH3 0x342 JUMPI PUSH3 0x341 PUSH3 0x1B7 JUMP JUMPDEST JUMPDEST DUP2 MLOAD PUSH3 0x354 DUP5 DUP3 PUSH1 0x20 DUP7 ADD PUSH3 0x2E1 JUMP JUMPDEST SWAP2 POP POP SWAP3 SWAP2 POP POP JUMP JUMPDEST PUSH0 PUSH3 0x373 PUSH3 0x36D DUP5 PUSH3 0x24C JUMP JUMPDEST PUSH3 0x22E JUMP JUMPDEST SWAP1 POP DUP1 DUP4 DUP3 MSTORE PUSH1 0x20 DUP3 ADD SWAP1 POP PUSH1 0x20 DUP5 MUL DUP4 ADD DUP6 DUP2 GT ISZERO PUSH3 0x399 JUMPI PUSH3 0x398 PUSH3 0x27A JUMP JUMPDEST JUMPDEST DUP4 JUMPDEST DUP2 DUP2 LT ISZERO PUSH3 0x3E7 JUMPI DUP1 MLOAD PUSH8 0xFFFFFFFFFFFFFFFF DUP2 GT ISZERO PUSH3 0x3C2 JUMPI PUSH3 0x3C1 PUSH3 0x1B7 JUMP JUMPDEST JUMPDEST DUP1 DUP7 ADD PUSH3 0x3D1 DUP10 DUP3 PUSH3 0x32B JUMP JUMPDEST DUP6 MSTORE PUSH1 0x20 DUP6 ADD SWAP5 POP POP POP PUSH1 0x20 DUP2 ADD SWAP1 POP PUSH3 0x39B JUMP JUMPDEST POP POP POP SWAP4 SWAP3 POP POP POP JUMP JUMPDEST PUSH0 DUP3 PUSH1 0x1F DUP4 ADD SLT PUSH3 0x408 JUMPI PUSH3 0x407 PUSH3 0x1B7 JUMP JUMPDEST JUMPDEST DUP2 MLOAD PUSH3 0x41A DUP5 DUP3 PUSH1 0x20 DUP7 ADD PUSH3 0x35D JUMP JUMPDEST SWAP2 POP POP SWAP3 SWAP2 POP POP JUMP JUMPDEST PUSH0 PUSH1 0x20 DUP3 DUP5 SUB SLT ISZERO PUSH3 0x43B JUMPI PUSH3 0x43A PUSH3 0x1AF JUMP JUMPDEST JUMPDEST PUSH0 DUP3 ADD MLOAD PUSH8 0xFFFFFFFFFFFFFFFF DUP2 GT ISZERO PUSH3 0x45B JUMPI PUSH3 0x45A PUSH3 0x1B3 JUMP JUMPDEST JUMPDEST PUSH3 0x469 DUP5 DUP3 DUP6 ADD PUSH3 0x3F1 JUMP JUMPDEST SWAP2 POP POP SWAP3 SWAP2 POP POP JUMP JUMPDEST PUSH32 0x4E487B7100000000000000000000000000000000000000000000000000000000 PUSH0 MSTORE PUSH1 0x21 PUSH1 0x4 MSTORE PUSH1 0x24 PUSH0 REVERT JUMPDEST PUSH0 DUP2 MLOAD SWAP1 POP SWAP2 SWAP1 POP JUMP JUMPDEST PUSH32 0x4E487B7100000000000000000000000000000000000000000000000000000000 PUSH0 MSTORE PUSH1 0x22 PUSH1 0x4 MSTORE PUSH1 0x24 PUSH0 REVERT JUMPDEST PUSH0 PUSH1 0x2 DUP3 DIV SWAP1 POP PUSH1 0x1 DUP3 AND DUP1 PUSH3 0x4EE JUMPI PUSH1 0x7F DUP3 AND SWAP2 POP JUMPDEST PUSH1 0x20 DUP3 LT DUP2 SUB PUSH3 0x504 JUMPI PUSH3 0x503 PUSH3 0x4A9 JUMP JUMPDEST JUMPDEST POP SWAP2 SWAP1 POP JUMP JUMPDEST PUSH0 DUP2 SWAP1 POP DUP2 PUSH0 MSTORE PUSH1 0x20 PUSH0 KECCAK256 SWAP1 POP SWAP2 SWAP1 POP JUMP JUMPDEST PUSH0 PUSH1 0x20 PUSH1 0x1F DUP4 ADD DIV SWAP1 POP SWAP2 SWAP1 POP JUMP JUMPDEST PUSH0 DUP3 DUP3 SHL SWAP1 POP SWAP3 SWAP2 POP POP JUMP JUMPDEST PUSH0 PUSH1 0x8 DUP4 MUL PUSH3 0x568 PUSH32 0xFFFFFFFFFFFFFFFFFFFFFFFFFFFFFFFFFFFFFFFFFFFFFFFFFFFFFFFFFFFFFFFF DUP3 PUSH3 0x52B JUMP JUMPDEST PUSH3 0x574 DUP7 DUP4 PUSH3 0x52B JUMP JUMPDEST SWAP6 POP DUP1 NOT DUP5 AND SWAP4 POP DUP1 DUP7 AND DUP5 OR SWAP3 POP POP POP SWAP4 SWAP3 POP POP POP JUMP JUMPDEST PUSH0 DUP2 SWAP1 POP SWAP2 SWAP1 POP JUMP JUMPDEST PUSH0 DUP2 SWAP1 POP SWAP2 SWAP1 POP JUMP JUMPDEST PUSH0 PUSH3 0x5BE PUSH3 0x5B8 PUSH3 0x5B2 DUP5 PUSH3 0x58C JUMP JUMPDEST PUSH3 0x595 JUMP JUMPDEST PUSH3 0x58C JUMP JUMPDEST SWAP1 POP SWAP2 SWAP1 POP JUMP JUMPDEST PUSH0 DUP2 SWAP1 POP SWAP2 SWAP1 POP JUMP JUMPDEST PUSH3 0x5D9 DUP4 PUSH3 0x59E JUMP JUMPDEST PUSH3 0x5F1 PUSH3 0x5E8 DUP3 PUSH3 0x5C5 JUMP JUMPDEST DUP5 DUP5 SLOAD PUSH3 0x537 JUMP JUMPDEST DUP3 SSTORE POP POP POP POP JUMP JUMPDEST PUSH0 SWAP1 JUMP JUMPDEST PUSH3 0x607 PUSH3 0x5F9 JUMP JUMPDEST PUSH3 0x614 DUP2 DUP5 DUP5 PUSH3 0x5CE JUMP JUMPDEST POP POP POP JUMP JUMPDEST JUMPDEST DUP2 DUP2 LT ISZERO PUSH3 0x63B JUMPI PUSH3 0x62F PUSH0 DUP3 PUSH3 0x5FD JUMP JUMPDEST PUSH1 0x1 DUP2 ADD SWAP1 POP PUSH3 0x61A JUMP JUMPDEST POP POP JUMP JUMPDEST PUSH1 0x1F DUP3 GT ISZERO PUSH3 0x68A JUMPI PUSH3 0x654 DUP2 PUSH3 0x50A JUMP JUMPDEST PUSH3 0x65F DUP5 PUSH3 0x51C JUMP JUMPDEST DUP2 ADD PUSH1 0x20 DUP6 LT ISZERO PUSH3 0x66F JUMPI DUP2 SWAP1 POP JUMPDEST PUSH3 0x687 PUSH3 0x67E DUP6 PUSH3 0x51C JUMP JUMPDEST DUP4 ADD DUP3 PUSH3 0x619 JUMP JUMPDEST POP POP JUMPDEST POP POP POP JUMP JUMPDEST PUSH0 DUP3 DUP3 SHR SWAP1 POP SWAP3 SWAP2 POP POP JUMP JUMPDEST PUSH0 PUSH3 0x6AC PUSH0 NOT DUP5 PUSH1 0x8 MUL PUSH3 0x68F JUMP JUMPDEST NOT DUP1 DUP4 AND SWAP2 POP POP SWAP3 SWAP2 POP POP JUMP JUMPDEST PUSH0 PUSH3 0x6C6 DUP4 DUP4 PUSH3 0x69B JUMP JUMPDEST SWAP2 POP DUP3 PUSH1 0x2 MUL DUP3 OR SWAP1 POP SWAP3 SWAP2 POP POP JUMP JUMPDEST PUSH3 0x6E1 DUP3 PUSH3 0x49F JUMP JUMPDEST PUSH8 0xFFFFFFFFFFFFFFFF DUP2 GT ISZERO PUSH3 0x6FD JUMPI PUSH3 0x6FC PUSH3 0x1CB JUMP JUMPDEST JUMPDEST PUSH3 0x709 DUP3 SLOAD PUSH3 0x4D6 JUMP JUMPDEST PUSH3 0x716 DUP3 DUP3 DUP6 PUSH3 0x63F JUMP JUMPDEST PUSH0 PUSH1 0x20 SWAP1 POP PUSH1 0x1F DUP4 GT PUSH1 0x1 DUP2 EQ PUSH3 0x74C JUMPI PUSH0 DUP5 ISZERO PUSH3 0x737 JUMPI DUP3 DUP8 ADD MLOAD SWAP1 POP JUMPDEST PUSH3 0x743 DUP6 DUP3 PUSH3 0x6B9 JUMP JUMPDEST DUP7 SSTORE POP PUSH3 0x7B2 JUMP JUMPDEST PUSH1 0x1F NOT DUP5 AND PUSH3 0x75C DUP7 PUSH3 0x50A JUMP JUMPDEST PUSH0 JUMPDEST DUP3 DUP2 LT ISZERO PUSH3 0x785 JUMPI DUP5 DUP10 ADD MLOAD DUP3 SSTORE PUSH1 0x1 DUP3 ADD SWAP2 POP PUSH1 0x20 DUP6 ADD SWAP5 POP PUSH1 0x20 DUP2 ADD SWAP1 POP PUSH3 0x75E JUMP JUMPDEST DUP7 DUP4 LT ISZERO PUSH3 0x7A5 JUMPI DUP5 DUP10 ADD MLOAD PUSH3 0x7A1 PUSH1 0x1F DUP10 AND DUP3 PUSH3 0x69B JUMP JUMPDEST DUP4 SSTORE POP JUMPDEST PUSH1 0x1 PUSH1 0x2 DUP9 MUL ADD DUP9 SSTORE POP POP POP JUMPDEST POP POP POP POP POP POP JUMP JUMPDEST PUSH2 0xCC4 DUP1 PUSH3 0x7C8 PUSH0 CODECOPY PUSH0 RETURN INVALID PUSH1 0x80 PUSH1 0x40 MSTORE CALLVALUE DUP1 ISZERO PUSH2 0xF JUMPI PUSH0 DUP1 REVERT JUMPDEST POP PUSH1 0x4 CALLDATASIZE LT PUSH2 0x9C JUMPI PUSH0 CALLDATALOAD PUSH1 0xE0 SHR DUP1 PUSH4 0xB9223946 GT PUSH2 0x64 JUMPI DUP1 PUSH4 0xB9223946 EQ PUSH2 0x158 JUMPI DUP1 PUSH4 0xC19D93FB EQ PUSH2 0x162 JUMPI DUP1 PUSH4 0xCBFF75CB EQ PUSH2 0x180 JUMPI DUP1 PUSH4 0xCF73A1BC EQ PUSH2 0x1B0 JUMPI DUP1 PUSH4 0xE89927EF EQ PUSH2 0x1CE JUMPI PUSH2 0x9C JUMP JUMPDEST DUP1 PUSH4 0x4A3BF377 EQ PUSH2 0xA0 JUMPI DUP1 PUSH4 0x4A9945E5 EQ PUSH2 0xD0 JUMPI DUP1 PUSH4 0x4C0A6AF0 EQ PUSH2 0x100 JUMPI DUP1 PUSH4 0xA9A981A3 EQ PUSH2 0x10A JUMPI DUP1 PUSH4 0xB13C744B EQ PUSH2 0x128 JUMPI JUMPDEST PUSH0 DUP1 REVERT JUMPDEST PUSH2 0xBA PUSH1 0x4 DUP1 CALLDATASIZE SUB DUP2 ADD SWAP1 PUSH2 0xB5 SWAP2 SWAP1 PUSH2 0x7DE JUMP JUMPDEST PUSH2 0x1EA JUMP JUMPDEST PUSH1 0x40 MLOAD PUSH2 0xC7 SWAP2 SWAP1 PUSH2 0x83D JUMP JUMPDEST PUSH1 0x40 MLOAD DUP1 SWAP2 SUB SWAP1 RETURN JUMPDEST PUSH2 0xEA PUSH1 0x4 DUP1 CALLDATASIZE SUB DUP2 ADD SWAP1 PUSH2 0xE5 SWAP2 SWAP1 PUSH2 0x7DE JUMP JUMPDEST PUSH2 0x288 JUMP JUMPDEST PUSH1 0x40 MLOAD PUSH2 0xF7 SWAP2 SWAP1 PUSH2 0x83D JUMP JUMPDEST PUSH1 0x40 MLOAD DUP1 SWAP2 SUB SWAP1 RETURN JUMPDEST PUSH2 0x108 PUSH2 0x2B5 JUMP JUMPDEST STOP JUMPDEST PUSH2 0x112 PUSH2 0x357 JUMP JUMPDEST PUSH1 0x40 MLOAD PUSH2 0x11F SWAP2 SWAP1 PUSH2 0x83D JUMP JUMPDEST PUSH1 0x40 MLOAD DUP1 SWAP2 SUB SWAP1 RETURN JUMPDEST PUSH2 0x142 PUSH1 0x4 DUP1 CALLDATASIZE SUB DUP2 ADD SWAP1 PUSH2 0x13D SWAP2 SWAP1 PUSH2 0x880 JUMP JUMPDEST PUSH2 0x363 JUMP JUMPDEST PUSH1 0x40 MLOAD PUSH2 0x14F SWAP2 SWAP1 PUSH2 0x925 JUMP JUMPDEST PUSH1 0x40 MLOAD DUP1 SWAP2 SUB SWAP1 RETURN JUMPDEST PUSH2 0x160 PUSH2 0x409 JUMP JUMPDEST STOP JUMPDEST PUSH2 0x16A PUSH2 0x4AC JUMP JUMPDEST PUSH1 0x40 MLOAD PUSH2 0x177 SWAP2 SWAP1 PUSH2 0x9B8 JUMP JUMPDEST PUSH1 0x40 MLOAD DUP1 SWAP2 SUB SWAP1 RETURN JUMPDEST PUSH2 0x19A PUSH1 0x4 DUP1 CALLDATASIZE SUB DUP2 ADD SWAP1 PUSH2 0x195 SWAP2 SWAP1 PUSH2 0xA2B JUMP JUMPDEST PUSH2 0x4BE JUMP JUMPDEST PUSH1 0x40 MLOAD PUSH2 0x1A7 SWAP2 SWAP1 PUSH2 0xA70 JUMP JUMPDEST PUSH1 0x40 MLOAD DUP1 SWAP2 SUB SWAP1 RETURN JUMPDEST PUSH2 0x1B8 PUSH2 0x4DB JUMP JUMPDEST PUSH1 0x40 MLOAD PUSH2 0x1C5 SWAP2 SWAP1 PUSH2 0xA98 JUMP JUMPDEST PUSH1 0x40 MLOAD DUP1 SWAP2 SUB SWAP1 RETURN JUMPDEST PUSH2 0x1E8 PUSH1 0x4 DUP1 CALLDATASIZE SUB DUP2 ADD SWAP1 PUSH2 0x1E3 SWAP2 SWAP1 PUSH2 0x7DE JUMP JUMPDEST PUSH2 0x4FE JUMP JUMPDEST STOP JUMPDEST PUSH0 PUSH1 0x2 DUP1 PUSH1 0x2 DUP2 GT ISZERO PUSH2 0x200 JUMPI PUSH2 0x1FF PUSH2 0x945 JUMP JUMPDEST JUMPDEST PUSH1 0x4 PUSH0 SWAP1 SLOAD SWAP1 PUSH2 0x100 EXP SWAP1 DIV PUSH1 0xFF AND PUSH1 0x2 DUP2 GT ISZERO PUSH2 0x221 JUMPI PUSH2 0x220 PUSH2 0x945 JUMP JUMPDEST JUMPDEST EQ PUSH2 0x261 JUMPI PUSH1 0x40 MLOAD PUSH32 0x8C379A000000000000000000000000000000000000000000000000000000000 DUP2 MSTORE PUSH1 0x4 ADD PUSH2 0x258 SWAP1 PUSH2 0xAFB JUMP JUMPDEST PUSH1 0x40 MLOAD DUP1 SWAP2 SUB SWAP1 REVERT JUMPDEST PUSH1 0x2 DUP4 PUSH1 0x40 MLOAD PUSH2 0x271 SWAP2 SWAP1 PUSH2 0xB53 JUMP JUMPDEST SWAP1 DUP2 MSTORE PUSH1 0x20 ADD PUSH1 0x40 MLOAD DUP1 SWAP2 SUB SWAP1 KECCAK256 SLOAD SWAP2 POP POP SWAP2 SWAP1 POP JUMP JUMPDEST PUSH1 0x2 DUP2 DUP1 MLOAD PUSH1 0x20 DUP2 ADD DUP3 ADD DUP1 MLOAD DUP5 DUP3 MSTORE PUSH1 0x20 DUP4 ADD PUSH1 0x20 DUP6 ADD KECCAK256 DUP2 DUP4 MSTORE DUP1 SWAP6 POP POP POP POP POP POP PUSH0 SWAP2 POP SWAP1 POP SLOAD DUP2 JUMP JUMPDEST PUSH0 DUP1 PUSH1 0x2 DUP2 GT ISZERO PUSH2 0x2C9 JUMPI PUSH2 0x2C8 PUSH2 0x945 JUMP JUMPDEST JUMPDEST PUSH1 0x4 PUSH0 SWAP1 SLOAD SWAP1 PUSH2 0x100 EXP SWAP1 DIV PUSH1 0xFF AND PUSH1 0x2 DUP2 GT ISZERO PUSH2 0x2EA JUMPI PUSH2 0x2E9 PUSH2 0x945 JUMP JUMPDEST JUMPDEST EQ PUSH2 0x32A JUMPI PUSH1 0x40 MLOAD PUSH32 0x8C379A000000000000000000000000000000000000000000000000000000000 DUP2 MSTORE PUSH1 0x4 ADD PUSH2 0x321 SWAP1 PUSH2 0xAFB JUMP JUMPDEST PUSH1 0x40 MLOAD DUP1 SWAP2 SUB SWAP1 REVERT JUMPDEST PUSH1 0x1 PUSH1 0x4 PUSH0 PUSH2 0x100 EXP DUP2 SLOAD DUP2 PUSH1 0xFF MUL NOT AND SWAP1 DUP4 PUSH1 0x2 DUP2 GT ISZERO PUSH2 0x34F JUMPI PUSH2 0x34E PUSH2 0x945 JUMP JUMPDEST JUMPDEST MUL OR SWAP1 SSTORE POP POP JUMP JUMPDEST PUSH0 PUSH1 0x1 DUP1 SLOAD SWAP1 POP SWAP1 POP SWAP1 JUMP JUMPDEST PUSH1 0x1 DUP2 DUP2 SLOAD DUP2 LT PUSH2 0x372 JUMPI PUSH0 DUP1 REVERT JUMPDEST SWAP1 PUSH0 MSTORE PUSH1 0x20 PUSH0 KECCAK256 ADD PUSH0 SWAP2 POP SWAP1 POP DUP1 SLOAD PUSH2 0x38A SWAP1 PUSH2 0xB96 JUMP JUMPDEST DUP1 PUSH1 0x1F ADD PUSH1 0x20 DUP1 SWAP2 DIV MUL PUSH1 0x20 ADD PUSH1 0x40 MLOAD SWAP1 DUP2 ADD PUSH1 0x40 MSTORE DUP1 SWAP3 SWAP2 SWAP1 DUP2 DUP2 MSTORE PUSH1 0x20 ADD DUP3 DUP1 SLOAD PUSH2 0x3B6 SWAP1 PUSH2 0xB96 JUMP JUMPDEST DUP1 ISZERO PUSH2 0x401 JUMPI DUP1 PUSH1 0x1F LT PUSH2 0x3D8 JUMPI PUSH2 0x100 DUP1 DUP4 SLOAD DIV MUL DUP4 MSTORE SWAP2 PUSH1 0x20 ADD SWAP2 PUSH2 0x401 JUMP JUMPDEST DUP3 ADD SWAP2 SWAP1 PUSH0 MSTORE PUSH1 0x20 PUSH0 KECCAK256 SWAP1 JUMPDEST DUP2 SLOAD DUP2 MSTORE SWAP1 PUSH1 0x1 ADD SWAP1 PUSH1 0x20 ADD DUP1 DUP4 GT PUSH2 0x3E4 JUMPI DUP3 SWAP1 SUB PUSH1 0x1F AND DUP3 ADD SWAP2 JUMPDEST POP POP POP POP POP DUP2 JUMP JUMPDEST PUSH1 0x1 DUP1 PUSH1 0x2 DUP2 GT ISZERO PUSH2 0x41E JUMPI PUSH2 0x41D PUSH2 0x945 JUMP JUMPDEST JUMPDEST PUSH1 0x4 PUSH0 SWAP1 SLOAD SWAP1 PUSH2 0x100 EXP SWAP1 DIV PUSH1 0xFF AND PUSH1 0x2 DUP2 GT ISZERO PUSH2 0x43F JUMPI PUSH2 0x43E PUSH2 0x945 JUMP JUMPDEST JUMPDEST EQ PUSH2 0x47F JUMPI PUSH1 0x40 MLOAD PUSH32 0x8C379A000000000000000000000000000000000000000000000000000000000 DUP2 MSTORE PUSH1 0x4 ADD PUSH2 0x476 SWAP1 PUSH2 0xAFB JUMP JUMPDEST PUSH1 0x40 MLOAD DUP1 SWAP2 SUB SWAP1 REVERT JUMPDEST PUSH1 0x2 PUSH1 0x4 PUSH0 PUSH2 0x100 EXP DUP2 SLOAD DUP2 PUSH1 0xFF MUL NOT AND SWAP1 DUP4 PUSH1 0x2 DUP2 GT ISZERO PUSH2 0x4A4 JUMPI PUSH2 0x4A3 PUSH2 0x945 JUMP JUMPDEST JUMPDEST MUL OR SWAP1 SSTORE POP POP JUMP JUMPDEST PUSH1 0x4 PUSH0 SWAP1 SLOAD SWAP1 PUSH2 0x100 EXP SWAP1 DIV PUSH1 0xFF AND DUP2 JUMP JUMPDEST PUSH1 0x3 PUSH1 0x20 MSTORE DUP1 PUSH0 MSTORE PUSH1 0x40 PUSH0 KECCAK256 PUSH0 SWAP2 POP SLOAD SWAP1 PUSH2 0x100 EXP SWAP1 DIV PUSH1 0xFF AND DUP2 JUMP JUMPDEST PUSH0 DUP1 SLOAD SWAP1 PUSH2 0x100 EXP SWAP1 DIV PUSH20 0xFFFFFFFFFFFFFFFFFFFFFFFFFFFFFFFFFFFFFFFF AND DUP2 JUMP JUMPDEST PUSH1 0x1 DUP1 PUSH1 0x2 DUP2 GT ISZERO PUSH2 0x513 JUMPI PUSH2 0x512 PUSH2 0x945 JUMP JUMPDEST JUMPDEST PUSH1 0x4 PUSH0 SWAP1 SLOAD SWAP1 PUSH2 0x100 EXP SWAP1 DIV PUSH1 0xFF AND PUSH1 0x2 DUP2 GT ISZERO PUSH2 0x534 JUMPI PUSH2 0x533 PUSH2 0x945 JUMP JUMPDEST JUMPDEST EQ PUSH2 0x574 JUMPI PUSH1 0x40 MLOAD PUSH32 0x8C379A000000000000000000000000000000000000000000000000000000000 DUP2 MSTORE PUSH1 0x4 ADD PUSH2 0x56B SWAP1 PUSH2 0xAFB JUMP JUMPDEST PUSH1 0x40 MLOAD DUP1 SWAP2 SUB SWAP1 REVERT JUMPDEST PUSH0 ISZERO ISZERO PUSH1 0x3 PUSH0 CALLER PUSH20 0xFFFFFFFFFFFFFFFFFFFFFFFFFFFFFFFFFFFFFFFF AND PUSH20 0xFFFFFFFFFFFFFFFFFFFFFFFFFFFFFFFFFFFFFFFF AND DUP2 MSTORE PUSH1 0x20 ADD SWAP1 DUP2 MSTORE PUSH1 0x20 ADD PUSH0 KECCAK256 PUSH0 SWAP1 SLOAD SWAP1 PUSH2 0x100 EXP SWAP1 DIV PUSH1 0xFF AND ISZERO ISZERO EQ PUSH2 0x603 JUMPI PUSH1 0x40 MLOAD PUSH32 0x8C379A000000000000000000000000000000000000000000000000000000000 DUP2 MSTORE PUSH1 0x4 ADD PUSH2 0x5FA SWAP1 PUSH2 0xC10 JUMP JUMPDEST PUSH1 0x40 MLOAD DUP1 SWAP2 SUB SWAP1 REVERT JUMPDEST PUSH1 0x1 PUSH1 0x3 PUSH0 CALLER PUSH20 0xFFFFFFFFFFFFFFFFFFFFFFFFFFFFFFFFFFFFFFFF AND PUSH20 0xFFFFFFFFFFFFFFFFFFFFFFFFFFFFFFFFFFFFFFFF AND DUP2 MSTORE PUSH1 0x20 ADD SWAP1 DUP2 MSTORE PUSH1 0x20 ADD PUSH0 KECCAK256 PUSH0 PUSH2 0x100 EXP DUP2 SLOAD DUP2 PUSH1 0xFF MUL NOT AND SWAP1 DUP4 ISZERO ISZERO MUL OR SWAP1 SSTORE POP PUSH1 0x1 PUSH1 0x2 DUP4 PUSH1 0x40 MLOAD PUSH2 0x66A SWAP2 SWAP1 PUSH2 0xB53 JUMP JUMPDEST SWAP1 DUP2 MSTORE PUSH1 0x20 ADD PUSH1 0x40 MLOAD DUP1 SWAP2 SUB SWAP1 KECCAK256 PUSH0 DUP3 DUP3 SLOAD PUSH2 0x686 SWAP2 SWAP1 PUSH2 0xC5B JUMP JUMPDEST SWAP3 POP POP DUP2 SWAP1 SSTORE POP POP POP JUMP JUMPDEST PUSH0 PUSH1 0x40 MLOAD SWAP1 POP SWAP1 JUMP JUMPDEST PUSH0 DUP1 REVERT JUMPDEST PUSH0 DUP1 REVERT JUMPDEST PUSH0 DUP1 REVERT JUMPDEST PUSH0 DUP1 REVERT JUMPDEST PUSH0 PUSH1 0x1F NOT PUSH1 0x1F DUP4 ADD AND SWAP1 POP SWAP2 SWAP1 POP JUMP JUMPDEST PUSH32 0x4E487B7100000000000000000000000000000000000000000000000000000000 PUSH0 MSTORE PUSH1 0x41 PUSH1 0x4 MSTORE PUSH1 0x24 PUSH0 REVERT JUMPDEST PUSH2 0x6F0 DUP3 PUSH2 0x6AA JUMP JUMPDEST DUP2 ADD DUP2 DUP2 LT PUSH8 0xFFFFFFFFFFFFFFFF DUP3 GT OR ISZERO PUSH2 0x70F JUMPI PUSH2 0x70E PUSH2 0x6BA JUMP JUMPDEST JUMPDEST DUP1 PUSH1 0x40 MSTORE POP POP POP JUMP JUMPDEST PUSH0 PUSH2 0x721 PUSH2 0x691 JUMP JUMPDEST SWAP1 POP PUSH2 0x72D DUP3 DUP3 PUSH2 0x6E7 JUMP JUMPDEST SWAP2 SWAP1 POP JUMP JUMPDEST PUSH0 PUSH8 0xFFFFFFFFFFFFFFFF DUP3 GT ISZERO PUSH2 0x74C JUMPI PUSH2 0x74B PUSH2 0x6BA JUMP JUMPDEST JUMPDEST PUSH2 0x755 DUP3 PUSH2 0x6AA JUMP JUMPDEST SWAP1 POP PUSH1 0x20 DUP2 ADD SWAP1 POP SWAP2 SWAP1 POP JUMP JUMPDEST DUP3 DUP2 DUP4 CALLDATACOPY PUSH0 DUP4 DUP4 ADD MSTORE POP POP POP JUMP JUMPDEST PUSH0 PUSH2 0x782 PUSH2 0x77D DUP5 PUSH2 0x732 JUMP JUMPDEST PUSH2 0x718 JUMP JUMPDEST SWAP1 POP DUP3 DUP2 MSTORE PUSH1 0x20 DUP2 ADD DUP5 DUP5 DUP5 ADD GT ISZERO PUSH2 0x79E JUMPI PUSH2 0x79D PUSH2 0x6A6 JUMP JUMPDEST JUMPDEST PUSH2 0x7A9 DUP5 DUP3 DUP6 PUSH2 0x762 JUMP JUMPDEST POP SWAP4 SWAP3 POP POP POP JUMP JUMPDEST PUSH0 DUP3 PUSH1 0x1F DUP4 ADD SLT PUSH2 0x7C5 JUMPI PUSH2 0x7C4 PUSH2 0x6A2 JUMP JUMPDEST JUMPDEST DUP2 CALLDATALOAD PUSH2 0x7D5 DUP5 DUP3 PUSH1 0x20 DUP7 ADD PUSH2 0x770 JUMP JUMPDEST SWAP2 POP POP SWAP3 SWAP2 POP POP JUMP JUMPDEST PUSH0 PUSH1 0x20 DUP3 DUP5 SUB SLT ISZERO PUSH2 0x7F3 JUMPI PUSH2 0x7F2 PUSH2 0x69A JUMP JUMPDEST JUMPDEST PUSH0 DUP3 ADD CALLDATALOAD PUSH8 0xFFFFFFFFFFFFFFFF DUP2 GT ISZERO PUSH2 0x810 JUMPI PUSH2 0x80F PUSH2 0x69E JUMP JUMPDEST JUMPDEST PUSH2 0x81C DUP5 DUP3 DUP6 ADD PUSH2 0x7B1 JUMP JUMPDEST SWAP2 POP POP SWAP3 SWAP2 POP POP JUMP JUMPDEST PUSH0 DUP2 SWAP1 POP SWAP2 SWAP1 POP JUMP JUMPDEST PUSH2 0x837 DUP2 PUSH2 0x825 JUMP JUMPDEST DUP3 MSTORE POP POP JUMP JUMPDEST PUSH0 PUSH1 0x20 DUP3 ADD SWAP1 POP PUSH2 0x850 PUSH0 DUP4 ADD DUP5 PUSH2 0x82E JUMP JUMPDEST SWAP3 SWAP2 POP POP JUMP JUMPDEST PUSH2 0x85F DUP2 PUSH2 0x825 JUMP JUMPDEST DUP2 EQ PUSH2 0x869 JUMPI PUSH0 DUP1 REVERT JUMPDEST POP JUMP JUMPDEST PUSH0 DUP2 CALLDATALOAD SWAP1 POP PUSH2 0x87A DUP2 PUSH2 0x856 JUMP JUMPDEST SWAP3 SWAP2 POP POP JUMP JUMPDEST PUSH0 PUSH1 0x20 DUP3 DUP5 SUB SLT ISZERO PUSH2 0x895 JUMPI PUSH2 0x894 PUSH2 0x69A JUMP JUMPDEST JUMPDEST PUSH0 PUSH2 0x8A2 DUP5 DUP3 DUP6 ADD PUSH2 0x86C JUMP JUMPDEST SWAP2 POP POP SWAP3 SWAP2 POP POP JUMP JUMPDEST PUSH0 DUP2 MLOAD SWAP1 POP SWAP2 SWAP1 POP JUMP JUMPDEST PUSH0 DUP3 DUP3 MSTORE PUSH1 0x20 DUP3 ADD SWAP1 POP SWAP3 SWAP2 POP POP JUMP JUMPDEST PUSH0 JUMPDEST DUP4 DUP2 LT ISZERO PUSH2 0x8E2 JUMPI DUP1 DUP3 ADD MLOAD DUP2 DUP5 ADD MSTORE PUSH1 0x20 DUP2 ADD SWAP1 POP PUSH2 0x8C7 JUMP JUMPDEST PUSH0 DUP5 DUP5 ADD MSTORE POP POP POP POP JUMP JUMPDEST PUSH0 PUSH2 0x8F7 DUP3 PUSH2 0x8AB JUMP JUMPDEST PUSH2 0x901 DUP2 DUP6 PUSH2 0x8B5 JUMP JUMPDEST SWAP4 POP PUSH2 0x911 DUP2 DUP6 PUSH1 0x20 DUP7 ADD PUSH2 0x8C5 JUMP JUMPDEST PUSH2 0x91A DUP2 PUSH2 0x6AA JUMP JUMPDEST DUP5 ADD SWAP2 POP POP SWAP3 SWAP2 POP POP JUMP JUMPDEST PUSH0 PUSH1 0x20 DUP3 ADD SWAP1 POP DUP2 DUP2 SUB PUSH0 DUP4 ADD MSTORE PUSH2 0x93D DUP2 DUP5 PUSH2 0x8ED JUMP JUMPDEST SWAP1 POP SWAP3 SWAP2 POP POP JUMP JUMPDEST PUSH32 0x4E487B7100000000000000000000000000000000000000000000000000000000 PUSH0 MSTORE PUSH1 0x21 PUSH1 0x4 MSTORE PUSH1 0x24 PUSH0 REVERT JUMPDEST PUSH1 0x3 DUP2 LT PUSH2 0x983 JUMPI PUSH2 0x982 PUSH2 0x945 JUMP JUMPDEST JUMPDEST POP JUMP JUMPDEST PUSH0 DUP2 SWAP1 POP PUSH2 0x993 DUP3 PUSH2 0x972 JUMP JUMPDEST SWAP2 SWAP1 POP JUMP JUMPDEST PUSH0 PUSH2 0x9A2 DUP3 PUSH2 0x986 JUMP JUMPDEST SWAP1 POP SWAP2 SWAP1 POP JUMP JUMPDEST PUSH2 0x9B2 DUP2 PUSH2 0x998 JUMP JUMPDEST DUP3 MSTORE POP POP JUMP JUMPDEST PUSH0 PUSH1 0x20 DUP3 ADD SWAP1 POP PUSH2 0x9CB PUSH0 DUP4 ADD DUP5 PUSH2 0x9A9 JUMP JUMPDEST SWAP3 SWAP2 POP POP JUMP JUMPDEST PUSH0 PUSH20 0xFFFFFFFFFFFFFFFFFFFFFFFFFFFFFFFFFFFFFFFF DUP3 AND SWAP1 POP SWAP2 SWAP1 POP JUMP JUMPDEST PUSH0 PUSH2 0x9FA DUP3 PUSH2 0x9D1 JUMP JUMPDEST SWAP1 POP SWAP2 SWAP1 POP JUMP JUMPDEST PUSH2 0xA0A DUP2 PUSH2 0x9F0 JUMP JUMPDEST DUP2 EQ PUSH2 0xA14 JUMPI PUSH0 DUP1 REVERT JUMPDEST POP JUMP JUMPDEST PUSH0 DUP2 CALLDATALOAD SWAP1 POP PUSH2 0xA25 DUP2 PUSH2 0xA01 JUMP JUMPDEST SWAP3 SWAP2 POP POP JUMP JUMPDEST PUSH0 PUSH1 0x20 DUP3 DUP5 SUB SLT ISZERO PUSH2 0xA40 JUMPI PUSH2 0xA3F PUSH2 0x69A JUMP JUMPDEST JUMPDEST PUSH0 PUSH2 0xA4D DUP5 DUP3 DUP6 ADD PUSH2 0xA17 JUMP JUMPDEST SWAP2 POP POP SWAP3 SWAP2 POP POP JUMP JUMPDEST PUSH0 DUP2 ISZERO ISZERO SWAP1 POP SWAP2 SWAP1 POP JUMP JUMPDEST PUSH2 0xA6A DUP2 PUSH2 0xA56 JUMP JUMPDEST DUP3 MSTORE POP POP JUMP JUMPDEST PUSH0 PUSH1 0x20 DUP3 ADD SWAP1 POP PUSH2 0xA83 PUSH0 DUP4 ADD DUP5 PUSH2 0xA61 JUMP JUMPDEST SWAP3 SWAP2 POP POP JUMP JUMPDEST PUSH2 0xA92 DUP2 PUSH2 0x9F0 JUMP JUMPDEST DUP3 MSTORE POP POP JUMP JUMPDEST PUSH0 PUSH1 0x20 DUP3 ADD SWAP1 POP PUSH2 0xAAB PUSH0 DUP4 ADD DUP5 PUSH2 0xA89 JUMP JUMPDEST SWAP3 SWAP2 POP POP JUMP JUMPDEST PUSH32 0x496E76616C696420737461746500000000000000000000000000000000000000 PUSH0 DUP3 ADD MSTORE POP JUMP JUMPDEST PUSH0 PUSH2 0xAE5 PUSH1 0xD DUP4 PUSH2 0x8B5 JUMP JUMPDEST SWAP2 POP PUSH2 0xAF0 DUP3 PUSH2 0xAB1 JUMP JUMPDEST PUSH1 0x20 DUP3 ADD SWAP1 POP SWAP2 SWAP1 POP JUMP JUMPDEST PUSH0 PUSH1 0x20 DUP3 ADD SWAP1 POP DUP2 DUP2 SUB PUSH0 DUP4 ADD MSTORE PUSH2 0xB12 DUP2 PUSH2 0xAD9 JUMP JUMPDEST SWAP1 POP SWAP2 SWAP1 POP JUMP JUMPDEST PUSH0 DUP2 SWAP1 POP SWAP3 SWAP2 POP POP JUMP JUMPDEST PUSH0 PUSH2 0xB2D DUP3 PUSH2 0x8AB JUMP JUMPDEST PUSH2 0xB37 DUP2 DUP6 PUSH2 0xB19 JUMP JUMPDEST SWAP4 POP PUSH2 0xB47 DUP2 DUP6 PUSH1 0x20 DUP7 ADD PUSH2 0x8C5 JUMP JUMPDEST DUP1 DUP5 ADD SWAP2 POP POP SWAP3 SWAP2 POP POP JUMP JUMPDEST PUSH0 PUSH2 0xB5E DUP3 DUP5 PUSH2 0xB23 JUMP JUMPDEST SWAP2 POP DUP2 SWAP1 POP SWAP3 SWAP2 POP POP JUMP JUMPDEST PUSH32 0x4E487B7100000000000000000000000000000000000000000000000000000000 PUSH0 MSTORE PUSH1 0x22 PUSH1 0x4 MSTORE PUSH1 0x24 PUSH0 REVERT JUMPDEST PUSH0 PUSH1 0x2 DUP3 DIV SWAP1 POP PUSH1 0x1 DUP3 AND DUP1 PUSH2 0xBAD JUMPI PUSH1 0x7F DUP3 AND SWAP2 POP JUMPDEST PUSH1 0x20 DUP3 LT DUP2 SUB PUSH2 0xBC0 JUMPI PUSH2 0xBBF PUSH2 0xB69 JUMP JUMPDEST JUMPDEST POP SWAP2 SWAP1 POP JUMP JUMPDEST PUSH32 0x416C726561647920566F74656400000000000000000000000000000000000000 PUSH0 DUP3 ADD MSTORE POP JUMP JUMPDEST PUSH0 PUSH2 0xBFA PUSH1 0xD DUP4 PUSH2 0x8B5 JUMP JUMPDEST SWAP2 POP PUSH2 0xC05 DUP3 PUSH2 0xBC6 JUMP JUMPDEST PUSH1 0x20 DUP3 ADD SWAP1 POP SWAP2 SWAP1 POP JUMP JUMPDEST PUSH0 PUSH1 0x20 DUP3 ADD SWAP1 POP DUP2 DUP2 SUB PUSH0 DUP4 ADD MSTORE PUSH2 0xC27 DUP2 PUSH2 0xBEE JUMP JUMPDEST SWAP1 POP SWAP2 SWAP1 POP JUMP JUMPDEST PUSH32 0x4E487B7100000000000000000000000000000000000000000000000000000000 PUSH0 MSTORE PUSH1 0x11 PUSH1 0x4 MSTORE PUSH1 0x24 PUSH0 REVERT JUMPDEST PUSH0 PUSH2 0xC65 DUP3 PUSH2 0x825 JUMP JUMPDEST SWAP2 POP PUSH2 0xC70 DUP4 PUSH2 0x825 JUMP JUMPDEST SWAP3 POP DUP3 DUP3 ADD SWAP1 POP DUP1 DUP3 GT ISZERO PUSH2 0xC88 JUMPI PUSH2 0xC87 PUSH2 0xC2E JUMP JUMPDEST JUMPDEST SWAP3 SWAP2 POP POP JUMP INVALID LOG2 PUSH5 0x6970667358 0x22 SLT KECCAK256 AND 0xCE EXTCODESIZE 0xC6 PUSH30 0x8B956A7F5F9F594AC4FA07C77BA588050A2D923EDCB3E853685CC964736F PUSH13 0x63430008150033000000000000 "
				},
				"gasEstimates": {
					"creation": {
						"codeDepositCost": "653600",
						"executionCost": "infinite",
						"totalCost": "infinite"
					},
					"external": {
						"candidateCount()": "2507",
						"candidateList(uint256)": "infinite",
						"endVote()": "26644",
						"isVoted(address)": "2877",
						"managerAddress()": "2571",
						"startVote()": "26688",
						"state()": "2576",
						"totalVotesFor(string)": "infinite",
						"voteForCandidate(string)": "infinite",
						"votesScores(string)": "infinite"
					}
				},
				"methodIdentifiers": {
					"candidateCount()": "a9a981a3",
					"candidateList(uint256)": "b13c744b",
					"endVote()": "b9223946",
					"isVoted(address)": "cbff75cb",
					"managerAddress()": "cf73a1bc",
					"startVote()": "4c0a6af0",
					"state()": "c19d93fb",
					"totalVotesFor(string)": "4a3bf377",
					"voteForCandidate(string)": "e89927ef",
					"votesScores(string)": "4a9945e5"
				}
			},
			"storageLayout": {
				"storage": [
					{
						"astId": 3,
						"contract": "contracts/TestVoting0.sol:TestVoting",
						"label": "managerAddress",
						"offset": 0,
						"slot": "0",
						"type": "t_address"
					},
					{
						"astId": 6,
						"contract": "contracts/TestVoting0.sol:TestVoting",
						"label": "candidateList",
						"offset": 0,
						"slot": "1",
						"type": "t_array(t_string_storage)dyn_storage"
					},
					{
						"astId": 10,
						"contract": "contracts/TestVoting0.sol:TestVoting",
						"label": "votesScores",
						"offset": 0,
						"slot": "2",
						"type": "t_mapping(t_string_memory_ptr,t_uint256)"
					},
					{
						"astId": 14,
						"contract": "contracts/TestVoting0.sol:TestVoting",
						"label": "isVoted",
						"offset": 0,
						"slot": "3",
						"type": "t_mapping(t_address,t_bool)"
					},
					{
						"astId": 21,
						"contract": "contracts/TestVoting0.sol:TestVoting",
						"label": "state",
						"offset": 0,
						"slot": "4",
						"type": "t_enum(State)18"
					}
				],
				"types": {
					"t_address": {
						"encoding": "inplace",
						"label": "address",
						"numberOfBytes": "20"
					},
					"t_array(t_string_storage)dyn_storage": {
						"base": "t_string_storage",
						"encoding": "dynamic_array",
						"label": "string[]",
						"numberOfBytes": "32"
					},
					"t_bool": {
						"encoding": "inplace",
						"label": "bool",
						"numberOfBytes": "1"
					},
					"t_enum(State)18": {
						"encoding": "inplace",
						"label": "enum TestVoting.State",
						"numberOfBytes": "1"
					},
					"t_mapping(t_address,t_bool)": {
						"encoding": "mapping",
						"key": "t_address",
						"label": "mapping(address => bool)",
						"numberOfBytes": "32",
						"value": "t_bool"
					},
					"t_mapping(t_string_memory_ptr,t_uint256)": {
						"encoding": "mapping",
						"key": "t_string_memory_ptr",
						"label": "mapping(string => uint256)",
						"numberOfBytes": "32",
						"value": "t_uint256"
					},
					"t_string_memory_ptr": {
						"encoding": "bytes",
						"label": "string",
						"numberOfBytes": "32"
					},
					"t_string_storage": {
						"encoding": "bytes",
						"label": "string",
						"numberOfBytes": "32"
					},
					"t_uint256": {
						"encoding": "inplace",
						"label": "uint256",
						"numberOfBytes": "32"
					}
				}
			},
			"userdoc": {
				"kind": "user",
				"methods": {},
				"version": 1
			}
		}
	}
}